{
  "_format": "hh3-artifact-1",
  "contractName": "CrossChainReceiver",
  "sourceName": "contracts/CrossChainReceiver.sol",
  "abi": [
    {
      "inputs": [
        {
          "internalType": "address",
          "name": "trustedRelayer_",
          "type": "address"
        },
        {
          "internalType": "address",
          "name": "trustedHubDispatcher_",
          "type": "address"
        }
      ],
      "stateMutability": "nonpayable",
      "type": "constructor"
    },
    {
      "inputs": [],
      "name": "OnlyRelayer",
      "type": "error"
    },
    {
      "inputs": [],
      "name": "ReplayDetected",
      "type": "error"
    },
    {
      "inputs": [
        {
          "internalType": "bytes",
          "name": "reason",
          "type": "bytes"
        }
      ],
      "name": "TargetCallFailed",
      "type": "error"
    },
    {
      "inputs": [],
      "name": "UntrustedHubDispatcher",
      "type": "error"
    },
    {
      "anonymous": false,
      "inputs": [
        {
          "indexed": true,
          "internalType": "address",
          "name": "dispatcher",
          "type": "address"
        },
        {
          "indexed": true,
          "internalType": "address",
          "name": "target",
          "type": "address"
        },
        {
          "indexed": true,
          "internalType": "bytes32",
          "name": "requestId",
          "type": "bytes32"
        },
        {
          "indexed": false,
          "internalType": "uint256",
          "name": "value",
          "type": "uint256"
        }
      ],
      "name": "CrossChainCallExecuted",
      "type": "event"
    },
    {
      "inputs": [
        {
          "internalType": "bytes32",
          "name": "requestId",
          "type": "bytes32"
        }
      ],
      "name": "executedRequests",
      "outputs": [
        {
          "internalType": "bool",
          "name": "executed",
          "type": "bool"
        }
      ],
      "stateMutability": "view",
      "type": "function"
    },
    {
      "inputs": [
        {
          "internalType": "address",
          "name": "hubDispatcher",
          "type": "address"
        },
        {
          "internalType": "address",
          "name": "target",
          "type": "address"
        },
        {
          "internalType": "uint256",
          "name": "value",
          "type": "uint256"
        },
        {
          "internalType": "bytes",
          "name": "callData",
          "type": "bytes"
        },
        {
          "internalType": "bytes32",
          "name": "requestId",
          "type": "bytes32"
        }
      ],
      "name": "receiveCrossChainCall",
      "outputs": [
        {
          "internalType": "bytes",
          "name": "result",
          "type": "bytes"
        }
      ],
      "stateMutability": "nonpayable",
      "type": "function"
    },
    {
      "inputs": [],
      "name": "trustedHubDispatcher",
      "outputs": [
        {
          "internalType": "address",
          "name": "",
          "type": "address"
        }
      ],
      "stateMutability": "view",
      "type": "function"
    },
    {
      "inputs": [],
      "name": "trustedRelayer",
      "outputs": [
        {
          "internalType": "address",
          "name": "",
          "type": "address"
        }
      ],
      "stateMutability": "view",
      "type": "function"
    }
  ],
  "bytecode": "0x60c060405234801561000f575f5ffd5b506040516108ed3803806108ed833981810160405281019061003191906100fe565b8173ffffffffffffffffffffffffffffffffffffffff1660808173ffffffffffffffffffffffffffffffffffffffff16815250508073ffffffffffffffffffffffffffffffffffffffff1660a08173ffffffffffffffffffffffffffffffffffffffff1681525050505061013c565b5f5ffd5b5f73ffffffffffffffffffffffffffffffffffffffff82169050919050565b5f6100cd826100a4565b9050919050565b6100dd816100c3565b81146100e7575f5ffd5b50565b5f815190506100f8816100d4565b92915050565b5f5f60408385031215610114576101136100a0565b5b5f610121858286016100ea565b9250506020610132858286016100ea565b9150509250929050565b60805160a05161078261016b5f395f81816101b301526103d901525f8181610108015261012e01526107825ff3fe608060405234801561000f575f5ffd5b506004361061004a575f3560e01c806349b1f3681461004e5780638596c2261461007e57806386249f121461009c578063bb25827b146100cc575b5f5ffd5b61006860048036038101906100639190610436565b6100ea565b604051610075919061047b565b60405180910390f35b610086610106565b60405161009391906104d3565b60405180910390f35b6100b660048036038101906100b191906105aa565b61012a565b6040516100c391906106b0565b60405180910390f35b6100d46103d7565b6040516100e191906104d3565b60405180910390f35b5f602052805f5260405f205f915054906101000a900460ff1681565b7f000000000000000000000000000000000000000000000000000000000000000081565b60607f000000000000000000000000000000000000000000000000000000000000000073ffffffffffffffffffffffffffffffffffffffff163373ffffffffffffffffffffffffffffffffffffffff16146101b1576040517f4578ddb800000000000000000000000000000000000000000000000000000000815260040160405180910390fd5b7f000000000000000000000000000000000000000000000000000000000000000073ffffffffffffffffffffffffffffffffffffffff168773ffffffffffffffffffffffffffffffffffffffff1614610236576040517fa4e871ed00000000000000000000000000000000000000000000000000000000815260040160405180910390fd5b5f5f8381526020019081526020015f205f9054906101000a900460ff161561028a576040517ffaf8ed4f00000000000000000000000000000000000000000000000000000000815260040160405180910390fd5b60015f5f8481526020019081526020015f205f6101000a81548160ff0219169083151502179055505f5f8773ffffffffffffffffffffffffffffffffffffffff168787876040516102dc92919061070c565b5f6040518083038185875af1925050503d805f8114610316576040519150601f19603f3d011682016040523d82523d5f602084013e61031b565b606091505b50915091508161036257806040517fa932c97a00000000000000000000000000000000000000000000000000000000815260040161035991906106b0565b60405180910390fd5b838873ffffffffffffffffffffffffffffffffffffffff168a73ffffffffffffffffffffffffffffffffffffffff167fd2d49e06e9dde6d337841e81d930f51d0602cb3e812cbb164407cc63dc1136928a6040516103c09190610733565b60405180910390a480925050509695505050505050565b7f000000000000000000000000000000000000000000000000000000000000000081565b5f5ffd5b5f5ffd5b5f819050919050565b61041581610403565b811461041f575f5ffd5b50565b5f813590506104308161040c565b92915050565b5f6020828403121561044b5761044a6103fb565b5b5f61045884828501610422565b91505092915050565b5f8115159050919050565b61047581610461565b82525050565b5f60208201905061048e5f83018461046c565b92915050565b5f73ffffffffffffffffffffffffffffffffffffffff82169050919050565b5f6104bd82610494565b9050919050565b6104cd816104b3565b82525050565b5f6020820190506104e65f8301846104c4565b92915050565b6104f5816104b3565b81146104ff575f5ffd5b50565b5f81359050610510816104ec565b92915050565b5f819050919050565b61052881610516565b8114610532575f5ffd5b50565b5f813590506105438161051f565b92915050565b5f5ffd5b5f5ffd5b5f5ffd5b5f5f83601f84011261056a57610569610549565b5b8235905067ffffffffffffffff8111156105875761058661054d565b5b6020830191508360018202830111156105a3576105a2610551565b5b9250929050565b5f5f5f5f5f5f60a087890312156105c4576105c36103fb565b5b5f6105d189828a01610502565b96505060206105e289828a01610502565b95505060406105f389828a01610535565b945050606087013567ffffffffffffffff811115610614576106136103ff565b5b61062089828a01610555565b9350935050608061063389828a01610422565b9150509295509295509295565b5f81519050919050565b5f82825260208201905092915050565b8281835e5f83830152505050565b5f601f19601f8301169050919050565b5f61068282610640565b61068c818561064a565b935061069c81856020860161065a565b6106a581610668565b840191505092915050565b5f6020820190508181035f8301526106c88184610678565b905092915050565b5f81905092915050565b828183375f83830152505050565b5f6106f383856106d0565b93506107008385846106da565b82840190509392505050565b5f6107188284866106e8565b91508190509392505050565b61072d81610516565b82525050565b5f6020820190506107465f830184610724565b9291505056fea26469706673582212205d46d4d7ecda1a850c79ffe9ead4966289b3b3b37a2b8499d2d6b24158e9014a64736f6c63430008220033",
  "linkReferences": {},
  "deployedLinkReferences": {},
  "immutableReferences": {
    "1076": [
      {
        "length": 32,
        "start": 264
      },
      {
        "length": 32,
        "start": 302
      }
    ],
    "1078": [
      {
        "length": 32,
        "start": 435
      },
      {
        "length": 32,
        "start": 985
      }
    ]
  },
  "inputSourceName": "project/contracts/CrossChainReceiver.sol",
  "buildInfoId": "solc-0_8_28-3a8fffffd933ec67789d9195910f5421b65f75ae"
}