{
  "_format": "hh3-artifact-1",
  "contractName": "CrossChainDispatcher",
  "sourceName": "contracts/CrossChainDispatcher.sol",
  "abi": [
    {
      "inputs": [
        {
          "internalType": "address",
          "name": "owner_",
          "type": "address"
        },
        {
          "internalType": "address",
          "name": "xcmPrecompileAddress",
          "type": "address"
        },
        {
          "internalType": "uint256",
          "name": "destinationChainId_",
          "type": "uint256"
        },
        {
          "internalType": "bytes",
          "name": "destination_",
          "type": "bytes"
        }
      ],
      "stateMutability": "nonpayable",
      "type": "constructor"
    },
    {
      "inputs": [],
      "name": "EmptyEncodedMessage",
      "type": "error"
    },
    {
      "inputs": [],
      "name": "MessageVersionUnset",
      "type": "error"
    },
    {
      "inputs": [],
      "name": "NotOwner",
      "type": "error"
    },
    {
      "inputs": [],
      "name": "UnsupportedDestination",
      "type": "error"
    },
    {
      "inputs": [],
      "name": "UnsupportedReceiver",
      "type": "error"
    },
    {
      "anonymous": false,
      "inputs": [
        {
          "indexed": true,
          "internalType": "uint256",
          "name": "destinationChainId",
          "type": "uint256"
        },
        {
          "indexed": true,
          "internalType": "address",
          "name": "receiver",
          "type": "address"
        },
        {
          "indexed": true,
          "internalType": "address",
          "name": "target",
          "type": "address"
        },
        {
          "indexed": false,
          "internalType": "bytes32",
          "name": "requestId",
          "type": "bytes32"
        },
        {
          "indexed": false,
          "internalType": "bytes",
          "name": "message",
          "type": "bytes"
        }
      ],
      "name": "CrossChainDispatchQueued",
      "type": "event"
    },
    {
      "anonymous": false,
      "inputs": [
        {
          "indexed": false,
          "internalType": "bytes",
          "name": "destination",
          "type": "bytes"
        }
      ],
      "name": "DestinationUpdated",
      "type": "event"
    },
    {
      "anonymous": false,
      "inputs": [
        {
          "indexed": false,
          "internalType": "bytes",
          "name": "messagePrefix",
          "type": "bytes"
        }
      ],
      "name": "MessagePrefixUpdated",
      "type": "event"
    },
    {
      "anonymous": false,
      "inputs": [
        {
          "indexed": true,
          "internalType": "address",
          "name": "target",
          "type": "address"
        },
        {
          "indexed": true,
          "internalType": "bytes32",
          "name": "requestId",
          "type": "bytes32"
        },
        {
          "indexed": false,
          "internalType": "bytes",
          "name": "destination",
          "type": "bytes"
        },
        {
          "indexed": false,
          "internalType": "bytes",
          "name": "message",
          "type": "bytes"
        }
      ],
      "name": "RawXcmDispatched",
      "type": "event"
    },
    {
      "anonymous": false,
      "inputs": [
        {
          "indexed": true,
          "internalType": "bytes32",
          "name": "requestId",
          "type": "bytes32"
        },
        {
          "indexed": false,
          "internalType": "bytes",
          "name": "message",
          "type": "bytes"
        },
        {
          "indexed": false,
          "internalType": "uint64",
          "name": "refTime",
          "type": "uint64"
        },
        {
          "indexed": false,
          "internalType": "uint64",
          "name": "proofSize",
          "type": "uint64"
        }
      ],
      "name": "RawXcmExecuted",
      "type": "event"
    },
    {
      "anonymous": false,
      "inputs": [
        {
          "indexed": true,
          "internalType": "address",
          "name": "receiver",
          "type": "address"
        },
        {
          "indexed": false,
          "internalType": "bool",
          "name": "allowed",
          "type": "bool"
        }
      ],
      "name": "ReceiverAllowed",
      "type": "event"
    },
    {
      "inputs": [
        {
          "internalType": "address",
          "name": "receiver",
          "type": "address"
        }
      ],
      "name": "allowedReceivers",
      "outputs": [
        {
          "internalType": "bool",
          "name": "allowed",
          "type": "bool"
        }
      ],
      "stateMutability": "view",
      "type": "function"
    },
    {
      "inputs": [],
      "name": "destination",
      "outputs": [
        {
          "internalType": "bytes",
          "name": "",
          "type": "bytes"
        }
      ],
      "stateMutability": "view",
      "type": "function"
    },
    {
      "inputs": [
        {
          "internalType": "address",
          "name": "target",
          "type": "address"
        },
        {
          "internalType": "bytes32",
          "name": "requestId",
          "type": "bytes32"
        },
        {
          "internalType": "bytes",
          "name": "encodedMessage",
          "type": "bytes"
        }
      ],
      "name": "dispatchEncodedMessage",
      "outputs": [],
      "stateMutability": "nonpayable",
      "type": "function"
    },
    {
      "inputs": [
        {
          "components": [
            {
              "internalType": "uint256",
              "name": "destinationChainId",
              "type": "uint256"
            },
            {
              "internalType": "address",
              "name": "receiver",
              "type": "address"
            },
            {
              "internalType": "address",
              "name": "target",
              "type": "address"
            },
            {
              "internalType": "uint256",
              "name": "value",
              "type": "uint256"
            },
            {
              "internalType": "bytes",
              "name": "callData",
              "type": "bytes"
            },
            {
              "internalType": "bytes32",
              "name": "requestId",
              "type": "bytes32"
            }
          ],
          "internalType": "struct CrossChainDispatcher.RemoteCall",
          "name": "remoteCall",
          "type": "tuple"
        }
      ],
      "name": "dispatchRemoteCall",
      "outputs": [],
      "stateMutability": "nonpayable",
      "type": "function"
    },
    {
      "inputs": [
        {
          "components": [
            {
              "internalType": "uint256",
              "name": "destinationChainId",
              "type": "uint256"
            },
            {
              "internalType": "address",
              "name": "receiver",
              "type": "address"
            },
            {
              "internalType": "address",
              "name": "target",
              "type": "address"
            },
            {
              "internalType": "uint256",
              "name": "value",
              "type": "uint256"
            },
            {
              "internalType": "bytes",
              "name": "callData",
              "type": "bytes"
            },
            {
              "internalType": "bytes32",
              "name": "requestId",
              "type": "bytes32"
            }
          ],
          "internalType": "struct CrossChainDispatcher.RemoteCall",
          "name": "remoteCall",
          "type": "tuple"
        }
      ],
      "name": "estimateDispatchWeight",
      "outputs": [
        {
          "components": [
            {
              "internalType": "uint64",
              "name": "refTime",
              "type": "uint64"
            },
            {
              "internalType": "uint64",
              "name": "proofSize",
              "type": "uint64"
            }
          ],
          "internalType": "struct IXcm.Weight",
          "name": "",
          "type": "tuple"
        }
      ],
      "stateMutability": "view",
      "type": "function"
    },
    {
      "inputs": [
        {
          "internalType": "bytes",
          "name": "message",
          "type": "bytes"
        }
      ],
      "name": "estimateEncodedMessageWeight",
      "outputs": [
        {
          "components": [
            {
              "internalType": "uint64",
              "name": "refTime",
              "type": "uint64"
            },
            {
              "internalType": "uint64",
              "name": "proofSize",
              "type": "uint64"
            }
          ],
          "internalType": "struct IXcm.Weight",
          "name": "",
          "type": "tuple"
        }
      ],
      "stateMutability": "view",
      "type": "function"
    },
    {
      "inputs": [
        {
          "internalType": "bytes32",
          "name": "requestId",
          "type": "bytes32"
        },
        {
          "internalType": "bytes",
          "name": "encodedMessage",
          "type": "bytes"
        },
        {
          "components": [
            {
              "internalType": "uint64",
              "name": "refTime",
              "type": "uint64"
            },
            {
              "internalType": "uint64",
              "name": "proofSize",
              "type": "uint64"
            }
          ],
          "internalType": "struct IXcm.Weight",
          "name": "weight",
          "type": "tuple"
        }
      ],
      "name": "executeEncodedMessage",
      "outputs": [],
      "stateMutability": "nonpayable",
      "type": "function"
    },
    {
      "inputs": [],
      "name": "messagePrefix",
      "outputs": [
        {
          "internalType": "bytes",
          "name": "",
          "type": "bytes"
        }
      ],
      "stateMutability": "view",
      "type": "function"
    },
    {
      "inputs": [],
      "name": "owner",
      "outputs": [
        {
          "internalType": "address",
          "name": "",
          "type": "address"
        }
      ],
      "stateMutability": "view",
      "type": "function"
    },
    {
      "inputs": [
        {
          "internalType": "address",
          "name": "receiver",
          "type": "address"
        },
        {
          "internalType": "bool",
          "name": "allowed",
          "type": "bool"
        }
      ],
      "name": "setAllowedReceiver",
      "outputs": [],
      "stateMutability": "nonpayable",
      "type": "function"
    },
    {
      "inputs": [
        {
          "internalType": "bytes",
          "name": "destination_",
          "type": "bytes"
        }
      ],
      "name": "setDestination",
      "outputs": [],
      "stateMutability": "nonpayable",
      "type": "function"
    },
    {
      "inputs": [
        {
          "internalType": "bytes",
          "name": "messagePrefix_",
          "type": "bytes"
        }
      ],
      "name": "setMessagePrefix",
      "outputs": [],
      "stateMutability": "nonpayable",
      "type": "function"
    },
    {
      "inputs": [],
      "name": "supportedDestinationChainId",
      "outputs": [
        {
          "internalType": "uint256",
          "name": "",
          "type": "uint256"
        }
      ],
      "stateMutability": "view",
      "type": "function"
    },
    {
      "inputs": [],
      "name": "xcm",
      "outputs": [
        {
          "internalType": "contract IXcm",
          "name": "",
          "type": "address"
        }
      ],
      "stateMutability": "view",
      "type": "function"
    },
    {
      "stateMutability": "payable",
      "type": "receive"
    }
  ],
  "bytecode": "0x60e060405234801561000f575f5ffd5b506040516124d23803806124d283398181016040528101906100319190610293565b8373ffffffffffffffffffffffffffffffffffffffff1660808173ffffffffffffffffffffffffffffffffffffffff16815250508273ffffffffffffffffffffffffffffffffffffffff1660a08173ffffffffffffffffffffffffffffffffffffffff16815250508160c08181525050805f90816100af919061052b565b50505050506105fa565b5f604051905090565b5f5ffd5b5f5ffd5b5f73ffffffffffffffffffffffffffffffffffffffff82169050919050565b5f6100f3826100ca565b9050919050565b610103816100e9565b811461010d575f5ffd5b50565b5f8151905061011e816100fa565b92915050565b5f819050919050565b61013681610124565b8114610140575f5ffd5b50565b5f815190506101518161012d565b92915050565b5f5ffd5b5f5ffd5b5f601f19601f8301169050919050565b7f4e487b71000000000000000000000000000000000000000000000000000000005f52604160045260245ffd5b6101a58261015f565b810181811067ffffffffffffffff821117156101c4576101c361016f565b5b80604052505050565b5f6101d66100b9565b90506101e2828261019c565b919050565b5f67ffffffffffffffff8211156102015761020061016f565b5b61020a8261015f565b9050602081019050919050565b8281835e5f83830152505050565b5f610237610232846101e7565b6101cd565b9050828152602081018484840111156102535761025261015b565b5b61025e848285610217565b509392505050565b5f82601f83011261027a57610279610157565b5b815161028a848260208601610225565b91505092915050565b5f5f5f5f608085870312156102ab576102aa6100c2565b5b5f6102b887828801610110565b94505060206102c987828801610110565b93505060406102da87828801610143565b925050606085015167ffffffffffffffff8111156102fb576102fa6100c6565b5b61030787828801610266565b91505092959194509250565b5f81519050919050565b7f4e487b71000000000000000000000000000000000000000000000000000000005f52602260045260245ffd5b5f600282049050600182168061036157607f821691505b6020821081036103745761037361031d565b5b50919050565b5f819050815f5260205f209050919050565b5f6020601f8301049050919050565b5f82821b905092915050565b5f600883026103d67fffffffffffffffffffffffffffffffffffffffffffffffffffffffffffffffff8261039b565b6103e0868361039b565b95508019841693508086168417925050509392505050565b5f819050919050565b5f61041b61041661041184610124565b6103f8565b610124565b9050919050565b5f819050919050565b61043483610401565b61044861044082610422565b8484546103a7565b825550505050565b5f5f905090565b61045f610450565b61046a81848461042b565b505050565b5f5b82811015610490576104855f828401610457565b600181019050610471565b505050565b601f8211156104e357828211156104e2576104af8161037a565b6104b88361038c565b6104c18561038c565b60208610156104ce575f90505b8083016104dd8284038261046f565b505050505b5b505050565b5f82821c905092915050565b5f6105035f19846008026104e8565b1980831691505092915050565b5f61051b83836104f4565b9150826002028217905092915050565b61053482610313565b67ffffffffffffffff81111561054d5761054c61016f565b5b610557825461034a565b610562828285610495565b5f60209050601f831160018114610593575f8415610581578287015190505b61058b8582610510565b8655506105f2565b601f1984166105a18661037a565b5f5b828110156105c8578489015182556001820191506020850194506020810190506105a3565b868310156105e557848901516105e1601f8916826104f4565b8355505b6001600288020188555050505b505050505050565b60805160a05160c051611e5a6106785f395f8181610363015261040c01525f81816105060152818161071d015281816108070152818161097c01528181610b9c0152610ef901525f818161038701528181610625015281816108a8015281816109a001528181610adb01528181610c8d0152610db80152611e5a5ff3fe6080604052600436106100e0575f3560e01c806384f24c4b1161007e578063b269681d11610058578063b269681d146102bf578063b35381d5146102e9578063edb88ae914610311578063f9bf25cb14610339576100e7565b806384f24c4b146102415780638da5cb5b1461026b57806391da2b3d14610295576100e7565b80633cf20025116100ba5780633cf20025146101655780633ea9c157146101a15780634179f977146101dd5780637069b3f014610219576100e7565b806314ecec76146100eb578063227f3dbf146101155780632961ac401461013d576100e7565b366100e757005b5f5ffd5b3480156100f6575f5ffd5b506100ff610361565b60405161010c9190611164565b60405180910390f35b348015610120575f5ffd5b5061013b600480360381019061013691906111b0565b610385565b005b348015610148575f5ffd5b50610163600480360381019061015e9190611258565b610623565b005b348015610170575f5ffd5b5061018b600480360381019061018691906112fd565b6106f6565b6040516101989190611342565b60405180910390f35b3480156101ac575f5ffd5b506101c760048036038101906101c291906111b0565b610713565b6040516101d491906113aa565b60405180910390f35b3480156101e8575f5ffd5b5061020360048036038101906101fe9190611258565b6107c1565b60405161021091906113aa565b60405180910390f35b348015610224575f5ffd5b5061023f600480360381019061023a9190611258565b6108a6565b005b34801561024c575f5ffd5b5061025561097a565b604051610262919061141e565b60405180910390f35b348015610276575f5ffd5b5061027f61099e565b60405161028c9190611446565b60405180910390f35b3480156102a0575f5ffd5b506102a96109c2565b6040516102b691906114cf565b60405180910390f35b3480156102ca575f5ffd5b506102d3610a4e565b6040516102e091906114cf565b60405180910390f35b3480156102f4575f5ffd5b5061030f600480360381019061030a9190611540565b610ad9565b005b34801561031c575f5ffd5b50610337600480360381019061033291906115db565b610c8b565b005b348015610344575f5ffd5b5061035f600480360381019061035a9190611619565b610db6565b005b7f000000000000000000000000000000000000000000000000000000000000000081565b7f000000000000000000000000000000000000000000000000000000000000000073ffffffffffffffffffffffffffffffffffffffff163373ffffffffffffffffffffffffffffffffffffffff161461040a576040517f30cd747100000000000000000000000000000000000000000000000000000000815260040160405180910390fd5b7f0000000000000000000000000000000000000000000000000000000000000000815f013514610466576040517f17ae070d00000000000000000000000000000000000000000000000000000000815260040160405180910390fd5b60025f82602001602081019061047c91906112fd565b73ffffffffffffffffffffffffffffffffffffffff1673ffffffffffffffffffffffffffffffffffffffff1681526020019081526020015f205f9054906101000a900460ff166104f8576040517f75b24d4000000000000000000000000000000000000000000000000000000000815260040160405180910390fd5b5f61050282610fda565b90507f000000000000000000000000000000000000000000000000000000000000000073ffffffffffffffffffffffffffffffffffffffff16637f0a3bf95f836040518363ffffffff1660e01b815260040161055f92919061177a565b5f604051808303815f87803b158015610576575f5ffd5b505af1158015610588573d5f5f3e3d5ffd5b5050505081604001602081019061059f91906112fd565b73ffffffffffffffffffffffffffffffffffffffff168260200160208101906105c891906112fd565b73ffffffffffffffffffffffffffffffffffffffff16835f01357f4682719d4b819c8c93522a2e9d723fd732be1b4a8a9241b29ce8a05d471220c38560a00135856040516106179291906117be565b60405180910390a45050565b7f000000000000000000000000000000000000000000000000000000000000000073ffffffffffffffffffffffffffffffffffffffff163373ffffffffffffffffffffffffffffffffffffffff16146106a8576040517f30cd747100000000000000000000000000000000000000000000000000000000815260040160405180910390fd5b81815f91826106b89291906119b9565b507f2eef771d6450acfb697f090cda89bae92577d0abb72a367c2cc0bb16a87b0af782826040516106ea929190611ac0565b60405180910390a15050565b6002602052805f5260405f205f915054906101000a900460ff1681565b61071b611120565b7f000000000000000000000000000000000000000000000000000000000000000073ffffffffffffffffffffffffffffffffffffffff166347400c2361076084610fda565b6040518263ffffffff1660e01b815260040161077c91906114cf565b6040805180830381865afa158015610796573d5f5f3e3d5ffd5b505050506040513d601f19601f820116820180604052508101906107ba9190611ba8565b9050919050565b6107c9611120565b5f8383905003610805576040517f3ac3605e00000000000000000000000000000000000000000000000000000000815260040160405180910390fd5b7f000000000000000000000000000000000000000000000000000000000000000073ffffffffffffffffffffffffffffffffffffffff166347400c2384846040518363ffffffff1660e01b8152600401610860929190611ac0565b6040805180830381865afa15801561087a573d5f5f3e3d5ffd5b505050506040513d601f19601f8201168201806040525081019061089e9190611ba8565b905092915050565b7f000000000000000000000000000000000000000000000000000000000000000073ffffffffffffffffffffffffffffffffffffffff163373ffffffffffffffffffffffffffffffffffffffff161461092b576040517f30cd747100000000000000000000000000000000000000000000000000000000815260040160405180910390fd5b81816001918261093c9291906119b9565b507fe0a85ced86c6479c5b212cc6129bc8f573c2a391e84df013c161b0b228e44b11828260405161096e929190611ac0565b60405180910390a15050565b7f000000000000000000000000000000000000000000000000000000000000000081565b7f000000000000000000000000000000000000000000000000000000000000000081565b600180546109cf906116b7565b80601f01602080910402602001604051908101604052809291908181526020018280546109fb906116b7565b8015610a465780601f10610a1d57610100808354040283529160200191610a46565b820191905f5260205f20905b815481529060010190602001808311610a2957829003601f168201915b505050505081565b5f8054610a5a906116b7565b80601f0160208091040260200160405190810160405280929190818152602001828054610a86906116b7565b8015610ad15780601f10610aa857610100808354040283529160200191610ad1565b820191905f5260205f20905b815481529060010190602001808311610ab457829003601f168201915b505050505081565b7f000000000000000000000000000000000000000000000000000000000000000073ffffffffffffffffffffffffffffffffffffffff163373ffffffffffffffffffffffffffffffffffffffff1614610b5e576040517f30cd747100000000000000000000000000000000000000000000000000000000815260040160405180910390fd5b5f8383905003610b9a576040517f3ac3605e00000000000000000000000000000000000000000000000000000000815260040160405180910390fd5b7f000000000000000000000000000000000000000000000000000000000000000073ffffffffffffffffffffffffffffffffffffffff1663d3b7e04d8484846040518463ffffffff1660e01b8152600401610bf793929190611c3a565b5f604051808303815f87803b158015610c0e575f5ffd5b505af1158015610c20573d5f5f3e3d5ffd5b50505050837fd97249a22320e6b7b136797455b1f7b70c622ba805092c112a12995f8e5b827c8484845f016020810190610c5a9190611c6a565b856020016020810190610c6d9190611c6a565b604051610c7d9493929190611ca4565b60405180910390a250505050565b7f000000000000000000000000000000000000000000000000000000000000000073ffffffffffffffffffffffffffffffffffffffff163373ffffffffffffffffffffffffffffffffffffffff1614610d10576040517f30cd747100000000000000000000000000000000000000000000000000000000815260040160405180910390fd5b8060025f8473ffffffffffffffffffffffffffffffffffffffff1673ffffffffffffffffffffffffffffffffffffffff1681526020019081526020015f205f6101000a81548160ff0219169083151502179055508173ffffffffffffffffffffffffffffffffffffffff167f17e84c0e5b25523e0a7ec98f79c222755e02808eb019e4973f861c947775d50982604051610daa9190611342565b60405180910390a25050565b7f000000000000000000000000000000000000000000000000000000000000000073ffffffffffffffffffffffffffffffffffffffff163373ffffffffffffffffffffffffffffffffffffffff1614610e3b576040517f30cd747100000000000000000000000000000000000000000000000000000000815260040160405180910390fd5b60025f8573ffffffffffffffffffffffffffffffffffffffff1673ffffffffffffffffffffffffffffffffffffffff1681526020019081526020015f205f9054906101000a900460ff16610ebb576040517f75b24d4000000000000000000000000000000000000000000000000000000000815260040160405180910390fd5b5f8282905003610ef7576040517f3ac3605e00000000000000000000000000000000000000000000000000000000815260040160405180910390fd5b7f000000000000000000000000000000000000000000000000000000000000000073ffffffffffffffffffffffffffffffffffffffff16637f0a3bf95f84846040518463ffffffff1660e01b8152600401610f5493929190611ce2565b5f604051808303815f87803b158015610f6b575f5ffd5b505af1158015610f7d573d5f5f3e3d5ffd5b50505050828473ffffffffffffffffffffffffffffffffffffffff167f8e56c7ef220b0b56ca71b24d43706b91366675f89072a0d646b149e9e20bff6b5f8585604051610fcc93929190611ce2565b60405180910390a350505050565b60605f60018054610fea906116b7565b905003611023576040517f6c44024200000000000000000000000000000000000000000000000000000000815260040160405180910390fd5b600182602001602081019061103891906112fd565b3084604001602081019061104c91906112fd565b85606001358680608001906110619190611d25565b8860a0013560405160240161107b96959493929190611d87565b6040516020818303038152906040527f86249f12000000000000000000000000000000000000000000000000000000007bffffffffffffffffffffffffffffffffffffffffffffffffffffffff19166020820180517bffffffffffffffffffffffffffffffffffffffffffffffffffffffff838183161783525050505060405160200161110a93929190611de1565b6040516020818303038152906040529050919050565b60405180604001604052805f67ffffffffffffffff1681526020015f67ffffffffffffffff1681525090565b5f819050919050565b61115e8161114c565b82525050565b5f6020820190506111775f830184611155565b92915050565b5f604051905090565b5f5ffd5b5f5ffd5b5f5ffd5b5f60c082840312156111a7576111a661118e565b5b81905092915050565b5f602082840312156111c5576111c4611186565b5b5f82013567ffffffffffffffff8111156111e2576111e161118a565b5b6111ee84828501611192565b91505092915050565b5f5ffd5b5f5ffd5b5f5ffd5b5f5f83601f840112611218576112176111f7565b5b8235905067ffffffffffffffff811115611235576112346111fb565b5b602083019150836001820283011115611251576112506111ff565b5b9250929050565b5f5f6020838503121561126e5761126d611186565b5b5f83013567ffffffffffffffff81111561128b5761128a61118a565b5b61129785828601611203565b92509250509250929050565b5f73ffffffffffffffffffffffffffffffffffffffff82169050919050565b5f6112cc826112a3565b9050919050565b6112dc816112c2565b81146112e6575f5ffd5b50565b5f813590506112f7816112d3565b92915050565b5f6020828403121561131257611311611186565b5b5f61131f848285016112e9565b91505092915050565b5f8115159050919050565b61133c81611328565b82525050565b5f6020820190506113555f830184611333565b92915050565b5f67ffffffffffffffff82169050919050565b6113778161135b565b82525050565b604082015f8201516113915f85018261136e565b5060208201516113a4602085018261136e565b50505050565b5f6040820190506113bd5f83018461137d565b92915050565b5f819050919050565b5f6113e66113e16113dc846112a3565b6113c3565b6112a3565b9050919050565b5f6113f7826113cc565b9050919050565b5f611408826113ed565b9050919050565b611418816113fe565b82525050565b5f6020820190506114315f83018461140f565b92915050565b611440816112c2565b82525050565b5f6020820190506114595f830184611437565b92915050565b5f81519050919050565b5f82825260208201905092915050565b8281835e5f83830152505050565b5f601f19601f8301169050919050565b5f6114a18261145f565b6114ab8185611469565b93506114bb818560208601611479565b6114c481611487565b840191505092915050565b5f6020820190508181035f8301526114e78184611497565b905092915050565b5f819050919050565b611501816114ef565b811461150b575f5ffd5b50565b5f8135905061151c816114f8565b92915050565b5f604082840312156115375761153661118e565b5b81905092915050565b5f5f5f5f6080858703121561155857611557611186565b5b5f6115658782880161150e565b945050602085013567ffffffffffffffff8111156115865761158561118a565b5b61159287828801611203565b935093505060406115a587828801611522565b91505092959194509250565b6115ba81611328565b81146115c4575f5ffd5b50565b5f813590506115d5816115b1565b92915050565b5f5f604083850312156115f1576115f0611186565b5b5f6115fe858286016112e9565b925050602061160f858286016115c7565b9150509250929050565b5f5f5f5f6060858703121561163157611630611186565b5b5f61163e878288016112e9565b945050602061164f8782880161150e565b935050604085013567ffffffffffffffff8111156116705761166f61118a565b5b61167c87828801611203565b925092505092959194509250565b7f4e487b71000000000000000000000000000000000000000000000000000000005f52602260045260245ffd5b5f60028204905060018216806116ce57607f821691505b6020821081036116e1576116e061168a565b5b50919050565b5f819050815f5260205f209050919050565b5f8154611705816116b7565b61170f8186611469565b9450600182165f8114611729576001811461173f57611771565b60ff198316865281151560200286019350611771565b611748856116e7565b5f5b838110156117695781548189015260018201915060208101905061174a565b808801955050505b50505092915050565b5f6040820190508181035f83015261179281856116f9565b905081810360208301526117a68184611497565b90509392505050565b6117b8816114ef565b82525050565b5f6040820190506117d15f8301856117af565b81810360208301526117e38184611497565b90509392505050565b5f82905092915050565b7f4e487b71000000000000000000000000000000000000000000000000000000005f52604160045260245ffd5b5f6020601f8301049050919050565b5f82821b905092915050565b5f6008830261186d7fffffffffffffffffffffffffffffffffffffffffffffffffffffffffffffffff82611832565b6118778683611832565b95508019841693508086168417925050509392505050565b5f6118a96118a461189f8461114c565b6113c3565b61114c565b9050919050565b5f819050919050565b6118c28361188f565b6118d66118ce826118b0565b84845461183e565b825550505050565b5f5f905090565b6118ed6118de565b6118f88184846118b9565b505050565b5f5b8281101561191e576119135f8284016118e5565b6001810190506118ff565b505050565b601f82111561197157828211156119705761193d816116e7565b61194683611823565b61194f85611823565b602086101561195c575f90505b80830161196b828403826118fd565b505050505b5b505050565b5f82821c905092915050565b5f6119915f1984600802611976565b1980831691505092915050565b5f6119a98383611982565b9150826002028217905092915050565b6119c383836117ec565b67ffffffffffffffff8111156119dc576119db6117f6565b5b6119e682546116b7565b6119f1828285611923565b5f601f831160018114611a1e575f8415611a0c578287013590505b611a16858261199e565b865550611a7d565b601f198416611a2c866116e7565b5f5b82811015611a5357848901358255600182019150602085019450602081019050611a2e565b86831015611a705784890135611a6c601f891682611982565b8355505b6001600288020188555050505b50505050505050565b828183375f83830152505050565b5f611a9f8385611469565b9350611aac838584611a86565b611ab583611487565b840190509392505050565b5f6020820190508181035f830152611ad9818486611a94565b90509392505050565b5f5ffd5b611aef82611487565b810181811067ffffffffffffffff82111715611b0e57611b0d6117f6565b5b80604052505050565b5f611b2061117d565b9050611b2c8282611ae6565b919050565b611b3a8161135b565b8114611b44575f5ffd5b50565b5f81519050611b5581611b31565b92915050565b5f60408284031215611b7057611b6f611ae2565b5b611b7a6040611b17565b90505f611b8984828501611b47565b5f830152506020611b9c84828501611b47565b60208301525092915050565b5f60408284031215611bbd57611bbc611186565b5b5f611bca84828501611b5b565b91505092915050565b5f81359050611be181611b31565b92915050565b5f611bf56020840184611bd3565b905092915050565b60408201611c0d5f830183611be7565b611c195f85018261136e565b50611c276020830183611be7565b611c34602085018261136e565b50505050565b5f6060820190508181035f830152611c53818587611a94565b9050611c626020830184611bfd565b949350505050565b5f60208284031215611c7f57611c7e611186565b5b5f611c8c84828501611bd3565b91505092915050565b611c9e8161135b565b82525050565b5f6060820190508181035f830152611cbd818688611a94565b9050611ccc6020830185611c95565b611cd96040830184611c95565b95945050505050565b5f6040820190508181035f830152611cfa81866116f9565b90508181036020830152611d0f818486611a94565b9050949350505050565b5f5ffd5b5f5ffd5b5f5ffd5b5f5f83356001602003843603038112611d4157611d40611d19565b5b80840192508235915067ffffffffffffffff821115611d6357611d62611d1d565b5b602083019250600182023603831315611d7f57611d7e611d21565b5b509250929050565b5f60a082019050611d9a5f830189611437565b611da76020830188611437565b611db46040830187611155565b8181036060830152611dc7818587611a94565b9050611dd660808301846117af565b979650505050505050565b5f6060820190508181035f830152611df981866116f9565b9050611e086020830185611437565b8181036040830152611e1a8184611497565b905094935050505056fea26469706673582212209c58c85eae11c62e7368f53989748b2db2d21567fe7adefaf74b62e2c395dcbd64736f6c63430008220033",
  "linkReferences": {},
  "deployedLinkReferences": {},
  "immutableReferences": {
    "27": [
      {
        "length": 32,
        "start": 903
      },
      {
        "length": 32,
        "start": 1573
      },
      {
        "length": 32,
        "start": 2216
      },
      {
        "length": 32,
        "start": 2464
      },
      {
        "length": 32,
        "start": 2779
      },
      {
        "length": 32,
        "start": 3213
      },
      {
        "length": 32,
        "start": 3512
      }
    ],
    "30": [
      {
        "length": 32,
        "start": 1286
      },
      {
        "length": 32,
        "start": 1821
      },
      {
        "length": 32,
        "start": 2055
      },
      {
        "length": 32,
        "start": 2428
      },
      {
        "length": 32,
        "start": 2972
      },
      {
        "length": 32,
        "start": 3833
      }
    ],
    "36": [
      {
        "length": 32,
        "start": 867
      },
      {
        "length": 32,
        "start": 1036
      }
    ]
  },
  "inputSourceName": "project/contracts/CrossChainDispatcher.sol",
  "buildInfoId": "solc-0_8_28-00d6c1c27e8aac0b42fef2f079afc8e6da7fac79"
}