{
  "_format": "hh3-artifact-1",
  "contractName": "MockTarget",
  "sourceName": "contracts/mocks/MockTarget.sol",
  "abi": [
    {
      "anonymous": false,
      "inputs": [
        {
          "indexed": true,
          "internalType": "bytes32",
          "name": "memo",
          "type": "bytes32"
        }
      ],
      "name": "MemoRecorded",
      "type": "event"
    },
    {
      "anonymous": false,
      "inputs": [
        {
          "indexed": true,
          "internalType": "address",
          "name": "caller",
          "type": "address"
        },
        {
          "indexed": true,
          "internalType": "bytes32",
          "name": "requestId",
          "type": "bytes32"
        },
        {
          "indexed": true,
          "internalType": "bytes32",
          "name": "memo",
          "type": "bytes32"
        }
      ],
      "name": "RemoteExecutionRecorded",
      "type": "event"
    },
    {
      "anonymous": false,
      "inputs": [
        {
          "indexed": true,
          "internalType": "address",
          "name": "caller",
          "type": "address"
        },
        {
          "indexed": false,
          "internalType": "uint256",
          "name": "amountIn",
          "type": "uint256"
        },
        {
          "indexed": false,
          "internalType": "uint256",
          "name": "newTotal",
          "type": "uint256"
        }
      ],
      "name": "SwapExecuted",
      "type": "event"
    },
    {
      "anonymous": false,
      "inputs": [
        {
          "indexed": true,
          "internalType": "address",
          "name": "recipient",
          "type": "address"
        }
      ],
      "name": "Swept",
      "type": "event"
    },
    {
      "inputs": [],
      "name": "lastCaller",
      "outputs": [
        {
          "internalType": "address",
          "name": "",
          "type": "address"
        }
      ],
      "stateMutability": "view",
      "type": "function"
    },
    {
      "inputs": [],
      "name": "lastMemo",
      "outputs": [
        {
          "internalType": "bytes32",
          "name": "",
          "type": "bytes32"
        }
      ],
      "stateMutability": "view",
      "type": "function"
    },
    {
      "inputs": [],
      "name": "lastRecipient",
      "outputs": [
        {
          "internalType": "address",
          "name": "",
          "type": "address"
        }
      ],
      "stateMutability": "view",
      "type": "function"
    },
    {
      "inputs": [],
      "name": "lastRequestId",
      "outputs": [
        {
          "internalType": "bytes32",
          "name": "",
          "type": "bytes32"
        }
      ],
      "stateMutability": "view",
      "type": "function"
    },
    {
      "inputs": [
        {
          "internalType": "bytes32",
          "name": "memo",
          "type": "bytes32"
        }
      ],
      "name": "recordMemo",
      "outputs": [],
      "stateMutability": "nonpayable",
      "type": "function"
    },
    {
      "inputs": [
        {
          "internalType": "bytes32",
          "name": "requestId",
          "type": "bytes32"
        },
        {
          "internalType": "bytes32",
          "name": "memo",
          "type": "bytes32"
        }
      ],
      "name": "recordRemoteExecution",
      "outputs": [],
      "stateMutability": "nonpayable",
      "type": "function"
    },
    {
      "inputs": [
        {
          "internalType": "uint256",
          "name": "amountIn",
          "type": "uint256"
        }
      ],
      "name": "swapExactInput",
      "outputs": [
        {
          "internalType": "uint256",
          "name": "amountOut",
          "type": "uint256"
        }
      ],
      "stateMutability": "nonpayable",
      "type": "function"
    },
    {
      "inputs": [
        {
          "internalType": "address",
          "name": "recipient",
          "type": "address"
        }
      ],
      "name": "sweep",
      "outputs": [],
      "stateMutability": "nonpayable",
      "type": "function"
    },
    {
      "inputs": [],
      "name": "totalAmountIn",
      "outputs": [
        {
          "internalType": "uint256",
          "name": "",
          "type": "uint256"
        }
      ],
      "stateMutability": "view",
      "type": "function"
    }
  ],
  "bytecode": "0x6080604052348015600e575f5ffd5b506107148061001c5f395ff3fe608060405234801561000f575f5ffd5b5060043610610091575f3560e01c806362f4b5431161006457806362f4b54314610107578063630c4ebc14610137578063b28132c714610155578063d23ee66b14610173578063fc2a88c31461019157610091565b806301681a62146100955780632113522a146100b157806324558ebb146100cf5780635940160a146100eb575b5f5ffd5b6100af60048036038101906100aa9190610479565b6101af565b005b6100b9610235565b6040516100c691906104b3565b60405180910390f35b6100e960048036038101906100e491906104ff565b61025a565b005b6101056004803603810190610100919061052a565b6102d1565b005b610121600480360381019061011c919061059b565b610368565b60405161012e91906105d5565b60405180910390f35b61013f6103e5565b60405161014c91906105fd565b60405180910390f35b61015d6103eb565b60405161016a91906105d5565b60405180910390f35b61017b6103f0565b60405161018891906104b3565b60405180910390f35b610199610415565b6040516101a691906105fd565b60405180910390f35b8060015f6101000a81548173ffffffffffffffffffffffffffffffffffffffff021916908373ffffffffffffffffffffffffffffffffffffffff1602179055508073ffffffffffffffffffffffffffffffffffffffff167f89fe40f3ee44c4545cfcbf8bf59df75406c5841bc917cd1f8579f5bf5e1bd04060405160405180910390a250565b60045f9054906101000a900473ffffffffffffffffffffffffffffffffffffffff1681565b3360045f6101000a81548173ffffffffffffffffffffffffffffffffffffffff021916908373ffffffffffffffffffffffffffffffffffffffff16021790555080600281905550807fed1a4c0c0744f60f6d056829202fa4d5b83e08dc9208f370fe6fd58297cef26060405160405180910390a250565b3360045f6101000a81548173ffffffffffffffffffffffffffffffffffffffff021916908373ffffffffffffffffffffffffffffffffffffffff160217905550816003819055508060028190555080823373ffffffffffffffffffffffffffffffffffffffff167f94f2f0f2e94b5b954d2427f730fabc6476499931efc42bb7be4fda8c3a5e5a2160405160405180910390a45050565b5f815f5f8282546103799190610643565b925050819055503373ffffffffffffffffffffffffffffffffffffffff167f2d043ce009ff53fd444b0f4f5ff4c3f4ee293265203f77f156eeb33b595dfc4f835f546040516103c9929190610676565b60405180910390a26002826103de919061069d565b9050919050565b60025481565b5f5481565b60015f9054906101000a900473ffffffffffffffffffffffffffffffffffffffff1681565b60035481565b5f5ffd5b5f73ffffffffffffffffffffffffffffffffffffffff82169050919050565b5f6104488261041f565b9050919050565b6104588161043e565b8114610462575f5ffd5b50565b5f813590506104738161044f565b92915050565b5f6020828403121561048e5761048d61041b565b5b5f61049b84828501610465565b91505092915050565b6104ad8161043e565b82525050565b5f6020820190506104c65f8301846104a4565b92915050565b5f819050919050565b6104de816104cc565b81146104e8575f5ffd5b50565b5f813590506104f9816104d5565b92915050565b5f602082840312156105145761051361041b565b5b5f610521848285016104eb565b91505092915050565b5f5f604083850312156105405761053f61041b565b5b5f61054d858286016104eb565b925050602061055e858286016104eb565b9150509250929050565b5f819050919050565b61057a81610568565b8114610584575f5ffd5b50565b5f8135905061059581610571565b92915050565b5f602082840312156105b0576105af61041b565b5b5f6105bd84828501610587565b91505092915050565b6105cf81610568565b82525050565b5f6020820190506105e85f8301846105c6565b92915050565b6105f7816104cc565b82525050565b5f6020820190506106105f8301846105ee565b92915050565b7f4e487b71000000000000000000000000000000000000000000000000000000005f52601160045260245ffd5b5f61064d82610568565b915061065883610568565b92508282019050808211156106705761066f610616565b5b92915050565b5f6040820190506106895f8301856105c6565b61069660208301846105c6565b9392505050565b5f6106a782610568565b91506106b283610568565b92508282026106c081610568565b915082820484148315176106d7576106d6610616565b5b509291505056fea2646970667358221220110602f500f57618b95b550de30aba029b20bf89ced81fd428da89e6a68f3f4364736f6c63430008220033",
  "linkReferences": {},
  "deployedLinkReferences": {},
  "immutableReferences": {},
  "inputSourceName": "project/contracts/mocks/MockTarget.sol",
  "buildInfoId": "solc-0_8_28-00d6c1c27e8aac0b42fef2f079afc8e6da7fac79"
}