{
  "_format": "hh3-artifact-1",
  "contractName": "MockEntryPoint",
  "sourceName": "contracts/mocks/MockEntryPoint.sol",
  "abi": [
    {
      "inputs": [],
      "name": "PaymasterValidationFailed",
      "type": "error"
    },
    {
      "anonymous": false,
      "inputs": [
        {
          "indexed": true,
          "internalType": "address",
          "name": "sender",
          "type": "address"
        },
        {
          "indexed": true,
          "internalType": "bytes32",
          "name": "userOpHash",
          "type": "bytes32"
        },
        {
          "indexed": true,
          "internalType": "address",
          "name": "paymaster",
          "type": "address"
        }
      ],
      "name": "UserOperationHandled",
      "type": "event"
    },
    {
      "inputs": [
        {
          "components": [
            {
              "internalType": "address",
              "name": "sender",
              "type": "address"
            },
            {
              "internalType": "uint256",
              "name": "nonce",
              "type": "uint256"
            },
            {
              "internalType": "bytes",
              "name": "initCode",
              "type": "bytes"
            },
            {
              "internalType": "bytes",
              "name": "callData",
              "type": "bytes"
            },
            {
              "internalType": "bytes32",
              "name": "accountGasLimits",
              "type": "bytes32"
            },
            {
              "internalType": "uint256",
              "name": "preVerificationGas",
              "type": "uint256"
            },
            {
              "internalType": "bytes32",
              "name": "gasFees",
              "type": "bytes32"
            },
            {
              "internalType": "bytes",
              "name": "paymasterAndData",
              "type": "bytes"
            },
            {
              "internalType": "bytes",
              "name": "signature",
              "type": "bytes"
            }
          ],
          "internalType": "struct PackedUserOperation",
          "name": "userOp",
          "type": "tuple"
        }
      ],
      "name": "getUserOpHash",
      "outputs": [
        {
          "internalType": "bytes32",
          "name": "",
          "type": "bytes32"
        }
      ],
      "stateMutability": "view",
      "type": "function"
    },
    {
      "inputs": [
        {
          "components": [
            {
              "internalType": "address",
              "name": "sender",
              "type": "address"
            },
            {
              "internalType": "uint256",
              "name": "nonce",
              "type": "uint256"
            },
            {
              "internalType": "bytes",
              "name": "initCode",
              "type": "bytes"
            },
            {
              "internalType": "bytes",
              "name": "callData",
              "type": "bytes"
            },
            {
              "internalType": "bytes32",
              "name": "accountGasLimits",
              "type": "bytes32"
            },
            {
              "internalType": "uint256",
              "name": "preVerificationGas",
              "type": "uint256"
            },
            {
              "internalType": "bytes32",
              "name": "gasFees",
              "type": "bytes32"
            },
            {
              "internalType": "bytes",
              "name": "paymasterAndData",
              "type": "bytes"
            },
            {
              "internalType": "bytes",
              "name": "signature",
              "type": "bytes"
            }
          ],
          "internalType": "struct PackedUserOperation[]",
          "name": "ops",
          "type": "tuple[]"
        }
      ],
      "name": "handleOps",
      "outputs": [],
      "stateMutability": "nonpayable",
      "type": "function"
    }
  ],
  "bytecode": "0x6080604052348015600e575f5ffd5b50610edf8061001c5f395ff3fe608060405234801561000f575f5ffd5b5060043610610034575f3560e01c806322cdde4c1461003857806357956b5814610068575b5f5ffd5b610052600480360381019061004d9190610504565b610084565b60405161005f9190610563565b60405180910390f35b610082600480360381019061007d91906105dd565b610155565b005b5f4630835f0160208101906100999190610682565b84602001358580604001906100ae91906106b9565b6040516100bc929190610757565b60405180910390208680606001906100d491906106b9565b6040516100e2929190610757565b604051809103902087608001358860a001358960c001358a8060e0019061010991906106b9565b604051610117929190610757565b60405180910390206040516020016101389a99989796959493929190610796565b604051602081830303815290604052805190602001209050919050565b5f5f90505b828290508110156104cb573683838381811061017957610178610830565b5b905060200281019061018b919061085d565b90505f61019782610084565b9050815f0160208101906101ab9190610682565b73ffffffffffffffffffffffffffffffffffffffff166319822f7c83835f6040518463ffffffff1660e01b81526004016101e793929190610b6b565b6020604051808303815f875af1158015610203573d5f5f3e3d5ffd5b505050506040513d601f19601f820116820180604052508101906102279190610bbb565b505f5f905060605f848060e0019061023f91906106b9565b9050111561032b575f848060e0019061025891906106b9565b8101906102659190610c21565b50809350508273ffffffffffffffffffffffffffffffffffffffff1663faebc97786866040518363ffffffff1660e01b81526004016102a5929190610c5f565b5f604051808303815f875af11580156102c0573d5f5f3e3d5ffd5b505050506040513d5f823e3d601f19601f820116820180604052508101906102e89190610db5565b80925081935050505f8114610329576040517f37f52c1200000000000000000000000000000000000000000000000000000000815260040160405180910390fd5b505b5f60019050845f0160208101906103429190610682565b73ffffffffffffffffffffffffffffffffffffffff16638dd7712f86866040518363ffffffff1660e01b815260040161037c929190610c5f565b5f604051808303815f87803b158015610393575f5ffd5b505af19250505080156103a4575060015b6103b0575f90506103b1565b5b5f73ffffffffffffffffffffffffffffffffffffffff168373ffffffffffffffffffffffffffffffffffffffff161461044d578273ffffffffffffffffffffffffffffffffffffffff1663e3f66f1d83836040518363ffffffff1660e01b815260040161041f929190610e7b565b5f604051808303815f87803b158015610436575f5ffd5b505af1158015610448573d5f5f3e3d5ffd5b505050505b8273ffffffffffffffffffffffffffffffffffffffff1684865f0160208101906104779190610682565b73ffffffffffffffffffffffffffffffffffffffff167f6924fdd1b02e87cdd40c477785cac51668348bdff42df1b759f37b81baa4c86160405160405180910390a45050505050808060010191505061015a565b505050565b5f604051905090565b5f5ffd5b5f5ffd5b5f5ffd5b5f61012082840312156104fb576104fa6104e1565b5b81905092915050565b5f60208284031215610519576105186104d9565b5b5f82013567ffffffffffffffff811115610536576105356104dd565b5b610542848285016104e5565b91505092915050565b5f819050919050565b61055d8161054b565b82525050565b5f6020820190506105765f830184610554565b92915050565b5f5ffd5b5f5ffd5b5f5ffd5b5f5f83601f84011261059d5761059c61057c565b5b8235905067ffffffffffffffff8111156105ba576105b9610580565b5b6020830191508360208202830111156105d6576105d5610584565b5b9250929050565b5f5f602083850312156105f3576105f26104d9565b5b5f83013567ffffffffffffffff8111156106105761060f6104dd565b5b61061c85828601610588565b92509250509250929050565b5f73ffffffffffffffffffffffffffffffffffffffff82169050919050565b5f61065182610628565b9050919050565b61066181610647565b811461066b575f5ffd5b50565b5f8135905061067c81610658565b92915050565b5f60208284031215610697576106966104d9565b5b5f6106a48482850161066e565b91505092915050565b5f5ffd5b5f5ffd5b5f5ffd5b5f5f833560016020038436030381126106d5576106d46106ad565b5b80840192508235915067ffffffffffffffff8211156106f7576106f66106b1565b5b602083019250600182023603831315610713576107126106b5565b5b509250929050565b5f81905092915050565b828183375f83830152505050565b5f61073e838561071b565b935061074b838584610725565b82840190509392505050565b5f610763828486610733565b91508190509392505050565b5f819050919050565b6107818161076f565b82525050565b61079081610647565b82525050565b5f610140820190506107aa5f83018d610778565b6107b7602083018c610787565b6107c4604083018b610787565b6107d1606083018a610778565b6107de6080830189610554565b6107eb60a0830188610554565b6107f860c0830187610554565b61080560e0830186610778565b610813610100830185610554565b610821610120830184610554565b9b9a5050505050505050505050565b7f4e487b71000000000000000000000000000000000000000000000000000000005f52603260045260245ffd5b5f8235600161012003833603038112610879576108786106ad565b5b80830191505092915050565b5f610893602084018461066e565b905092915050565b6108a481610647565b82525050565b6108b38161076f565b81146108bd575f5ffd5b50565b5f813590506108ce816108aa565b92915050565b5f6108e260208401846108c0565b905092915050565b6108f38161076f565b82525050565b5f5ffd5b5f5ffd5b5f5ffd5b5f5f8335600160200384360303811261092157610920610901565b5b83810192508235915060208301925067ffffffffffffffff821115610949576109486108f9565b5b60018202360383131561095f5761095e6108fd565b5b509250929050565b5f82825260208201905092915050565b5f601f19601f8301169050919050565b5f6109928385610967565b935061099f838584610725565b6109a883610977565b840190509392505050565b6109bc8161054b565b81146109c6575f5ffd5b50565b5f813590506109d7816109b3565b92915050565b5f6109eb60208401846109c9565b905092915050565b6109fc8161054b565b82525050565b5f6101208301610a145f840184610885565b610a205f86018261089b565b50610a2e60208401846108d4565b610a3b60208601826108ea565b50610a496040840184610905565b8583036040870152610a5c838284610987565b92505050610a6d6060840184610905565b8583036060870152610a80838284610987565b92505050610a9160808401846109dd565b610a9e60808601826109f3565b50610aac60a08401846108d4565b610ab960a08601826108ea565b50610ac760c08401846109dd565b610ad460c08601826109f3565b50610ae260e0840184610905565b85830360e0870152610af5838284610987565b92505050610b07610100840184610905565b858303610100870152610b1b838284610987565b925050508091505092915050565b5f819050919050565b5f819050919050565b5f610b55610b50610b4b84610b29565b610b32565b61076f565b9050919050565b610b6581610b3b565b82525050565b5f6060820190508181035f830152610b838186610a02565b9050610b926020830185610554565b610b9f6040830184610b5c565b949350505050565b5f81519050610bb5816108aa565b92915050565b5f60208284031215610bd057610bcf6104d9565b5b5f610bdd84828501610ba7565b91505092915050565b5f610bf082610628565b9050919050565b610c0081610be6565b8114610c0a575f5ffd5b50565b5f81359050610c1b81610bf7565b92915050565b5f5f60408385031215610c3757610c366104d9565b5b5f610c4485828601610c0d565b9250506020610c55858286016108c0565b9150509250929050565b5f6040820190508181035f830152610c778185610a02565b9050610c866020830184610554565b9392505050565b5f5ffd5b7f4e487b71000000000000000000000000000000000000000000000000000000005f52604160045260245ffd5b610cc782610977565b810181811067ffffffffffffffff82111715610ce657610ce5610c91565b5b80604052505050565b5f610cf86104d0565b9050610d048282610cbe565b919050565b5f67ffffffffffffffff821115610d2357610d22610c91565b5b610d2c82610977565b9050602081019050919050565b8281835e5f83830152505050565b5f610d59610d5484610d09565b610cef565b905082815260208101848484011115610d7557610d74610c8d565b5b610d80848285610d39565b509392505050565b5f82601f830112610d9c57610d9b61057c565b5b8151610dac848260208601610d47565b91505092915050565b5f5f60408385031215610dcb57610dca6104d9565b5b5f83015167ffffffffffffffff811115610de857610de76104dd565b5b610df485828601610d88565b9250506020610e0585828601610ba7565b9150509250929050565b5f81519050919050565b5f82825260208201905092915050565b5f610e3382610e0f565b610e3d8185610e19565b9350610e4d818560208601610d39565b610e5681610977565b840191505092915050565b5f8115159050919050565b610e7581610e61565b82525050565b5f6040820190508181035f830152610e938185610e29565b9050610ea26020830184610e6c565b939250505056fea26469706673582212206998d7c3c05273cd6d93c0a51bbc38aa2d12e14c7626b0ab8487ca7632ce1a3564736f6c63430008220033",
  "linkReferences": {},
  "deployedLinkReferences": {},
  "immutableReferences": {},
  "inputSourceName": "project/contracts/mocks/MockEntryPoint.sol",
  "buildInfoId": "solc-0_8_28-3a8fffffd933ec67789d9195910f5421b65f75ae"
}