{
  "_format": "hh3-artifact-1",
  "contractName": "CrossChainDispatcher",
  "sourceName": "contracts/CrossChainDispatcher.sol",
  "abi": [
    {
      "inputs": [
        {
          "internalType": "address",
          "name": "owner_",
          "type": "address"
        },
        {
          "internalType": "address",
          "name": "xcmPrecompileAddress",
          "type": "address"
        },
        {
          "internalType": "uint256",
          "name": "destinationChainId_",
          "type": "uint256"
        },
        {
          "internalType": "bytes",
          "name": "destination_",
          "type": "bytes"
        }
      ],
      "stateMutability": "nonpayable",
      "type": "constructor"
    },
    {
      "inputs": [],
      "name": "MessageVersionUnset",
      "type": "error"
    },
    {
      "inputs": [],
      "name": "NotOwner",
      "type": "error"
    },
    {
      "inputs": [],
      "name": "UnsupportedDestination",
      "type": "error"
    },
    {
      "inputs": [],
      "name": "UnsupportedReceiver",
      "type": "error"
    },
    {
      "anonymous": false,
      "inputs": [
        {
          "indexed": true,
          "internalType": "uint256",
          "name": "destinationChainId",
          "type": "uint256"
        },
        {
          "indexed": true,
          "internalType": "address",
          "name": "receiver",
          "type": "address"
        },
        {
          "indexed": true,
          "internalType": "address",
          "name": "target",
          "type": "address"
        },
        {
          "indexed": false,
          "internalType": "bytes32",
          "name": "requestId",
          "type": "bytes32"
        },
        {
          "indexed": false,
          "internalType": "bytes",
          "name": "message",
          "type": "bytes"
        }
      ],
      "name": "CrossChainDispatchQueued",
      "type": "event"
    },
    {
      "anonymous": false,
      "inputs": [
        {
          "indexed": false,
          "internalType": "bytes",
          "name": "destination",
          "type": "bytes"
        }
      ],
      "name": "DestinationUpdated",
      "type": "event"
    },
    {
      "anonymous": false,
      "inputs": [
        {
          "indexed": false,
          "internalType": "bytes",
          "name": "messagePrefix",
          "type": "bytes"
        }
      ],
      "name": "MessagePrefixUpdated",
      "type": "event"
    },
    {
      "anonymous": false,
      "inputs": [
        {
          "indexed": true,
          "internalType": "address",
          "name": "receiver",
          "type": "address"
        },
        {
          "indexed": false,
          "internalType": "bool",
          "name": "allowed",
          "type": "bool"
        }
      ],
      "name": "ReceiverAllowed",
      "type": "event"
    },
    {
      "inputs": [
        {
          "internalType": "address",
          "name": "receiver",
          "type": "address"
        }
      ],
      "name": "allowedReceivers",
      "outputs": [
        {
          "internalType": "bool",
          "name": "allowed",
          "type": "bool"
        }
      ],
      "stateMutability": "view",
      "type": "function"
    },
    {
      "inputs": [],
      "name": "destination",
      "outputs": [
        {
          "internalType": "bytes",
          "name": "",
          "type": "bytes"
        }
      ],
      "stateMutability": "view",
      "type": "function"
    },
    {
      "inputs": [
        {
          "components": [
            {
              "internalType": "uint256",
              "name": "destinationChainId",
              "type": "uint256"
            },
            {
              "internalType": "address",
              "name": "receiver",
              "type": "address"
            },
            {
              "internalType": "address",
              "name": "target",
              "type": "address"
            },
            {
              "internalType": "uint256",
              "name": "value",
              "type": "uint256"
            },
            {
              "internalType": "bytes",
              "name": "callData",
              "type": "bytes"
            },
            {
              "internalType": "bytes32",
              "name": "requestId",
              "type": "bytes32"
            }
          ],
          "internalType": "struct CrossChainDispatcher.RemoteCall",
          "name": "remoteCall",
          "type": "tuple"
        }
      ],
      "name": "dispatchRemoteCall",
      "outputs": [],
      "stateMutability": "nonpayable",
      "type": "function"
    },
    {
      "inputs": [
        {
          "components": [
            {
              "internalType": "uint256",
              "name": "destinationChainId",
              "type": "uint256"
            },
            {
              "internalType": "address",
              "name": "receiver",
              "type": "address"
            },
            {
              "internalType": "address",
              "name": "target",
              "type": "address"
            },
            {
              "internalType": "uint256",
              "name": "value",
              "type": "uint256"
            },
            {
              "internalType": "bytes",
              "name": "callData",
              "type": "bytes"
            },
            {
              "internalType": "bytes32",
              "name": "requestId",
              "type": "bytes32"
            }
          ],
          "internalType": "struct CrossChainDispatcher.RemoteCall",
          "name": "remoteCall",
          "type": "tuple"
        }
      ],
      "name": "estimateDispatchWeight",
      "outputs": [
        {
          "components": [
            {
              "internalType": "uint64",
              "name": "refTime",
              "type": "uint64"
            },
            {
              "internalType": "uint64",
              "name": "proofSize",
              "type": "uint64"
            }
          ],
          "internalType": "struct IXcm.Weight",
          "name": "",
          "type": "tuple"
        }
      ],
      "stateMutability": "view",
      "type": "function"
    },
    {
      "inputs": [],
      "name": "messagePrefix",
      "outputs": [
        {
          "internalType": "bytes",
          "name": "",
          "type": "bytes"
        }
      ],
      "stateMutability": "view",
      "type": "function"
    },
    {
      "inputs": [],
      "name": "owner",
      "outputs": [
        {
          "internalType": "address",
          "name": "",
          "type": "address"
        }
      ],
      "stateMutability": "view",
      "type": "function"
    },
    {
      "inputs": [
        {
          "internalType": "address",
          "name": "receiver",
          "type": "address"
        },
        {
          "internalType": "bool",
          "name": "allowed",
          "type": "bool"
        }
      ],
      "name": "setAllowedReceiver",
      "outputs": [],
      "stateMutability": "nonpayable",
      "type": "function"
    },
    {
      "inputs": [
        {
          "internalType": "bytes",
          "name": "destination_",
          "type": "bytes"
        }
      ],
      "name": "setDestination",
      "outputs": [],
      "stateMutability": "nonpayable",
      "type": "function"
    },
    {
      "inputs": [
        {
          "internalType": "bytes",
          "name": "messagePrefix_",
          "type": "bytes"
        }
      ],
      "name": "setMessagePrefix",
      "outputs": [],
      "stateMutability": "nonpayable",
      "type": "function"
    },
    {
      "inputs": [],
      "name": "supportedDestinationChainId",
      "outputs": [
        {
          "internalType": "uint256",
          "name": "",
          "type": "uint256"
        }
      ],
      "stateMutability": "view",
      "type": "function"
    },
    {
      "inputs": [],
      "name": "xcm",
      "outputs": [
        {
          "internalType": "contract IXcm",
          "name": "",
          "type": "address"
        }
      ],
      "stateMutability": "view",
      "type": "function"
    }
  ],
  "bytecode": "0x60e060405234801561000f575f5ffd5b50604051611c12380380611c1283398181016040528101906100319190610293565b8373ffffffffffffffffffffffffffffffffffffffff1660808173ffffffffffffffffffffffffffffffffffffffff16815250508273ffffffffffffffffffffffffffffffffffffffff1660a08173ffffffffffffffffffffffffffffffffffffffff16815250508160c08181525050805f90816100af919061051a565b50505050506105e9565b5f604051905090565b5f5ffd5b5f5ffd5b5f73ffffffffffffffffffffffffffffffffffffffff82169050919050565b5f6100f3826100ca565b9050919050565b610103816100e9565b811461010d575f5ffd5b50565b5f8151905061011e816100fa565b92915050565b5f819050919050565b61013681610124565b8114610140575f5ffd5b50565b5f815190506101518161012d565b92915050565b5f5ffd5b5f5ffd5b5f601f19601f8301169050919050565b7f4e487b71000000000000000000000000000000000000000000000000000000005f52604160045260245ffd5b6101a58261015f565b810181811067ffffffffffffffff821117156101c4576101c361016f565b5b80604052505050565b5f6101d66100b9565b90506101e2828261019c565b919050565b5f67ffffffffffffffff8211156102015761020061016f565b5b61020a8261015f565b9050602081019050919050565b8281835e5f83830152505050565b5f610237610232846101e7565b6101cd565b9050828152602081018484840111156102535761025261015b565b5b61025e848285610217565b509392505050565b5f82601f83011261027a57610279610157565b5b815161028a848260208601610225565b91505092915050565b5f5f5f5f608085870312156102ab576102aa6100c2565b5b5f6102b887828801610110565b94505060206102c987828801610110565b93505060406102da87828801610143565b925050606085015167ffffffffffffffff8111156102fb576102fa6100c6565b5b61030787828801610266565b91505092959194509250565b5f81519050919050565b7f4e487b71000000000000000000000000000000000000000000000000000000005f52602260045260245ffd5b5f600282049050600182168061036157607f821691505b6020821081036103745761037361031d565b5b50919050565b5f819050815f5260205f209050919050565b5f6020601f8301049050919050565b5f82821b905092915050565b5f600883026103d67fffffffffffffffffffffffffffffffffffffffffffffffffffffffffffffffff8261039b565b6103e0868361039b565b95508019841693508086168417925050509392505050565b5f819050919050565b5f61041b61041661041184610124565b6103f8565b610124565b9050919050565b5f819050919050565b61043483610401565b61044861044082610422565b8484546103a7565b825550505050565b5f5f905090565b61045f610450565b61046a81848461042b565b505050565b5b8181101561048d576104825f82610457565b600181019050610470565b5050565b601f8211156104d2576104a38161037a565b6104ac8461038c565b810160208510156104bb578190505b6104cf6104c78561038c565b83018261046f565b50505b505050565b5f82821c905092915050565b5f6104f25f19846008026104d7565b1980831691505092915050565b5f61050a83836104e3565b9150826002028217905092915050565b61052382610313565b67ffffffffffffffff81111561053c5761053b61016f565b5b610546825461034a565b610551828285610491565b5f60209050601f831160018114610582575f8415610570578287015190505b61057a85826104ff565b8655506105e1565b601f1984166105908661037a565b5f5b828110156105b757848901518255600182019150602085019450602081019050610592565b868310156105d457848901516105d0601f8916826104e3565b8355505b6001600288020188555050505b505050505050565b60805160a05160c0516115ce6106445f395f818161021301526102bc01525f81816103b6015281816105cd015261074701525f8181610237015281816104d5015281816106730152818161076b01526108a601526115ce5ff3fe608060405234801561000f575f5ffd5b50600436106100a7575f3560e01c80637069b3f01161006f5780637069b3f01461016157806384f24c4b1461017d5780638da5cb5b1461019b57806391da2b3d146101b9578063b269681d146101d7578063edb88ae9146101f5576100a7565b806314ecec76146100ab578063227f3dbf146100c95780632961ac40146100e55780633cf20025146101015780633ea9c15714610131575b5f5ffd5b6100b3610211565b6040516100c09190610b59565b60405180910390f35b6100e360048036038101906100de9190610ba5565b610235565b005b6100ff60048036038101906100fa9190610c4d565b6104d3565b005b61011b60048036038101906101169190610cf2565b6105a6565b6040516101289190610d37565b60405180910390f35b61014b60048036038101906101469190610ba5565b6105c3565b6040516101589190610d9f565b60405180910390f35b61017b60048036038101906101769190610c4d565b610671565b005b610185610745565b6040516101929190610e13565b60405180910390f35b6101a3610769565b6040516101b09190610e3b565b60405180910390f35b6101c161078d565b6040516101ce9190610ec4565b60405180910390f35b6101df610819565b6040516101ec9190610ec4565b60405180910390f35b61020f600480360381019061020a9190610f0e565b6108a4565b005b7f000000000000000000000000000000000000000000000000000000000000000081565b7f000000000000000000000000000000000000000000000000000000000000000073ffffffffffffffffffffffffffffffffffffffff163373ffffffffffffffffffffffffffffffffffffffff16146102ba576040517f30cd747100000000000000000000000000000000000000000000000000000000815260040160405180910390fd5b7f0000000000000000000000000000000000000000000000000000000000000000815f013514610316576040517f17ae070d00000000000000000000000000000000000000000000000000000000815260040160405180910390fd5b60025f82602001602081019061032c9190610cf2565b73ffffffffffffffffffffffffffffffffffffffff1673ffffffffffffffffffffffffffffffffffffffff1681526020019081526020015f205f9054906101000a900460ff166103a8576040517f75b24d4000000000000000000000000000000000000000000000000000000000815260040160405180910390fd5b5f6103b2826109cf565b90507f000000000000000000000000000000000000000000000000000000000000000073ffffffffffffffffffffffffffffffffffffffff16637f0a3bf95f836040518363ffffffff1660e01b815260040161040f92919061103c565b5f604051808303815f87803b158015610426575f5ffd5b505af1158015610438573d5f5f3e3d5ffd5b5050505081604001602081019061044f9190610cf2565b73ffffffffffffffffffffffffffffffffffffffff168260200160208101906104789190610cf2565b73ffffffffffffffffffffffffffffffffffffffff16835f01357f4682719d4b819c8c93522a2e9d723fd732be1b4a8a9241b29ce8a05d471220c38560a00135856040516104c7929190611089565b60405180910390a45050565b7f000000000000000000000000000000000000000000000000000000000000000073ffffffffffffffffffffffffffffffffffffffff163373ffffffffffffffffffffffffffffffffffffffff1614610558576040517f30cd747100000000000000000000000000000000000000000000000000000000815260040160405180910390fd5b81815f9182610568929190611273565b507f2eef771d6450acfb697f090cda89bae92577d0abb72a367c2cc0bb16a87b0af7828260405161059a92919061137a565b60405180910390a15050565b6002602052805f5260405f205f915054906101000a900460ff1681565b6105cb610b15565b7f000000000000000000000000000000000000000000000000000000000000000073ffffffffffffffffffffffffffffffffffffffff166347400c23610610846109cf565b6040518263ffffffff1660e01b815260040161062c9190610ec4565b6040805180830381865afa158015610646573d5f5f3e3d5ffd5b505050506040513d601f19601f8201168201806040525081019061066a9190611462565b9050919050565b7f000000000000000000000000000000000000000000000000000000000000000073ffffffffffffffffffffffffffffffffffffffff163373ffffffffffffffffffffffffffffffffffffffff16146106f6576040517f30cd747100000000000000000000000000000000000000000000000000000000815260040160405180910390fd5b818160019182610707929190611273565b507fe0a85ced86c6479c5b212cc6129bc8f573c2a391e84df013c161b0b228e44b11828260405161073992919061137a565b60405180910390a15050565b7f000000000000000000000000000000000000000000000000000000000000000081565b7f000000000000000000000000000000000000000000000000000000000000000081565b6001805461079a90610f79565b80601f01602080910402602001604051908101604052809291908181526020018280546107c690610f79565b80156108115780601f106107e857610100808354040283529160200191610811565b820191905f5260205f20905b8154815290600101906020018083116107f457829003601f168201915b505050505081565b5f805461082590610f79565b80601f016020809104026020016040519081016040528092919081815260200182805461085190610f79565b801561089c5780601f106108735761010080835404028352916020019161089c565b820191905f5260205f20905b81548152906001019060200180831161087f57829003601f168201915b505050505081565b7f000000000000000000000000000000000000000000000000000000000000000073ffffffffffffffffffffffffffffffffffffffff163373ffffffffffffffffffffffffffffffffffffffff1614610929576040517f30cd747100000000000000000000000000000000000000000000000000000000815260040160405180910390fd5b8060025f8473ffffffffffffffffffffffffffffffffffffffff1673ffffffffffffffffffffffffffffffffffffffff1681526020019081526020015f205f6101000a81548160ff0219169083151502179055508173ffffffffffffffffffffffffffffffffffffffff167f17e84c0e5b25523e0a7ec98f79c222755e02808eb019e4973f861c947775d509826040516109c39190610d37565b60405180910390a25050565b60605f600180546109df90610f79565b905003610a18576040517f6c44024200000000000000000000000000000000000000000000000000000000815260040160405180910390fd5b6001826020016020810190610a2d9190610cf2565b30846040016020810190610a419190610cf2565b8560600135868060800190610a569190611499565b8860a00135604051602401610a70969594939291906114fb565b6040516020818303038152906040527f86249f12000000000000000000000000000000000000000000000000000000007bffffffffffffffffffffffffffffffffffffffffffffffffffffffff19166020820180517bffffffffffffffffffffffffffffffffffffffffffffffffffffffff8381831617835250505050604051602001610aff93929190611555565b6040516020818303038152906040529050919050565b60405180604001604052805f67ffffffffffffffff1681526020015f67ffffffffffffffff1681525090565b5f819050919050565b610b5381610b41565b82525050565b5f602082019050610b6c5f830184610b4a565b92915050565b5f604051905090565b5f5ffd5b5f5ffd5b5f5ffd5b5f60c08284031215610b9c57610b9b610b83565b5b81905092915050565b5f60208284031215610bba57610bb9610b7b565b5b5f82013567ffffffffffffffff811115610bd757610bd6610b7f565b5b610be384828501610b87565b91505092915050565b5f5ffd5b5f5ffd5b5f5ffd5b5f5f83601f840112610c0d57610c0c610bec565b5b8235905067ffffffffffffffff811115610c2a57610c29610bf0565b5b602083019150836001820283011115610c4657610c45610bf4565b5b9250929050565b5f5f60208385031215610c6357610c62610b7b565b5b5f83013567ffffffffffffffff811115610c8057610c7f610b7f565b5b610c8c85828601610bf8565b92509250509250929050565b5f73ffffffffffffffffffffffffffffffffffffffff82169050919050565b5f610cc182610c98565b9050919050565b610cd181610cb7565b8114610cdb575f5ffd5b50565b5f81359050610cec81610cc8565b92915050565b5f60208284031215610d0757610d06610b7b565b5b5f610d1484828501610cde565b91505092915050565b5f8115159050919050565b610d3181610d1d565b82525050565b5f602082019050610d4a5f830184610d28565b92915050565b5f67ffffffffffffffff82169050919050565b610d6c81610d50565b82525050565b604082015f820151610d865f850182610d63565b506020820151610d996020850182610d63565b50505050565b5f604082019050610db25f830184610d72565b92915050565b5f819050919050565b5f610ddb610dd6610dd184610c98565b610db8565b610c98565b9050919050565b5f610dec82610dc1565b9050919050565b5f610dfd82610de2565b9050919050565b610e0d81610df3565b82525050565b5f602082019050610e265f830184610e04565b92915050565b610e3581610cb7565b82525050565b5f602082019050610e4e5f830184610e2c565b92915050565b5f81519050919050565b5f82825260208201905092915050565b8281835e5f83830152505050565b5f601f19601f8301169050919050565b5f610e9682610e54565b610ea08185610e5e565b9350610eb0818560208601610e6e565b610eb981610e7c565b840191505092915050565b5f6020820190508181035f830152610edc8184610e8c565b905092915050565b610eed81610d1d565b8114610ef7575f5ffd5b50565b5f81359050610f0881610ee4565b92915050565b5f5f60408385031215610f2457610f23610b7b565b5b5f610f3185828601610cde565b9250506020610f4285828601610efa565b9150509250929050565b7f4e487b71000000000000000000000000000000000000000000000000000000005f52602260045260245ffd5b5f6002820490506001821680610f9057607f821691505b602082108103610fa357610fa2610f4c565b5b50919050565b5f819050815f5260205f209050919050565b5f8154610fc781610f79565b610fd18186610e5e565b9450600182165f8114610feb576001811461100157611033565b60ff198316865281151560200286019350611033565b61100a85610fa9565b5f5b8381101561102b5781548189015260018201915060208101905061100c565b808801955050505b50505092915050565b5f6040820190508181035f8301526110548185610fbb565b905081810360208301526110688184610e8c565b90509392505050565b5f819050919050565b61108381611071565b82525050565b5f60408201905061109c5f83018561107a565b81810360208301526110ae8184610e8c565b90509392505050565b5f82905092915050565b7f4e487b71000000000000000000000000000000000000000000000000000000005f52604160045260245ffd5b5f6020601f8301049050919050565b5f82821b905092915050565b5f600883026111387fffffffffffffffffffffffffffffffffffffffffffffffffffffffffffffffff826110fd565b61114286836110fd565b95508019841693508086168417925050509392505050565b5f61117461116f61116a84610b41565b610db8565b610b41565b9050919050565b5f819050919050565b61118d8361115a565b6111a16111998261117b565b848454611109565b825550505050565b5f5f905090565b6111b86111a9565b6111c3818484611184565b505050565b5b818110156111e6576111db5f826111b0565b6001810190506111c9565b5050565b601f82111561122b576111fc81610fa9565b611205846110ee565b81016020851015611214578190505b611228611220856110ee565b8301826111c8565b50505b505050565b5f82821c905092915050565b5f61124b5f1984600802611230565b1980831691505092915050565b5f611263838361123c565b9150826002028217905092915050565b61127d83836110b7565b67ffffffffffffffff811115611296576112956110c1565b5b6112a08254610f79565b6112ab8282856111ea565b5f601f8311600181146112d8575f84156112c6578287013590505b6112d08582611258565b865550611337565b601f1984166112e686610fa9565b5f5b8281101561130d578489013582556001820191506020850194506020810190506112e8565b8683101561132a5784890135611326601f89168261123c565b8355505b6001600288020188555050505b50505050505050565b828183375f83830152505050565b5f6113598385610e5e565b9350611366838584611340565b61136f83610e7c565b840190509392505050565b5f6020820190508181035f83015261139381848661134e565b90509392505050565b5f5ffd5b6113a982610e7c565b810181811067ffffffffffffffff821117156113c8576113c76110c1565b5b80604052505050565b5f6113da610b72565b90506113e682826113a0565b919050565b6113f481610d50565b81146113fe575f5ffd5b50565b5f8151905061140f816113eb565b92915050565b5f6040828403121561142a5761142961139c565b5b61143460406113d1565b90505f61144384828501611401565b5f83015250602061145684828501611401565b60208301525092915050565b5f6040828403121561147757611476610b7b565b5b5f61148484828501611415565b91505092915050565b5f5ffd5b5f5ffd5b5f5ffd5b5f5f833560016020038436030381126114b5576114b461148d565b5b80840192508235915067ffffffffffffffff8211156114d7576114d6611491565b5b6020830192506001820236038313156114f3576114f2611495565b5b509250929050565b5f60a08201905061150e5f830189610e2c565b61151b6020830188610e2c565b6115286040830187610b4a565b818103606083015261153b81858761134e565b905061154a608083018461107a565b979650505050505050565b5f6060820190508181035f83015261156d8186610fbb565b905061157c6020830185610e2c565b818103604083015261158e8184610e8c565b905094935050505056fea26469706673582212205aa3d31959d3479c6ffe4bc2fffd8975bee3aaa4f15c28a4cbda1d09d676aa6d64736f6c634300081c0033",
  "linkReferences": {},
  "deployedLinkReferences": {},
  "immutableReferences": {
    "815": [
      {
        "length": 32,
        "start": 567
      },
      {
        "length": 32,
        "start": 1237
      },
      {
        "length": 32,
        "start": 1651
      },
      {
        "length": 32,
        "start": 1899
      },
      {
        "length": 32,
        "start": 2214
      }
    ],
    "818": [
      {
        "length": 32,
        "start": 950
      },
      {
        "length": 32,
        "start": 1485
      },
      {
        "length": 32,
        "start": 1863
      }
    ],
    "824": [
      {
        "length": 32,
        "start": 531
      },
      {
        "length": 32,
        "start": 700
      }
    ]
  },
  "inputSourceName": "project/contracts/CrossChainDispatcher.sol",
  "buildInfoId": "solc-0_8_28-fa02a1e4607aa1a4057559512e36f57f4f244235"
}