{
  "_format": "hh3-artifact-1",
  "contractName": "CrossChainDispatcher",
  "sourceName": "contracts/CrossChainDispatcher.sol",
  "abi": [
    {
      "inputs": [
        {
          "internalType": "address",
          "name": "owner_",
          "type": "address"
        },
        {
          "internalType": "address",
          "name": "xcmPrecompileAddress",
          "type": "address"
        }
      ],
      "stateMutability": "nonpayable",
      "type": "constructor"
    },
    {
      "inputs": [],
      "name": "EmptyEncodedMessage",
      "type": "error"
    },
    {
      "inputs": [],
      "name": "InvalidEndpoint",
      "type": "error"
    },
    {
      "inputs": [],
      "name": "InvalidInstructionAmount",
      "type": "error"
    },
    {
      "inputs": [],
      "name": "InvalidInstructionAsset",
      "type": "error"
    },
    {
      "inputs": [],
      "name": "InvalidInstructionCount",
      "type": "error"
    },
    {
      "inputs": [],
      "name": "InvalidInstructionTarget",
      "type": "error"
    },
    {
      "inputs": [],
      "name": "NotOwner",
      "type": "error"
    },
    {
      "inputs": [],
      "name": "UnsupportedInstructionSequence",
      "type": "error"
    },
    {
      "anonymous": false,
      "inputs": [
        {
          "indexed": true,
          "internalType": "bytes32",
          "name": "requestId",
          "type": "bytes32"
        },
        {
          "indexed": true,
          "internalType": "uint8",
          "name": "endpointKind",
          "type": "uint8"
        },
        {
          "indexed": true,
          "internalType": "bytes32",
          "name": "assetId",
          "type": "bytes32"
        },
        {
          "indexed": false,
          "internalType": "uint128",
          "name": "withdrawAmount",
          "type": "uint128"
        },
        {
          "indexed": false,
          "internalType": "uint32",
          "name": "destinationParaId",
          "type": "uint32"
        },
        {
          "indexed": false,
          "internalType": "bytes32",
          "name": "beneficiaryAccountId32",
          "type": "bytes32"
        }
      ],
      "name": "ProgramExecuted",
      "type": "event"
    },
    {
      "anonymous": false,
      "inputs": [
        {
          "indexed": true,
          "internalType": "bytes32",
          "name": "requestId",
          "type": "bytes32"
        },
        {
          "indexed": false,
          "internalType": "bytes",
          "name": "destination",
          "type": "bytes"
        },
        {
          "indexed": false,
          "internalType": "bytes",
          "name": "message",
          "type": "bytes"
        }
      ],
      "name": "RawXcmDispatched",
      "type": "event"
    },
    {
      "anonymous": false,
      "inputs": [
        {
          "indexed": true,
          "internalType": "bytes32",
          "name": "requestId",
          "type": "bytes32"
        },
        {
          "indexed": false,
          "internalType": "bytes",
          "name": "message",
          "type": "bytes"
        },
        {
          "indexed": false,
          "internalType": "uint64",
          "name": "refTime",
          "type": "uint64"
        },
        {
          "indexed": false,
          "internalType": "uint64",
          "name": "proofSize",
          "type": "uint64"
        }
      ],
      "name": "RawXcmExecuted",
      "type": "event"
    },
    {
      "inputs": [],
      "name": "ENDPOINT_KIND_EXECUTE",
      "outputs": [
        {
          "internalType": "uint8",
          "name": "",
          "type": "uint8"
        }
      ],
      "stateMutability": "view",
      "type": "function"
    },
    {
      "inputs": [],
      "name": "ENDPOINT_KIND_SEND",
      "outputs": [
        {
          "internalType": "uint8",
          "name": "",
          "type": "uint8"
        }
      ],
      "stateMutability": "view",
      "type": "function"
    },
    {
      "inputs": [],
      "name": "INSTRUCTION_KIND_BUY_EXECUTION",
      "outputs": [
        {
          "internalType": "uint8",
          "name": "",
          "type": "uint8"
        }
      ],
      "stateMutability": "view",
      "type": "function"
    },
    {
      "inputs": [],
      "name": "INSTRUCTION_KIND_DEPOSIT_ASSET",
      "outputs": [
        {
          "internalType": "uint8",
          "name": "",
          "type": "uint8"
        }
      ],
      "stateMutability": "view",
      "type": "function"
    },
    {
      "inputs": [],
      "name": "INSTRUCTION_KIND_INITIATE_TRANSFER",
      "outputs": [
        {
          "internalType": "uint8",
          "name": "",
          "type": "uint8"
        }
      ],
      "stateMutability": "view",
      "type": "function"
    },
    {
      "inputs": [],
      "name": "INSTRUCTION_KIND_PAY_FEES",
      "outputs": [
        {
          "internalType": "uint8",
          "name": "",
          "type": "uint8"
        }
      ],
      "stateMutability": "view",
      "type": "function"
    },
    {
      "inputs": [],
      "name": "INSTRUCTION_KIND_WITHDRAW_ASSET",
      "outputs": [
        {
          "internalType": "uint8",
          "name": "",
          "type": "uint8"
        }
      ],
      "stateMutability": "view",
      "type": "function"
    },
    {
      "inputs": [],
      "name": "PAS_NATIVE_ASSET_ID",
      "outputs": [
        {
          "internalType": "bytes32",
          "name": "",
          "type": "bytes32"
        }
      ],
      "stateMutability": "view",
      "type": "function"
    },
    {
      "inputs": [
        {
          "components": [
            {
              "internalType": "uint8",
              "name": "endpointKind",
              "type": "uint8"
            },
            {
              "internalType": "uint32",
              "name": "endpointParaId",
              "type": "uint32"
            },
            {
              "components": [
                {
                  "internalType": "uint8",
                  "name": "kind",
                  "type": "uint8"
                },
                {
                  "internalType": "bytes32",
                  "name": "assetId",
                  "type": "bytes32"
                },
                {
                  "internalType": "uint128",
                  "name": "amount",
                  "type": "uint128"
                },
                {
                  "internalType": "uint32",
                  "name": "paraId",
                  "type": "uint32"
                },
                {
                  "internalType": "bytes32",
                  "name": "accountId32",
                  "type": "bytes32"
                }
              ],
              "internalType": "struct CrossChainDispatcher.XcmInstruction[]",
              "name": "instructions",
              "type": "tuple[]"
            }
          ],
          "internalType": "struct CrossChainDispatcher.XcmProgram",
          "name": "program",
          "type": "tuple"
        }
      ],
      "name": "buildProgram",
      "outputs": [
        {
          "internalType": "bytes",
          "name": "",
          "type": "bytes"
        }
      ],
      "stateMutability": "pure",
      "type": "function"
    },
    {
      "inputs": [
        {
          "internalType": "bytes32",
          "name": "requestId",
          "type": "bytes32"
        },
        {
          "internalType": "bytes",
          "name": "destination",
          "type": "bytes"
        },
        {
          "internalType": "bytes",
          "name": "encodedMessage",
          "type": "bytes"
        }
      ],
      "name": "dispatchEncodedMessage",
      "outputs": [],
      "stateMutability": "nonpayable",
      "type": "function"
    },
    {
      "inputs": [
        {
          "internalType": "bytes32",
          "name": "requestId",
          "type": "bytes32"
        },
        {
          "components": [
            {
              "internalType": "uint8",
              "name": "endpointKind",
              "type": "uint8"
            },
            {
              "internalType": "uint32",
              "name": "endpointParaId",
              "type": "uint32"
            },
            {
              "components": [
                {
                  "internalType": "uint8",
                  "name": "kind",
                  "type": "uint8"
                },
                {
                  "internalType": "bytes32",
                  "name": "assetId",
                  "type": "bytes32"
                },
                {
                  "internalType": "uint128",
                  "name": "amount",
                  "type": "uint128"
                },
                {
                  "internalType": "uint32",
                  "name": "paraId",
                  "type": "uint32"
                },
                {
                  "internalType": "bytes32",
                  "name": "accountId32",
                  "type": "bytes32"
                }
              ],
              "internalType": "struct CrossChainDispatcher.XcmInstruction[]",
              "name": "instructions",
              "type": "tuple[]"
            }
          ],
          "internalType": "struct CrossChainDispatcher.XcmProgram",
          "name": "program",
          "type": "tuple"
        }
      ],
      "name": "dispatchProgram",
      "outputs": [],
      "stateMutability": "nonpayable",
      "type": "function"
    },
    {
      "inputs": [
        {
          "internalType": "bytes",
          "name": "message",
          "type": "bytes"
        }
      ],
      "name": "estimateEncodedMessageWeight",
      "outputs": [
        {
          "components": [
            {
              "internalType": "uint64",
              "name": "refTime",
              "type": "uint64"
            },
            {
              "internalType": "uint64",
              "name": "proofSize",
              "type": "uint64"
            }
          ],
          "internalType": "struct IXcm.Weight",
          "name": "",
          "type": "tuple"
        }
      ],
      "stateMutability": "view",
      "type": "function"
    },
    {
      "inputs": [
        {
          "components": [
            {
              "internalType": "uint8",
              "name": "endpointKind",
              "type": "uint8"
            },
            {
              "internalType": "uint32",
              "name": "endpointParaId",
              "type": "uint32"
            },
            {
              "components": [
                {
                  "internalType": "uint8",
                  "name": "kind",
                  "type": "uint8"
                },
                {
                  "internalType": "bytes32",
                  "name": "assetId",
                  "type": "bytes32"
                },
                {
                  "internalType": "uint128",
                  "name": "amount",
                  "type": "uint128"
                },
                {
                  "internalType": "uint32",
                  "name": "paraId",
                  "type": "uint32"
                },
                {
                  "internalType": "bytes32",
                  "name": "accountId32",
                  "type": "bytes32"
                }
              ],
              "internalType": "struct CrossChainDispatcher.XcmInstruction[]",
              "name": "instructions",
              "type": "tuple[]"
            }
          ],
          "internalType": "struct CrossChainDispatcher.XcmProgram",
          "name": "program",
          "type": "tuple"
        }
      ],
      "name": "estimateProgramWeight",
      "outputs": [
        {
          "components": [
            {
              "internalType": "uint64",
              "name": "refTime",
              "type": "uint64"
            },
            {
              "internalType": "uint64",
              "name": "proofSize",
              "type": "uint64"
            }
          ],
          "internalType": "struct IXcm.Weight",
          "name": "",
          "type": "tuple"
        }
      ],
      "stateMutability": "view",
      "type": "function"
    },
    {
      "inputs": [
        {
          "internalType": "bytes32",
          "name": "requestId",
          "type": "bytes32"
        },
        {
          "internalType": "bytes",
          "name": "encodedMessage",
          "type": "bytes"
        },
        {
          "components": [
            {
              "internalType": "uint64",
              "name": "refTime",
              "type": "uint64"
            },
            {
              "internalType": "uint64",
              "name": "proofSize",
              "type": "uint64"
            }
          ],
          "internalType": "struct IXcm.Weight",
          "name": "weight",
          "type": "tuple"
        }
      ],
      "name": "executeEncodedMessage",
      "outputs": [],
      "stateMutability": "nonpayable",
      "type": "function"
    },
    {
      "inputs": [
        {
          "internalType": "bytes32",
          "name": "requestId",
          "type": "bytes32"
        },
        {
          "components": [
            {
              "internalType": "uint8",
              "name": "endpointKind",
              "type": "uint8"
            },
            {
              "internalType": "uint32",
              "name": "endpointParaId",
              "type": "uint32"
            },
            {
              "components": [
                {
                  "internalType": "uint8",
                  "name": "kind",
                  "type": "uint8"
                },
                {
                  "internalType": "bytes32",
                  "name": "assetId",
                  "type": "bytes32"
                },
                {
                  "internalType": "uint128",
                  "name": "amount",
                  "type": "uint128"
                },
                {
                  "internalType": "uint32",
                  "name": "paraId",
                  "type": "uint32"
                },
                {
                  "internalType": "bytes32",
                  "name": "accountId32",
                  "type": "bytes32"
                }
              ],
              "internalType": "struct CrossChainDispatcher.XcmInstruction[]",
              "name": "instructions",
              "type": "tuple[]"
            }
          ],
          "internalType": "struct CrossChainDispatcher.XcmProgram",
          "name": "program",
          "type": "tuple"
        }
      ],
      "name": "executeProgram",
      "outputs": [],
      "stateMutability": "nonpayable",
      "type": "function"
    },
    {
      "inputs": [],
      "name": "owner",
      "outputs": [
        {
          "internalType": "address",
          "name": "",
          "type": "address"
        }
      ],
      "stateMutability": "view",
      "type": "function"
    },
    {
      "inputs": [
        {
          "components": [
            {
              "internalType": "uint8",
              "name": "endpointKind",
              "type": "uint8"
            },
            {
              "internalType": "uint32",
              "name": "endpointParaId",
              "type": "uint32"
            },
            {
              "components": [
                {
                  "internalType": "uint8",
                  "name": "kind",
                  "type": "uint8"
                },
                {
                  "internalType": "bytes32",
                  "name": "assetId",
                  "type": "bytes32"
                },
                {
                  "internalType": "uint128",
                  "name": "amount",
                  "type": "uint128"
                },
                {
                  "internalType": "uint32",
                  "name": "paraId",
                  "type": "uint32"
                },
                {
                  "internalType": "bytes32",
                  "name": "accountId32",
                  "type": "bytes32"
                }
              ],
              "internalType": "struct CrossChainDispatcher.XcmInstruction[]",
              "name": "instructions",
              "type": "tuple[]"
            }
          ],
          "internalType": "struct CrossChainDispatcher.XcmProgram",
          "name": "program",
          "type": "tuple"
        }
      ],
      "name": "summarizeProgram",
      "outputs": [
        {
          "components": [
            {
              "internalType": "bytes32",
              "name": "assetId",
              "type": "bytes32"
            },
            {
              "internalType": "uint128",
              "name": "withdrawAmount",
              "type": "uint128"
            },
            {
              "internalType": "uint128",
              "name": "localFee",
              "type": "uint128"
            },
            {
              "internalType": "uint128",
              "name": "remoteFee",
              "type": "uint128"
            },
            {
              "internalType": "uint32",
              "name": "destinationParaId",
              "type": "uint32"
            },
            {
              "internalType": "bytes32",
              "name": "beneficiaryAccountId32",
              "type": "bytes32"
            }
          ],
          "internalType": "struct CrossChainDispatcher.TransferProgramSummary",
          "name": "",
          "type": "tuple"
        }
      ],
      "stateMutability": "pure",
      "type": "function"
    },
    {
      "inputs": [],
      "name": "xcm",
      "outputs": [
        {
          "internalType": "contract IXcm",
          "name": "",
          "type": "address"
        }
      ],
      "stateMutability": "view",
      "type": "function"
    },
    {
      "stateMutability": "payable",
      "type": "receive"
    }
  ],
  "bytecode": "0x60c060405234801561000f575f5ffd5b506040516131b43803806131b4833981810160405281019061003191906100fe565b8173ffffffffffffffffffffffffffffffffffffffff1660808173ffffffffffffffffffffffffffffffffffffffff16815250508073ffffffffffffffffffffffffffffffffffffffff1660a08173ffffffffffffffffffffffffffffffffffffffff1681525050505061013c565b5f5ffd5b5f73ffffffffffffffffffffffffffffffffffffffff82169050919050565b5f6100cd826100a4565b9050919050565b6100dd816100c3565b81146100e7575f5ffd5b50565b5f815190506100f8816100d4565b92915050565b5f5f60408385031215610114576101136100a0565b5b5f610121858286016100ea565b9250506020610132858286016100ea565b9150509250929050565b60805160a05161300a6101aa5f395f81816105aa0152818161071d015281816108070152818161099b01528181610a3401528181610dcd01528181610ed6015261106801525f818161044d015281816108ad01528181610df101528181610e150152610fa7015261300a5ff3fe60806040526004361061010c575f3560e01c806384f24c4b11610094578063d5dca93f11610063578063d5dca93f14610379578063dd72a31b146103a3578063e93750e1146103cd578063fc3929d8146103f7578063fd4fe2fc1461042157610113565b806384f24c4b146102d55780638da5cb5b146102ff5780639263cb7914610329578063b35381d51461035157610113565b806369815bcc116100db57806369815bcc146101e15780636c92dd241461020b578063763f4f371461023557806376a8891c1461027157806381eba6b91461029957610113565b806306c8fe18146101175780631bbfb6e61461013f5780634179f9771461016957806362f0ebe4146101a557610113565b3661011357005b5f5ffd5b348015610122575f5ffd5b5061013d60048036038101906101389190612056565b61044b565b005b34801561014a575f5ffd5b506101536106d2565b60405161016091906120cb565b60405180910390f35b348015610174575f5ffd5b5061018f600480360381019061018a9190612145565b6106d7565b60405161019c91906121df565b60405180910390f35b3480156101b0575f5ffd5b506101cb60048036038101906101c691906121f8565b6107bc565b6040516101d8919061230f565b60405180910390f35b3480156101ec575f5ffd5b506101f56107d4565b60405161020291906120cb565b60405180910390f35b348015610216575f5ffd5b5061021f6107d9565b60405161022c9190612337565b60405180910390f35b348015610240575f5ffd5b5061025b600480360381019061025691906121f8565b6107fd565b60405161026891906121df565b60405180910390f35b34801561027c575f5ffd5b5061029760048036038101906102929190612056565b6108ab565b005b3480156102a4575f5ffd5b506102bf60048036038101906102ba91906121f8565b610b65565b6040516102cc91906123c0565b60405180910390f35b3480156102e0575f5ffd5b506102e9610dcb565b6040516102f6919061245a565b60405180910390f35b34801561030a575f5ffd5b50610313610def565b6040516103209190612493565b60405180910390f35b348015610334575f5ffd5b5061034f600480360381019061034a91906124ac565b610e13565b005b34801561035c575f5ffd5b506103776004803603810190610372919061255b565b610fa5565b005b348015610384575f5ffd5b5061038d611157565b60405161039a91906120cb565b60405180910390f35b3480156103ae575f5ffd5b506103b761115c565b6040516103c491906120cb565b60405180910390f35b3480156103d8575f5ffd5b506103e1611160565b6040516103ee91906120cb565b60405180910390f35b348015610402575f5ffd5b5061040b611164565b60405161041891906120cb565b60405180910390f35b34801561042c575f5ffd5b50610435611169565b60405161044291906120cb565b60405180910390f35b7f000000000000000000000000000000000000000000000000000000000000000073ffffffffffffffffffffffffffffffffffffffff163373ffffffffffffffffffffffffffffffffffffffff16146104d0576040517f30cd747100000000000000000000000000000000000000000000000000000000815260040160405180910390fd5b600160ff16815f0160208101906104e791906125f6565b60ff1614610521576040517ff1cbb56700000000000000000000000000000000000000000000000000000000815260040160405180910390fd5b5f816020016020810190610535919061264b565b63ffffffff1603610572576040517fa197500500000000000000000000000000000000000000000000000000000000815260040160405180910390fd5b5f61057c8261116e565b90505f61058883610b65565b90505f6105a68460200160208101906105a1919061264b565b611a5a565b90507f000000000000000000000000000000000000000000000000000000000000000073ffffffffffffffffffffffffffffffffffffffff16637f0a3bf982846040518363ffffffff1660e01b8152600401610603929190612676565b5f604051808303815f87803b15801561061a575f5ffd5b505af115801561062c573d5f5f3e3d5ffd5b50505050847fc06973fc6f9959c1ae73c70633ff23570ec83cb0bbb88833b992be11ace888b18284604051610662929190612676565b60405180910390a2825f0151845f01602081019061068091906125f6565b60ff16867f8f918ac03df6ad20e4d38d107405318721757cc2a3d05947f514ff39861edc45866020015187608001518860a001516040516106c3939291906126c9565b60405180910390a45050505050565b600181565b6106df611f58565b5f838390500361071b576040517f3ac3605e00000000000000000000000000000000000000000000000000000000815260040160405180910390fd5b7f000000000000000000000000000000000000000000000000000000000000000073ffffffffffffffffffffffffffffffffffffffff166347400c2384846040518363ffffffff1660e01b8152600401610776929190612738565b6040805180830381865afa158015610790573d5f5f3e3d5ffd5b505050506040513d601f19601f820116820180604052508101906107b4919061284d565b905092915050565b6107c4611f84565b6107cd8261116e565b9050919050565b600181565b7fd22b05e20fb33b149dc39d0177dc37a3015af56dbb9807491b17bd84c765cb4081565b610805611f58565b7f000000000000000000000000000000000000000000000000000000000000000073ffffffffffffffffffffffffffffffffffffffff166347400c2361084a84610b65565b6040518263ffffffff1660e01b815260040161086691906123c0565b6040805180830381865afa158015610880573d5f5f3e3d5ffd5b505050506040513d601f19601f820116820180604052508101906108a4919061284d565b9050919050565b7f000000000000000000000000000000000000000000000000000000000000000073ffffffffffffffffffffffffffffffffffffffff163373ffffffffffffffffffffffffffffffffffffffff1614610930576040517f30cd747100000000000000000000000000000000000000000000000000000000815260040160405180910390fd5b5f60ff16815f01602081019061094691906125f6565b60ff1614610980576040517ff1cbb56700000000000000000000000000000000000000000000000000000000815260040160405180910390fd5b5f61098a8261116e565b90505f61099683610b65565b90505f7f000000000000000000000000000000000000000000000000000000000000000073ffffffffffffffffffffffffffffffffffffffff166347400c23836040518263ffffffff1660e01b81526004016109f291906123c0565b6040805180830381865afa158015610a0c573d5f5f3e3d5ffd5b505050506040513d601f19601f82011682018060405250810190610a30919061284d565b90507f000000000000000000000000000000000000000000000000000000000000000073ffffffffffffffffffffffffffffffffffffffff1663d3b7e04d83836040518363ffffffff1660e01b8152600401610a8d929190612878565b5f604051808303815f87803b158015610aa4575f5ffd5b505af1158015610ab6573d5f5f3e3d5ffd5b50505050847fd97249a22320e6b7b136797455b1f7b70c622ba805092c112a12995f8e5b827c83835f01518460200151604051610af5939291906128b5565b60405180910390a2825f0151845f016020810190610b1391906125f6565b60ff16867f8f918ac03df6ad20e4d38d107405318721757cc2a3d05947f514ff39861edc45866020015187608001518860a00151604051610b56939291906126c9565b60405180910390a45050505050565b6060610b708261116e565b505f6040518060400160405280600181526020017f050000000000000000000000000000000000000000000000000000000000000081525090505f5f90505b838060400190610bbf91906128fd565b9050811015610dc15736848060400190610bd991906128fd565b83818110610bea57610be961295f565b5b905060a0020190505f60ff16815f016020810190610c0891906125f6565b60ff1603610c415782610c1a82611a91565b604051602001610c2b9291906129c6565b6040516020818303038152906040529250610dad565b600260ff16815f016020810190610c5891906125f6565b60ff1603610c915782610c6a82611b36565b604051602001610c7b9291906129c6565b6040516020818303038152906040529250610dac565b600360ff16815f016020810190610ca891906125f6565b60ff1603610d7957848060400190610cc091906128fd565b9050600183610ccf9190612a1f565b10610d06576040517f5f2e2bde00000000000000000000000000000000000000000000000000000000815260040160405180910390fd5b82610d4382878060400190610d1b91906128fd565b600187610d289190612a1f565b818110610d3857610d3761295f565b5b905060a00201611bdc565b604051602001610d549291906129c6565b6040516020818303038152906040529250600182610d729190612a1f565b9150610dab565b6040517f5f2e2bde00000000000000000000000000000000000000000000000000000000815260040160405180910390fd5b5b5b508080610db990612a52565b915050610baf565b5080915050919050565b7f000000000000000000000000000000000000000000000000000000000000000081565b7f000000000000000000000000000000000000000000000000000000000000000081565b7f000000000000000000000000000000000000000000000000000000000000000073ffffffffffffffffffffffffffffffffffffffff163373ffffffffffffffffffffffffffffffffffffffff1614610e98576040517f30cd747100000000000000000000000000000000000000000000000000000000815260040160405180910390fd5b5f8282905003610ed4576040517f3ac3605e00000000000000000000000000000000000000000000000000000000815260040160405180910390fd5b7f000000000000000000000000000000000000000000000000000000000000000073ffffffffffffffffffffffffffffffffffffffff16637f0a3bf9858585856040518563ffffffff1660e01b8152600401610f339493929190612a99565b5f604051808303815f87803b158015610f4a575f5ffd5b505af1158015610f5c573d5f5f3e3d5ffd5b50505050847fc06973fc6f9959c1ae73c70633ff23570ec83cb0bbb88833b992be11ace888b185858585604051610f969493929190612a99565b60405180910390a25050505050565b7f000000000000000000000000000000000000000000000000000000000000000073ffffffffffffffffffffffffffffffffffffffff163373ffffffffffffffffffffffffffffffffffffffff161461102a576040517f30cd747100000000000000000000000000000000000000000000000000000000815260040160405180910390fd5b5f8383905003611066576040517f3ac3605e00000000000000000000000000000000000000000000000000000000815260040160405180910390fd5b7f000000000000000000000000000000000000000000000000000000000000000073ffffffffffffffffffffffffffffffffffffffff1663d3b7e04d8484846040518463ffffffff1660e01b81526004016110c393929190612b39565b5f604051808303815f87803b1580156110da575f5ffd5b505af11580156110ec573d5f5f3e3d5ffd5b50505050837fd97249a22320e6b7b136797455b1f7b70c622ba805092c112a12995f8e5b827c8484845f0160208101906111269190612b69565b8560200160208101906111399190612b69565b6040516111499493929190612b94565b60405180910390a250505050565b600381565b5f81565b5f81565b600281565b600481565b611176611f84565b600482806040019061118891906128fd565b9050146111c1576040517f01a26dbd00000000000000000000000000000000000000000000000000000000815260040160405180910390fd5b5f5f5f5f5f5f90505b8680604001906111da91906128fd565b90508110156119b657368780604001906111f491906128fd565b838181106112055761120461295f565b5b905060a0020190505f60ff16815f01602081019061122391906125f6565b60ff16036113f15785806112345750845b8061123c5750835b806112445750825b1561127b576040517f5f2e2bde00000000000000000000000000000000000000000000000000000000815260040160405180910390fd5b7fd22b05e20fb33b149dc39d0177dc37a3015af56dbb9807491b17bd84c765cb408160200135146112d8576040517f5f13c8b400000000000000000000000000000000000000000000000000000000815260040160405180910390fd5b5f8160400160208101906112ec9190612bfc565b6fffffffffffffffffffffffffffffffff1603611335576040517fb05749d000000000000000000000000000000000000000000000000000000000815260040160405180910390fd5b5f816060016020810190611349919061264b565b63ffffffff1614158061136257505f5f1b816080013514155b15611399576040517f5f2e2bde00000000000000000000000000000000000000000000000000000000815260040160405180910390fd5b600195508060200135875f0181815250508060400160208101906113bd9190612bfc565b87602001906fffffffffffffffffffffffffffffffff1690816fffffffffffffffffffffffffffffffff16815250506119a2565b600260ff16815f01602081019061140891906125f6565b60ff16036115ca5785158061141a5750845b806114225750835b8061142a5750825b15611461576040517f5f2e2bde00000000000000000000000000000000000000000000000000000000815260040160405180910390fd5b7fd22b05e20fb33b149dc39d0177dc37a3015af56dbb9807491b17bd84c765cb408160200135146114be576040517f5f13c8b400000000000000000000000000000000000000000000000000000000815260040160405180910390fd5b5f8160400160208101906114d29190612bfc565b6fffffffffffffffffffffffffffffffff160361151b576040517fb05749d000000000000000000000000000000000000000000000000000000000815260040160405180910390fd5b5f81606001602081019061152f919061264b565b63ffffffff1614158061154857505f5f1b816080013514155b1561157f576040517f5f2e2bde00000000000000000000000000000000000000000000000000000000815260040160405180910390fd5b600194508060400160208101906115969190612bfc565b87604001906fffffffffffffffffffffffffffffffff1690816fffffffffffffffffffffffffffffffff16815250506119a1565b600360ff16815f0160208101906115e191906125f6565b60ff160361196e578515806115f4575084155b806115fc5750835b806116045750825b1561163b576040517f5f2e2bde00000000000000000000000000000000000000000000000000000000815260040160405180910390fd5b7fd22b05e20fb33b149dc39d0177dc37a3015af56dbb9807491b17bd84c765cb40816020013514611698576040517f5f13c8b400000000000000000000000000000000000000000000000000000000815260040160405180910390fd5b5f8160400160208101906116ac9190612bfc565b6fffffffffffffffffffffffffffffffff16036116f5576040517fb05749d000000000000000000000000000000000000000000000000000000000815260040160405180910390fd5b5f816060016020810190611709919061264b565b63ffffffff1603611746576040517fa197500500000000000000000000000000000000000000000000000000000000815260040160405180910390fd5b5f5f1b816080013514611785576040517f5f2e2bde00000000000000000000000000000000000000000000000000000000815260040160405180910390fd5b87806040019061179591906128fd565b90506001836117a49190612a1f565b106117db576040517f5f2e2bde00000000000000000000000000000000000000000000000000000000815260040160405180910390fd5b368880604001906117ec91906128fd565b6001856117f99190612a1f565b8181106118095761180861295f565b5b905060a002019050600460ff16815f01602081019061182891906125f6565b60ff1614158061183e57505f5f1b816020013514155b8061186d57505f8160400160208101906118589190612bfc565b6fffffffffffffffffffffffffffffffff1614155b8061189057505f816060016020810190611887919061264b565b63ffffffff1614155b806118a057505f5f1b8160800135145b156118d7576040517f5f2e2bde00000000000000000000000000000000000000000000000000000000815260040160405180910390fd5b60019450600193508160400160208101906118f29190612bfc565b88606001906fffffffffffffffffffffffffffffffff1690816fffffffffffffffffffffffffffffffff1681525050816060016020810190611934919061264b565b886080019063ffffffff16908163ffffffff168152505080608001358860a00181815250506001836119669190612a1f565b9250506119a0565b6040517f5f2e2bde00000000000000000000000000000000000000000000000000000000815260040160405180910390fd5b5b5b5080806119ae90612a52565b9150506111ca565b508315806119c2575082155b806119cb575081155b806119d4575080155b80611a1a5750846060015185604001516119ee9190612c27565b6fffffffffffffffffffffffffffffffff1685602001516fffffffffffffffffffffffffffffffff1611155b15611a51576040517f5f2e2bde00000000000000000000000000000000000000000000000000000000815260040160405180910390fd5b50505050919050565b6060611a6b8263ffffffff16611cef565b604051602001611a7b9190612c90565b6040516020818303038152906040529050919050565b60605f60ff16825f016020810190611aa991906125f6565b60ff1614611ae3576040517f5f2e2bde00000000000000000000000000000000000000000000000000000000815260040160405180910390fd5b611b10826040016020810190611af99190612bfc565b6fffffffffffffffffffffffffffffffff16611cef565b604051602001611b209190612cdb565b6040516020818303038152906040529050919050565b6060600260ff16825f016020810190611b4f91906125f6565b60ff1614611b89576040517f5f2e2bde00000000000000000000000000000000000000000000000000000000815260040160405180910390fd5b611bb6826040016020810190611b9f9190612bfc565b6fffffffffffffffffffffffffffffffff16611cef565b604051602001611bc69190612d26565b6040516020818303038152906040529050919050565b6060600360ff16835f016020810190611bf591906125f6565b60ff16141580611c1d5750600460ff16825f016020810190611c1791906125f6565b60ff1614155b15611c54576040517f5f2e2bde00000000000000000000000000000000000000000000000000000000815260040160405180910390fd5b611c75836060016020810190611c6a919061264b565b63ffffffff16611cef565b611ca2846040016020810190611c8b9190612bfc565b6fffffffffffffffffffffffffffffffff16611cef565b8360800135604051602001611cb79190612d6b565b604051602081830303815290604052604051602001611cd893929190612df6565b604051602081830303815290604052905092915050565b60606040821015611d2857600282901b60f81b604051602001611d129190612e9e565b6040516020818303038152906040529050611f53565b614000821015611d75575f6001600284901b1790508060f81b60088261ffff16901c60f81b604051602001611d5e929190612eb8565b604051602081830303815290604052915050611f52565b6340000000821015611de3575f60028084901b1790508060f81b60088263ffffffff16901c60f81b60108363ffffffff16901c60f81b60188463ffffffff16901c60f81b604051602001611dcc9493929190612ee3565b604051602081830303815290604052915050611f51565b5f8290505f5f90505b5f8214611e0e57600181611e009190612f30565b9050600882901c9150611dec565b600181611e1b9190612f30565b60ff1667ffffffffffffffff811115611e3757611e3661275e565b5b6040519080825280601f01601f191660200182016040528015611e695781602001600182028036833780820191505090505b50925060036002600483611e7d9190612f64565b60ff16901b1760f81b835f81518110611e9957611e9861295f565b5b60200101907effffffffffffffffffffffffffffffffffffffffffffffffffffffffffffff191690815f1a9053505f5f90505b8160ff168160ff161015611f4d57806008611ee79190612f98565b60ff1685901c60f81b84600183611efe9190612f30565b60ff1681518110611f1257611f1161295f565b5b60200101907effffffffffffffffffffffffffffffffffffffffffffffffffffffffffffff191690815f1a9053508080600101915050611ecc565b5050505b5b5b919050565b60405180604001604052805f67ffffffffffffffff1681526020015f67ffffffffffffffff1681525090565b6040518060c001604052805f81526020015f6fffffffffffffffffffffffffffffffff1681526020015f6fffffffffffffffffffffffffffffffff1681526020015f6fffffffffffffffffffffffffffffffff1681526020015f63ffffffff1681526020015f81525090565b5f604051905090565b5f5ffd5b5f5ffd5b5f819050919050565b61201381612001565b811461201d575f5ffd5b50565b5f8135905061202e8161200a565b92915050565b5f5ffd5b5f6060828403121561204d5761204c612034565b5b81905092915050565b5f5f6040838503121561206c5761206b611ff9565b5b5f61207985828601612020565b925050602083013567ffffffffffffffff81111561209a57612099611ffd565b5b6120a685828601612038565b9150509250929050565b5f60ff82169050919050565b6120c5816120b0565b82525050565b5f6020820190506120de5f8301846120bc565b92915050565b5f5ffd5b5f5ffd5b5f5ffd5b5f5f83601f840112612105576121046120e4565b5b8235905067ffffffffffffffff811115612122576121216120e8565b5b60208301915083600182028301111561213e5761213d6120ec565b5b9250929050565b5f5f6020838503121561215b5761215a611ff9565b5b5f83013567ffffffffffffffff81111561217857612177611ffd565b5b612184858286016120f0565b92509250509250929050565b5f67ffffffffffffffff82169050919050565b6121ac81612190565b82525050565b604082015f8201516121c65f8501826121a3565b5060208201516121d960208501826121a3565b50505050565b5f6040820190506121f25f8301846121b2565b92915050565b5f6020828403121561220d5761220c611ff9565b5b5f82013567ffffffffffffffff81111561222a57612229611ffd565b5b61223684828501612038565b91505092915050565b61224881612001565b82525050565b5f6fffffffffffffffffffffffffffffffff82169050919050565b6122728161224e565b82525050565b5f63ffffffff82169050919050565b61229081612278565b82525050565b60c082015f8201516122aa5f85018261223f565b5060208201516122bd6020850182612269565b5060408201516122d06040850182612269565b5060608201516122e36060850182612269565b5060808201516122f66080850182612287565b5060a082015161230960a085018261223f565b50505050565b5f60c0820190506123225f830184612296565b92915050565b61233181612001565b82525050565b5f60208201905061234a5f830184612328565b92915050565b5f81519050919050565b5f82825260208201905092915050565b8281835e5f83830152505050565b5f601f19601f8301169050919050565b5f61239282612350565b61239c818561235a565b93506123ac81856020860161236a565b6123b581612378565b840191505092915050565b5f6020820190508181035f8301526123d88184612388565b905092915050565b5f73ffffffffffffffffffffffffffffffffffffffff82169050919050565b5f819050919050565b5f61242261241d612418846123e0565b6123ff565b6123e0565b9050919050565b5f61243382612408565b9050919050565b5f61244482612429565b9050919050565b6124548161243a565b82525050565b5f60208201905061246d5f83018461244b565b92915050565b5f61247d826123e0565b9050919050565b61248d81612473565b82525050565b5f6020820190506124a65f830184612484565b92915050565b5f5f5f5f5f606086880312156124c5576124c4611ff9565b5b5f6124d288828901612020565b955050602086013567ffffffffffffffff8111156124f3576124f2611ffd565b5b6124ff888289016120f0565b9450945050604086013567ffffffffffffffff81111561252257612521611ffd565b5b61252e888289016120f0565b92509250509295509295909350565b5f6040828403121561255257612551612034565b5b81905092915050565b5f5f5f5f6080858703121561257357612572611ff9565b5b5f61258087828801612020565b945050602085013567ffffffffffffffff8111156125a1576125a0611ffd565b5b6125ad878288016120f0565b935093505060406125c08782880161253d565b91505092959194509250565b6125d5816120b0565b81146125df575f5ffd5b50565b5f813590506125f0816125cc565b92915050565b5f6020828403121561260b5761260a611ff9565b5b5f612618848285016125e2565b91505092915050565b61262a81612278565b8114612634575f5ffd5b50565b5f8135905061264581612621565b92915050565b5f602082840312156126605761265f611ff9565b5b5f61266d84828501612637565b91505092915050565b5f6040820190508181035f83015261268e8185612388565b905081810360208301526126a28184612388565b90509392505050565b6126b48161224e565b82525050565b6126c381612278565b82525050565b5f6060820190506126dc5f8301866126ab565b6126e960208301856126ba565b6126f66040830184612328565b949350505050565b828183375f83830152505050565b5f612717838561235a565b93506127248385846126fe565b61272d83612378565b840190509392505050565b5f6020820190508181035f83015261275181848661270c565b90509392505050565b5f5ffd5b7f4e487b71000000000000000000000000000000000000000000000000000000005f52604160045260245ffd5b61279482612378565b810181811067ffffffffffffffff821117156127b3576127b261275e565b5b80604052505050565b5f6127c5611ff0565b90506127d1828261278b565b919050565b6127df81612190565b81146127e9575f5ffd5b50565b5f815190506127fa816127d6565b92915050565b5f604082840312156128155761281461275a565b5b61281f60406127bc565b90505f61282e848285016127ec565b5f830152506020612841848285016127ec565b60208301525092915050565b5f6040828403121561286257612861611ff9565b5b5f61286f84828501612800565b91505092915050565b5f6060820190508181035f8301526128908185612388565b905061289f60208301846121b2565b9392505050565b6128af81612190565b82525050565b5f6060820190508181035f8301526128cd8186612388565b90506128dc60208301856128a6565b6128e960408301846128a6565b949350505050565b5f5ffd5b5f5ffd5b5f5ffd5b5f5f83356001602003843603038112612919576129186128f1565b5b80840192508235915067ffffffffffffffff82111561293b5761293a6128f5565b5b60208301925060a082023603831315612957576129566128f9565b5b509250929050565b7f4e487b71000000000000000000000000000000000000000000000000000000005f52603260045260245ffd5b5f81905092915050565b5f6129a082612350565b6129aa818561298c565b93506129ba81856020860161236a565b80840191505092915050565b5f6129d18285612996565b91506129dd8284612996565b91508190509392505050565b5f819050919050565b7f4e487b71000000000000000000000000000000000000000000000000000000005f52601160045260245ffd5b5f612a29826129e9565b9150612a34836129e9565b9250828201905080821115612a4c57612a4b6129f2565b5b92915050565b5f612a5c826129e9565b91507fffffffffffffffffffffffffffffffffffffffffffffffffffffffffffffffff8203612a8e57612a8d6129f2565b5b600182019050919050565b5f6040820190508181035f830152612ab281868861270c565b90508181036020830152612ac781848661270c565b905095945050505050565b5f81359050612ae0816127d6565b92915050565b5f612af46020840184612ad2565b905092915050565b60408201612b0c5f830183612ae6565b612b185f8501826121a3565b50612b266020830183612ae6565b612b3360208501826121a3565b50505050565b5f6060820190508181035f830152612b5281858761270c565b9050612b616020830184612afc565b949350505050565b5f60208284031215612b7e57612b7d611ff9565b5b5f612b8b84828501612ad2565b91505092915050565b5f6060820190508181035f830152612bad81868861270c565b9050612bbc60208301856128a6565b612bc960408301846128a6565b95945050505050565b612bdb8161224e565b8114612be5575f5ffd5b50565b5f81359050612bf681612bd2565b92915050565b5f60208284031215612c1157612c10611ff9565b5b5f612c1e84828501612be8565b91505092915050565b5f612c318261224e565b9150612c3c8361224e565b925082820190506fffffffffffffffffffffffffffffffff811115612c6457612c636129f2565b5b92915050565b7f0501000000000000000000000000000000000000000000000000000000000000815250565b5f612c9a82612c6a565b600382019150612caa8284612996565b915081905092915050565b7f0c00040100000000000000000000000000000000000000000000000000000000815250565b5f612ce582612cb5565b600682019150612cf58284612996565b915081905092915050565b7f3001000000000000000000000000000000000000000000000000000000000000815250565b5f612d3082612d00565b600482019150612d408284612996565b915081905092915050565b5f819050919050565b612d65612d6082612001565b612d4b565b82525050565b5f612d768284612d54565b60208201915081905092915050565b7f3101010000000000000000000000000000000000000000000000000000000000815250565b7f0100000401000000000000000000000000000000000000000000000000000000815250565b7e0400010204040d010204000101000000000000000000000000000000000000815250565b5f612e0082612d85565b600482019150612e108286612996565b9150612e1b82612dab565b600782019150612e2b8285612996565b9150612e3682612dd1565b600f82019150612e468284612996565b9150819050949350505050565b5f7fff0000000000000000000000000000000000000000000000000000000000000082169050919050565b5f819050919050565b612e98612e9382612e53565b612e7e565b82525050565b5f612ea98284612e87565b60018201915081905092915050565b5f612ec38285612e87565b600182019150612ed38284612e87565b6001820191508190509392505050565b5f612eee8287612e87565b600182019150612efe8286612e87565b600182019150612f0e8285612e87565b600182019150612f1e8284612e87565b60018201915081905095945050505050565b5f612f3a826120b0565b9150612f45836120b0565b9250828201905060ff811115612f5e57612f5d6129f2565b5b92915050565b5f612f6e826120b0565b9150612f79836120b0565b9250828203905060ff811115612f9257612f916129f2565b5b92915050565b5f612fa2826120b0565b9150612fad836120b0565b9250828202612fbb816120b0565b9150808214612fcd57612fcc6129f2565b5b509291505056fea26469706673582212208a006c08fe5ed9fe6e63fcb924ee7786612e3e79b73cd052989674e4fdc5a1e964736f6c63430008220033",
  "linkReferences": {},
  "deployedLinkReferences": {},
  "immutableReferences": {
    "1208": [
      {
        "length": 32,
        "start": 1101
      },
      {
        "length": 32,
        "start": 2221
      },
      {
        "length": 32,
        "start": 3569
      },
      {
        "length": 32,
        "start": 3605
      },
      {
        "length": 32,
        "start": 4007
      }
    ],
    "1211": [
      {
        "length": 32,
        "start": 1450
      },
      {
        "length": 32,
        "start": 1821
      },
      {
        "length": 32,
        "start": 2055
      },
      {
        "length": 32,
        "start": 2459
      },
      {
        "length": 32,
        "start": 2612
      },
      {
        "length": 32,
        "start": 3533
      },
      {
        "length": 32,
        "start": 3798
      },
      {
        "length": 32,
        "start": 4200
      }
    ]
  },
  "inputSourceName": "project/contracts/CrossChainDispatcher.sol",
  "buildInfoId": "solc-0_8_28-11f9d5cd59206598ee179a163cff0d50798af915"
}