{
  "_format": "hh3-artifact-1",
  "contractName": "ExecutionModule",
  "sourceName": "contracts/ExecutionModule.sol",
  "abi": [
    {
      "inputs": [
        {
          "internalType": "address",
          "name": "account",
          "type": "address"
        },
        {
          "internalType": "bytes32",
          "name": "mode",
          "type": "bytes32"
        },
        {
          "internalType": "bytes",
          "name": "executionCalldata",
          "type": "bytes"
        }
      ],
      "name": "executeViaAccount",
      "outputs": [
        {
          "internalType": "bytes[]",
          "name": "returnData",
          "type": "bytes[]"
        }
      ],
      "stateMutability": "nonpayable",
      "type": "function"
    },
    {
      "inputs": [
        {
          "internalType": "uint256",
          "name": "moduleTypeId",
          "type": "uint256"
        }
      ],
      "name": "isModuleType",
      "outputs": [
        {
          "internalType": "bool",
          "name": "",
          "type": "bool"
        }
      ],
      "stateMutability": "pure",
      "type": "function"
    },
    {
      "inputs": [
        {
          "internalType": "bytes",
          "name": "",
          "type": "bytes"
        }
      ],
      "name": "onInstall",
      "outputs": [],
      "stateMutability": "nonpayable",
      "type": "function"
    },
    {
      "inputs": [
        {
          "internalType": "bytes",
          "name": "",
          "type": "bytes"
        }
      ],
      "name": "onUninstall",
      "outputs": [],
      "stateMutability": "nonpayable",
      "type": "function"
    }
  ],
  "bytecode": "0x6080604052348015600e575f5ffd5b5061081b8061001c5f395ff3fe608060405234801561000f575f5ffd5b506004361061004a575f3560e01c8063489b92e71461004e5780636d61fe701461007e5780638a91b0e31461009a578063ecd05961146100b6575b5f5ffd5b61006860048036038101906100639190610285565b6100e6565b6040516100759190610421565b60405180910390f35b61009860048036038101906100939190610441565b610172565b005b6100b460048036038101906100af9190610441565b610176565b005b6100d060048036038101906100cb91906104bf565b61017a565b6040516100dd9190610504565b60405180910390f35b60608473ffffffffffffffffffffffffffffffffffffffff1663d691c9648585856040518463ffffffff1660e01b815260040161012593929190610576565b5f604051808303815f875af1158015610140573d5f5f3e3d5ffd5b505050506040513d5f823e3d601f19601f82011682018060405250810190610168919061079e565b9050949350505050565b5050565b5050565b5f600282149050919050565b5f604051905090565b5f5ffd5b5f5ffd5b5f73ffffffffffffffffffffffffffffffffffffffff82169050919050565b5f6101c082610197565b9050919050565b6101d0816101b6565b81146101da575f5ffd5b50565b5f813590506101eb816101c7565b92915050565b5f819050919050565b610203816101f1565b811461020d575f5ffd5b50565b5f8135905061021e816101fa565b92915050565b5f5ffd5b5f5ffd5b5f5ffd5b5f5f83601f84011261024557610244610224565b5b8235905067ffffffffffffffff81111561026257610261610228565b5b60208301915083600182028301111561027e5761027d61022c565b5b9250929050565b5f5f5f5f6060858703121561029d5761029c61018f565b5b5f6102aa878288016101dd565b94505060206102bb87828801610210565b935050604085013567ffffffffffffffff8111156102dc576102db610193565b5b6102e887828801610230565b925092505092959194509250565b5f81519050919050565b5f82825260208201905092915050565b5f819050602082019050919050565b5f81519050919050565b5f82825260208201905092915050565b8281835e5f83830152505050565b5f601f19601f8301169050919050565b5f6103618261031f565b61036b8185610329565b935061037b818560208601610339565b61038481610347565b840191505092915050565b5f61039a8383610357565b905092915050565b5f602082019050919050565b5f6103b8826102f6565b6103c28185610300565b9350836020820285016103d485610310565b805f5b8581101561040f57848403895281516103f0858261038f565b94506103fb836103a2565b925060208a019950506001810190506103d7565b50829750879550505050505092915050565b5f6020820190508181035f83015261043981846103ae565b905092915050565b5f5f602083850312156104575761045661018f565b5b5f83013567ffffffffffffffff81111561047457610473610193565b5b61048085828601610230565b92509250509250929050565b5f819050919050565b61049e8161048c565b81146104a8575f5ffd5b50565b5f813590506104b981610495565b92915050565b5f602082840312156104d4576104d361018f565b5b5f6104e1848285016104ab565b91505092915050565b5f8115159050919050565b6104fe816104ea565b82525050565b5f6020820190506105175f8301846104f5565b92915050565b610526816101f1565b82525050565b5f82825260208201905092915050565b828183375f83830152505050565b5f610555838561052c565b935061056283858461053c565b61056b83610347565b840190509392505050565b5f6040820190506105895f83018661051d565b818103602083015261059c81848661054a565b9050949350505050565b7f4e487b71000000000000000000000000000000000000000000000000000000005f52604160045260245ffd5b6105dc82610347565b810181811067ffffffffffffffff821117156105fb576105fa6105a6565b5b80604052505050565b5f61060d610186565b905061061982826105d3565b919050565b5f67ffffffffffffffff821115610638576106376105a6565b5b602082029050602081019050919050565b5f5ffd5b5f67ffffffffffffffff821115610667576106666105a6565b5b61067082610347565b9050602081019050919050565b5f61068f61068a8461064d565b610604565b9050828152602081018484840111156106ab576106aa610649565b5b6106b6848285610339565b509392505050565b5f82601f8301126106d2576106d1610224565b5b81516106e284826020860161067d565b91505092915050565b5f6106fd6106f88461061e565b610604565b905080838252602082019050602084028301858111156107205761071f61022c565b5b835b8181101561076757805167ffffffffffffffff81111561074557610744610224565b5b80860161075289826106be565b85526020850194505050602081019050610722565b5050509392505050565b5f82601f83011261078557610784610224565b5b81516107958482602086016106eb565b91505092915050565b5f602082840312156107b3576107b261018f565b5b5f82015167ffffffffffffffff8111156107d0576107cf610193565b5b6107dc84828501610771565b9150509291505056fea2646970667358221220db31dc93c3653e8384b3bab449e1b937ba845cbfebc46151ee7a10626e7285ab64736f6c634300081c0033",
  "linkReferences": {},
  "deployedLinkReferences": {},
  "immutableReferences": {},
  "inputSourceName": "project/contracts/ExecutionModule.sol",
  "buildInfoId": "solc-0_8_28-fa02a1e4607aa1a4057559512e36f57f4f244235"
}