{
  "_format": "hh3-artifact-1",
  "contractName": "SessionKeyValidatorModule",
  "sourceName": "contracts/SessionKeyValidatorModule.sol",
  "abi": [
    {
      "inputs": [],
      "name": "CallBudgetExceeded",
      "type": "error"
    },
    {
      "inputs": [],
      "name": "InvalidSignatureLength",
      "type": "error"
    },
    {
      "inputs": [],
      "name": "SessionAlreadyInstalled",
      "type": "error"
    },
    {
      "inputs": [],
      "name": "SessionExpired",
      "type": "error"
    },
    {
      "inputs": [],
      "name": "SessionNotInstalled",
      "type": "error"
    },
    {
      "inputs": [],
      "name": "UnauthorizedAction",
      "type": "error"
    },
    {
      "inputs": [],
      "name": "UnauthorizedSessionCaller",
      "type": "error"
    },
    {
      "inputs": [],
      "name": "ValueBudgetExceeded",
      "type": "error"
    },
    {
      "inputs": [],
      "name": "WrongChain",
      "type": "error"
    },
    {
      "inputs": [],
      "name": "ERC1271_INVALID_VALUE",
      "outputs": [
        {
          "internalType": "bytes4",
          "name": "",
          "type": "bytes4"
        }
      ],
      "stateMutability": "view",
      "type": "function"
    },
    {
      "inputs": [],
      "name": "ERC1271_MAGIC_VALUE",
      "outputs": [
        {
          "internalType": "bytes4",
          "name": "",
          "type": "bytes4"
        }
      ],
      "stateMutability": "view",
      "type": "function"
    },
    {
      "inputs": [
        {
          "internalType": "address",
          "name": "account",
          "type": "address"
        },
        {
          "internalType": "bytes32",
          "name": "mode",
          "type": "bytes32"
        },
        {
          "internalType": "bytes",
          "name": "executionCalldata",
          "type": "bytes"
        },
        {
          "internalType": "uint256",
          "name": "chainId",
          "type": "uint256"
        }
      ],
      "name": "executeSession",
      "outputs": [],
      "stateMutability": "nonpayable",
      "type": "function"
    },
    {
      "inputs": [
        {
          "internalType": "uint256",
          "name": "moduleTypeId",
          "type": "uint256"
        }
      ],
      "name": "isModuleType",
      "outputs": [
        {
          "internalType": "bool",
          "name": "",
          "type": "bool"
        }
      ],
      "stateMutability": "pure",
      "type": "function"
    },
    {
      "inputs": [
        {
          "internalType": "address",
          "name": "",
          "type": "address"
        },
        {
          "internalType": "bytes32",
          "name": "hash",
          "type": "bytes32"
        },
        {
          "internalType": "bytes",
          "name": "signature",
          "type": "bytes"
        }
      ],
      "name": "isValidSignatureWithSender",
      "outputs": [
        {
          "internalType": "bytes4",
          "name": "",
          "type": "bytes4"
        }
      ],
      "stateMutability": "view",
      "type": "function"
    },
    {
      "inputs": [
        {
          "internalType": "bytes",
          "name": "data",
          "type": "bytes"
        }
      ],
      "name": "onInstall",
      "outputs": [],
      "stateMutability": "nonpayable",
      "type": "function"
    },
    {
      "inputs": [
        {
          "internalType": "bytes",
          "name": "",
          "type": "bytes"
        }
      ],
      "name": "onUninstall",
      "outputs": [],
      "stateMutability": "nonpayable",
      "type": "function"
    },
    {
      "inputs": [
        {
          "internalType": "address",
          "name": "account",
          "type": "address"
        }
      ],
      "name": "sessions",
      "outputs": [
        {
          "internalType": "address",
          "name": "sessionKey",
          "type": "address"
        },
        {
          "internalType": "bytes32",
          "name": "agentId",
          "type": "bytes32"
        },
        {
          "internalType": "uint256",
          "name": "targetChainId",
          "type": "uint256"
        },
        {
          "internalType": "address",
          "name": "allowedTarget",
          "type": "address"
        },
        {
          "internalType": "bytes4",
          "name": "allowedSelector",
          "type": "bytes4"
        },
        {
          "internalType": "uint64",
          "name": "validUntil",
          "type": "uint64"
        },
        {
          "internalType": "uint64",
          "name": "replayNonce",
          "type": "uint64"
        },
        {
          "internalType": "uint32",
          "name": "remainingCalls",
          "type": "uint32"
        },
        {
          "internalType": "uint128",
          "name": "remainingValue",
          "type": "uint128"
        },
        {
          "internalType": "bool",
          "name": "sponsorshipAllowed",
          "type": "bool"
        },
        {
          "internalType": "bool",
          "name": "installed",
          "type": "bool"
        }
      ],
      "stateMutability": "view",
      "type": "function"
    },
    {
      "inputs": [
        {
          "components": [
            {
              "internalType": "address",
              "name": "sender",
              "type": "address"
            },
            {
              "internalType": "uint256",
              "name": "nonce",
              "type": "uint256"
            },
            {
              "internalType": "bytes",
              "name": "initCode",
              "type": "bytes"
            },
            {
              "internalType": "bytes",
              "name": "callData",
              "type": "bytes"
            },
            {
              "internalType": "bytes32",
              "name": "accountGasLimits",
              "type": "bytes32"
            },
            {
              "internalType": "uint256",
              "name": "preVerificationGas",
              "type": "uint256"
            },
            {
              "internalType": "bytes32",
              "name": "gasFees",
              "type": "bytes32"
            },
            {
              "internalType": "bytes",
              "name": "paymasterAndData",
              "type": "bytes"
            },
            {
              "internalType": "bytes",
              "name": "signature",
              "type": "bytes"
            }
          ],
          "internalType": "struct PackedUserOperation",
          "name": "userOp",
          "type": "tuple"
        },
        {
          "internalType": "bytes32",
          "name": "userOpHash",
          "type": "bytes32"
        }
      ],
      "name": "validateUserOp",
      "outputs": [
        {
          "internalType": "uint256",
          "name": "",
          "type": "uint256"
        }
      ],
      "stateMutability": "view",
      "type": "function"
    }
  ],
  "bytecode": "0x6080604052348015600e575f5ffd5b506123fe8061001c5f395ff3fe608060405234801561000f575f5ffd5b5060043610610091575f3560e01c80638a91b0e3116100645780638a91b0e3146101255780639700320314610141578063dd33734914610171578063ecd059611461018f578063f551e2ee146101bf57610091565b8063431a1b971461009557806351e80a4c146100cf57806353b9e1fc146100ed5780636d61fe7014610109575b5f5ffd5b6100af60048036038101906100aa919061158c565b6101ef565b6040516100c69b9a999897969594939291906116b4565b60405180910390f35b6100d76102fc565b6040516100e4919061175d565b60405180910390f35b6101076004803603810190610102919061182b565b610307565b005b610123600480360381019061011e91906118af565b61081a565b005b61013f600480360381019061013a91906118af565b610ba8565b005b61015b6004803603810190610156919061191d565b610d75565b6040516101689190611977565b60405180910390f35b6101796110e7565b604051610186919061175d565b60405180910390f35b6101a960048036038101906101a49190611990565b6110f2565b6040516101b691906119bb565b60405180910390f35b6101d960048036038101906101d491906119d4565b6110fe565b6040516101e6919061175d565b60405180910390f35b5f602052805f5260405f205f91509050805f015f9054906101000a900473ffffffffffffffffffffffffffffffffffffffff1690806001015490806002015490806003015f9054906101000a900473ffffffffffffffffffffffffffffffffffffffff16908060030160149054906101000a900460e01b908060030160189054906101000a900467ffffffffffffffff1690806004015f9054906101000a900467ffffffffffffffff16908060040160089054906101000a900463ffffffff169080600401600c9054906101000a90046fffffffffffffffffffffffffffffffff169080600401601c9054906101000a900460ff169080600401601d9054906101000a900460ff1690508b565b631626ba7e60e01b81565b5f5f5f8773ffffffffffffffffffffffffffffffffffffffff1673ffffffffffffffffffffffffffffffffffffffff1681526020019081526020015f20905061034f816111cf565b610385576040517fdbc32bb600000000000000000000000000000000000000000000000000000000815260040160405180910390fd5b3373ffffffffffffffffffffffffffffffffffffffff16815f015f9054906101000a900473ffffffffffffffffffffffffffffffffffffffff1673ffffffffffffffffffffffffffffffffffffffff161461040c576040517f9f56b1a000000000000000000000000000000000000000000000000000000000815260040160405180910390fd5b8060030160189054906101000a900467ffffffffffffffff1667ffffffffffffffff16421115610468576040517f1fd05a4a00000000000000000000000000000000000000000000000000000000815260040160405180910390fd5b806002015482146104a5576040517f10dfc03300000000000000000000000000000000000000000000000000000000815260040160405180910390fd5b5f5f1b851415806104c4575080600401601c9054906101000a900460ff165b156104fb576040517f843800fa00000000000000000000000000000000000000000000000000000000815260040160405180910390fd5b5f5f5f6105088787611217565b925092509250836003015f9054906101000a900473ffffffffffffffffffffffffffffffffffffffff1673ffffffffffffffffffffffffffffffffffffffff168373ffffffffffffffffffffffffffffffffffffffff161415806105bb57508360030160149054906101000a900460e01b7bffffffffffffffffffffffffffffffffffffffffffffffffffffffff1916817bffffffffffffffffffffffffffffffffffffffffffffffffffffffff191614155b156105f2576040517f843800fa00000000000000000000000000000000000000000000000000000000815260040160405180910390fd5b5f8460040160089054906101000a900463ffffffff1663ffffffff1603610645576040517f766370c600000000000000000000000000000000000000000000000000000000815260040160405180910390fd5b83600401600c9054906101000a90046fffffffffffffffffffffffffffffffff166fffffffffffffffffffffffffffffffff168211156106b1576040517f0f0a741100000000000000000000000000000000000000000000000000000000815260040160405180910390fd5b60018460040160088282829054906101000a900463ffffffff166106d59190611a72565b92506101000a81548163ffffffff021916908363ffffffff1602179055508184600401600c8282829054906101000a90046fffffffffffffffffffffffffffffffff166107229190611aa9565b92506101000a8154816fffffffffffffffffffffffffffffffff02191690836fffffffffffffffffffffffffffffffff1602179055506001846004015f8282829054906101000a900467ffffffffffffffff1661077f9190611aec565b92506101000a81548167ffffffffffffffff021916908367ffffffffffffffff1602179055508873ffffffffffffffffffffffffffffffffffffffff1663e9ae5c538989896040518463ffffffff1660e01b81526004016107e293929190611b81565b5f604051808303815f87803b1580156107f9575f5ffd5b505af115801561080b573d5f5f3e3d5ffd5b50505050505050505050505050565b5f5f5f5f5f5f5f5f5f5f8b8b8101906108339190611cbe565b99509950995099509950995099509950995099505f5f3373ffffffffffffffffffffffffffffffffffffffff1673ffffffffffffffffffffffffffffffffffffffff1681526020019081526020015f20600401601d9054906101000a900460ff16156108cb576040517f5a105bf600000000000000000000000000000000000000000000000000000000815260040160405180910390fd5b6040518061016001604052808b73ffffffffffffffffffffffffffffffffffffffff1681526020018a81526020018981526020018873ffffffffffffffffffffffffffffffffffffffff168152602001877bffffffffffffffffffffffffffffffffffffffffffffffffffffffff191681526020018667ffffffffffffffff1681526020018567ffffffffffffffff1681526020018463ffffffff168152602001836fffffffffffffffffffffffffffffffff1681526020018215158152602001600115158152505f5f3373ffffffffffffffffffffffffffffffffffffffff1673ffffffffffffffffffffffffffffffffffffffff1681526020019081526020015f205f820151815f015f6101000a81548173ffffffffffffffffffffffffffffffffffffffff021916908373ffffffffffffffffffffffffffffffffffffffff16021790555060208201518160010155604082015181600201556060820151816003015f6101000a81548173ffffffffffffffffffffffffffffffffffffffff021916908373ffffffffffffffffffffffffffffffffffffffff16021790555060808201518160030160146101000a81548163ffffffff021916908360e01c021790555060a08201518160030160186101000a81548167ffffffffffffffff021916908367ffffffffffffffff16021790555060c0820151816004015f6101000a81548167ffffffffffffffff021916908367ffffffffffffffff16021790555060e08201518160040160086101000a81548163ffffffff021916908363ffffffff16021790555061010082015181600401600c6101000a8154816fffffffffffffffffffffffffffffffff02191690836fffffffffffffffffffffffffffffffff16021790555061012082015181600401601c6101000a81548160ff02191690831515021790555061014082015181600401601d6101000a81548160ff021916908315150217905550905050505050505050505050505050565b5f5f3373ffffffffffffffffffffffffffffffffffffffff1673ffffffffffffffffffffffffffffffffffffffff1681526020019081526020015f20600401601d9054906101000a900460ff16610c2b576040517fdbc32bb600000000000000000000000000000000000000000000000000000000815260040160405180910390fd5b5f5f3373ffffffffffffffffffffffffffffffffffffffff1673ffffffffffffffffffffffffffffffffffffffff1681526020019081526020015f205f5f82015f6101000a81549073ffffffffffffffffffffffffffffffffffffffff0219169055600182015f9055600282015f9055600382015f6101000a81549073ffffffffffffffffffffffffffffffffffffffff02191690556003820160146101000a81549063ffffffff02191690556003820160186101000a81549067ffffffffffffffff0219169055600482015f6101000a81549067ffffffffffffffff02191690556004820160086101000a81549063ffffffff021916905560048201600c6101000a8154906fffffffffffffffffffffffffffffffff021916905560048201601c6101000a81549060ff021916905560048201601d6101000a81549060ff021916905550505050565b5f5f5f5f855f016020810190610d8b919061158c565b73ffffffffffffffffffffffffffffffffffffffff1673ffffffffffffffffffffffffffffffffffffffff1681526020019081526020015f209050610dcf816111cf565b610ddd5760019150506110e1565b6004848060600190610def9190611da3565b90501080610e6d575063e9ae5c5360e01b7bffffffffffffffffffffffffffffffffffffffffffffffffffffffff1916848060600190610e2f9190611da3565b5f90600492610e4093929190611e0d565b90610e4b9190611e5d565b7bffffffffffffffffffffffffffffffffffffffffffffffffffffffff191614155b15610e7c5760019150506110e1565b5f5f858060600190610e8e9190611da3565b6004908092610e9f93929190611e0d565b810190610eac9190611fd5565b915091505f5f1b8214610ec557600193505050506110e1565b5f5f5f610ed1846112c6565b925092509250468660020154141580610f395750856003015f9054906101000a900473ffffffffffffffffffffffffffffffffffffffff1673ffffffffffffffffffffffffffffffffffffffff168373ffffffffffffffffffffffffffffffffffffffff1614155b80610f9357508560030160149054906101000a900460e01b7bffffffffffffffffffffffffffffffffffffffffffffffffffffffff1916817bffffffffffffffffffffffffffffffffffffffffffffffffffffffff191614155b80610fb757505f8660040160089054906101000a900463ffffffff1663ffffffff16145b80610ff3575085600401600c9054906101000a90046fffffffffffffffffffffffffffffffff166fffffffffffffffffffffffffffffffff1682115b1561100757600196505050505050506110e1565b5f5f8a8060e001906110199190611da3565b905011905080151587600401601c9054906101000a900460ff1615151461104a5760019750505050505050506110e1565b5f5f8b80610100019061105d9190611da3565b81019061106a919061202f565b915091503073ffffffffffffffffffffffffffffffffffffffff168273ffffffffffffffffffffffffffffffffffffffff16146110b357600199505050505050505050506110e1565b6110be898c83611324565b6110d457600199505050505050505050506110e1565b5f99505050505050505050505b92915050565b63ffffffff60e01b81565b5f600182149050919050565b5f5f5f5f3373ffffffffffffffffffffffffffffffffffffffff1673ffffffffffffffffffffffffffffffffffffffff1681526020019081526020015f209050611147816111cf565b61115b5763ffffffff60e01b9150506111c7565b6111a9818686868080601f0160208091040260200160405190810160405280939291908181526020018383808284375f81840152601f19601f82011690508083019250505050505050611324565b6111ba5763ffffffff60e01b6111c3565b631626ba7e60e01b5b9150505b949350505050565b5f81600401601d9054906101000a900460ff16801561121057508160030160189054906101000a900467ffffffffffffffff1667ffffffffffffffff164211155b9050919050565b5f5f5f6038858590501015611258576040517f843800fa00000000000000000000000000000000000000000000000000000000815260040160405180910390fd5b84845f9060149261126b93929190611e0d565b9061127691906120b4565b60601c9250848460149060349261128f93929190611e0d565b9061129a9190612112565b5f1c915084846034906038926112b293929190611e0d565b906112bd9190611e5d565b90509250925092565b5f5f5f603884511015611305576040517f843800fa00000000000000000000000000000000000000000000000000000000815260040160405180910390fd5b602084015160601c925060348401519150605484015190509193909250565b5f5f5f8380602001905181019061133b9190612200565b91509150855f015f9054906101000a900473ffffffffffffffffffffffffffffffffffffffff1673ffffffffffffffffffffffffffffffffffffffff168273ffffffffffffffffffffffffffffffffffffffff161461139e575f92505050611451565b5f8587600101548860020154896004015f9054906101000a900467ffffffffffffffff166040516020016113d5949392919061225a565b604051602081830303815290604052805190602001206040516020016113fb9190612311565b6040516020818303038152906040528051906020012090508273ffffffffffffffffffffffffffffffffffffffff166114348284611458565b73ffffffffffffffffffffffffffffffffffffffff161493505050505b9392505050565b5f6041825114611494576040517f4be6321b00000000000000000000000000000000000000000000000000000000815260040160405180910390fd5b5f5f5f602085015192506040850151915060608501515f1a9050601b8160ff1610156114ca57601b816114c79190612342565b90505b6001868285856040515f81526020016040526040516114ec9493929190612385565b6020604051602081039080840390855afa15801561150c573d5f5f3e3d5ffd5b50505060206040510351935050505092915050565b5f604051905090565b5f5ffd5b5f5ffd5b5f73ffffffffffffffffffffffffffffffffffffffff82169050919050565b5f61155b82611532565b9050919050565b61156b81611551565b8114611575575f5ffd5b50565b5f8135905061158681611562565b92915050565b5f602082840312156115a1576115a061152a565b5b5f6115ae84828501611578565b91505092915050565b6115c081611551565b82525050565b5f819050919050565b6115d8816115c6565b82525050565b5f819050919050565b6115f0816115de565b82525050565b5f7fffffffff0000000000000000000000000000000000000000000000000000000082169050919050565b61162a816115f6565b82525050565b5f67ffffffffffffffff82169050919050565b61164c81611630565b82525050565b5f63ffffffff82169050919050565b61166a81611652565b82525050565b5f6fffffffffffffffffffffffffffffffff82169050919050565b61169481611670565b82525050565b5f8115159050919050565b6116ae8161169a565b82525050565b5f610160820190506116c85f83018e6115b7565b6116d5602083018d6115cf565b6116e2604083018c6115e7565b6116ef606083018b6115b7565b6116fc608083018a611621565b61170960a0830189611643565b61171660c0830188611643565b61172360e0830187611661565b61173161010083018661168b565b61173f6101208301856116a5565b61174d6101408301846116a5565b9c9b505050505050505050505050565b5f6020820190506117705f830184611621565b92915050565b61177f816115c6565b8114611789575f5ffd5b50565b5f8135905061179a81611776565b92915050565b5f5ffd5b5f5ffd5b5f5ffd5b5f5f83601f8401126117c1576117c06117a0565b5b8235905067ffffffffffffffff8111156117de576117dd6117a4565b5b6020830191508360018202830111156117fa576117f96117a8565b5b9250929050565b61180a816115de565b8114611814575f5ffd5b50565b5f8135905061182581611801565b92915050565b5f5f5f5f5f608086880312156118445761184361152a565b5b5f61185188828901611578565b95505060206118628882890161178c565b945050604086013567ffffffffffffffff8111156118835761188261152e565b5b61188f888289016117ac565b935093505060606118a288828901611817565b9150509295509295909350565b5f5f602083850312156118c5576118c461152a565b5b5f83013567ffffffffffffffff8111156118e2576118e161152e565b5b6118ee858286016117ac565b92509250509250929050565b5f5ffd5b5f6101208284031215611914576119136118fa565b5b81905092915050565b5f5f604083850312156119335761193261152a565b5b5f83013567ffffffffffffffff8111156119505761194f61152e565b5b61195c858286016118fe565b925050602061196d8582860161178c565b9150509250929050565b5f60208201905061198a5f8301846115e7565b92915050565b5f602082840312156119a5576119a461152a565b5b5f6119b284828501611817565b91505092915050565b5f6020820190506119ce5f8301846116a5565b92915050565b5f5f5f5f606085870312156119ec576119eb61152a565b5b5f6119f987828801611578565b9450506020611a0a8782880161178c565b935050604085013567ffffffffffffffff811115611a2b57611a2a61152e565b5b611a37878288016117ac565b925092505092959194509250565b7f4e487b71000000000000000000000000000000000000000000000000000000005f52601160045260245ffd5b5f611a7c82611652565b9150611a8783611652565b9250828203905063ffffffff811115611aa357611aa2611a45565b5b92915050565b5f611ab382611670565b9150611abe83611670565b925082820390506fffffffffffffffffffffffffffffffff811115611ae657611ae5611a45565b5b92915050565b5f611af682611630565b9150611b0183611630565b9250828201905067ffffffffffffffff811115611b2157611b20611a45565b5b92915050565b5f82825260208201905092915050565b828183375f83830152505050565b5f601f19601f8301169050919050565b5f611b608385611b27565b9350611b6d838584611b37565b611b7683611b45565b840190509392505050565b5f604082019050611b945f8301866115cf565b8181036020830152611ba7818486611b55565b9050949350505050565b5f611bbb82611532565b9050919050565b611bcb81611bb1565b8114611bd5575f5ffd5b50565b5f81359050611be681611bc2565b92915050565b611bf5816115f6565b8114611bff575f5ffd5b50565b5f81359050611c1081611bec565b92915050565b611c1f81611630565b8114611c29575f5ffd5b50565b5f81359050611c3a81611c16565b92915050565b611c4981611652565b8114611c53575f5ffd5b50565b5f81359050611c6481611c40565b92915050565b611c7381611670565b8114611c7d575f5ffd5b50565b5f81359050611c8e81611c6a565b92915050565b611c9d8161169a565b8114611ca7575f5ffd5b50565b5f81359050611cb881611c94565b92915050565b5f5f5f5f5f5f5f5f5f5f6101408b8d031215611cdd57611cdc61152a565b5b5f611cea8d828e01611bd8565b9a50506020611cfb8d828e0161178c565b9950506040611d0c8d828e01611817565b9850506060611d1d8d828e01611bd8565b9750506080611d2e8d828e01611c02565b96505060a0611d3f8d828e01611c2c565b95505060c0611d508d828e01611c2c565b94505060e0611d618d828e01611c56565b935050610100611d738d828e01611c80565b925050610120611d858d828e01611caa565b9150509295989b9194979a5092959850565b5f5ffd5b5f5ffd5b5f5ffd5b5f5f83356001602003843603038112611dbf57611dbe611d97565b5b80840192508235915067ffffffffffffffff821115611de157611de0611d9b565b5b602083019250600182023603831315611dfd57611dfc611d9f565b5b509250929050565b5f5ffd5b5f5ffd5b5f5f85851115611e2057611e1f611e05565b5b83861115611e3157611e30611e09565b5b6001850283019150848603905094509492505050565b5f82905092915050565b5f82821b905092915050565b5f611e688383611e47565b82611e7381356115f6565b92506004821015611eb357611eae7fffffffff0000000000000000000000000000000000000000000000000000000083600403600802611e51565b831692505b505092915050565b5f5ffd5b7f4e487b71000000000000000000000000000000000000000000000000000000005f52604160045260245ffd5b611ef582611b45565b810181811067ffffffffffffffff82111715611f1457611f13611ebf565b5b80604052505050565b5f611f26611521565b9050611f328282611eec565b919050565b5f67ffffffffffffffff821115611f5157611f50611ebf565b5b611f5a82611b45565b9050602081019050919050565b5f611f79611f7484611f37565b611f1d565b905082815260208101848484011115611f9557611f94611ebb565b5b611fa0848285611b37565b509392505050565b5f82601f830112611fbc57611fbb6117a0565b5b8135611fcc848260208601611f67565b91505092915050565b5f5f60408385031215611feb57611fea61152a565b5b5f611ff88582860161178c565b925050602083013567ffffffffffffffff8111156120195761201861152e565b5b61202585828601611fa8565b9150509250929050565b5f5f604083850312156120455761204461152a565b5b5f61205285828601611bd8565b925050602083013567ffffffffffffffff8111156120735761207261152e565b5b61207f85828601611fa8565b9150509250929050565b5f7fffffffffffffffffffffffffffffffffffffffff00000000000000000000000082169050919050565b5f6120bf8383611e47565b826120ca8135612089565b9250601482101561210a576121057fffffffffffffffffffffffffffffffffffffffff00000000000000000000000083601403600802611e51565b831692505b505092915050565b5f61211d8383611e47565b8261212881356115c6565b92506020821015612168576121637fffffffffffffffffffffffffffffffffffffffffffffffffffffffffffffffff83602003600802611e51565b831692505b505092915050565b5f8151905061217e81611bc2565b92915050565b8281835e5f83830152505050565b5f6121a461219f84611f37565b611f1d565b9050828152602081018484840111156121c0576121bf611ebb565b5b6121cb848285612184565b509392505050565b5f82601f8301126121e7576121e66117a0565b5b81516121f7848260208601612192565b91505092915050565b5f5f604083850312156122165761221561152a565b5b5f61222385828601612170565b925050602083015167ffffffffffffffff8111156122445761224361152e565b5b612250858286016121d3565b9150509250929050565b5f60808201905061226d5f8301876115cf565b61227a60208301866115cf565b61228760408301856115e7565b6122946060830184611643565b95945050505050565b5f81905092915050565b7f19457468657265756d205369676e6564204d6573736167653a0a3332000000005f82015250565b5f6122db601c8361229d565b91506122e6826122a7565b601c82019050919050565b5f819050919050565b61230b612306826115c6565b6122f1565b82525050565b5f61231b826122cf565b915061232782846122fa565b60208201915081905092915050565b5f60ff82169050919050565b5f61234c82612336565b915061235783612336565b9250828201905060ff8111156123705761236f611a45565b5b92915050565b61237f81612336565b82525050565b5f6080820190506123985f8301876115cf565b6123a56020830186612376565b6123b260408301856115cf565b6123bf60608301846115cf565b9594505050505056fea264697066735822122081c8a454e6fe6d649044c9ba5b571f566d56f852731590cda89179da2090337c64736f6c634300081c0033",
  "linkReferences": {},
  "deployedLinkReferences": {},
  "immutableReferences": {},
  "inputSourceName": "project/contracts/SessionKeyValidatorModule.sol",
  "buildInfoId": "solc-0_8_28-fa02a1e4607aa1a4057559512e36f57f4f244235"
}