{
  "_format": "hh3-artifact-1",
  "contractName": "AgentSmartWallet",
  "sourceName": "contracts/AgentSmartWallet.sol",
  "abi": [
    {
      "inputs": [
        {
          "internalType": "address",
          "name": "owner_",
          "type": "address"
        },
        {
          "internalType": "address",
          "name": "entryPoint_",
          "type": "address"
        }
      ],
      "stateMutability": "payable",
      "type": "constructor"
    },
    {
      "inputs": [
        {
          "internalType": "bytes",
          "name": "reason",
          "type": "bytes"
        }
      ],
      "name": "ExecutionFailed",
      "type": "error"
    },
    {
      "inputs": [],
      "name": "InvalidExecutionCalldata",
      "type": "error"
    },
    {
      "inputs": [],
      "name": "InvalidUserOpNonce",
      "type": "error"
    },
    {
      "inputs": [],
      "name": "InvalidUserOpSender",
      "type": "error"
    },
    {
      "inputs": [],
      "name": "InvalidValidatorSelection",
      "type": "error"
    },
    {
      "inputs": [],
      "name": "ModuleAlreadyInstalled",
      "type": "error"
    },
    {
      "inputs": [],
      "name": "ModuleNotInstalled",
      "type": "error"
    },
    {
      "inputs": [],
      "name": "ModuleTypeMismatch",
      "type": "error"
    },
    {
      "inputs": [],
      "name": "NotEntryPoint",
      "type": "error"
    },
    {
      "inputs": [],
      "name": "NotOwner",
      "type": "error"
    },
    {
      "inputs": [],
      "name": "UnauthorizedCaller",
      "type": "error"
    },
    {
      "inputs": [],
      "name": "UnsupportedExecutionMode",
      "type": "error"
    },
    {
      "inputs": [],
      "name": "UnsupportedModuleType",
      "type": "error"
    },
    {
      "inputs": [],
      "name": "UserOpValidationFailed",
      "type": "error"
    },
    {
      "anonymous": false,
      "inputs": [
        {
          "indexed": true,
          "internalType": "address",
          "name": "caller",
          "type": "address"
        },
        {
          "indexed": true,
          "internalType": "address",
          "name": "target",
          "type": "address"
        },
        {
          "indexed": true,
          "internalType": "bytes4",
          "name": "selector",
          "type": "bytes4"
        },
        {
          "indexed": false,
          "internalType": "uint256",
          "name": "value",
          "type": "uint256"
        }
      ],
      "name": "Executed",
      "type": "event"
    },
    {
      "anonymous": false,
      "inputs": [
        {
          "indexed": false,
          "internalType": "uint256",
          "name": "moduleTypeId",
          "type": "uint256"
        },
        {
          "indexed": false,
          "internalType": "address",
          "name": "module",
          "type": "address"
        }
      ],
      "name": "ModuleInstalled",
      "type": "event"
    },
    {
      "anonymous": false,
      "inputs": [
        {
          "indexed": false,
          "internalType": "uint256",
          "name": "moduleTypeId",
          "type": "uint256"
        },
        {
          "indexed": false,
          "internalType": "address",
          "name": "module",
          "type": "address"
        }
      ],
      "name": "ModuleUninstalled",
      "type": "event"
    },
    {
      "anonymous": false,
      "inputs": [
        {
          "indexed": true,
          "internalType": "bytes32",
          "name": "userOpHash",
          "type": "bytes32"
        },
        {
          "indexed": true,
          "internalType": "address",
          "name": "validator",
          "type": "address"
        }
      ],
      "name": "UserOperationExecuted",
      "type": "event"
    },
    {
      "anonymous": false,
      "inputs": [
        {
          "indexed": true,
          "internalType": "bytes32",
          "name": "userOpHash",
          "type": "bytes32"
        },
        {
          "indexed": true,
          "internalType": "address",
          "name": "validator",
          "type": "address"
        },
        {
          "indexed": false,
          "internalType": "uint256",
          "name": "nonce",
          "type": "uint256"
        }
      ],
      "name": "UserOperationValidated",
      "type": "event"
    },
    {
      "inputs": [],
      "name": "MODULE_TYPE_EXECUTOR",
      "outputs": [
        {
          "internalType": "uint256",
          "name": "",
          "type": "uint256"
        }
      ],
      "stateMutability": "view",
      "type": "function"
    },
    {
      "inputs": [],
      "name": "MODULE_TYPE_VALIDATOR",
      "outputs": [
        {
          "internalType": "uint256",
          "name": "",
          "type": "uint256"
        }
      ],
      "stateMutability": "view",
      "type": "function"
    },
    {
      "inputs": [],
      "name": "accountId",
      "outputs": [
        {
          "internalType": "string",
          "name": "accountImplementationId",
          "type": "string"
        }
      ],
      "stateMutability": "pure",
      "type": "function"
    },
    {
      "inputs": [],
      "name": "entryPoint",
      "outputs": [
        {
          "internalType": "address",
          "name": "",
          "type": "address"
        }
      ],
      "stateMutability": "view",
      "type": "function"
    },
    {
      "inputs": [
        {
          "internalType": "bytes32",
          "name": "mode",
          "type": "bytes32"
        },
        {
          "internalType": "bytes",
          "name": "executionCalldata",
          "type": "bytes"
        }
      ],
      "name": "execute",
      "outputs": [],
      "stateMutability": "payable",
      "type": "function"
    },
    {
      "inputs": [
        {
          "internalType": "bytes32",
          "name": "mode",
          "type": "bytes32"
        },
        {
          "internalType": "bytes",
          "name": "executionCalldata",
          "type": "bytes"
        }
      ],
      "name": "executeFromExecutor",
      "outputs": [
        {
          "internalType": "bytes[]",
          "name": "returnData",
          "type": "bytes[]"
        }
      ],
      "stateMutability": "nonpayable",
      "type": "function"
    },
    {
      "inputs": [
        {
          "components": [
            {
              "internalType": "address",
              "name": "sender",
              "type": "address"
            },
            {
              "internalType": "uint256",
              "name": "nonce",
              "type": "uint256"
            },
            {
              "internalType": "bytes",
              "name": "initCode",
              "type": "bytes"
            },
            {
              "internalType": "bytes",
              "name": "callData",
              "type": "bytes"
            },
            {
              "internalType": "bytes32",
              "name": "accountGasLimits",
              "type": "bytes32"
            },
            {
              "internalType": "uint256",
              "name": "preVerificationGas",
              "type": "uint256"
            },
            {
              "internalType": "bytes32",
              "name": "gasFees",
              "type": "bytes32"
            },
            {
              "internalType": "bytes",
              "name": "paymasterAndData",
              "type": "bytes"
            },
            {
              "internalType": "bytes",
              "name": "signature",
              "type": "bytes"
            }
          ],
          "internalType": "struct PackedUserOperation",
          "name": "userOp",
          "type": "tuple"
        },
        {
          "internalType": "bytes32",
          "name": "userOpHash",
          "type": "bytes32"
        }
      ],
      "name": "executeUserOp",
      "outputs": [],
      "stateMutability": "nonpayable",
      "type": "function"
    },
    {
      "inputs": [
        {
          "internalType": "uint256",
          "name": "moduleTypeId",
          "type": "uint256"
        },
        {
          "internalType": "address",
          "name": "module",
          "type": "address"
        },
        {
          "internalType": "bytes",
          "name": "initData",
          "type": "bytes"
        }
      ],
      "name": "installModule",
      "outputs": [],
      "stateMutability": "nonpayable",
      "type": "function"
    },
    {
      "inputs": [
        {
          "internalType": "uint256",
          "name": "moduleTypeId",
          "type": "uint256"
        },
        {
          "internalType": "address",
          "name": "module",
          "type": "address"
        },
        {
          "internalType": "bytes",
          "name": "",
          "type": "bytes"
        }
      ],
      "name": "isModuleInstalled",
      "outputs": [
        {
          "internalType": "bool",
          "name": "",
          "type": "bool"
        }
      ],
      "stateMutability": "view",
      "type": "function"
    },
    {
      "inputs": [
        {
          "internalType": "bytes32",
          "name": "hash",
          "type": "bytes32"
        },
        {
          "internalType": "bytes",
          "name": "signature",
          "type": "bytes"
        }
      ],
      "name": "isValidSignature",
      "outputs": [
        {
          "internalType": "bytes4",
          "name": "",
          "type": "bytes4"
        }
      ],
      "stateMutability": "view",
      "type": "function"
    },
    {
      "inputs": [],
      "name": "nonce",
      "outputs": [
        {
          "internalType": "uint256",
          "name": "",
          "type": "uint256"
        }
      ],
      "stateMutability": "view",
      "type": "function"
    },
    {
      "inputs": [],
      "name": "owner",
      "outputs": [
        {
          "internalType": "address",
          "name": "",
          "type": "address"
        }
      ],
      "stateMutability": "view",
      "type": "function"
    },
    {
      "inputs": [
        {
          "internalType": "bytes32",
          "name": "encodedMode",
          "type": "bytes32"
        }
      ],
      "name": "supportsExecutionMode",
      "outputs": [
        {
          "internalType": "bool",
          "name": "",
          "type": "bool"
        }
      ],
      "stateMutability": "pure",
      "type": "function"
    },
    {
      "inputs": [
        {
          "internalType": "uint256",
          "name": "moduleTypeId",
          "type": "uint256"
        }
      ],
      "name": "supportsModule",
      "outputs": [
        {
          "internalType": "bool",
          "name": "",
          "type": "bool"
        }
      ],
      "stateMutability": "pure",
      "type": "function"
    },
    {
      "inputs": [
        {
          "internalType": "uint256",
          "name": "moduleTypeId",
          "type": "uint256"
        },
        {
          "internalType": "address",
          "name": "module",
          "type": "address"
        },
        {
          "internalType": "bytes",
          "name": "deInitData",
          "type": "bytes"
        }
      ],
      "name": "uninstallModule",
      "outputs": [],
      "stateMutability": "nonpayable",
      "type": "function"
    },
    {
      "inputs": [
        {
          "components": [
            {
              "internalType": "address",
              "name": "sender",
              "type": "address"
            },
            {
              "internalType": "uint256",
              "name": "nonce",
              "type": "uint256"
            },
            {
              "internalType": "bytes",
              "name": "initCode",
              "type": "bytes"
            },
            {
              "internalType": "bytes",
              "name": "callData",
              "type": "bytes"
            },
            {
              "internalType": "bytes32",
              "name": "accountGasLimits",
              "type": "bytes32"
            },
            {
              "internalType": "uint256",
              "name": "preVerificationGas",
              "type": "uint256"
            },
            {
              "internalType": "bytes32",
              "name": "gasFees",
              "type": "bytes32"
            },
            {
              "internalType": "bytes",
              "name": "paymasterAndData",
              "type": "bytes"
            },
            {
              "internalType": "bytes",
              "name": "signature",
              "type": "bytes"
            }
          ],
          "internalType": "struct PackedUserOperation",
          "name": "userOp",
          "type": "tuple"
        },
        {
          "internalType": "bytes32",
          "name": "userOpHash",
          "type": "bytes32"
        },
        {
          "internalType": "uint256",
          "name": "",
          "type": "uint256"
        }
      ],
      "name": "validateUserOp",
      "outputs": [
        {
          "internalType": "uint256",
          "name": "validationData",
          "type": "uint256"
        }
      ],
      "stateMutability": "nonpayable",
      "type": "function"
    },
    {
      "stateMutability": "payable",
      "type": "receive"
    }
  ],
  "bytecode": "0x60c0604052604051612693380380612693833981810160405281019061002591906100f2565b8173ffffffffffffffffffffffffffffffffffffffff1660808173ffffffffffffffffffffffffffffffffffffffff16815250508073ffffffffffffffffffffffffffffffffffffffff1660a08173ffffffffffffffffffffffffffffffffffffffff16815250505050610130565b5f5ffd5b5f73ffffffffffffffffffffffffffffffffffffffff82169050919050565b5f6100c182610098565b9050919050565b6100d1816100b7565b81146100db575f5ffd5b50565b5f815190506100ec816100c8565b92915050565b5f5f6040838503121561010857610107610094565b5b5f610115858286016100de565b9250506020610126858286016100de565b9150509250929050565b60805160a05161251861017b5f395f818161058d015281816108ca01528181610fc7015261122001525f81816108a601528181610a7801528181610da401526111c901526125185ff3fe6080604052600436106100f6575f3560e01c8063a71763a811610089578063d691c96411610058578063d691c9641461033b578063dff658be14610377578063e9ae5c53146103a1578063f2dc691d146103bd576100fd565b8063a71763a814610283578063affed0e0146102ab578063b0d691fe146102d5578063d03c7914146102ff576100fd565b80638da5cb5b116100c55780638da5cb5b146101df5780638dd7712f146102095780639517e29f146102315780639cfd7cff14610259576100fd565b8063112d3a7d146101015780631626ba7e1461013d57806319822f7c146101795780632f6c8ea9146101b5576100fd565b366100fd57005b5f5ffd5b34801561010c575f5ffd5b5061012760048036038101906101229190611716565b6103f9565b60405161013491906117a1565b60405180910390f35b348015610148575f5ffd5b50610163600480360381019061015e91906117ed565b61045d565b6040516101709190611884565b60405180910390f35b348015610184575f5ffd5b5061019f600480360381019061019a91906118c0565b61058a565b6040516101ac919061193b565b60405180910390f35b3480156101c0575f5ffd5b506101c961089f565b6040516101d6919061193b565b60405180910390f35b3480156101ea575f5ffd5b506101f36108a4565b6040516102009190611963565b60405180910390f35b348015610214575f5ffd5b5061022f600480360381019061022a919061197c565b6108c8565b005b34801561023c575f5ffd5b5061025760048036038101906102529190611716565b610a76565b005b348015610264575f5ffd5b5061026d610d82565b60405161027a9190611a46565b60405180910390f35b34801561028e575f5ffd5b506102a960048036038101906102a49190611716565b610da2565b005b3480156102b6575f5ffd5b506102bf610fc0565b6040516102cc919061193b565b60405180910390f35b3480156102e0575f5ffd5b506102e9610fc5565b6040516102f69190611963565b60405180910390f35b34801561030a575f5ffd5b5061032560048036038101906103209190611a66565b610fe9565b60405161033291906117a1565b60405180910390f35b348015610346575f5ffd5b50610361600480360381019061035c91906117ed565b611071565b60405161036e9190611b9e565b60405180910390f35b348015610382575f5ffd5b5061038b6111c2565b604051610398919061193b565b60405180910390f35b6103bb60048036038101906103b691906117ed565b6111c7565b005b3480156103c8575f5ffd5b506103e360048036038101906103de9190611bbe565b611390565b6040516103f091906117a1565b60405180910390f35b5f60015f8681526020019081526020015f205f8573ffffffffffffffffffffffffffffffffffffffff1673ffffffffffffffffffffffffffffffffffffffff1681526020019081526020015f205f9054906101000a900460ff169050949350505050565b5f5f5f848481019061046f9190611d4c565b9150915060015f600181526020019081526020015f205f8373ffffffffffffffffffffffffffffffffffffffff1673ffffffffffffffffffffffffffffffffffffffff1681526020019081526020015f205f9054906101000a900460ff16610503576040517f96ab18e500000000000000000000000000000000000000000000000000000000815260040160405180910390fd5b8173ffffffffffffffffffffffffffffffffffffffff1663f551e2ee3388846040518463ffffffff1660e01b815260040161054093929190611dfd565b602060405180830381865afa15801561055b573d5f5f3e3d5ffd5b505050506040513d601f19601f8201168201806040525081019061057f9190611e63565b925050509392505050565b5f7f000000000000000000000000000000000000000000000000000000000000000073ffffffffffffffffffffffffffffffffffffffff163373ffffffffffffffffffffffffffffffffffffffff1614610610576040517fd663742a00000000000000000000000000000000000000000000000000000000815260040160405180910390fd5b3073ffffffffffffffffffffffffffffffffffffffff16845f0160208101906106399190611e8e565b73ffffffffffffffffffffffffffffffffffffffff1614610686576040517fb36c08d800000000000000000000000000000000000000000000000000000000815260040160405180910390fd5b5f548460200135146106c4576040517ffc96e6f500000000000000000000000000000000000000000000000000000000815260040160405180910390fd5b5f848061010001906106d69190611ec5565b8101906106e39190611d4c565b50905060015f600181526020019081526020015f205f8273ffffffffffffffffffffffffffffffffffffffff1673ffffffffffffffffffffffffffffffffffffffff1681526020019081526020015f205f9054906101000a900460ff16610776576040517f96ab18e500000000000000000000000000000000000000000000000000000000815260040160405180910390fd5b8073ffffffffffffffffffffffffffffffffffffffff16639700320386866040518363ffffffff1660e01b81526004016107b1929190612157565b6020604051808303815f875af11580156107cd573d5f5f3e3d5ffd5b505050506040513d601f19601f820116820180604052508101906107f19190612199565b91505f821461082c576040517f1837168c00000000000000000000000000000000000000000000000000000000815260040160405180910390fd5b60015f5f82825461083d91906121f1565b925050819055508073ffffffffffffffffffffffffffffffffffffffff16847ff3158fecdd8a7da6289e7cb7ed339e4d7701220bdb04d4b85feceeaefcae41c3876020013560405161088f919061193b565b60405180910390a3509392505050565b600281565b7f000000000000000000000000000000000000000000000000000000000000000081565b7f000000000000000000000000000000000000000000000000000000000000000073ffffffffffffffffffffffffffffffffffffffff163373ffffffffffffffffffffffffffffffffffffffff161461094d576040517fd663742a00000000000000000000000000000000000000000000000000000000815260040160405180910390fd5b5f8280610100019061095f9190611ec5565b81019061096c9190611d4c565b5090505f5f3073ffffffffffffffffffffffffffffffffffffffff168580606001906109989190611ec5565b6040516109a6929190612252565b5f604051808303815f865af19150503d805f81146109df576040519150601f19603f3d011682016040523d82523d5f602084013e6109e4565b606091505b509150915081610a2b57806040517f15fcd675000000000000000000000000000000000000000000000000000000008152600401610a22919061226a565b60405180910390fd5b8273ffffffffffffffffffffffffffffffffffffffff16847fd1b25dc6bdaa1fe7a54d72d0f2d13e7a27c21e402381c8af617144cfca30b69860405160405180910390a35050505050565b7f000000000000000000000000000000000000000000000000000000000000000073ffffffffffffffffffffffffffffffffffffffff163373ffffffffffffffffffffffffffffffffffffffff1614610afb576040517f30cd747100000000000000000000000000000000000000000000000000000000815260040160405180910390fd5b610b0484611390565b610b3a576040517fcf747b8700000000000000000000000000000000000000000000000000000000815260040160405180910390fd5b60015f8581526020019081526020015f205f8473ffffffffffffffffffffffffffffffffffffffff1673ffffffffffffffffffffffffffffffffffffffff1681526020019081526020015f205f9054906101000a900460ff1615610bca576040517f24c377e200000000000000000000000000000000000000000000000000000000815260040160405180910390fd5b8273ffffffffffffffffffffffffffffffffffffffff1663ecd05961856040518263ffffffff1660e01b8152600401610c03919061193b565b602060405180830381865afa158015610c1e573d5f5f3e3d5ffd5b505050506040513d601f19601f82011682018060405250810190610c4291906122b4565b610c78576040517f248f860800000000000000000000000000000000000000000000000000000000815260040160405180910390fd5b6001805f8681526020019081526020015f205f8573ffffffffffffffffffffffffffffffffffffffff1673ffffffffffffffffffffffffffffffffffffffff1681526020019081526020015f205f6101000a81548160ff0219169083151502179055508273ffffffffffffffffffffffffffffffffffffffff16636d61fe7083836040518363ffffffff1660e01b8152600401610d1692919061230b565b5f604051808303815f87803b158015610d2d575f5ffd5b505af1158015610d3f573d5f5f3e3d5ffd5b505050507fd21d0b289f126c4b473ea641963e766833c2f13866e4ff480abd787c100ef1238484604051610d7492919061232d565b60405180910390a150505050565b60606040518060600160405280602281526020016124c160229139905090565b7f000000000000000000000000000000000000000000000000000000000000000073ffffffffffffffffffffffffffffffffffffffff163373ffffffffffffffffffffffffffffffffffffffff1614610e27576040517f30cd747100000000000000000000000000000000000000000000000000000000815260040160405180910390fd5b60015f8581526020019081526020015f205f8473ffffffffffffffffffffffffffffffffffffffff1673ffffffffffffffffffffffffffffffffffffffff1681526020019081526020015f205f9054906101000a900460ff16610eb6576040517f2a6f792900000000000000000000000000000000000000000000000000000000815260040160405180910390fd5b8273ffffffffffffffffffffffffffffffffffffffff16638a91b0e383836040518363ffffffff1660e01b8152600401610ef192919061230b565b5f604051808303815f87803b158015610f08575f5ffd5b505af1158015610f1a573d5f5f3e3d5ffd5b505050505f60015f8681526020019081526020015f205f8573ffffffffffffffffffffffffffffffffffffffff1673ffffffffffffffffffffffffffffffffffffffff1681526020019081526020015f205f6101000a81548160ff0219169083151502179055507f341347516a9de374859dfda710fa4828b2d48cb57d4fbe4c1149612b8e02276e8484604051610fb292919061232d565b60405180910390a150505050565b5f5481565b7f000000000000000000000000000000000000000000000000000000000000000081565b5f5f5f5f610ff6856113a7565b50509250925092505f60f81b837effffffffffffffffffffffffffffffffffffffffffffffffffffffffffffff191614801561105657505f60f81b827effffffffffffffffffffffffffffffffffffffffffffffffffffffffffffff1916145b801561106757505f8163ffffffff16145b9350505050919050565b606060015f600281526020019081526020015f205f3373ffffffffffffffffffffffffffffffffffffffff1673ffffffffffffffffffffffffffffffffffffffff1681526020019081526020015f205f9054906101000a900460ff16611103576040517f5c427cd900000000000000000000000000000000000000000000000000000000815260040160405180910390fd5b61110c84610fe9565b611142576040517f7f18127500000000000000000000000000000000000000000000000000000000815260040160405180910390fd5b600167ffffffffffffffff81111561115d5761115c611c28565b5b60405190808252806020026020018201604052801561119057816020015b606081526020019060019003908161117b5790505b50905061119d83836113e7565b815f815181106111b0576111af612354565b5b60200260200101819052509392505050565b600181565b7f000000000000000000000000000000000000000000000000000000000000000073ffffffffffffffffffffffffffffffffffffffff163373ffffffffffffffffffffffffffffffffffffffff161415801561126f57507f000000000000000000000000000000000000000000000000000000000000000073ffffffffffffffffffffffffffffffffffffffff163373ffffffffffffffffffffffffffffffffffffffff1614155b80156112a757503073ffffffffffffffffffffffffffffffffffffffff163373ffffffffffffffffffffffffffffffffffffffff1614155b801561130a575060015f600181526020019081526020015f205f3373ffffffffffffffffffffffffffffffffffffffff1673ffffffffffffffffffffffffffffffffffffffff1681526020019081526020015f205f9054906101000a900460ff16155b15611341576040517f5c427cd900000000000000000000000000000000000000000000000000000000815260040160405180910390fd5b61134a83610fe9565b611380576040517f7f18127500000000000000000000000000000000000000000000000000000000815260040160405180910390fd5b61138a82826113e7565b50505050565b5f60018214806113a05750600282145b9050919050565b5f5f5f5f5f5f865f1c905060f881901c60f81b955060f081901c60f81b945060d081901c935060b081901c60e01b92508060501b91505091939590929450565b60605f5f365f6113f7878761154c565b93509350935093505f5f8573ffffffffffffffffffffffffffffffffffffffff16858585604051611429929190612252565b5f6040518083038185875af1925050503d805f8114611463576040519150601f19603f3d011682016040523d82523d5f602084013e611468565b606091505b5091509150816114af57806040517f15fcd6750000000000000000000000000000000000000000000000000000000081526004016114a6919061226a565b60405180910390fd5b6114b984846115f4565b7bffffffffffffffffffffffffffffffffffffffffffffffffffffffff19168673ffffffffffffffffffffffffffffffffffffffff163373ffffffffffffffffffffffffffffffffffffffff167f13590feed0e1c4fd208b94d255ece0dc8e7992c57b3aeb0d79d12c839cec5a5188604051611535919061193b565b60405180910390a480965050505050505092915050565b5f5f365f603486869050101561158e576040517f12f251b400000000000000000000000000000000000000000000000000000000815260040160405180910390fd5b85855f906014926115a193929190612389565b906115ac9190612404565b60601c935085856014906034926115c593929190612389565b906115d09190612462565b5f1c9250858560349080926115e793929190612389565b9150915092959194509250565b5f600483839050101561160c575f60e01b9050611611565b823590505b92915050565b5f604051905090565b5f5ffd5b5f5ffd5b5f819050919050565b61163a81611628565b8114611644575f5ffd5b50565b5f8135905061165581611631565b92915050565b5f73ffffffffffffffffffffffffffffffffffffffff82169050919050565b5f6116848261165b565b9050919050565b6116948161167a565b811461169e575f5ffd5b50565b5f813590506116af8161168b565b92915050565b5f5ffd5b5f5ffd5b5f5ffd5b5f5f83601f8401126116d6576116d56116b5565b5b8235905067ffffffffffffffff8111156116f3576116f26116b9565b5b60208301915083600182028301111561170f5761170e6116bd565b5b9250929050565b5f5f5f5f6060858703121561172e5761172d611620565b5b5f61173b87828801611647565b945050602061174c878288016116a1565b935050604085013567ffffffffffffffff81111561176d5761176c611624565b5b611779878288016116c1565b925092505092959194509250565b5f8115159050919050565b61179b81611787565b82525050565b5f6020820190506117b45f830184611792565b92915050565b5f819050919050565b6117cc816117ba565b81146117d6575f5ffd5b50565b5f813590506117e7816117c3565b92915050565b5f5f5f6040848603121561180457611803611620565b5b5f611811868287016117d9565b935050602084013567ffffffffffffffff81111561183257611831611624565b5b61183e868287016116c1565b92509250509250925092565b5f7fffffffff0000000000000000000000000000000000000000000000000000000082169050919050565b61187e8161184a565b82525050565b5f6020820190506118975f830184611875565b92915050565b5f5ffd5b5f61012082840312156118b7576118b661189d565b5b81905092915050565b5f5f5f606084860312156118d7576118d6611620565b5b5f84013567ffffffffffffffff8111156118f4576118f3611624565b5b611900868287016118a1565b9350506020611911868287016117d9565b925050604061192286828701611647565b9150509250925092565b61193581611628565b82525050565b5f60208201905061194e5f83018461192c565b92915050565b61195d8161167a565b82525050565b5f6020820190506119765f830184611954565b92915050565b5f5f6040838503121561199257611991611620565b5b5f83013567ffffffffffffffff8111156119af576119ae611624565b5b6119bb858286016118a1565b92505060206119cc858286016117d9565b9150509250929050565b5f81519050919050565b5f82825260208201905092915050565b8281835e5f83830152505050565b5f601f19601f8301169050919050565b5f611a18826119d6565b611a2281856119e0565b9350611a328185602086016119f0565b611a3b816119fe565b840191505092915050565b5f6020820190508181035f830152611a5e8184611a0e565b905092915050565b5f60208284031215611a7b57611a7a611620565b5b5f611a88848285016117d9565b91505092915050565b5f81519050919050565b5f82825260208201905092915050565b5f819050602082019050919050565b5f81519050919050565b5f82825260208201905092915050565b5f611ade82611aba565b611ae88185611ac4565b9350611af88185602086016119f0565b611b01816119fe565b840191505092915050565b5f611b178383611ad4565b905092915050565b5f602082019050919050565b5f611b3582611a91565b611b3f8185611a9b565b935083602082028501611b5185611aab565b805f5b85811015611b8c5784840389528151611b6d8582611b0c565b9450611b7883611b1f565b925060208a01995050600181019050611b54565b50829750879550505050505092915050565b5f6020820190508181035f830152611bb68184611b2b565b905092915050565b5f60208284031215611bd357611bd2611620565b5b5f611be084828501611647565b91505092915050565b5f611bf38261165b565b9050919050565b611c0381611be9565b8114611c0d575f5ffd5b50565b5f81359050611c1e81611bfa565b92915050565b5f5ffd5b7f4e487b71000000000000000000000000000000000000000000000000000000005f52604160045260245ffd5b611c5e826119fe565b810181811067ffffffffffffffff82111715611c7d57611c7c611c28565b5b80604052505050565b5f611c8f611617565b9050611c9b8282611c55565b919050565b5f67ffffffffffffffff821115611cba57611cb9611c28565b5b611cc3826119fe565b9050602081019050919050565b828183375f83830152505050565b5f611cf0611ceb84611ca0565b611c86565b905082815260208101848484011115611d0c57611d0b611c24565b5b611d17848285611cd0565b509392505050565b5f82601f830112611d3357611d326116b5565b5b8135611d43848260208601611cde565b91505092915050565b5f5f60408385031215611d6257611d61611620565b5b5f611d6f85828601611c10565b925050602083013567ffffffffffffffff811115611d9057611d8f611624565b5b611d9c85828601611d1f565b9150509250929050565b611daf816117ba565b82525050565b5f82825260208201905092915050565b5f611dcf82611aba565b611dd98185611db5565b9350611de98185602086016119f0565b611df2816119fe565b840191505092915050565b5f606082019050611e105f830186611954565b611e1d6020830185611da6565b8181036040830152611e2f8184611dc5565b9050949350505050565b611e428161184a565b8114611e4c575f5ffd5b50565b5f81519050611e5d81611e39565b92915050565b5f60208284031215611e7857611e77611620565b5b5f611e8584828501611e4f565b91505092915050565b5f60208284031215611ea357611ea2611620565b5b5f611eb0848285016116a1565b91505092915050565b5f5ffd5b5f5ffd5b5f5ffd5b5f5f83356001602003843603038112611ee157611ee0611eb9565b5b80840192508235915067ffffffffffffffff821115611f0357611f02611ebd565b5b602083019250600182023603831315611f1f57611f1e611ec1565b5b509250929050565b5f611f3560208401846116a1565b905092915050565b611f468161167a565b82525050565b5f611f5a6020840184611647565b905092915050565b611f6b81611628565b82525050565b5f5ffd5b5f5ffd5b5f5ffd5b5f5f83356001602003843603038112611f9957611f98611f79565b5b83810192508235915060208301925067ffffffffffffffff821115611fc157611fc0611f71565b5b600182023603831315611fd757611fd6611f75565b5b509250929050565b5f611fea8385611ac4565b9350611ff7838584611cd0565b612000836119fe565b840190509392505050565b5f61201960208401846117d9565b905092915050565b61202a816117ba565b82525050565b5f61012083016120425f840184611f27565b61204e5f860182611f3d565b5061205c6020840184611f4c565b6120696020860182611f62565b506120776040840184611f7d565b858303604087015261208a838284611fdf565b9250505061209b6060840184611f7d565b85830360608701526120ae838284611fdf565b925050506120bf608084018461200b565b6120cc6080860182612021565b506120da60a0840184611f4c565b6120e760a0860182611f62565b506120f560c084018461200b565b61210260c0860182612021565b5061211060e0840184611f7d565b85830360e0870152612123838284611fdf565b92505050612135610100840184611f7d565b858303610100870152612149838284611fdf565b925050508091505092915050565b5f6040820190508181035f83015261216f8185612030565b905061217e6020830184611da6565b9392505050565b5f8151905061219381611631565b92915050565b5f602082840312156121ae576121ad611620565b5b5f6121bb84828501612185565b91505092915050565b7f4e487b71000000000000000000000000000000000000000000000000000000005f52601160045260245ffd5b5f6121fb82611628565b915061220683611628565b925082820190508082111561221e5761221d6121c4565b5b92915050565b5f81905092915050565b5f6122398385612224565b9350612246838584611cd0565b82840190509392505050565b5f61225e82848661222e565b91508190509392505050565b5f6020820190508181035f8301526122828184611dc5565b905092915050565b61229381611787565b811461229d575f5ffd5b50565b5f815190506122ae8161228a565b92915050565b5f602082840312156122c9576122c8611620565b5b5f6122d6848285016122a0565b91505092915050565b5f6122ea8385611db5565b93506122f7838584611cd0565b612300836119fe565b840190509392505050565b5f6020820190508181035f8301526123248184866122df565b90509392505050565b5f6040820190506123405f83018561192c565b61234d6020830184611954565b9392505050565b7f4e487b71000000000000000000000000000000000000000000000000000000005f52603260045260245ffd5b5f5ffd5b5f5ffd5b5f5f8585111561239c5761239b612381565b5b838611156123ad576123ac612385565b5b6001850283019150848603905094509492505050565b5f82905092915050565b5f7fffffffffffffffffffffffffffffffffffffffff00000000000000000000000082169050919050565b5f82821b905092915050565b5f61240f83836123c3565b8261241a81356123cd565b9250601482101561245a576124557fffffffffffffffffffffffffffffffffffffffff000000000000000000000000836014036008026123f8565b831692505b505092915050565b5f61246d83836123c3565b8261247881356117ba565b925060208210156124b8576124b37fffffffffffffffffffffffffffffffffffffffffffffffffffffffffffffffff836020036008026123f8565b831692505b50509291505056fe746f66752e6167656e742d736d6172742d77616c6c65742e657263373537392e7631a2646970667358221220caa6f18205d251bb01018296e6c7ed53f2e4258b4eff1879686d789e56ccd50564736f6c63430008220033",
  "linkReferences": {},
  "deployedLinkReferences": {},
  "immutableReferences": {
    "48": [
      {
        "length": 32,
        "start": 2214
      },
      {
        "length": 32,
        "start": 2680
      },
      {
        "length": 32,
        "start": 3492
      },
      {
        "length": 32,
        "start": 4553
      }
    ],
    "50": [
      {
        "length": 32,
        "start": 1421
      },
      {
        "length": 32,
        "start": 2250
      },
      {
        "length": 32,
        "start": 4039
      },
      {
        "length": 32,
        "start": 4640
      }
    ]
  },
  "inputSourceName": "project/contracts/AgentSmartWallet.sol",
  "buildInfoId": "solc-0_8_28-3a8fffffd933ec67789d9195910f5421b65f75ae"
}