{"project/contracts/mocks/MockMoonbeamXcmRouter.sol":{"MockMoonbeamXcmRouter":{"abi":[{"inputs":[{"internalType":"bytes","name":"expectedDestination","type":"bytes"},{"internalType":"bytes","name":"expectedPrefix","type":"bytes"}],"stateMutability":"nonpayable","type":"constructor"},{"inputs":[{"internalType":"bytes","name":"reason","type":"bytes"}],"name":"ForwardFailed","type":"error"},{"inputs":[],"name":"InvalidDestination","type":"error"},{"inputs":[],"name":"InvalidPrefix","type":"error"},{"anonymous":false,"inputs":[{"indexed":true,"internalType":"address","name":"hubSender","type":"address"},{"indexed":true,"internalType":"address","name":"receiver","type":"address"},{"indexed":false,"internalType":"bytes","name":"destination","type":"bytes"},{"indexed":false,"internalType":"bytes","name":"payload","type":"bytes"}],"name":"XcmDelivered","type":"event"},{"inputs":[],"name":"expectedDestinationHash","outputs":[{"internalType":"bytes32","name":"","type":"bytes32"}],"stateMutability":"view","type":"function"},{"inputs":[],"name":"expectedPrefixHash","outputs":[{"internalType":"bytes32","name":"","type":"bytes32"}],"stateMutability":"view","type":"function"},{"inputs":[{"internalType":"address","name":"hubSender","type":"address"},{"internalType":"bytes","name":"destination","type":"bytes"},{"internalType":"bytes","name":"message","type":"bytes"}],"name":"routeMessage","outputs":[],"stateMutability":"nonpayable","type":"function"}],"evm":{"bytecode":{"linkReferences":{},"object":"60c060405234801561000f575f5ffd5b50604051610a64380380610a64833981810160405281019061003191906101a3565b818051906020012060808181525050808051906020012060a081815250505050610219565b5f604051905090565b5f5ffd5b5f5ffd5b5f5ffd5b5f5ffd5b5f601f19601f8301169050919050565b7f4e487b71000000000000000000000000000000000000000000000000000000005f52604160045260245ffd5b6100b58261006f565b810181811067ffffffffffffffff821117156100d4576100d361007f565b5b80604052505050565b5f6100e6610056565b90506100f282826100ac565b919050565b5f67ffffffffffffffff8211156101115761011061007f565b5b61011a8261006f565b9050602081019050919050565b8281835e5f83830152505050565b5f610147610142846100f7565b6100dd565b9050828152602081018484840111156101635761016261006b565b5b61016e848285610127565b509392505050565b5f82601f83011261018a57610189610067565b5b815161019a848260208601610135565b91505092915050565b5f5f604083850312156101b9576101b861005f565b5b5f83015167ffffffffffffffff8111156101d6576101d5610063565b5b6101e285828601610176565b925050602083015167ffffffffffffffff81111561020357610202610063565b5b61020f85828601610176565b9150509250929050565b60805160a05161081e6102465f395f8181609d015261014901525f818160c101526102cc015261081e5ff3fe608060405234801561000f575f5ffd5b506004361061003f575f3560e01c80636bf23a1a14610043578063812ba33914610061578063a737279d1461007d575b5f5ffd5b61004b61009b565b6040516100589190610306565b60405180910390f35b61007b600480360381019061007691906103eb565b6100bf565b005b6100856102ca565b6040516100929190610306565b60405180910390f35b7f000000000000000000000000000000000000000000000000000000000000000081565b7f000000000000000000000000000000000000000000000000000000000000000084846040516100f09291906104b8565b60405180910390201461012f576040517fac6b05f500000000000000000000000000000000000000000000000000000000815260040160405180910390fd5b5f5f5f84848101906101419190610635565b9250925092507f00000000000000000000000000000000000000000000000000000000000000008380519060200120146101a7576040517f5aaa8f5100000000000000000000000000000000000000000000000000000000815260040160405180910390fd5b5f5f8373ffffffffffffffffffffffffffffffffffffffff16836040516101ce9190610705565b5f604051808303815f865af19150503d805f8114610207576040519150601f19603f3d011682016040523d82523d5f602084013e61020c565b606091505b50915091508161025357806040517f641918df00000000000000000000000000000000000000000000000000000000815260040161024a9190610763565b60405180910390fd5b8373ffffffffffffffffffffffffffffffffffffffff168a73ffffffffffffffffffffffffffffffffffffffff167f786c50f4dcb9829fb0abf5da65b4d3b61efe56e76cce2e6abd5a192ff706aa068b8b8b8b6040516102b694939291906107af565b60405180910390a350505050505050505050565b7f000000000000000000000000000000000000000000000000000000000000000081565b5f819050919050565b610300816102ee565b82525050565b5f6020820190506103195f8301846102f7565b92915050565b5f604051905090565b5f5ffd5b5f5ffd5b5f73ffffffffffffffffffffffffffffffffffffffff82169050919050565b5f61035982610330565b9050919050565b6103698161034f565b8114610373575f5ffd5b50565b5f8135905061038481610360565b92915050565b5f5ffd5b5f5ffd5b5f5ffd5b5f5f83601f8401126103ab576103aa61038a565b5b8235905067ffffffffffffffff8111156103c8576103c761038e565b5b6020830191508360018202830111156103e4576103e3610392565b5b9250929050565b5f5f5f5f5f6060868803121561040457610403610328565b5b5f61041188828901610376565b955050602086013567ffffffffffffffff8111156104325761043161032c565b5b61043e88828901610396565b9450945050604086013567ffffffffffffffff8111156104615761046061032c565b5b61046d88828901610396565b92509250509295509295909350565b5f81905092915050565b828183375f83830152505050565b5f61049f838561047c565b93506104ac838584610486565b82840190509392505050565b5f6104c4828486610494565b91508190509392505050565b5f5ffd5b5f601f19601f8301169050919050565b7f4e487b71000000000000000000000000000000000000000000000000000000005f52604160045260245ffd5b61051a826104d4565b810181811067ffffffffffffffff82111715610539576105386104e4565b5b80604052505050565b5f61054b61031f565b90506105578282610511565b919050565b5f67ffffffffffffffff821115610576576105756104e4565b5b61057f826104d4565b9050602081019050919050565b5f61059e6105998461055c565b610542565b9050828152602081018484840111156105ba576105b96104d0565b5b6105c5848285610486565b509392505050565b5f82601f8301126105e1576105e061038a565b5b81356105f184826020860161058c565b91505092915050565b5f61060482610330565b9050919050565b610614816105fa565b811461061e575f5ffd5b50565b5f8135905061062f8161060b565b92915050565b5f5f5f6060848603121561064c5761064b610328565b5b5f84013567ffffffffffffffff8111156106695761066861032c565b5b610675868287016105cd565b935050602061068686828701610621565b925050604084013567ffffffffffffffff8111156106a7576106a661032c565b5b6106b3868287016105cd565b9150509250925092565b5f81519050919050565b8281835e5f83830152505050565b5f6106df826106bd565b6106e9818561047c565b93506106f98185602086016106c7565b80840191505092915050565b5f61071082846106d5565b915081905092915050565b5f82825260208201905092915050565b5f610735826106bd565b61073f818561071b565b935061074f8185602086016106c7565b610758816104d4565b840191505092915050565b5f6020820190508181035f83015261077b818461072b565b905092915050565b5f61078e838561071b565b935061079b838584610486565b6107a4836104d4565b840190509392505050565b5f6040820190508181035f8301526107c8818688610783565b905081810360208301526107dd818486610783565b90509594505050505056fea264697066735822122016e7d39e90c570d4e2b7bc4938661c2e7121027291edfd0322133cdf99dc15c264736f6c63430008220033","opcodes":"PUSH1 0xC0 PUSH1 0x40 MSTORE CALLVALUE DUP1 ISZERO PUSH2 0xF JUMPI PUSH0 PUSH0 REVERT JUMPDEST POP PUSH1 0x40 MLOAD PUSH2 0xA64 CODESIZE SUB DUP1 PUSH2 0xA64 DUP4 CODECOPY DUP2 DUP2 ADD PUSH1 0x40 MSTORE DUP2 ADD SWAP1 PUSH2 0x31 SWAP2 SWAP1 PUSH2 0x1A3 JUMP JUMPDEST DUP2 DUP1 MLOAD SWAP1 PUSH1 0x20 ADD KECCAK256 PUSH1 0x80 DUP2 DUP2 MSTORE POP POP DUP1 DUP1 MLOAD SWAP1 PUSH1 0x20 ADD KECCAK256 PUSH1 0xA0 DUP2 DUP2 MSTORE POP POP POP POP PUSH2 0x219 JUMP JUMPDEST PUSH0 PUSH1 0x40 MLOAD SWAP1 POP SWAP1 JUMP JUMPDEST PUSH0 PUSH0 REVERT JUMPDEST PUSH0 PUSH0 REVERT JUMPDEST PUSH0 PUSH0 REVERT JUMPDEST PUSH0 PUSH0 REVERT JUMPDEST PUSH0 PUSH1 0x1F NOT PUSH1 0x1F DUP4 ADD AND SWAP1 POP SWAP2 SWAP1 POP JUMP JUMPDEST PUSH32 0x4E487B7100000000000000000000000000000000000000000000000000000000 PUSH0 MSTORE PUSH1 0x41 PUSH1 0x4 MSTORE PUSH1 0x24 PUSH0 REVERT JUMPDEST PUSH2 0xB5 DUP3 PUSH2 0x6F JUMP JUMPDEST DUP2 ADD DUP2 DUP2 LT PUSH8 0xFFFFFFFFFFFFFFFF DUP3 GT OR ISZERO PUSH2 0xD4 JUMPI PUSH2 0xD3 PUSH2 0x7F JUMP JUMPDEST JUMPDEST DUP1 PUSH1 0x40 MSTORE POP POP POP JUMP JUMPDEST PUSH0 PUSH2 0xE6 PUSH2 0x56 JUMP JUMPDEST SWAP1 POP PUSH2 0xF2 DUP3 DUP3 PUSH2 0xAC JUMP JUMPDEST SWAP2 SWAP1 POP JUMP JUMPDEST PUSH0 PUSH8 0xFFFFFFFFFFFFFFFF DUP3 GT ISZERO PUSH2 0x111 JUMPI PUSH2 0x110 PUSH2 0x7F JUMP JUMPDEST JUMPDEST PUSH2 0x11A DUP3 PUSH2 0x6F JUMP JUMPDEST SWAP1 POP PUSH1 0x20 DUP2 ADD SWAP1 POP SWAP2 SWAP1 POP JUMP JUMPDEST DUP3 DUP2 DUP4 MCOPY PUSH0 DUP4 DUP4 ADD MSTORE POP POP POP JUMP JUMPDEST PUSH0 PUSH2 0x147 PUSH2 0x142 DUP5 PUSH2 0xF7 JUMP JUMPDEST PUSH2 0xDD JUMP JUMPDEST SWAP1 POP DUP3 DUP2 MSTORE PUSH1 0x20 DUP2 ADD DUP5 DUP5 DUP5 ADD GT ISZERO PUSH2 0x163 JUMPI PUSH2 0x162 PUSH2 0x6B JUMP JUMPDEST JUMPDEST PUSH2 0x16E DUP5 DUP3 DUP6 PUSH2 0x127 JUMP JUMPDEST POP SWAP4 SWAP3 POP POP POP JUMP JUMPDEST PUSH0 DUP3 PUSH1 0x1F DUP4 ADD SLT PUSH2 0x18A JUMPI PUSH2 0x189 PUSH2 0x67 JUMP JUMPDEST JUMPDEST DUP2 MLOAD PUSH2 0x19A DUP5 DUP3 PUSH1 0x20 DUP7 ADD PUSH2 0x135 JUMP JUMPDEST SWAP2 POP POP SWAP3 SWAP2 POP POP JUMP JUMPDEST PUSH0 PUSH0 PUSH1 0x40 DUP4 DUP6 SUB SLT ISZERO PUSH2 0x1B9 JUMPI PUSH2 0x1B8 PUSH2 0x5F JUMP JUMPDEST JUMPDEST PUSH0 DUP4 ADD MLOAD PUSH8 0xFFFFFFFFFFFFFFFF DUP2 GT ISZERO PUSH2 0x1D6 JUMPI PUSH2 0x1D5 PUSH2 0x63 JUMP JUMPDEST JUMPDEST PUSH2 0x1E2 DUP6 DUP3 DUP7 ADD PUSH2 0x176 JUMP JUMPDEST SWAP3 POP POP PUSH1 0x20 DUP4 ADD MLOAD PUSH8 0xFFFFFFFFFFFFFFFF DUP2 GT ISZERO PUSH2 0x203 JUMPI PUSH2 0x202 PUSH2 0x63 JUMP JUMPDEST JUMPDEST PUSH2 0x20F DUP6 DUP3 DUP7 ADD PUSH2 0x176 JUMP JUMPDEST SWAP2 POP POP SWAP3 POP SWAP3 SWAP1 POP JUMP JUMPDEST PUSH1 0x80 MLOAD PUSH1 0xA0 MLOAD PUSH2 0x81E PUSH2 0x246 PUSH0 CODECOPY PUSH0 DUP2 DUP2 PUSH1 0x9D ADD MSTORE PUSH2 0x149 ADD MSTORE PUSH0 DUP2 DUP2 PUSH1 0xC1 ADD MSTORE PUSH2 0x2CC ADD MSTORE PUSH2 0x81E PUSH0 RETURN INVALID PUSH1 0x80 PUSH1 0x40 MSTORE CALLVALUE DUP1 ISZERO PUSH2 0xF JUMPI PUSH0 PUSH0 REVERT JUMPDEST POP PUSH1 0x4 CALLDATASIZE LT PUSH2 0x3F JUMPI PUSH0 CALLDATALOAD PUSH1 0xE0 SHR DUP1 PUSH4 0x6BF23A1A EQ PUSH2 0x43 JUMPI DUP1 PUSH4 0x812BA339 EQ PUSH2 0x61 JUMPI DUP1 PUSH4 0xA737279D EQ PUSH2 0x7D JUMPI JUMPDEST PUSH0 PUSH0 REVERT JUMPDEST PUSH2 0x4B PUSH2 0x9B JUMP JUMPDEST PUSH1 0x40 MLOAD PUSH2 0x58 SWAP2 SWAP1 PUSH2 0x306 JUMP JUMPDEST PUSH1 0x40 MLOAD DUP1 SWAP2 SUB SWAP1 RETURN JUMPDEST PUSH2 0x7B PUSH1 0x4 DUP1 CALLDATASIZE SUB DUP2 ADD SWAP1 PUSH2 0x76 SWAP2 SWAP1 PUSH2 0x3EB JUMP JUMPDEST PUSH2 0xBF JUMP JUMPDEST STOP JUMPDEST PUSH2 0x85 PUSH2 0x2CA JUMP JUMPDEST PUSH1 0x40 MLOAD PUSH2 0x92 SWAP2 SWAP1 PUSH2 0x306 JUMP JUMPDEST PUSH1 0x40 MLOAD DUP1 SWAP2 SUB SWAP1 RETURN JUMPDEST PUSH32 0x0 DUP2 JUMP JUMPDEST PUSH32 0x0 DUP5 DUP5 PUSH1 0x40 MLOAD PUSH2 0xF0 SWAP3 SWAP2 SWAP1 PUSH2 0x4B8 JUMP JUMPDEST PUSH1 0x40 MLOAD DUP1 SWAP2 SUB SWAP1 KECCAK256 EQ PUSH2 0x12F JUMPI PUSH1 0x40 MLOAD PUSH32 0xAC6B05F500000000000000000000000000000000000000000000000000000000 DUP2 MSTORE PUSH1 0x4 ADD PUSH1 0x40 MLOAD DUP1 SWAP2 SUB SWAP1 REVERT JUMPDEST PUSH0 PUSH0 PUSH0 DUP5 DUP5 DUP2 ADD SWAP1 PUSH2 0x141 SWAP2 SWAP1 PUSH2 0x635 JUMP JUMPDEST SWAP3 POP SWAP3 POP SWAP3 POP PUSH32 0x0 DUP4 DUP1 MLOAD SWAP1 PUSH1 0x20 ADD KECCAK256 EQ PUSH2 0x1A7 JUMPI PUSH1 0x40 MLOAD PUSH32 0x5AAA8F5100000000000000000000000000000000000000000000000000000000 DUP2 MSTORE PUSH1 0x4 ADD PUSH1 0x40 MLOAD DUP1 SWAP2 SUB SWAP1 REVERT JUMPDEST PUSH0 PUSH0 DUP4 PUSH20 0xFFFFFFFFFFFFFFFFFFFFFFFFFFFFFFFFFFFFFFFF AND DUP4 PUSH1 0x40 MLOAD PUSH2 0x1CE SWAP2 SWAP1 PUSH2 0x705 JUMP JUMPDEST PUSH0 PUSH1 0x40 MLOAD DUP1 DUP4 SUB DUP2 PUSH0 DUP7 GAS CALL SWAP2 POP POP RETURNDATASIZE DUP1 PUSH0 DUP2 EQ PUSH2 0x207 JUMPI PUSH1 0x40 MLOAD SWAP2 POP PUSH1 0x1F NOT PUSH1 0x3F RETURNDATASIZE ADD AND DUP3 ADD PUSH1 0x40 MSTORE RETURNDATASIZE DUP3 MSTORE RETURNDATASIZE PUSH0 PUSH1 0x20 DUP5 ADD RETURNDATACOPY PUSH2 0x20C JUMP JUMPDEST PUSH1 0x60 SWAP2 POP JUMPDEST POP SWAP2 POP SWAP2 POP DUP2 PUSH2 0x253 JUMPI DUP1 PUSH1 0x40 MLOAD PUSH32 0x641918DF00000000000000000000000000000000000000000000000000000000 DUP2 MSTORE PUSH1 0x4 ADD PUSH2 0x24A SWAP2 SWAP1 PUSH2 0x763 JUMP JUMPDEST PUSH1 0x40 MLOAD DUP1 SWAP2 SUB SWAP1 REVERT JUMPDEST DUP4 PUSH20 0xFFFFFFFFFFFFFFFFFFFFFFFFFFFFFFFFFFFFFFFF AND DUP11 PUSH20 0xFFFFFFFFFFFFFFFFFFFFFFFFFFFFFFFFFFFFFFFF AND PUSH32 0x786C50F4DCB9829FB0ABF5DA65B4D3B61EFE56E76CCE2E6ABD5A192FF706AA06 DUP12 DUP12 DUP12 DUP12 PUSH1 0x40 MLOAD PUSH2 0x2B6 SWAP5 SWAP4 SWAP3 SWAP2 SWAP1 PUSH2 0x7AF JUMP JUMPDEST PUSH1 0x40 MLOAD DUP1 SWAP2 SUB SWAP1 LOG3 POP POP POP POP POP POP POP POP POP POP JUMP JUMPDEST PUSH32 0x0 DUP2 JUMP JUMPDEST PUSH0 DUP2 SWAP1 POP SWAP2 SWAP1 POP JUMP JUMPDEST PUSH2 0x300 DUP2 PUSH2 0x2EE JUMP JUMPDEST DUP3 MSTORE POP POP JUMP JUMPDEST PUSH0 PUSH1 0x20 DUP3 ADD SWAP1 POP PUSH2 0x319 PUSH0 DUP4 ADD DUP5 PUSH2 0x2F7 JUMP JUMPDEST SWAP3 SWAP2 POP POP JUMP JUMPDEST PUSH0 PUSH1 0x40 MLOAD SWAP1 POP SWAP1 JUMP JUMPDEST PUSH0 PUSH0 REVERT JUMPDEST PUSH0 PUSH0 REVERT JUMPDEST PUSH0 PUSH20 0xFFFFFFFFFFFFFFFFFFFFFFFFFFFFFFFFFFFFFFFF DUP3 AND SWAP1 POP SWAP2 SWAP1 POP JUMP JUMPDEST PUSH0 PUSH2 0x359 DUP3 PUSH2 0x330 JUMP JUMPDEST SWAP1 POP SWAP2 SWAP1 POP JUMP JUMPDEST PUSH2 0x369 DUP2 PUSH2 0x34F JUMP JUMPDEST DUP2 EQ PUSH2 0x373 JUMPI PUSH0 PUSH0 REVERT JUMPDEST POP JUMP JUMPDEST PUSH0 DUP2 CALLDATALOAD SWAP1 POP PUSH2 0x384 DUP2 PUSH2 0x360 JUMP JUMPDEST SWAP3 SWAP2 POP POP JUMP JUMPDEST PUSH0 PUSH0 REVERT JUMPDEST PUSH0 PUSH0 REVERT JUMPDEST PUSH0 PUSH0 REVERT JUMPDEST PUSH0 PUSH0 DUP4 PUSH1 0x1F DUP5 ADD SLT PUSH2 0x3AB JUMPI PUSH2 0x3AA PUSH2 0x38A JUMP JUMPDEST JUMPDEST DUP3 CALLDATALOAD SWAP1 POP PUSH8 0xFFFFFFFFFFFFFFFF DUP2 GT ISZERO PUSH2 0x3C8 JUMPI PUSH2 0x3C7 PUSH2 0x38E JUMP JUMPDEST JUMPDEST PUSH1 0x20 DUP4 ADD SWAP2 POP DUP4 PUSH1 0x1 DUP3 MUL DUP4 ADD GT ISZERO PUSH2 0x3E4 JUMPI PUSH2 0x3E3 PUSH2 0x392 JUMP JUMPDEST JUMPDEST SWAP3 POP SWAP3 SWAP1 POP JUMP JUMPDEST PUSH0 PUSH0 PUSH0 PUSH0 PUSH0 PUSH1 0x60 DUP7 DUP9 SUB SLT ISZERO PUSH2 0x404 JUMPI PUSH2 0x403 PUSH2 0x328 JUMP JUMPDEST JUMPDEST PUSH0 PUSH2 0x411 DUP9 DUP3 DUP10 ADD PUSH2 0x376 JUMP JUMPDEST SWAP6 POP POP PUSH1 0x20 DUP7 ADD CALLDATALOAD PUSH8 0xFFFFFFFFFFFFFFFF DUP2 GT ISZERO PUSH2 0x432 JUMPI PUSH2 0x431 PUSH2 0x32C JUMP JUMPDEST JUMPDEST PUSH2 0x43E DUP9 DUP3 DUP10 ADD PUSH2 0x396 JUMP JUMPDEST SWAP5 POP SWAP5 POP POP PUSH1 0x40 DUP7 ADD CALLDATALOAD PUSH8 0xFFFFFFFFFFFFFFFF DUP2 GT ISZERO PUSH2 0x461 JUMPI PUSH2 0x460 PUSH2 0x32C JUMP JUMPDEST JUMPDEST PUSH2 0x46D DUP9 DUP3 DUP10 ADD PUSH2 0x396 JUMP JUMPDEST SWAP3 POP SWAP3 POP POP SWAP3 SWAP6 POP SWAP3 SWAP6 SWAP1 SWAP4 POP JUMP JUMPDEST PUSH0 DUP2 SWAP1 POP SWAP3 SWAP2 POP POP JUMP JUMPDEST DUP3 DUP2 DUP4 CALLDATACOPY PUSH0 DUP4 DUP4 ADD MSTORE POP POP POP JUMP JUMPDEST PUSH0 PUSH2 0x49F DUP4 DUP6 PUSH2 0x47C JUMP JUMPDEST SWAP4 POP PUSH2 0x4AC DUP4 DUP6 DUP5 PUSH2 0x486 JUMP JUMPDEST DUP3 DUP5 ADD SWAP1 POP SWAP4 SWAP3 POP POP POP JUMP JUMPDEST PUSH0 PUSH2 0x4C4 DUP3 DUP5 DUP7 PUSH2 0x494 JUMP JUMPDEST SWAP2 POP DUP2 SWAP1 POP SWAP4 SWAP3 POP POP POP JUMP JUMPDEST PUSH0 PUSH0 REVERT JUMPDEST PUSH0 PUSH1 0x1F NOT PUSH1 0x1F DUP4 ADD AND SWAP1 POP SWAP2 SWAP1 POP JUMP JUMPDEST PUSH32 0x4E487B7100000000000000000000000000000000000000000000000000000000 PUSH0 MSTORE PUSH1 0x41 PUSH1 0x4 MSTORE PUSH1 0x24 PUSH0 REVERT JUMPDEST PUSH2 0x51A DUP3 PUSH2 0x4D4 JUMP JUMPDEST DUP2 ADD DUP2 DUP2 LT PUSH8 0xFFFFFFFFFFFFFFFF DUP3 GT OR ISZERO PUSH2 0x539 JUMPI PUSH2 0x538 PUSH2 0x4E4 JUMP JUMPDEST JUMPDEST DUP1 PUSH1 0x40 MSTORE POP POP POP JUMP JUMPDEST PUSH0 PUSH2 0x54B PUSH2 0x31F JUMP JUMPDEST SWAP1 POP PUSH2 0x557 DUP3 DUP3 PUSH2 0x511 JUMP JUMPDEST SWAP2 SWAP1 POP JUMP JUMPDEST PUSH0 PUSH8 0xFFFFFFFFFFFFFFFF DUP3 GT ISZERO PUSH2 0x576 JUMPI PUSH2 0x575 PUSH2 0x4E4 JUMP JUMPDEST JUMPDEST PUSH2 0x57F DUP3 PUSH2 0x4D4 JUMP JUMPDEST SWAP1 POP PUSH1 0x20 DUP2 ADD SWAP1 POP SWAP2 SWAP1 POP JUMP JUMPDEST PUSH0 PUSH2 0x59E PUSH2 0x599 DUP5 PUSH2 0x55C JUMP JUMPDEST PUSH2 0x542 JUMP JUMPDEST SWAP1 POP DUP3 DUP2 MSTORE PUSH1 0x20 DUP2 ADD DUP5 DUP5 DUP5 ADD GT ISZERO PUSH2 0x5BA JUMPI PUSH2 0x5B9 PUSH2 0x4D0 JUMP JUMPDEST JUMPDEST PUSH2 0x5C5 DUP5 DUP3 DUP6 PUSH2 0x486 JUMP JUMPDEST POP SWAP4 SWAP3 POP POP POP JUMP JUMPDEST PUSH0 DUP3 PUSH1 0x1F DUP4 ADD SLT PUSH2 0x5E1 JUMPI PUSH2 0x5E0 PUSH2 0x38A JUMP JUMPDEST JUMPDEST DUP2 CALLDATALOAD PUSH2 0x5F1 DUP5 DUP3 PUSH1 0x20 DUP7 ADD PUSH2 0x58C JUMP JUMPDEST SWAP2 POP POP SWAP3 SWAP2 POP POP JUMP JUMPDEST PUSH0 PUSH2 0x604 DUP3 PUSH2 0x330 JUMP JUMPDEST SWAP1 POP SWAP2 SWAP1 POP JUMP JUMPDEST PUSH2 0x614 DUP2 PUSH2 0x5FA JUMP JUMPDEST DUP2 EQ PUSH2 0x61E JUMPI PUSH0 PUSH0 REVERT JUMPDEST POP JUMP JUMPDEST PUSH0 DUP2 CALLDATALOAD SWAP1 POP PUSH2 0x62F DUP2 PUSH2 0x60B JUMP JUMPDEST SWAP3 SWAP2 POP POP JUMP JUMPDEST PUSH0 PUSH0 PUSH0 PUSH1 0x60 DUP5 DUP7 SUB SLT ISZERO PUSH2 0x64C JUMPI PUSH2 0x64B PUSH2 0x328 JUMP JUMPDEST JUMPDEST PUSH0 DUP5 ADD CALLDATALOAD PUSH8 0xFFFFFFFFFFFFFFFF DUP2 GT ISZERO PUSH2 0x669 JUMPI PUSH2 0x668 PUSH2 0x32C JUMP JUMPDEST JUMPDEST PUSH2 0x675 DUP7 DUP3 DUP8 ADD PUSH2 0x5CD JUMP JUMPDEST SWAP4 POP POP PUSH1 0x20 PUSH2 0x686 DUP7 DUP3 DUP8 ADD PUSH2 0x621 JUMP JUMPDEST SWAP3 POP POP PUSH1 0x40 DUP5 ADD CALLDATALOAD PUSH8 0xFFFFFFFFFFFFFFFF DUP2 GT ISZERO PUSH2 0x6A7 JUMPI PUSH2 0x6A6 PUSH2 0x32C JUMP JUMPDEST JUMPDEST PUSH2 0x6B3 DUP7 DUP3 DUP8 ADD PUSH2 0x5CD JUMP JUMPDEST SWAP2 POP POP SWAP3 POP SWAP3 POP SWAP3 JUMP JUMPDEST PUSH0 DUP2 MLOAD SWAP1 POP SWAP2 SWAP1 POP JUMP JUMPDEST DUP3 DUP2 DUP4 MCOPY PUSH0 DUP4 DUP4 ADD MSTORE POP POP POP JUMP JUMPDEST PUSH0 PUSH2 0x6DF DUP3 PUSH2 0x6BD JUMP JUMPDEST PUSH2 0x6E9 DUP2 DUP6 PUSH2 0x47C JUMP JUMPDEST SWAP4 POP PUSH2 0x6F9 DUP2 DUP6 PUSH1 0x20 DUP7 ADD PUSH2 0x6C7 JUMP JUMPDEST DUP1 DUP5 ADD SWAP2 POP POP SWAP3 SWAP2 POP POP JUMP JUMPDEST PUSH0 PUSH2 0x710 DUP3 DUP5 PUSH2 0x6D5 JUMP JUMPDEST SWAP2 POP DUP2 SWAP1 POP SWAP3 SWAP2 POP POP JUMP JUMPDEST PUSH0 DUP3 DUP3 MSTORE PUSH1 0x20 DUP3 ADD SWAP1 POP SWAP3 SWAP2 POP POP JUMP JUMPDEST PUSH0 PUSH2 0x735 DUP3 PUSH2 0x6BD JUMP JUMPDEST PUSH2 0x73F DUP2 DUP6 PUSH2 0x71B JUMP JUMPDEST SWAP4 POP PUSH2 0x74F DUP2 DUP6 PUSH1 0x20 DUP7 ADD PUSH2 0x6C7 JUMP JUMPDEST PUSH2 0x758 DUP2 PUSH2 0x4D4 JUMP JUMPDEST DUP5 ADD SWAP2 POP POP SWAP3 SWAP2 POP POP JUMP JUMPDEST PUSH0 PUSH1 0x20 DUP3 ADD SWAP1 POP DUP2 DUP2 SUB PUSH0 DUP4 ADD MSTORE PUSH2 0x77B DUP2 DUP5 PUSH2 0x72B JUMP JUMPDEST SWAP1 POP SWAP3 SWAP2 POP POP JUMP JUMPDEST PUSH0 PUSH2 0x78E DUP4 DUP6 PUSH2 0x71B JUMP JUMPDEST SWAP4 POP PUSH2 0x79B DUP4 DUP6 DUP5 PUSH2 0x486 JUMP JUMPDEST PUSH2 0x7A4 DUP4 PUSH2 0x4D4 JUMP JUMPDEST DUP5 ADD SWAP1 POP SWAP4 SWAP3 POP POP POP JUMP JUMPDEST PUSH0 PUSH1 0x40 DUP3 ADD SWAP1 POP DUP2 DUP2 SUB PUSH0 DUP4 ADD MSTORE PUSH2 0x7C8 DUP2 DUP7 DUP9 PUSH2 0x783 JUMP JUMPDEST SWAP1 POP DUP2 DUP2 SUB PUSH1 0x20 DUP4 ADD MSTORE PUSH2 0x7DD DUP2 DUP5 DUP7 PUSH2 0x783 JUMP JUMPDEST SWAP1 POP SWAP6 SWAP5 POP POP POP POP POP JUMP INVALID LOG2 PUSH5 0x6970667358 0x22 SLT KECCAK256 AND SWAPN 0xD3 SWAP15 SWAP1 0xC5 PUSH17 0xD4E2B7BC4938661C2E7121027291EDFD03 0x22 SGT EXTCODECOPY 0xDF SWAP10 0xDC ISZERO 0xC2 PUSH5 0x736F6C6343 STOP ADDMOD 0x22 STOP CALLER "},"methodIdentifiers":{"expectedDestinationHash()":"a737279d","expectedPrefixHash()":"6bf23a1a","routeMessage(address,bytes,bytes)":"812ba339"}}}}}