{"project/contracts/SessionKeyValidatorModule.sol":{"SessionKeyValidatorModule":{"abi":[{"inputs":[],"name":"CallBudgetExceeded","type":"error"},{"inputs":[],"name":"InvalidSignatureLength","type":"error"},{"inputs":[],"name":"SessionAlreadyInstalled","type":"error"},{"inputs":[],"name":"SessionExpired","type":"error"},{"inputs":[],"name":"SessionNotInstalled","type":"error"},{"inputs":[],"name":"UnauthorizedAction","type":"error"},{"inputs":[],"name":"UnauthorizedSessionCaller","type":"error"},{"inputs":[],"name":"ValueBudgetExceeded","type":"error"},{"inputs":[],"name":"WrongChain","type":"error"},{"inputs":[],"name":"ERC1271_INVALID_VALUE","outputs":[{"internalType":"bytes4","name":"","type":"bytes4"}],"stateMutability":"view","type":"function"},{"inputs":[],"name":"ERC1271_MAGIC_VALUE","outputs":[{"internalType":"bytes4","name":"","type":"bytes4"}],"stateMutability":"view","type":"function"},{"inputs":[{"internalType":"address","name":"account","type":"address"},{"internalType":"bytes32","name":"mode","type":"bytes32"},{"internalType":"bytes","name":"executionCalldata","type":"bytes"},{"internalType":"uint256","name":"chainId","type":"uint256"}],"name":"executeSession","outputs":[],"stateMutability":"nonpayable","type":"function"},{"inputs":[{"internalType":"uint256","name":"moduleTypeId","type":"uint256"}],"name":"isModuleType","outputs":[{"internalType":"bool","name":"","type":"bool"}],"stateMutability":"pure","type":"function"},{"inputs":[{"internalType":"address","name":"","type":"address"},{"internalType":"bytes32","name":"hash","type":"bytes32"},{"internalType":"bytes","name":"signature","type":"bytes"}],"name":"isValidSignatureWithSender","outputs":[{"internalType":"bytes4","name":"","type":"bytes4"}],"stateMutability":"view","type":"function"},{"inputs":[{"internalType":"bytes","name":"data","type":"bytes"}],"name":"onInstall","outputs":[],"stateMutability":"nonpayable","type":"function"},{"inputs":[{"internalType":"bytes","name":"","type":"bytes"}],"name":"onUninstall","outputs":[],"stateMutability":"nonpayable","type":"function"},{"inputs":[{"internalType":"address","name":"account","type":"address"}],"name":"sessions","outputs":[{"internalType":"address","name":"sessionKey","type":"address"},{"internalType":"bytes32","name":"agentId","type":"bytes32"},{"internalType":"uint256","name":"targetChainId","type":"uint256"},{"internalType":"address","name":"allowedTarget","type":"address"},{"internalType":"bytes4","name":"allowedSelector","type":"bytes4"},{"internalType":"uint64","name":"validUntil","type":"uint64"},{"internalType":"uint64","name":"replayNonce","type":"uint64"},{"internalType":"uint32","name":"remainingCalls","type":"uint32"},{"internalType":"uint128","name":"remainingValue","type":"uint128"},{"internalType":"bool","name":"sponsorshipAllowed","type":"bool"},{"internalType":"bool","name":"installed","type":"bool"}],"stateMutability":"view","type":"function"},{"inputs":[{"components":[{"internalType":"address","name":"sender","type":"address"},{"internalType":"uint256","name":"nonce","type":"uint256"},{"internalType":"bytes","name":"initCode","type":"bytes"},{"internalType":"bytes","name":"callData","type":"bytes"},{"internalType":"bytes32","name":"accountGasLimits","type":"bytes32"},{"internalType":"uint256","name":"preVerificationGas","type":"uint256"},{"internalType":"bytes32","name":"gasFees","type":"bytes32"},{"internalType":"bytes","name":"paymasterAndData","type":"bytes"},{"internalType":"bytes","name":"signature","type":"bytes"}],"internalType":"struct PackedUserOperation","name":"userOp","type":"tuple"},{"internalType":"bytes32","name":"userOpHash","type":"bytes32"}],"name":"validateUserOp","outputs":[{"internalType":"uint256","name":"","type":"uint256"}],"stateMutability":"view","type":"function"}],"evm":{"bytecode":{"linkReferences":{},"object":"6080604052348015600e575f5ffd5b506123fe8061001c5f395ff3fe608060405234801561000f575f5ffd5b5060043610610091575f3560e01c80638a91b0e3116100645780638a91b0e3146101255780639700320314610141578063dd33734914610171578063ecd059611461018f578063f551e2ee146101bf57610091565b8063431a1b971461009557806351e80a4c146100cf57806353b9e1fc146100ed5780636d61fe7014610109575b5f5ffd5b6100af60048036038101906100aa919061158c565b6101ef565b6040516100c69b9a999897969594939291906116b4565b60405180910390f35b6100d76102fc565b6040516100e4919061175d565b60405180910390f35b6101076004803603810190610102919061182b565b610307565b005b610123600480360381019061011e91906118af565b61081a565b005b61013f600480360381019061013a91906118af565b610ba8565b005b61015b6004803603810190610156919061191d565b610d75565b6040516101689190611977565b60405180910390f35b6101796110e7565b604051610186919061175d565b60405180910390f35b6101a960048036038101906101a49190611990565b6110f2565b6040516101b691906119bb565b60405180910390f35b6101d960048036038101906101d491906119d4565b6110fe565b6040516101e6919061175d565b60405180910390f35b5f602052805f5260405f205f91509050805f015f9054906101000a900473ffffffffffffffffffffffffffffffffffffffff1690806001015490806002015490806003015f9054906101000a900473ffffffffffffffffffffffffffffffffffffffff16908060030160149054906101000a900460e01b908060030160189054906101000a900467ffffffffffffffff1690806004015f9054906101000a900467ffffffffffffffff16908060040160089054906101000a900463ffffffff169080600401600c9054906101000a90046fffffffffffffffffffffffffffffffff169080600401601c9054906101000a900460ff169080600401601d9054906101000a900460ff1690508b565b631626ba7e60e01b81565b5f5f5f8773ffffffffffffffffffffffffffffffffffffffff1673ffffffffffffffffffffffffffffffffffffffff1681526020019081526020015f20905061034f816111cf565b610385576040517fdbc32bb600000000000000000000000000000000000000000000000000000000815260040160405180910390fd5b3373ffffffffffffffffffffffffffffffffffffffff16815f015f9054906101000a900473ffffffffffffffffffffffffffffffffffffffff1673ffffffffffffffffffffffffffffffffffffffff161461040c576040517f9f56b1a000000000000000000000000000000000000000000000000000000000815260040160405180910390fd5b8060030160189054906101000a900467ffffffffffffffff1667ffffffffffffffff16421115610468576040517f1fd05a4a00000000000000000000000000000000000000000000000000000000815260040160405180910390fd5b806002015482146104a5576040517f10dfc03300000000000000000000000000000000000000000000000000000000815260040160405180910390fd5b5f5f1b851415806104c4575080600401601c9054906101000a900460ff165b156104fb576040517f843800fa00000000000000000000000000000000000000000000000000000000815260040160405180910390fd5b5f5f5f6105088787611217565b925092509250836003015f9054906101000a900473ffffffffffffffffffffffffffffffffffffffff1673ffffffffffffffffffffffffffffffffffffffff168373ffffffffffffffffffffffffffffffffffffffff161415806105bb57508360030160149054906101000a900460e01b7bffffffffffffffffffffffffffffffffffffffffffffffffffffffff1916817bffffffffffffffffffffffffffffffffffffffffffffffffffffffff191614155b156105f2576040517f843800fa00000000000000000000000000000000000000000000000000000000815260040160405180910390fd5b5f8460040160089054906101000a900463ffffffff1663ffffffff1603610645576040517f766370c600000000000000000000000000000000000000000000000000000000815260040160405180910390fd5b83600401600c9054906101000a90046fffffffffffffffffffffffffffffffff166fffffffffffffffffffffffffffffffff168211156106b1576040517f0f0a741100000000000000000000000000000000000000000000000000000000815260040160405180910390fd5b60018460040160088282829054906101000a900463ffffffff166106d59190611a72565b92506101000a81548163ffffffff021916908363ffffffff1602179055508184600401600c8282829054906101000a90046fffffffffffffffffffffffffffffffff166107229190611aa9565b92506101000a8154816fffffffffffffffffffffffffffffffff02191690836fffffffffffffffffffffffffffffffff1602179055506001846004015f8282829054906101000a900467ffffffffffffffff1661077f9190611aec565b92506101000a81548167ffffffffffffffff021916908367ffffffffffffffff1602179055508873ffffffffffffffffffffffffffffffffffffffff1663e9ae5c538989896040518463ffffffff1660e01b81526004016107e293929190611b81565b5f604051808303815f87803b1580156107f9575f5ffd5b505af115801561080b573d5f5f3e3d5ffd5b50505050505050505050505050565b5f5f5f5f5f5f5f5f5f5f8b8b8101906108339190611cbe565b99509950995099509950995099509950995099505f5f3373ffffffffffffffffffffffffffffffffffffffff1673ffffffffffffffffffffffffffffffffffffffff1681526020019081526020015f20600401601d9054906101000a900460ff16156108cb576040517f5a105bf600000000000000000000000000000000000000000000000000000000815260040160405180910390fd5b6040518061016001604052808b73ffffffffffffffffffffffffffffffffffffffff1681526020018a81526020018981526020018873ffffffffffffffffffffffffffffffffffffffff168152602001877bffffffffffffffffffffffffffffffffffffffffffffffffffffffff191681526020018667ffffffffffffffff1681526020018567ffffffffffffffff1681526020018463ffffffff168152602001836fffffffffffffffffffffffffffffffff1681526020018215158152602001600115158152505f5f3373ffffffffffffffffffffffffffffffffffffffff1673ffffffffffffffffffffffffffffffffffffffff1681526020019081526020015f205f820151815f015f6101000a81548173ffffffffffffffffffffffffffffffffffffffff021916908373ffffffffffffffffffffffffffffffffffffffff16021790555060208201518160010155604082015181600201556060820151816003015f6101000a81548173ffffffffffffffffffffffffffffffffffffffff021916908373ffffffffffffffffffffffffffffffffffffffff16021790555060808201518160030160146101000a81548163ffffffff021916908360e01c021790555060a08201518160030160186101000a81548167ffffffffffffffff021916908367ffffffffffffffff16021790555060c0820151816004015f6101000a81548167ffffffffffffffff021916908367ffffffffffffffff16021790555060e08201518160040160086101000a81548163ffffffff021916908363ffffffff16021790555061010082015181600401600c6101000a8154816fffffffffffffffffffffffffffffffff02191690836fffffffffffffffffffffffffffffffff16021790555061012082015181600401601c6101000a81548160ff02191690831515021790555061014082015181600401601d6101000a81548160ff021916908315150217905550905050505050505050505050505050565b5f5f3373ffffffffffffffffffffffffffffffffffffffff1673ffffffffffffffffffffffffffffffffffffffff1681526020019081526020015f20600401601d9054906101000a900460ff16610c2b576040517fdbc32bb600000000000000000000000000000000000000000000000000000000815260040160405180910390fd5b5f5f3373ffffffffffffffffffffffffffffffffffffffff1673ffffffffffffffffffffffffffffffffffffffff1681526020019081526020015f205f5f82015f6101000a81549073ffffffffffffffffffffffffffffffffffffffff0219169055600182015f9055600282015f9055600382015f6101000a81549073ffffffffffffffffffffffffffffffffffffffff02191690556003820160146101000a81549063ffffffff02191690556003820160186101000a81549067ffffffffffffffff0219169055600482015f6101000a81549067ffffffffffffffff02191690556004820160086101000a81549063ffffffff021916905560048201600c6101000a8154906fffffffffffffffffffffffffffffffff021916905560048201601c6101000a81549060ff021916905560048201601d6101000a81549060ff021916905550505050565b5f5f5f5f855f016020810190610d8b919061158c565b73ffffffffffffffffffffffffffffffffffffffff1673ffffffffffffffffffffffffffffffffffffffff1681526020019081526020015f209050610dcf816111cf565b610ddd5760019150506110e1565b6004848060600190610def9190611da3565b90501080610e6d575063e9ae5c5360e01b7bffffffffffffffffffffffffffffffffffffffffffffffffffffffff1916848060600190610e2f9190611da3565b5f90600492610e4093929190611e0d565b90610e4b9190611e5d565b7bffffffffffffffffffffffffffffffffffffffffffffffffffffffff191614155b15610e7c5760019150506110e1565b5f5f858060600190610e8e9190611da3565b6004908092610e9f93929190611e0d565b810190610eac9190611fd5565b915091505f5f1b8214610ec557600193505050506110e1565b5f5f5f610ed1846112c6565b925092509250468660020154141580610f395750856003015f9054906101000a900473ffffffffffffffffffffffffffffffffffffffff1673ffffffffffffffffffffffffffffffffffffffff168373ffffffffffffffffffffffffffffffffffffffff1614155b80610f9357508560030160149054906101000a900460e01b7bffffffffffffffffffffffffffffffffffffffffffffffffffffffff1916817bffffffffffffffffffffffffffffffffffffffffffffffffffffffff191614155b80610fb757505f8660040160089054906101000a900463ffffffff1663ffffffff16145b80610ff3575085600401600c9054906101000a90046fffffffffffffffffffffffffffffffff166fffffffffffffffffffffffffffffffff1682115b1561100757600196505050505050506110e1565b5f5f8a8060e001906110199190611da3565b905011905080151587600401601c9054906101000a900460ff1615151461104a5760019750505050505050506110e1565b5f5f8b80610100019061105d9190611da3565b81019061106a919061202f565b915091503073ffffffffffffffffffffffffffffffffffffffff168273ffffffffffffffffffffffffffffffffffffffff16146110b357600199505050505050505050506110e1565b6110be898c83611324565b6110d457600199505050505050505050506110e1565b5f99505050505050505050505b92915050565b63ffffffff60e01b81565b5f600182149050919050565b5f5f5f5f3373ffffffffffffffffffffffffffffffffffffffff1673ffffffffffffffffffffffffffffffffffffffff1681526020019081526020015f209050611147816111cf565b61115b5763ffffffff60e01b9150506111c7565b6111a9818686868080601f0160208091040260200160405190810160405280939291908181526020018383808284375f81840152601f19601f82011690508083019250505050505050611324565b6111ba5763ffffffff60e01b6111c3565b631626ba7e60e01b5b9150505b949350505050565b5f81600401601d9054906101000a900460ff16801561121057508160030160189054906101000a900467ffffffffffffffff1667ffffffffffffffff164211155b9050919050565b5f5f5f6038858590501015611258576040517f843800fa00000000000000000000000000000000000000000000000000000000815260040160405180910390fd5b84845f9060149261126b93929190611e0d565b9061127691906120b4565b60601c9250848460149060349261128f93929190611e0d565b9061129a9190612112565b5f1c915084846034906038926112b293929190611e0d565b906112bd9190611e5d565b90509250925092565b5f5f5f603884511015611305576040517f843800fa00000000000000000000000000000000000000000000000000000000815260040160405180910390fd5b602084015160601c925060348401519150605484015190509193909250565b5f5f5f8380602001905181019061133b9190612200565b91509150855f015f9054906101000a900473ffffffffffffffffffffffffffffffffffffffff1673ffffffffffffffffffffffffffffffffffffffff168273ffffffffffffffffffffffffffffffffffffffff161461139e575f92505050611451565b5f8587600101548860020154896004015f9054906101000a900467ffffffffffffffff166040516020016113d5949392919061225a565b604051602081830303815290604052805190602001206040516020016113fb9190612311565b6040516020818303038152906040528051906020012090508273ffffffffffffffffffffffffffffffffffffffff166114348284611458565b73ffffffffffffffffffffffffffffffffffffffff161493505050505b9392505050565b5f6041825114611494576040517f4be6321b00000000000000000000000000000000000000000000000000000000815260040160405180910390fd5b5f5f5f602085015192506040850151915060608501515f1a9050601b8160ff1610156114ca57601b816114c79190612342565b90505b6001868285856040515f81526020016040526040516114ec9493929190612385565b6020604051602081039080840390855afa15801561150c573d5f5f3e3d5ffd5b50505060206040510351935050505092915050565b5f604051905090565b5f5ffd5b5f5ffd5b5f73ffffffffffffffffffffffffffffffffffffffff82169050919050565b5f61155b82611532565b9050919050565b61156b81611551565b8114611575575f5ffd5b50565b5f8135905061158681611562565b92915050565b5f602082840312156115a1576115a061152a565b5b5f6115ae84828501611578565b91505092915050565b6115c081611551565b82525050565b5f819050919050565b6115d8816115c6565b82525050565b5f819050919050565b6115f0816115de565b82525050565b5f7fffffffff0000000000000000000000000000000000000000000000000000000082169050919050565b61162a816115f6565b82525050565b5f67ffffffffffffffff82169050919050565b61164c81611630565b82525050565b5f63ffffffff82169050919050565b61166a81611652565b82525050565b5f6fffffffffffffffffffffffffffffffff82169050919050565b61169481611670565b82525050565b5f8115159050919050565b6116ae8161169a565b82525050565b5f610160820190506116c85f83018e6115b7565b6116d5602083018d6115cf565b6116e2604083018c6115e7565b6116ef606083018b6115b7565b6116fc608083018a611621565b61170960a0830189611643565b61171660c0830188611643565b61172360e0830187611661565b61173161010083018661168b565b61173f6101208301856116a5565b61174d6101408301846116a5565b9c9b505050505050505050505050565b5f6020820190506117705f830184611621565b92915050565b61177f816115c6565b8114611789575f5ffd5b50565b5f8135905061179a81611776565b92915050565b5f5ffd5b5f5ffd5b5f5ffd5b5f5f83601f8401126117c1576117c06117a0565b5b8235905067ffffffffffffffff8111156117de576117dd6117a4565b5b6020830191508360018202830111156117fa576117f96117a8565b5b9250929050565b61180a816115de565b8114611814575f5ffd5b50565b5f8135905061182581611801565b92915050565b5f5f5f5f5f608086880312156118445761184361152a565b5b5f61185188828901611578565b95505060206118628882890161178c565b945050604086013567ffffffffffffffff8111156118835761188261152e565b5b61188f888289016117ac565b935093505060606118a288828901611817565b9150509295509295909350565b5f5f602083850312156118c5576118c461152a565b5b5f83013567ffffffffffffffff8111156118e2576118e161152e565b5b6118ee858286016117ac565b92509250509250929050565b5f5ffd5b5f6101208284031215611914576119136118fa565b5b81905092915050565b5f5f604083850312156119335761193261152a565b5b5f83013567ffffffffffffffff8111156119505761194f61152e565b5b61195c858286016118fe565b925050602061196d8582860161178c565b9150509250929050565b5f60208201905061198a5f8301846115e7565b92915050565b5f602082840312156119a5576119a461152a565b5b5f6119b284828501611817565b91505092915050565b5f6020820190506119ce5f8301846116a5565b92915050565b5f5f5f5f606085870312156119ec576119eb61152a565b5b5f6119f987828801611578565b9450506020611a0a8782880161178c565b935050604085013567ffffffffffffffff811115611a2b57611a2a61152e565b5b611a37878288016117ac565b925092505092959194509250565b7f4e487b71000000000000000000000000000000000000000000000000000000005f52601160045260245ffd5b5f611a7c82611652565b9150611a8783611652565b9250828203905063ffffffff811115611aa357611aa2611a45565b5b92915050565b5f611ab382611670565b9150611abe83611670565b925082820390506fffffffffffffffffffffffffffffffff811115611ae657611ae5611a45565b5b92915050565b5f611af682611630565b9150611b0183611630565b9250828201905067ffffffffffffffff811115611b2157611b20611a45565b5b92915050565b5f82825260208201905092915050565b828183375f83830152505050565b5f601f19601f8301169050919050565b5f611b608385611b27565b9350611b6d838584611b37565b611b7683611b45565b840190509392505050565b5f604082019050611b945f8301866115cf565b8181036020830152611ba7818486611b55565b9050949350505050565b5f611bbb82611532565b9050919050565b611bcb81611bb1565b8114611bd5575f5ffd5b50565b5f81359050611be681611bc2565b92915050565b611bf5816115f6565b8114611bff575f5ffd5b50565b5f81359050611c1081611bec565b92915050565b611c1f81611630565b8114611c29575f5ffd5b50565b5f81359050611c3a81611c16565b92915050565b611c4981611652565b8114611c53575f5ffd5b50565b5f81359050611c6481611c40565b92915050565b611c7381611670565b8114611c7d575f5ffd5b50565b5f81359050611c8e81611c6a565b92915050565b611c9d8161169a565b8114611ca7575f5ffd5b50565b5f81359050611cb881611c94565b92915050565b5f5f5f5f5f5f5f5f5f5f6101408b8d031215611cdd57611cdc61152a565b5b5f611cea8d828e01611bd8565b9a50506020611cfb8d828e0161178c565b9950506040611d0c8d828e01611817565b9850506060611d1d8d828e01611bd8565b9750506080611d2e8d828e01611c02565b96505060a0611d3f8d828e01611c2c565b95505060c0611d508d828e01611c2c565b94505060e0611d618d828e01611c56565b935050610100611d738d828e01611c80565b925050610120611d858d828e01611caa565b9150509295989b9194979a5092959850565b5f5ffd5b5f5ffd5b5f5ffd5b5f5f83356001602003843603038112611dbf57611dbe611d97565b5b80840192508235915067ffffffffffffffff821115611de157611de0611d9b565b5b602083019250600182023603831315611dfd57611dfc611d9f565b5b509250929050565b5f5ffd5b5f5ffd5b5f5f85851115611e2057611e1f611e05565b5b83861115611e3157611e30611e09565b5b6001850283019150848603905094509492505050565b5f82905092915050565b5f82821b905092915050565b5f611e688383611e47565b82611e7381356115f6565b92506004821015611eb357611eae7fffffffff0000000000000000000000000000000000000000000000000000000083600403600802611e51565b831692505b505092915050565b5f5ffd5b7f4e487b71000000000000000000000000000000000000000000000000000000005f52604160045260245ffd5b611ef582611b45565b810181811067ffffffffffffffff82111715611f1457611f13611ebf565b5b80604052505050565b5f611f26611521565b9050611f328282611eec565b919050565b5f67ffffffffffffffff821115611f5157611f50611ebf565b5b611f5a82611b45565b9050602081019050919050565b5f611f79611f7484611f37565b611f1d565b905082815260208101848484011115611f9557611f94611ebb565b5b611fa0848285611b37565b509392505050565b5f82601f830112611fbc57611fbb6117a0565b5b8135611fcc848260208601611f67565b91505092915050565b5f5f60408385031215611feb57611fea61152a565b5b5f611ff88582860161178c565b925050602083013567ffffffffffffffff8111156120195761201861152e565b5b61202585828601611fa8565b9150509250929050565b5f5f604083850312156120455761204461152a565b5b5f61205285828601611bd8565b925050602083013567ffffffffffffffff8111156120735761207261152e565b5b61207f85828601611fa8565b9150509250929050565b5f7fffffffffffffffffffffffffffffffffffffffff00000000000000000000000082169050919050565b5f6120bf8383611e47565b826120ca8135612089565b9250601482101561210a576121057fffffffffffffffffffffffffffffffffffffffff00000000000000000000000083601403600802611e51565b831692505b505092915050565b5f61211d8383611e47565b8261212881356115c6565b92506020821015612168576121637fffffffffffffffffffffffffffffffffffffffffffffffffffffffffffffffff83602003600802611e51565b831692505b505092915050565b5f8151905061217e81611bc2565b92915050565b8281835e5f83830152505050565b5f6121a461219f84611f37565b611f1d565b9050828152602081018484840111156121c0576121bf611ebb565b5b6121cb848285612184565b509392505050565b5f82601f8301126121e7576121e66117a0565b5b81516121f7848260208601612192565b91505092915050565b5f5f604083850312156122165761221561152a565b5b5f61222385828601612170565b925050602083015167ffffffffffffffff8111156122445761224361152e565b5b612250858286016121d3565b9150509250929050565b5f60808201905061226d5f8301876115cf565b61227a60208301866115cf565b61228760408301856115e7565b6122946060830184611643565b95945050505050565b5f81905092915050565b7f19457468657265756d205369676e6564204d6573736167653a0a3332000000005f82015250565b5f6122db601c8361229d565b91506122e6826122a7565b601c82019050919050565b5f819050919050565b61230b612306826115c6565b6122f1565b82525050565b5f61231b826122cf565b915061232782846122fa565b60208201915081905092915050565b5f60ff82169050919050565b5f61234c82612336565b915061235783612336565b9250828201905060ff8111156123705761236f611a45565b5b92915050565b61237f81612336565b82525050565b5f6080820190506123985f8301876115cf565b6123a56020830186612376565b6123b260408301856115cf565b6123bf60608301846115cf565b9594505050505056fea2646970667358221220b6bd12b146e62b85fae292053f113347d7dc38c62f39d40bafcce8ae9358999d64736f6c63430008220033","opcodes":"PUSH1 0x80 PUSH1 0x40 MSTORE CALLVALUE DUP1 ISZERO PUSH1 0xE JUMPI PUSH0 PUSH0 REVERT JUMPDEST POP PUSH2 0x23FE DUP1 PUSH2 0x1C PUSH0 CODECOPY PUSH0 RETURN INVALID PUSH1 0x80 PUSH1 0x40 MSTORE CALLVALUE DUP1 ISZERO PUSH2 0xF JUMPI PUSH0 PUSH0 REVERT JUMPDEST POP PUSH1 0x4 CALLDATASIZE LT PUSH2 0x91 JUMPI PUSH0 CALLDATALOAD PUSH1 0xE0 SHR DUP1 PUSH4 0x8A91B0E3 GT PUSH2 0x64 JUMPI DUP1 PUSH4 0x8A91B0E3 EQ PUSH2 0x125 JUMPI DUP1 PUSH4 0x97003203 EQ PUSH2 0x141 JUMPI DUP1 PUSH4 0xDD337349 EQ PUSH2 0x171 JUMPI DUP1 PUSH4 0xECD05961 EQ PUSH2 0x18F JUMPI DUP1 PUSH4 0xF551E2EE EQ PUSH2 0x1BF JUMPI PUSH2 0x91 JUMP JUMPDEST DUP1 PUSH4 0x431A1B97 EQ PUSH2 0x95 JUMPI DUP1 PUSH4 0x51E80A4C EQ PUSH2 0xCF JUMPI DUP1 PUSH4 0x53B9E1FC EQ PUSH2 0xED JUMPI DUP1 PUSH4 0x6D61FE70 EQ PUSH2 0x109 JUMPI JUMPDEST PUSH0 PUSH0 REVERT JUMPDEST PUSH2 0xAF PUSH1 0x4 DUP1 CALLDATASIZE SUB DUP2 ADD SWAP1 PUSH2 0xAA SWAP2 SWAP1 PUSH2 0x158C JUMP JUMPDEST PUSH2 0x1EF JUMP JUMPDEST PUSH1 0x40 MLOAD PUSH2 0xC6 SWAP12 SWAP11 SWAP10 SWAP9 SWAP8 SWAP7 SWAP6 SWAP5 SWAP4 SWAP3 SWAP2 SWAP1 PUSH2 0x16B4 JUMP JUMPDEST PUSH1 0x40 MLOAD DUP1 SWAP2 SUB SWAP1 RETURN JUMPDEST PUSH2 0xD7 PUSH2 0x2FC JUMP JUMPDEST PUSH1 0x40 MLOAD PUSH2 0xE4 SWAP2 SWAP1 PUSH2 0x175D JUMP JUMPDEST PUSH1 0x40 MLOAD DUP1 SWAP2 SUB SWAP1 RETURN JUMPDEST PUSH2 0x107 PUSH1 0x4 DUP1 CALLDATASIZE SUB DUP2 ADD SWAP1 PUSH2 0x102 SWAP2 SWAP1 PUSH2 0x182B JUMP JUMPDEST PUSH2 0x307 JUMP JUMPDEST STOP JUMPDEST PUSH2 0x123 PUSH1 0x4 DUP1 CALLDATASIZE SUB DUP2 ADD SWAP1 PUSH2 0x11E SWAP2 SWAP1 PUSH2 0x18AF JUMP JUMPDEST PUSH2 0x81A JUMP JUMPDEST STOP JUMPDEST PUSH2 0x13F PUSH1 0x4 DUP1 CALLDATASIZE SUB DUP2 ADD SWAP1 PUSH2 0x13A SWAP2 SWAP1 PUSH2 0x18AF JUMP JUMPDEST PUSH2 0xBA8 JUMP JUMPDEST STOP JUMPDEST PUSH2 0x15B PUSH1 0x4 DUP1 CALLDATASIZE SUB DUP2 ADD SWAP1 PUSH2 0x156 SWAP2 SWAP1 PUSH2 0x191D JUMP JUMPDEST PUSH2 0xD75 JUMP JUMPDEST PUSH1 0x40 MLOAD PUSH2 0x168 SWAP2 SWAP1 PUSH2 0x1977 JUMP JUMPDEST PUSH1 0x40 MLOAD DUP1 SWAP2 SUB SWAP1 RETURN JUMPDEST PUSH2 0x179 PUSH2 0x10E7 JUMP JUMPDEST PUSH1 0x40 MLOAD PUSH2 0x186 SWAP2 SWAP1 PUSH2 0x175D JUMP JUMPDEST PUSH1 0x40 MLOAD DUP1 SWAP2 SUB SWAP1 RETURN JUMPDEST PUSH2 0x1A9 PUSH1 0x4 DUP1 CALLDATASIZE SUB DUP2 ADD SWAP1 PUSH2 0x1A4 SWAP2 SWAP1 PUSH2 0x1990 JUMP JUMPDEST PUSH2 0x10F2 JUMP JUMPDEST PUSH1 0x40 MLOAD PUSH2 0x1B6 SWAP2 SWAP1 PUSH2 0x19BB JUMP JUMPDEST PUSH1 0x40 MLOAD DUP1 SWAP2 SUB SWAP1 RETURN JUMPDEST PUSH2 0x1D9 PUSH1 0x4 DUP1 CALLDATASIZE SUB DUP2 ADD SWAP1 PUSH2 0x1D4 SWAP2 SWAP1 PUSH2 0x19D4 JUMP JUMPDEST PUSH2 0x10FE JUMP JUMPDEST PUSH1 0x40 MLOAD PUSH2 0x1E6 SWAP2 SWAP1 PUSH2 0x175D JUMP JUMPDEST PUSH1 0x40 MLOAD DUP1 SWAP2 SUB SWAP1 RETURN JUMPDEST PUSH0 PUSH1 0x20 MSTORE DUP1 PUSH0 MSTORE PUSH1 0x40 PUSH0 KECCAK256 PUSH0 SWAP2 POP SWAP1 POP DUP1 PUSH0 ADD PUSH0 SWAP1 SLOAD SWAP1 PUSH2 0x100 EXP SWAP1 DIV PUSH20 0xFFFFFFFFFFFFFFFFFFFFFFFFFFFFFFFFFFFFFFFF AND SWAP1 DUP1 PUSH1 0x1 ADD SLOAD SWAP1 DUP1 PUSH1 0x2 ADD SLOAD SWAP1 DUP1 PUSH1 0x3 ADD PUSH0 SWAP1 SLOAD SWAP1 PUSH2 0x100 EXP SWAP1 DIV PUSH20 0xFFFFFFFFFFFFFFFFFFFFFFFFFFFFFFFFFFFFFFFF AND SWAP1 DUP1 PUSH1 0x3 ADD PUSH1 0x14 SWAP1 SLOAD SWAP1 PUSH2 0x100 EXP SWAP1 DIV PUSH1 0xE0 SHL SWAP1 DUP1 PUSH1 0x3 ADD PUSH1 0x18 SWAP1 SLOAD SWAP1 PUSH2 0x100 EXP SWAP1 DIV PUSH8 0xFFFFFFFFFFFFFFFF AND SWAP1 DUP1 PUSH1 0x4 ADD PUSH0 SWAP1 SLOAD SWAP1 PUSH2 0x100 EXP SWAP1 DIV PUSH8 0xFFFFFFFFFFFFFFFF AND SWAP1 DUP1 PUSH1 0x4 ADD PUSH1 0x8 SWAP1 SLOAD SWAP1 PUSH2 0x100 EXP SWAP1 DIV PUSH4 0xFFFFFFFF AND SWAP1 DUP1 PUSH1 0x4 ADD PUSH1 0xC SWAP1 SLOAD SWAP1 PUSH2 0x100 EXP SWAP1 DIV PUSH16 0xFFFFFFFFFFFFFFFFFFFFFFFFFFFFFFFF AND SWAP1 DUP1 PUSH1 0x4 ADD PUSH1 0x1C SWAP1 SLOAD SWAP1 PUSH2 0x100 EXP SWAP1 DIV PUSH1 0xFF AND SWAP1 DUP1 PUSH1 0x4 ADD PUSH1 0x1D SWAP1 SLOAD SWAP1 PUSH2 0x100 EXP SWAP1 DIV PUSH1 0xFF AND SWAP1 POP DUP12 JUMP JUMPDEST PUSH4 0x1626BA7E PUSH1 0xE0 SHL DUP2 JUMP JUMPDEST PUSH0 PUSH0 PUSH0 DUP8 PUSH20 0xFFFFFFFFFFFFFFFFFFFFFFFFFFFFFFFFFFFFFFFF AND PUSH20 0xFFFFFFFFFFFFFFFFFFFFFFFFFFFFFFFFFFFFFFFF AND DUP2 MSTORE PUSH1 0x20 ADD SWAP1 DUP2 MSTORE PUSH1 0x20 ADD PUSH0 KECCAK256 SWAP1 POP PUSH2 0x34F DUP2 PUSH2 0x11CF JUMP JUMPDEST PUSH2 0x385 JUMPI PUSH1 0x40 MLOAD PUSH32 0xDBC32BB600000000000000000000000000000000000000000000000000000000 DUP2 MSTORE PUSH1 0x4 ADD PUSH1 0x40 MLOAD DUP1 SWAP2 SUB SWAP1 REVERT JUMPDEST CALLER PUSH20 0xFFFFFFFFFFFFFFFFFFFFFFFFFFFFFFFFFFFFFFFF AND DUP2 PUSH0 ADD PUSH0 SWAP1 SLOAD SWAP1 PUSH2 0x100 EXP SWAP1 DIV PUSH20 0xFFFFFFFFFFFFFFFFFFFFFFFFFFFFFFFFFFFFFFFF AND PUSH20 0xFFFFFFFFFFFFFFFFFFFFFFFFFFFFFFFFFFFFFFFF AND EQ PUSH2 0x40C JUMPI PUSH1 0x40 MLOAD PUSH32 0x9F56B1A000000000000000000000000000000000000000000000000000000000 DUP2 MSTORE PUSH1 0x4 ADD PUSH1 0x40 MLOAD DUP1 SWAP2 SUB SWAP1 REVERT JUMPDEST DUP1 PUSH1 0x3 ADD PUSH1 0x18 SWAP1 SLOAD SWAP1 PUSH2 0x100 EXP SWAP1 DIV PUSH8 0xFFFFFFFFFFFFFFFF AND PUSH8 0xFFFFFFFFFFFFFFFF AND TIMESTAMP GT ISZERO PUSH2 0x468 JUMPI PUSH1 0x40 MLOAD PUSH32 0x1FD05A4A00000000000000000000000000000000000000000000000000000000 DUP2 MSTORE PUSH1 0x4 ADD PUSH1 0x40 MLOAD DUP1 SWAP2 SUB SWAP1 REVERT JUMPDEST DUP1 PUSH1 0x2 ADD SLOAD DUP3 EQ PUSH2 0x4A5 JUMPI PUSH1 0x40 MLOAD PUSH32 0x10DFC03300000000000000000000000000000000000000000000000000000000 DUP2 MSTORE PUSH1 0x4 ADD PUSH1 0x40 MLOAD DUP1 SWAP2 SUB SWAP1 REVERT JUMPDEST PUSH0 PUSH0 SHL DUP6 EQ ISZERO DUP1 PUSH2 0x4C4 JUMPI POP DUP1 PUSH1 0x4 ADD PUSH1 0x1C SWAP1 SLOAD SWAP1 PUSH2 0x100 EXP SWAP1 DIV PUSH1 0xFF AND JUMPDEST ISZERO PUSH2 0x4FB JUMPI PUSH1 0x40 MLOAD PUSH32 0x843800FA00000000000000000000000000000000000000000000000000000000 DUP2 MSTORE PUSH1 0x4 ADD PUSH1 0x40 MLOAD DUP1 SWAP2 SUB SWAP1 REVERT JUMPDEST PUSH0 PUSH0 PUSH0 PUSH2 0x508 DUP8 DUP8 PUSH2 0x1217 JUMP JUMPDEST SWAP3 POP SWAP3 POP SWAP3 POP DUP4 PUSH1 0x3 ADD PUSH0 SWAP1 SLOAD SWAP1 PUSH2 0x100 EXP SWAP1 DIV PUSH20 0xFFFFFFFFFFFFFFFFFFFFFFFFFFFFFFFFFFFFFFFF AND PUSH20 0xFFFFFFFFFFFFFFFFFFFFFFFFFFFFFFFFFFFFFFFF AND DUP4 PUSH20 0xFFFFFFFFFFFFFFFFFFFFFFFFFFFFFFFFFFFFFFFF AND EQ ISZERO DUP1 PUSH2 0x5BB JUMPI POP DUP4 PUSH1 0x3 ADD PUSH1 0x14 SWAP1 SLOAD SWAP1 PUSH2 0x100 EXP SWAP1 DIV PUSH1 0xE0 SHL PUSH28 0xFFFFFFFFFFFFFFFFFFFFFFFFFFFFFFFFFFFFFFFFFFFFFFFFFFFFFFFF NOT AND DUP2 PUSH28 0xFFFFFFFFFFFFFFFFFFFFFFFFFFFFFFFFFFFFFFFFFFFFFFFFFFFFFFFF NOT AND EQ ISZERO JUMPDEST ISZERO PUSH2 0x5F2 JUMPI PUSH1 0x40 MLOAD PUSH32 0x843800FA00000000000000000000000000000000000000000000000000000000 DUP2 MSTORE PUSH1 0x4 ADD PUSH1 0x40 MLOAD DUP1 SWAP2 SUB SWAP1 REVERT JUMPDEST PUSH0 DUP5 PUSH1 0x4 ADD PUSH1 0x8 SWAP1 SLOAD SWAP1 PUSH2 0x100 EXP SWAP1 DIV PUSH4 0xFFFFFFFF AND PUSH4 0xFFFFFFFF AND SUB PUSH2 0x645 JUMPI PUSH1 0x40 MLOAD PUSH32 0x766370C600000000000000000000000000000000000000000000000000000000 DUP2 MSTORE PUSH1 0x4 ADD PUSH1 0x40 MLOAD DUP1 SWAP2 SUB SWAP1 REVERT JUMPDEST DUP4 PUSH1 0x4 ADD PUSH1 0xC SWAP1 SLOAD SWAP1 PUSH2 0x100 EXP SWAP1 DIV PUSH16 0xFFFFFFFFFFFFFFFFFFFFFFFFFFFFFFFF AND PUSH16 0xFFFFFFFFFFFFFFFFFFFFFFFFFFFFFFFF AND DUP3 GT ISZERO PUSH2 0x6B1 JUMPI PUSH1 0x40 MLOAD PUSH32 0xF0A741100000000000000000000000000000000000000000000000000000000 DUP2 MSTORE PUSH1 0x4 ADD PUSH1 0x40 MLOAD DUP1 SWAP2 SUB SWAP1 REVERT JUMPDEST PUSH1 0x1 DUP5 PUSH1 0x4 ADD PUSH1 0x8 DUP3 DUP3 DUP3 SWAP1 SLOAD SWAP1 PUSH2 0x100 EXP SWAP1 DIV PUSH4 0xFFFFFFFF AND PUSH2 0x6D5 SWAP2 SWAP1 PUSH2 0x1A72 JUMP JUMPDEST SWAP3 POP PUSH2 0x100 EXP DUP2 SLOAD DUP2 PUSH4 0xFFFFFFFF MUL NOT AND SWAP1 DUP4 PUSH4 0xFFFFFFFF AND MUL OR SWAP1 SSTORE POP DUP2 DUP5 PUSH1 0x4 ADD PUSH1 0xC DUP3 DUP3 DUP3 SWAP1 SLOAD SWAP1 PUSH2 0x100 EXP SWAP1 DIV PUSH16 0xFFFFFFFFFFFFFFFFFFFFFFFFFFFFFFFF AND PUSH2 0x722 SWAP2 SWAP1 PUSH2 0x1AA9 JUMP JUMPDEST SWAP3 POP PUSH2 0x100 EXP DUP2 SLOAD DUP2 PUSH16 0xFFFFFFFFFFFFFFFFFFFFFFFFFFFFFFFF MUL NOT AND SWAP1 DUP4 PUSH16 0xFFFFFFFFFFFFFFFFFFFFFFFFFFFFFFFF AND MUL OR SWAP1 SSTORE POP PUSH1 0x1 DUP5 PUSH1 0x4 ADD PUSH0 DUP3 DUP3 DUP3 SWAP1 SLOAD SWAP1 PUSH2 0x100 EXP SWAP1 DIV PUSH8 0xFFFFFFFFFFFFFFFF AND PUSH2 0x77F SWAP2 SWAP1 PUSH2 0x1AEC JUMP JUMPDEST SWAP3 POP PUSH2 0x100 EXP DUP2 SLOAD DUP2 PUSH8 0xFFFFFFFFFFFFFFFF MUL NOT AND SWAP1 DUP4 PUSH8 0xFFFFFFFFFFFFFFFF AND MUL OR SWAP1 SSTORE POP DUP9 PUSH20 0xFFFFFFFFFFFFFFFFFFFFFFFFFFFFFFFFFFFFFFFF AND PUSH4 0xE9AE5C53 DUP10 DUP10 DUP10 PUSH1 0x40 MLOAD DUP5 PUSH4 0xFFFFFFFF AND PUSH1 0xE0 SHL DUP2 MSTORE PUSH1 0x4 ADD PUSH2 0x7E2 SWAP4 SWAP3 SWAP2 SWAP1 PUSH2 0x1B81 JUMP JUMPDEST PUSH0 PUSH1 0x40 MLOAD DUP1 DUP4 SUB DUP2 PUSH0 DUP8 DUP1 EXTCODESIZE ISZERO DUP1 ISZERO PUSH2 0x7F9 JUMPI PUSH0 PUSH0 REVERT JUMPDEST POP GAS CALL ISZERO DUP1 ISZERO PUSH2 0x80B JUMPI RETURNDATASIZE PUSH0 PUSH0 RETURNDATACOPY RETURNDATASIZE PUSH0 REVERT JUMPDEST POP POP POP POP POP POP POP POP POP POP POP POP POP JUMP JUMPDEST PUSH0 PUSH0 PUSH0 PUSH0 PUSH0 PUSH0 PUSH0 PUSH0 PUSH0 PUSH0 DUP12 DUP12 DUP2 ADD SWAP1 PUSH2 0x833 SWAP2 SWAP1 PUSH2 0x1CBE JUMP JUMPDEST SWAP10 POP SWAP10 POP SWAP10 POP SWAP10 POP SWAP10 POP SWAP10 POP SWAP10 POP SWAP10 POP SWAP10 POP SWAP10 POP PUSH0 PUSH0 CALLER PUSH20 0xFFFFFFFFFFFFFFFFFFFFFFFFFFFFFFFFFFFFFFFF AND PUSH20 0xFFFFFFFFFFFFFFFFFFFFFFFFFFFFFFFFFFFFFFFF AND DUP2 MSTORE PUSH1 0x20 ADD SWAP1 DUP2 MSTORE PUSH1 0x20 ADD PUSH0 KECCAK256 PUSH1 0x4 ADD PUSH1 0x1D SWAP1 SLOAD SWAP1 PUSH2 0x100 EXP SWAP1 DIV PUSH1 0xFF AND ISZERO PUSH2 0x8CB JUMPI PUSH1 0x40 MLOAD PUSH32 0x5A105BF600000000000000000000000000000000000000000000000000000000 DUP2 MSTORE PUSH1 0x4 ADD PUSH1 0x40 MLOAD DUP1 SWAP2 SUB SWAP1 REVERT JUMPDEST PUSH1 0x40 MLOAD DUP1 PUSH2 0x160 ADD PUSH1 0x40 MSTORE DUP1 DUP12 PUSH20 0xFFFFFFFFFFFFFFFFFFFFFFFFFFFFFFFFFFFFFFFF AND DUP2 MSTORE PUSH1 0x20 ADD DUP11 DUP2 MSTORE PUSH1 0x20 ADD DUP10 DUP2 MSTORE PUSH1 0x20 ADD DUP9 PUSH20 0xFFFFFFFFFFFFFFFFFFFFFFFFFFFFFFFFFFFFFFFF AND DUP2 MSTORE PUSH1 0x20 ADD DUP8 PUSH28 0xFFFFFFFFFFFFFFFFFFFFFFFFFFFFFFFFFFFFFFFFFFFFFFFFFFFFFFFF NOT AND DUP2 MSTORE PUSH1 0x20 ADD DUP7 PUSH8 0xFFFFFFFFFFFFFFFF AND DUP2 MSTORE PUSH1 0x20 ADD DUP6 PUSH8 0xFFFFFFFFFFFFFFFF AND DUP2 MSTORE PUSH1 0x20 ADD DUP5 PUSH4 0xFFFFFFFF AND DUP2 MSTORE PUSH1 0x20 ADD DUP4 PUSH16 0xFFFFFFFFFFFFFFFFFFFFFFFFFFFFFFFF AND DUP2 MSTORE PUSH1 0x20 ADD DUP3 ISZERO ISZERO DUP2 MSTORE PUSH1 0x20 ADD PUSH1 0x1 ISZERO ISZERO DUP2 MSTORE POP PUSH0 PUSH0 CALLER PUSH20 0xFFFFFFFFFFFFFFFFFFFFFFFFFFFFFFFFFFFFFFFF AND PUSH20 0xFFFFFFFFFFFFFFFFFFFFFFFFFFFFFFFFFFFFFFFF AND DUP2 MSTORE PUSH1 0x20 ADD SWAP1 DUP2 MSTORE PUSH1 0x20 ADD PUSH0 KECCAK256 PUSH0 DUP3 ADD MLOAD DUP2 PUSH0 ADD PUSH0 PUSH2 0x100 EXP DUP2 SLOAD DUP2 PUSH20 0xFFFFFFFFFFFFFFFFFFFFFFFFFFFFFFFFFFFFFFFF MUL NOT AND SWAP1 DUP4 PUSH20 0xFFFFFFFFFFFFFFFFFFFFFFFFFFFFFFFFFFFFFFFF AND MUL OR SWAP1 SSTORE POP PUSH1 0x20 DUP3 ADD MLOAD DUP2 PUSH1 0x1 ADD SSTORE PUSH1 0x40 DUP3 ADD MLOAD DUP2 PUSH1 0x2 ADD SSTORE PUSH1 0x60 DUP3 ADD MLOAD DUP2 PUSH1 0x3 ADD PUSH0 PUSH2 0x100 EXP DUP2 SLOAD DUP2 PUSH20 0xFFFFFFFFFFFFFFFFFFFFFFFFFFFFFFFFFFFFFFFF MUL NOT AND SWAP1 DUP4 PUSH20 0xFFFFFFFFFFFFFFFFFFFFFFFFFFFFFFFFFFFFFFFF AND MUL OR SWAP1 SSTORE POP PUSH1 0x80 DUP3 ADD MLOAD DUP2 PUSH1 0x3 ADD PUSH1 0x14 PUSH2 0x100 EXP DUP2 SLOAD DUP2 PUSH4 0xFFFFFFFF MUL NOT AND SWAP1 DUP4 PUSH1 0xE0 SHR MUL OR SWAP1 SSTORE POP PUSH1 0xA0 DUP3 ADD MLOAD DUP2 PUSH1 0x3 ADD PUSH1 0x18 PUSH2 0x100 EXP DUP2 SLOAD DUP2 PUSH8 0xFFFFFFFFFFFFFFFF MUL NOT AND SWAP1 DUP4 PUSH8 0xFFFFFFFFFFFFFFFF AND MUL OR SWAP1 SSTORE POP PUSH1 0xC0 DUP3 ADD MLOAD DUP2 PUSH1 0x4 ADD PUSH0 PUSH2 0x100 EXP DUP2 SLOAD DUP2 PUSH8 0xFFFFFFFFFFFFFFFF MUL NOT AND SWAP1 DUP4 PUSH8 0xFFFFFFFFFFFFFFFF AND MUL OR SWAP1 SSTORE POP PUSH1 0xE0 DUP3 ADD MLOAD DUP2 PUSH1 0x4 ADD PUSH1 0x8 PUSH2 0x100 EXP DUP2 SLOAD DUP2 PUSH4 0xFFFFFFFF MUL NOT AND SWAP1 DUP4 PUSH4 0xFFFFFFFF AND MUL OR SWAP1 SSTORE POP PUSH2 0x100 DUP3 ADD MLOAD DUP2 PUSH1 0x4 ADD PUSH1 0xC PUSH2 0x100 EXP DUP2 SLOAD DUP2 PUSH16 0xFFFFFFFFFFFFFFFFFFFFFFFFFFFFFFFF MUL NOT AND SWAP1 DUP4 PUSH16 0xFFFFFFFFFFFFFFFFFFFFFFFFFFFFFFFF AND MUL OR SWAP1 SSTORE POP PUSH2 0x120 DUP3 ADD MLOAD DUP2 PUSH1 0x4 ADD PUSH1 0x1C PUSH2 0x100 EXP DUP2 SLOAD DUP2 PUSH1 0xFF MUL NOT AND SWAP1 DUP4 ISZERO ISZERO MUL OR SWAP1 SSTORE POP PUSH2 0x140 DUP3 ADD MLOAD DUP2 PUSH1 0x4 ADD PUSH1 0x1D PUSH2 0x100 EXP DUP2 SLOAD DUP2 PUSH1 0xFF MUL NOT AND SWAP1 DUP4 ISZERO ISZERO MUL OR SWAP1 SSTORE POP SWAP1 POP POP POP POP POP POP POP POP POP POP POP POP POP POP JUMP JUMPDEST PUSH0 PUSH0 CALLER PUSH20 0xFFFFFFFFFFFFFFFFFFFFFFFFFFFFFFFFFFFFFFFF AND PUSH20 0xFFFFFFFFFFFFFFFFFFFFFFFFFFFFFFFFFFFFFFFF AND DUP2 MSTORE PUSH1 0x20 ADD SWAP1 DUP2 MSTORE PUSH1 0x20 ADD PUSH0 KECCAK256 PUSH1 0x4 ADD PUSH1 0x1D SWAP1 SLOAD SWAP1 PUSH2 0x100 EXP SWAP1 DIV PUSH1 0xFF AND PUSH2 0xC2B JUMPI PUSH1 0x40 MLOAD PUSH32 0xDBC32BB600000000000000000000000000000000000000000000000000000000 DUP2 MSTORE PUSH1 0x4 ADD PUSH1 0x40 MLOAD DUP1 SWAP2 SUB SWAP1 REVERT JUMPDEST PUSH0 PUSH0 CALLER PUSH20 0xFFFFFFFFFFFFFFFFFFFFFFFFFFFFFFFFFFFFFFFF AND PUSH20 0xFFFFFFFFFFFFFFFFFFFFFFFFFFFFFFFFFFFFFFFF AND DUP2 MSTORE PUSH1 0x20 ADD SWAP1 DUP2 MSTORE PUSH1 0x20 ADD PUSH0 KECCAK256 PUSH0 PUSH0 DUP3 ADD PUSH0 PUSH2 0x100 EXP DUP2 SLOAD SWAP1 PUSH20 0xFFFFFFFFFFFFFFFFFFFFFFFFFFFFFFFFFFFFFFFF MUL NOT AND SWAP1 SSTORE PUSH1 0x1 DUP3 ADD PUSH0 SWAP1 SSTORE PUSH1 0x2 DUP3 ADD PUSH0 SWAP1 SSTORE PUSH1 0x3 DUP3 ADD PUSH0 PUSH2 0x100 EXP DUP2 SLOAD SWAP1 PUSH20 0xFFFFFFFFFFFFFFFFFFFFFFFFFFFFFFFFFFFFFFFF MUL NOT AND SWAP1 SSTORE PUSH1 0x3 DUP3 ADD PUSH1 0x14 PUSH2 0x100 EXP DUP2 SLOAD SWAP1 PUSH4 0xFFFFFFFF MUL NOT AND SWAP1 SSTORE PUSH1 0x3 DUP3 ADD PUSH1 0x18 PUSH2 0x100 EXP DUP2 SLOAD SWAP1 PUSH8 0xFFFFFFFFFFFFFFFF MUL NOT AND SWAP1 SSTORE PUSH1 0x4 DUP3 ADD PUSH0 PUSH2 0x100 EXP DUP2 SLOAD SWAP1 PUSH8 0xFFFFFFFFFFFFFFFF MUL NOT AND SWAP1 SSTORE PUSH1 0x4 DUP3 ADD PUSH1 0x8 PUSH2 0x100 EXP DUP2 SLOAD SWAP1 PUSH4 0xFFFFFFFF MUL NOT AND SWAP1 SSTORE PUSH1 0x4 DUP3 ADD PUSH1 0xC PUSH2 0x100 EXP DUP2 SLOAD SWAP1 PUSH16 0xFFFFFFFFFFFFFFFFFFFFFFFFFFFFFFFF MUL NOT AND SWAP1 SSTORE PUSH1 0x4 DUP3 ADD PUSH1 0x1C PUSH2 0x100 EXP DUP2 SLOAD SWAP1 PUSH1 0xFF MUL NOT AND SWAP1 SSTORE PUSH1 0x4 DUP3 ADD PUSH1 0x1D PUSH2 0x100 EXP DUP2 SLOAD SWAP1 PUSH1 0xFF MUL NOT AND SWAP1 SSTORE POP POP POP POP JUMP JUMPDEST PUSH0 PUSH0 PUSH0 PUSH0 DUP6 PUSH0 ADD PUSH1 0x20 DUP2 ADD SWAP1 PUSH2 0xD8B SWAP2 SWAP1 PUSH2 0x158C JUMP JUMPDEST PUSH20 0xFFFFFFFFFFFFFFFFFFFFFFFFFFFFFFFFFFFFFFFF AND PUSH20 0xFFFFFFFFFFFFFFFFFFFFFFFFFFFFFFFFFFFFFFFF AND DUP2 MSTORE PUSH1 0x20 ADD SWAP1 DUP2 MSTORE PUSH1 0x20 ADD PUSH0 KECCAK256 SWAP1 POP PUSH2 0xDCF DUP2 PUSH2 0x11CF JUMP JUMPDEST PUSH2 0xDDD JUMPI PUSH1 0x1 SWAP2 POP POP PUSH2 0x10E1 JUMP JUMPDEST PUSH1 0x4 DUP5 DUP1 PUSH1 0x60 ADD SWAP1 PUSH2 0xDEF SWAP2 SWAP1 PUSH2 0x1DA3 JUMP JUMPDEST SWAP1 POP LT DUP1 PUSH2 0xE6D JUMPI POP PUSH4 0xE9AE5C53 PUSH1 0xE0 SHL PUSH28 0xFFFFFFFFFFFFFFFFFFFFFFFFFFFFFFFFFFFFFFFFFFFFFFFFFFFFFFFF NOT AND DUP5 DUP1 PUSH1 0x60 ADD SWAP1 PUSH2 0xE2F SWAP2 SWAP1 PUSH2 0x1DA3 JUMP JUMPDEST PUSH0 SWAP1 PUSH1 0x4 SWAP3 PUSH2 0xE40 SWAP4 SWAP3 SWAP2 SWAP1 PUSH2 0x1E0D JUMP JUMPDEST SWAP1 PUSH2 0xE4B SWAP2 SWAP1 PUSH2 0x1E5D JUMP JUMPDEST PUSH28 0xFFFFFFFFFFFFFFFFFFFFFFFFFFFFFFFFFFFFFFFFFFFFFFFFFFFFFFFF NOT AND EQ ISZERO JUMPDEST ISZERO PUSH2 0xE7C JUMPI PUSH1 0x1 SWAP2 POP POP PUSH2 0x10E1 JUMP JUMPDEST PUSH0 PUSH0 DUP6 DUP1 PUSH1 0x60 ADD SWAP1 PUSH2 0xE8E SWAP2 SWAP1 PUSH2 0x1DA3 JUMP JUMPDEST PUSH1 0x4 SWAP1 DUP1 SWAP3 PUSH2 0xE9F SWAP4 SWAP3 SWAP2 SWAP1 PUSH2 0x1E0D JUMP JUMPDEST DUP2 ADD SWAP1 PUSH2 0xEAC SWAP2 SWAP1 PUSH2 0x1FD5 JUMP JUMPDEST SWAP2 POP SWAP2 POP PUSH0 PUSH0 SHL DUP3 EQ PUSH2 0xEC5 JUMPI PUSH1 0x1 SWAP4 POP POP POP POP PUSH2 0x10E1 JUMP JUMPDEST PUSH0 PUSH0 PUSH0 PUSH2 0xED1 DUP5 PUSH2 0x12C6 JUMP JUMPDEST SWAP3 POP SWAP3 POP SWAP3 POP CHAINID DUP7 PUSH1 0x2 ADD SLOAD EQ ISZERO DUP1 PUSH2 0xF39 JUMPI POP DUP6 PUSH1 0x3 ADD PUSH0 SWAP1 SLOAD SWAP1 PUSH2 0x100 EXP SWAP1 DIV PUSH20 0xFFFFFFFFFFFFFFFFFFFFFFFFFFFFFFFFFFFFFFFF AND PUSH20 0xFFFFFFFFFFFFFFFFFFFFFFFFFFFFFFFFFFFFFFFF AND DUP4 PUSH20 0xFFFFFFFFFFFFFFFFFFFFFFFFFFFFFFFFFFFFFFFF AND EQ ISZERO JUMPDEST DUP1 PUSH2 0xF93 JUMPI POP DUP6 PUSH1 0x3 ADD PUSH1 0x14 SWAP1 SLOAD SWAP1 PUSH2 0x100 EXP SWAP1 DIV PUSH1 0xE0 SHL PUSH28 0xFFFFFFFFFFFFFFFFFFFFFFFFFFFFFFFFFFFFFFFFFFFFFFFFFFFFFFFF NOT AND DUP2 PUSH28 0xFFFFFFFFFFFFFFFFFFFFFFFFFFFFFFFFFFFFFFFFFFFFFFFFFFFFFFFF NOT AND EQ ISZERO JUMPDEST DUP1 PUSH2 0xFB7 JUMPI POP PUSH0 DUP7 PUSH1 0x4 ADD PUSH1 0x8 SWAP1 SLOAD SWAP1 PUSH2 0x100 EXP SWAP1 DIV PUSH4 0xFFFFFFFF AND PUSH4 0xFFFFFFFF AND EQ JUMPDEST DUP1 PUSH2 0xFF3 JUMPI POP DUP6 PUSH1 0x4 ADD PUSH1 0xC SWAP1 SLOAD SWAP1 PUSH2 0x100 EXP SWAP1 DIV PUSH16 0xFFFFFFFFFFFFFFFFFFFFFFFFFFFFFFFF AND PUSH16 0xFFFFFFFFFFFFFFFFFFFFFFFFFFFFFFFF AND DUP3 GT JUMPDEST ISZERO PUSH2 0x1007 JUMPI PUSH1 0x1 SWAP7 POP POP POP POP POP POP POP PUSH2 0x10E1 JUMP JUMPDEST PUSH0 PUSH0 DUP11 DUP1 PUSH1 0xE0 ADD SWAP1 PUSH2 0x1019 SWAP2 SWAP1 PUSH2 0x1DA3 JUMP JUMPDEST SWAP1 POP GT SWAP1 POP DUP1 ISZERO ISZERO DUP8 PUSH1 0x4 ADD PUSH1 0x1C SWAP1 SLOAD SWAP1 PUSH2 0x100 EXP SWAP1 DIV PUSH1 0xFF AND ISZERO ISZERO EQ PUSH2 0x104A JUMPI PUSH1 0x1 SWAP8 POP POP POP POP POP POP POP POP PUSH2 0x10E1 JUMP JUMPDEST PUSH0 PUSH0 DUP12 DUP1 PUSH2 0x100 ADD SWAP1 PUSH2 0x105D SWAP2 SWAP1 PUSH2 0x1DA3 JUMP JUMPDEST DUP2 ADD SWAP1 PUSH2 0x106A SWAP2 SWAP1 PUSH2 0x202F JUMP JUMPDEST SWAP2 POP SWAP2 POP ADDRESS PUSH20 0xFFFFFFFFFFFFFFFFFFFFFFFFFFFFFFFFFFFFFFFF AND DUP3 PUSH20 0xFFFFFFFFFFFFFFFFFFFFFFFFFFFFFFFFFFFFFFFF AND EQ PUSH2 0x10B3 JUMPI PUSH1 0x1 SWAP10 POP POP POP POP POP POP POP POP POP POP PUSH2 0x10E1 JUMP JUMPDEST PUSH2 0x10BE DUP10 DUP13 DUP4 PUSH2 0x1324 JUMP JUMPDEST PUSH2 0x10D4 JUMPI PUSH1 0x1 SWAP10 POP POP POP POP POP POP POP POP POP POP PUSH2 0x10E1 JUMP JUMPDEST PUSH0 SWAP10 POP POP POP POP POP POP POP POP POP POP JUMPDEST SWAP3 SWAP2 POP POP JUMP JUMPDEST PUSH4 0xFFFFFFFF PUSH1 0xE0 SHL DUP2 JUMP JUMPDEST PUSH0 PUSH1 0x1 DUP3 EQ SWAP1 POP SWAP2 SWAP1 POP JUMP JUMPDEST PUSH0 PUSH0 PUSH0 PUSH0 CALLER PUSH20 0xFFFFFFFFFFFFFFFFFFFFFFFFFFFFFFFFFFFFFFFF AND PUSH20 0xFFFFFFFFFFFFFFFFFFFFFFFFFFFFFFFFFFFFFFFF AND DUP2 MSTORE PUSH1 0x20 ADD SWAP1 DUP2 MSTORE PUSH1 0x20 ADD PUSH0 KECCAK256 SWAP1 POP PUSH2 0x1147 DUP2 PUSH2 0x11CF JUMP JUMPDEST PUSH2 0x115B JUMPI PUSH4 0xFFFFFFFF PUSH1 0xE0 SHL SWAP2 POP POP PUSH2 0x11C7 JUMP JUMPDEST PUSH2 0x11A9 DUP2 DUP7 DUP7 DUP7 DUP1 DUP1 PUSH1 0x1F ADD PUSH1 0x20 DUP1 SWAP2 DIV MUL PUSH1 0x20 ADD PUSH1 0x40 MLOAD SWAP1 DUP2 ADD PUSH1 0x40 MSTORE DUP1 SWAP4 SWAP3 SWAP2 SWAP1 DUP2 DUP2 MSTORE PUSH1 0x20 ADD DUP4 DUP4 DUP1 DUP3 DUP5 CALLDATACOPY PUSH0 DUP2 DUP5 ADD MSTORE PUSH1 0x1F NOT PUSH1 0x1F DUP3 ADD AND SWAP1 POP DUP1 DUP4 ADD SWAP3 POP POP POP POP POP POP POP PUSH2 0x1324 JUMP JUMPDEST PUSH2 0x11BA JUMPI PUSH4 0xFFFFFFFF PUSH1 0xE0 SHL PUSH2 0x11C3 JUMP JUMPDEST PUSH4 0x1626BA7E PUSH1 0xE0 SHL JUMPDEST SWAP2 POP POP JUMPDEST SWAP5 SWAP4 POP POP POP POP JUMP JUMPDEST PUSH0 DUP2 PUSH1 0x4 ADD PUSH1 0x1D SWAP1 SLOAD SWAP1 PUSH2 0x100 EXP SWAP1 DIV PUSH1 0xFF AND DUP1 ISZERO PUSH2 0x1210 JUMPI POP DUP2 PUSH1 0x3 ADD PUSH1 0x18 SWAP1 SLOAD SWAP1 PUSH2 0x100 EXP SWAP1 DIV PUSH8 0xFFFFFFFFFFFFFFFF AND PUSH8 0xFFFFFFFFFFFFFFFF AND TIMESTAMP GT ISZERO JUMPDEST SWAP1 POP SWAP2 SWAP1 POP JUMP JUMPDEST PUSH0 PUSH0 PUSH0 PUSH1 0x38 DUP6 DUP6 SWAP1 POP LT ISZERO PUSH2 0x1258 JUMPI PUSH1 0x40 MLOAD PUSH32 0x843800FA00000000000000000000000000000000000000000000000000000000 DUP2 MSTORE PUSH1 0x4 ADD PUSH1 0x40 MLOAD DUP1 SWAP2 SUB SWAP1 REVERT JUMPDEST DUP5 DUP5 PUSH0 SWAP1 PUSH1 0x14 SWAP3 PUSH2 0x126B SWAP4 SWAP3 SWAP2 SWAP1 PUSH2 0x1E0D JUMP JUMPDEST SWAP1 PUSH2 0x1276 SWAP2 SWAP1 PUSH2 0x20B4 JUMP JUMPDEST PUSH1 0x60 SHR SWAP3 POP DUP5 DUP5 PUSH1 0x14 SWAP1 PUSH1 0x34 SWAP3 PUSH2 0x128F SWAP4 SWAP3 SWAP2 SWAP1 PUSH2 0x1E0D JUMP JUMPDEST SWAP1 PUSH2 0x129A SWAP2 SWAP1 PUSH2 0x2112 JUMP JUMPDEST PUSH0 SHR SWAP2 POP DUP5 DUP5 PUSH1 0x34 SWAP1 PUSH1 0x38 SWAP3 PUSH2 0x12B2 SWAP4 SWAP3 SWAP2 SWAP1 PUSH2 0x1E0D JUMP JUMPDEST SWAP1 PUSH2 0x12BD SWAP2 SWAP1 PUSH2 0x1E5D JUMP JUMPDEST SWAP1 POP SWAP3 POP SWAP3 POP SWAP3 JUMP JUMPDEST PUSH0 PUSH0 PUSH0 PUSH1 0x38 DUP5 MLOAD LT ISZERO PUSH2 0x1305 JUMPI PUSH1 0x40 MLOAD PUSH32 0x843800FA00000000000000000000000000000000000000000000000000000000 DUP2 MSTORE PUSH1 0x4 ADD PUSH1 0x40 MLOAD DUP1 SWAP2 SUB SWAP1 REVERT JUMPDEST PUSH1 0x20 DUP5 ADD MLOAD PUSH1 0x60 SHR SWAP3 POP PUSH1 0x34 DUP5 ADD MLOAD SWAP2 POP PUSH1 0x54 DUP5 ADD MLOAD SWAP1 POP SWAP2 SWAP4 SWAP1 SWAP3 POP JUMP JUMPDEST PUSH0 PUSH0 PUSH0 DUP4 DUP1 PUSH1 0x20 ADD SWAP1 MLOAD DUP2 ADD SWAP1 PUSH2 0x133B SWAP2 SWAP1 PUSH2 0x2200 JUMP JUMPDEST SWAP2 POP SWAP2 POP DUP6 PUSH0 ADD PUSH0 SWAP1 SLOAD SWAP1 PUSH2 0x100 EXP SWAP1 DIV PUSH20 0xFFFFFFFFFFFFFFFFFFFFFFFFFFFFFFFFFFFFFFFF AND PUSH20 0xFFFFFFFFFFFFFFFFFFFFFFFFFFFFFFFFFFFFFFFF AND DUP3 PUSH20 0xFFFFFFFFFFFFFFFFFFFFFFFFFFFFFFFFFFFFFFFF AND EQ PUSH2 0x139E JUMPI PUSH0 SWAP3 POP POP POP PUSH2 0x1451 JUMP JUMPDEST PUSH0 DUP6 DUP8 PUSH1 0x1 ADD SLOAD DUP9 PUSH1 0x2 ADD SLOAD DUP10 PUSH1 0x4 ADD PUSH0 SWAP1 SLOAD SWAP1 PUSH2 0x100 EXP SWAP1 DIV PUSH8 0xFFFFFFFFFFFFFFFF AND PUSH1 0x40 MLOAD PUSH1 0x20 ADD PUSH2 0x13D5 SWAP5 SWAP4 SWAP3 SWAP2 SWAP1 PUSH2 0x225A JUMP JUMPDEST PUSH1 0x40 MLOAD PUSH1 0x20 DUP2 DUP4 SUB SUB DUP2 MSTORE SWAP1 PUSH1 0x40 MSTORE DUP1 MLOAD SWAP1 PUSH1 0x20 ADD KECCAK256 PUSH1 0x40 MLOAD PUSH1 0x20 ADD PUSH2 0x13FB SWAP2 SWAP1 PUSH2 0x2311 JUMP JUMPDEST PUSH1 0x40 MLOAD PUSH1 0x20 DUP2 DUP4 SUB SUB DUP2 MSTORE SWAP1 PUSH1 0x40 MSTORE DUP1 MLOAD SWAP1 PUSH1 0x20 ADD KECCAK256 SWAP1 POP DUP3 PUSH20 0xFFFFFFFFFFFFFFFFFFFFFFFFFFFFFFFFFFFFFFFF AND PUSH2 0x1434 DUP3 DUP5 PUSH2 0x1458 JUMP JUMPDEST PUSH20 0xFFFFFFFFFFFFFFFFFFFFFFFFFFFFFFFFFFFFFFFF AND EQ SWAP4 POP POP POP POP JUMPDEST SWAP4 SWAP3 POP POP POP JUMP JUMPDEST PUSH0 PUSH1 0x41 DUP3 MLOAD EQ PUSH2 0x1494 JUMPI PUSH1 0x40 MLOAD PUSH32 0x4BE6321B00000000000000000000000000000000000000000000000000000000 DUP2 MSTORE PUSH1 0x4 ADD PUSH1 0x40 MLOAD DUP1 SWAP2 SUB SWAP1 REVERT JUMPDEST PUSH0 PUSH0 PUSH0 PUSH1 0x20 DUP6 ADD MLOAD SWAP3 POP PUSH1 0x40 DUP6 ADD MLOAD SWAP2 POP PUSH1 0x60 DUP6 ADD MLOAD PUSH0 BYTE SWAP1 POP PUSH1 0x1B DUP2 PUSH1 0xFF AND LT ISZERO PUSH2 0x14CA JUMPI PUSH1 0x1B DUP2 PUSH2 0x14C7 SWAP2 SWAP1 PUSH2 0x2342 JUMP JUMPDEST SWAP1 POP JUMPDEST PUSH1 0x1 DUP7 DUP3 DUP6 DUP6 PUSH1 0x40 MLOAD PUSH0 DUP2 MSTORE PUSH1 0x20 ADD PUSH1 0x40 MSTORE PUSH1 0x40 MLOAD PUSH2 0x14EC SWAP5 SWAP4 SWAP3 SWAP2 SWAP1 PUSH2 0x2385 JUMP JUMPDEST PUSH1 0x20 PUSH1 0x40 MLOAD PUSH1 0x20 DUP2 SUB SWAP1 DUP1 DUP5 SUB SWAP1 DUP6 GAS STATICCALL ISZERO DUP1 ISZERO PUSH2 0x150C JUMPI RETURNDATASIZE PUSH0 PUSH0 RETURNDATACOPY RETURNDATASIZE PUSH0 REVERT JUMPDEST POP POP POP PUSH1 0x20 PUSH1 0x40 MLOAD SUB MLOAD SWAP4 POP POP POP POP SWAP3 SWAP2 POP POP JUMP JUMPDEST PUSH0 PUSH1 0x40 MLOAD SWAP1 POP SWAP1 JUMP JUMPDEST PUSH0 PUSH0 REVERT JUMPDEST PUSH0 PUSH0 REVERT JUMPDEST PUSH0 PUSH20 0xFFFFFFFFFFFFFFFFFFFFFFFFFFFFFFFFFFFFFFFF DUP3 AND SWAP1 POP SWAP2 SWAP1 POP JUMP JUMPDEST PUSH0 PUSH2 0x155B DUP3 PUSH2 0x1532 JUMP JUMPDEST SWAP1 POP SWAP2 SWAP1 POP JUMP JUMPDEST PUSH2 0x156B DUP2 PUSH2 0x1551 JUMP JUMPDEST DUP2 EQ PUSH2 0x1575 JUMPI PUSH0 PUSH0 REVERT JUMPDEST POP JUMP JUMPDEST PUSH0 DUP2 CALLDATALOAD SWAP1 POP PUSH2 0x1586 DUP2 PUSH2 0x1562 JUMP JUMPDEST SWAP3 SWAP2 POP POP JUMP JUMPDEST PUSH0 PUSH1 0x20 DUP3 DUP5 SUB SLT ISZERO PUSH2 0x15A1 JUMPI PUSH2 0x15A0 PUSH2 0x152A JUMP JUMPDEST JUMPDEST PUSH0 PUSH2 0x15AE DUP5 DUP3 DUP6 ADD PUSH2 0x1578 JUMP JUMPDEST SWAP2 POP POP SWAP3 SWAP2 POP POP JUMP JUMPDEST PUSH2 0x15C0 DUP2 PUSH2 0x1551 JUMP JUMPDEST DUP3 MSTORE POP POP JUMP JUMPDEST PUSH0 DUP2 SWAP1 POP SWAP2 SWAP1 POP JUMP JUMPDEST PUSH2 0x15D8 DUP2 PUSH2 0x15C6 JUMP JUMPDEST DUP3 MSTORE POP POP JUMP JUMPDEST PUSH0 DUP2 SWAP1 POP SWAP2 SWAP1 POP JUMP JUMPDEST PUSH2 0x15F0 DUP2 PUSH2 0x15DE JUMP JUMPDEST DUP3 MSTORE POP POP JUMP JUMPDEST PUSH0 PUSH32 0xFFFFFFFF00000000000000000000000000000000000000000000000000000000 DUP3 AND SWAP1 POP SWAP2 SWAP1 POP JUMP JUMPDEST PUSH2 0x162A DUP2 PUSH2 0x15F6 JUMP JUMPDEST DUP3 MSTORE POP POP JUMP JUMPDEST PUSH0 PUSH8 0xFFFFFFFFFFFFFFFF DUP3 AND SWAP1 POP SWAP2 SWAP1 POP JUMP JUMPDEST PUSH2 0x164C DUP2 PUSH2 0x1630 JUMP JUMPDEST DUP3 MSTORE POP POP JUMP JUMPDEST PUSH0 PUSH4 0xFFFFFFFF DUP3 AND SWAP1 POP SWAP2 SWAP1 POP JUMP JUMPDEST PUSH2 0x166A DUP2 PUSH2 0x1652 JUMP JUMPDEST DUP3 MSTORE POP POP JUMP JUMPDEST PUSH0 PUSH16 0xFFFFFFFFFFFFFFFFFFFFFFFFFFFFFFFF DUP3 AND SWAP1 POP SWAP2 SWAP1 POP JUMP JUMPDEST PUSH2 0x1694 DUP2 PUSH2 0x1670 JUMP JUMPDEST DUP3 MSTORE POP POP JUMP JUMPDEST PUSH0 DUP2 ISZERO ISZERO SWAP1 POP SWAP2 SWAP1 POP JUMP JUMPDEST PUSH2 0x16AE DUP2 PUSH2 0x169A JUMP JUMPDEST DUP3 MSTORE POP POP JUMP JUMPDEST PUSH0 PUSH2 0x160 DUP3 ADD SWAP1 POP PUSH2 0x16C8 PUSH0 DUP4 ADD DUP15 PUSH2 0x15B7 JUMP JUMPDEST PUSH2 0x16D5 PUSH1 0x20 DUP4 ADD DUP14 PUSH2 0x15CF JUMP JUMPDEST PUSH2 0x16E2 PUSH1 0x40 DUP4 ADD DUP13 PUSH2 0x15E7 JUMP JUMPDEST PUSH2 0x16EF PUSH1 0x60 DUP4 ADD DUP12 PUSH2 0x15B7 JUMP JUMPDEST PUSH2 0x16FC PUSH1 0x80 DUP4 ADD DUP11 PUSH2 0x1621 JUMP JUMPDEST PUSH2 0x1709 PUSH1 0xA0 DUP4 ADD DUP10 PUSH2 0x1643 JUMP JUMPDEST PUSH2 0x1716 PUSH1 0xC0 DUP4 ADD DUP9 PUSH2 0x1643 JUMP JUMPDEST PUSH2 0x1723 PUSH1 0xE0 DUP4 ADD DUP8 PUSH2 0x1661 JUMP JUMPDEST PUSH2 0x1731 PUSH2 0x100 DUP4 ADD DUP7 PUSH2 0x168B JUMP JUMPDEST PUSH2 0x173F PUSH2 0x120 DUP4 ADD DUP6 PUSH2 0x16A5 JUMP JUMPDEST PUSH2 0x174D PUSH2 0x140 DUP4 ADD DUP5 PUSH2 0x16A5 JUMP JUMPDEST SWAP13 SWAP12 POP POP POP POP POP POP POP POP POP POP POP POP JUMP JUMPDEST PUSH0 PUSH1 0x20 DUP3 ADD SWAP1 POP PUSH2 0x1770 PUSH0 DUP4 ADD DUP5 PUSH2 0x1621 JUMP JUMPDEST SWAP3 SWAP2 POP POP JUMP JUMPDEST PUSH2 0x177F DUP2 PUSH2 0x15C6 JUMP JUMPDEST DUP2 EQ PUSH2 0x1789 JUMPI PUSH0 PUSH0 REVERT JUMPDEST POP JUMP JUMPDEST PUSH0 DUP2 CALLDATALOAD SWAP1 POP PUSH2 0x179A DUP2 PUSH2 0x1776 JUMP JUMPDEST SWAP3 SWAP2 POP POP JUMP JUMPDEST PUSH0 PUSH0 REVERT JUMPDEST PUSH0 PUSH0 REVERT JUMPDEST PUSH0 PUSH0 REVERT JUMPDEST PUSH0 PUSH0 DUP4 PUSH1 0x1F DUP5 ADD SLT PUSH2 0x17C1 JUMPI PUSH2 0x17C0 PUSH2 0x17A0 JUMP JUMPDEST JUMPDEST DUP3 CALLDATALOAD SWAP1 POP PUSH8 0xFFFFFFFFFFFFFFFF DUP2 GT ISZERO PUSH2 0x17DE JUMPI PUSH2 0x17DD PUSH2 0x17A4 JUMP JUMPDEST JUMPDEST PUSH1 0x20 DUP4 ADD SWAP2 POP DUP4 PUSH1 0x1 DUP3 MUL DUP4 ADD GT ISZERO PUSH2 0x17FA JUMPI PUSH2 0x17F9 PUSH2 0x17A8 JUMP JUMPDEST JUMPDEST SWAP3 POP SWAP3 SWAP1 POP JUMP JUMPDEST PUSH2 0x180A DUP2 PUSH2 0x15DE JUMP JUMPDEST DUP2 EQ PUSH2 0x1814 JUMPI PUSH0 PUSH0 REVERT JUMPDEST POP JUMP JUMPDEST PUSH0 DUP2 CALLDATALOAD SWAP1 POP PUSH2 0x1825 DUP2 PUSH2 0x1801 JUMP JUMPDEST SWAP3 SWAP2 POP POP JUMP JUMPDEST PUSH0 PUSH0 PUSH0 PUSH0 PUSH0 PUSH1 0x80 DUP7 DUP9 SUB SLT ISZERO PUSH2 0x1844 JUMPI PUSH2 0x1843 PUSH2 0x152A JUMP JUMPDEST JUMPDEST PUSH0 PUSH2 0x1851 DUP9 DUP3 DUP10 ADD PUSH2 0x1578 JUMP JUMPDEST SWAP6 POP POP PUSH1 0x20 PUSH2 0x1862 DUP9 DUP3 DUP10 ADD PUSH2 0x178C JUMP JUMPDEST SWAP5 POP POP PUSH1 0x40 DUP7 ADD CALLDATALOAD PUSH8 0xFFFFFFFFFFFFFFFF DUP2 GT ISZERO PUSH2 0x1883 JUMPI PUSH2 0x1882 PUSH2 0x152E JUMP JUMPDEST JUMPDEST PUSH2 0x188F DUP9 DUP3 DUP10 ADD PUSH2 0x17AC JUMP JUMPDEST SWAP4 POP SWAP4 POP POP PUSH1 0x60 PUSH2 0x18A2 DUP9 DUP3 DUP10 ADD PUSH2 0x1817 JUMP JUMPDEST SWAP2 POP POP SWAP3 SWAP6 POP SWAP3 SWAP6 SWAP1 SWAP4 POP JUMP JUMPDEST PUSH0 PUSH0 PUSH1 0x20 DUP4 DUP6 SUB SLT ISZERO PUSH2 0x18C5 JUMPI PUSH2 0x18C4 PUSH2 0x152A JUMP JUMPDEST JUMPDEST PUSH0 DUP4 ADD CALLDATALOAD PUSH8 0xFFFFFFFFFFFFFFFF DUP2 GT ISZERO PUSH2 0x18E2 JUMPI PUSH2 0x18E1 PUSH2 0x152E JUMP JUMPDEST JUMPDEST PUSH2 0x18EE DUP6 DUP3 DUP7 ADD PUSH2 0x17AC JUMP JUMPDEST SWAP3 POP SWAP3 POP POP SWAP3 POP SWAP3 SWAP1 POP JUMP JUMPDEST PUSH0 PUSH0 REVERT JUMPDEST PUSH0 PUSH2 0x120 DUP3 DUP5 SUB SLT ISZERO PUSH2 0x1914 JUMPI PUSH2 0x1913 PUSH2 0x18FA JUMP JUMPDEST JUMPDEST DUP2 SWAP1 POP SWAP3 SWAP2 POP POP JUMP JUMPDEST PUSH0 PUSH0 PUSH1 0x40 DUP4 DUP6 SUB SLT ISZERO PUSH2 0x1933 JUMPI PUSH2 0x1932 PUSH2 0x152A JUMP JUMPDEST JUMPDEST PUSH0 DUP4 ADD CALLDATALOAD PUSH8 0xFFFFFFFFFFFFFFFF DUP2 GT ISZERO PUSH2 0x1950 JUMPI PUSH2 0x194F PUSH2 0x152E JUMP JUMPDEST JUMPDEST PUSH2 0x195C DUP6 DUP3 DUP7 ADD PUSH2 0x18FE JUMP JUMPDEST SWAP3 POP POP PUSH1 0x20 PUSH2 0x196D DUP6 DUP3 DUP7 ADD PUSH2 0x178C JUMP JUMPDEST SWAP2 POP POP SWAP3 POP SWAP3 SWAP1 POP JUMP JUMPDEST PUSH0 PUSH1 0x20 DUP3 ADD SWAP1 POP PUSH2 0x198A PUSH0 DUP4 ADD DUP5 PUSH2 0x15E7 JUMP JUMPDEST SWAP3 SWAP2 POP POP JUMP JUMPDEST PUSH0 PUSH1 0x20 DUP3 DUP5 SUB SLT ISZERO PUSH2 0x19A5 JUMPI PUSH2 0x19A4 PUSH2 0x152A JUMP JUMPDEST JUMPDEST PUSH0 PUSH2 0x19B2 DUP5 DUP3 DUP6 ADD PUSH2 0x1817 JUMP JUMPDEST SWAP2 POP POP SWAP3 SWAP2 POP POP JUMP JUMPDEST PUSH0 PUSH1 0x20 DUP3 ADD SWAP1 POP PUSH2 0x19CE PUSH0 DUP4 ADD DUP5 PUSH2 0x16A5 JUMP JUMPDEST SWAP3 SWAP2 POP POP JUMP JUMPDEST PUSH0 PUSH0 PUSH0 PUSH0 PUSH1 0x60 DUP6 DUP8 SUB SLT ISZERO PUSH2 0x19EC JUMPI PUSH2 0x19EB PUSH2 0x152A JUMP JUMPDEST JUMPDEST PUSH0 PUSH2 0x19F9 DUP8 DUP3 DUP9 ADD PUSH2 0x1578 JUMP JUMPDEST SWAP5 POP POP PUSH1 0x20 PUSH2 0x1A0A DUP8 DUP3 DUP9 ADD PUSH2 0x178C JUMP JUMPDEST SWAP4 POP POP PUSH1 0x40 DUP6 ADD CALLDATALOAD PUSH8 0xFFFFFFFFFFFFFFFF DUP2 GT ISZERO PUSH2 0x1A2B JUMPI PUSH2 0x1A2A PUSH2 0x152E JUMP JUMPDEST JUMPDEST PUSH2 0x1A37 DUP8 DUP3 DUP9 ADD PUSH2 0x17AC JUMP JUMPDEST SWAP3 POP SWAP3 POP POP SWAP3 SWAP6 SWAP2 SWAP5 POP SWAP3 POP JUMP JUMPDEST PUSH32 0x4E487B7100000000000000000000000000000000000000000000000000000000 PUSH0 MSTORE PUSH1 0x11 PUSH1 0x4 MSTORE PUSH1 0x24 PUSH0 REVERT JUMPDEST PUSH0 PUSH2 0x1A7C DUP3 PUSH2 0x1652 JUMP JUMPDEST SWAP2 POP PUSH2 0x1A87 DUP4 PUSH2 0x1652 JUMP JUMPDEST SWAP3 POP DUP3 DUP3 SUB SWAP1 POP PUSH4 0xFFFFFFFF DUP2 GT ISZERO PUSH2 0x1AA3 JUMPI PUSH2 0x1AA2 PUSH2 0x1A45 JUMP JUMPDEST JUMPDEST SWAP3 SWAP2 POP POP JUMP JUMPDEST PUSH0 PUSH2 0x1AB3 DUP3 PUSH2 0x1670 JUMP JUMPDEST SWAP2 POP PUSH2 0x1ABE DUP4 PUSH2 0x1670 JUMP JUMPDEST SWAP3 POP DUP3 DUP3 SUB SWAP1 POP PUSH16 0xFFFFFFFFFFFFFFFFFFFFFFFFFFFFFFFF DUP2 GT ISZERO PUSH2 0x1AE6 JUMPI PUSH2 0x1AE5 PUSH2 0x1A45 JUMP JUMPDEST JUMPDEST SWAP3 SWAP2 POP POP JUMP JUMPDEST PUSH0 PUSH2 0x1AF6 DUP3 PUSH2 0x1630 JUMP JUMPDEST SWAP2 POP PUSH2 0x1B01 DUP4 PUSH2 0x1630 JUMP JUMPDEST SWAP3 POP DUP3 DUP3 ADD SWAP1 POP PUSH8 0xFFFFFFFFFFFFFFFF DUP2 GT ISZERO PUSH2 0x1B21 JUMPI PUSH2 0x1B20 PUSH2 0x1A45 JUMP JUMPDEST JUMPDEST SWAP3 SWAP2 POP POP JUMP JUMPDEST PUSH0 DUP3 DUP3 MSTORE PUSH1 0x20 DUP3 ADD SWAP1 POP SWAP3 SWAP2 POP POP JUMP JUMPDEST DUP3 DUP2 DUP4 CALLDATACOPY PUSH0 DUP4 DUP4 ADD MSTORE POP POP POP JUMP JUMPDEST PUSH0 PUSH1 0x1F NOT PUSH1 0x1F DUP4 ADD AND SWAP1 POP SWAP2 SWAP1 POP JUMP JUMPDEST PUSH0 PUSH2 0x1B60 DUP4 DUP6 PUSH2 0x1B27 JUMP JUMPDEST SWAP4 POP PUSH2 0x1B6D DUP4 DUP6 DUP5 PUSH2 0x1B37 JUMP JUMPDEST PUSH2 0x1B76 DUP4 PUSH2 0x1B45 JUMP JUMPDEST DUP5 ADD SWAP1 POP SWAP4 SWAP3 POP POP POP JUMP JUMPDEST PUSH0 PUSH1 0x40 DUP3 ADD SWAP1 POP PUSH2 0x1B94 PUSH0 DUP4 ADD DUP7 PUSH2 0x15CF JUMP JUMPDEST DUP2 DUP2 SUB PUSH1 0x20 DUP4 ADD MSTORE PUSH2 0x1BA7 DUP2 DUP5 DUP7 PUSH2 0x1B55 JUMP JUMPDEST SWAP1 POP SWAP5 SWAP4 POP POP POP POP JUMP JUMPDEST PUSH0 PUSH2 0x1BBB DUP3 PUSH2 0x1532 JUMP JUMPDEST SWAP1 POP SWAP2 SWAP1 POP JUMP JUMPDEST PUSH2 0x1BCB DUP2 PUSH2 0x1BB1 JUMP JUMPDEST DUP2 EQ PUSH2 0x1BD5 JUMPI PUSH0 PUSH0 REVERT JUMPDEST POP JUMP JUMPDEST PUSH0 DUP2 CALLDATALOAD SWAP1 POP PUSH2 0x1BE6 DUP2 PUSH2 0x1BC2 JUMP JUMPDEST SWAP3 SWAP2 POP POP JUMP JUMPDEST PUSH2 0x1BF5 DUP2 PUSH2 0x15F6 JUMP JUMPDEST DUP2 EQ PUSH2 0x1BFF JUMPI PUSH0 PUSH0 REVERT JUMPDEST POP JUMP JUMPDEST PUSH0 DUP2 CALLDATALOAD SWAP1 POP PUSH2 0x1C10 DUP2 PUSH2 0x1BEC JUMP JUMPDEST SWAP3 SWAP2 POP POP JUMP JUMPDEST PUSH2 0x1C1F DUP2 PUSH2 0x1630 JUMP JUMPDEST DUP2 EQ PUSH2 0x1C29 JUMPI PUSH0 PUSH0 REVERT JUMPDEST POP JUMP JUMPDEST PUSH0 DUP2 CALLDATALOAD SWAP1 POP PUSH2 0x1C3A DUP2 PUSH2 0x1C16 JUMP JUMPDEST SWAP3 SWAP2 POP POP JUMP JUMPDEST PUSH2 0x1C49 DUP2 PUSH2 0x1652 JUMP JUMPDEST DUP2 EQ PUSH2 0x1C53 JUMPI PUSH0 PUSH0 REVERT JUMPDEST POP JUMP JUMPDEST PUSH0 DUP2 CALLDATALOAD SWAP1 POP PUSH2 0x1C64 DUP2 PUSH2 0x1C40 JUMP JUMPDEST SWAP3 SWAP2 POP POP JUMP JUMPDEST PUSH2 0x1C73 DUP2 PUSH2 0x1670 JUMP JUMPDEST DUP2 EQ PUSH2 0x1C7D JUMPI PUSH0 PUSH0 REVERT JUMPDEST POP JUMP JUMPDEST PUSH0 DUP2 CALLDATALOAD SWAP1 POP PUSH2 0x1C8E DUP2 PUSH2 0x1C6A JUMP JUMPDEST SWAP3 SWAP2 POP POP JUMP JUMPDEST PUSH2 0x1C9D DUP2 PUSH2 0x169A JUMP JUMPDEST DUP2 EQ PUSH2 0x1CA7 JUMPI PUSH0 PUSH0 REVERT JUMPDEST POP JUMP JUMPDEST PUSH0 DUP2 CALLDATALOAD SWAP1 POP PUSH2 0x1CB8 DUP2 PUSH2 0x1C94 JUMP JUMPDEST SWAP3 SWAP2 POP POP JUMP JUMPDEST PUSH0 PUSH0 PUSH0 PUSH0 PUSH0 PUSH0 PUSH0 PUSH0 PUSH0 PUSH0 PUSH2 0x140 DUP12 DUP14 SUB SLT ISZERO PUSH2 0x1CDD JUMPI PUSH2 0x1CDC PUSH2 0x152A JUMP JUMPDEST JUMPDEST PUSH0 PUSH2 0x1CEA DUP14 DUP3 DUP15 ADD PUSH2 0x1BD8 JUMP JUMPDEST SWAP11 POP POP PUSH1 0x20 PUSH2 0x1CFB DUP14 DUP3 DUP15 ADD PUSH2 0x178C JUMP JUMPDEST SWAP10 POP POP PUSH1 0x40 PUSH2 0x1D0C DUP14 DUP3 DUP15 ADD PUSH2 0x1817 JUMP JUMPDEST SWAP9 POP POP PUSH1 0x60 PUSH2 0x1D1D DUP14 DUP3 DUP15 ADD PUSH2 0x1BD8 JUMP JUMPDEST SWAP8 POP POP PUSH1 0x80 PUSH2 0x1D2E DUP14 DUP3 DUP15 ADD PUSH2 0x1C02 JUMP JUMPDEST SWAP7 POP POP PUSH1 0xA0 PUSH2 0x1D3F DUP14 DUP3 DUP15 ADD PUSH2 0x1C2C JUMP JUMPDEST SWAP6 POP POP PUSH1 0xC0 PUSH2 0x1D50 DUP14 DUP3 DUP15 ADD PUSH2 0x1C2C JUMP JUMPDEST SWAP5 POP POP PUSH1 0xE0 PUSH2 0x1D61 DUP14 DUP3 DUP15 ADD PUSH2 0x1C56 JUMP JUMPDEST SWAP4 POP POP PUSH2 0x100 PUSH2 0x1D73 DUP14 DUP3 DUP15 ADD PUSH2 0x1C80 JUMP JUMPDEST SWAP3 POP POP PUSH2 0x120 PUSH2 0x1D85 DUP14 DUP3 DUP15 ADD PUSH2 0x1CAA JUMP JUMPDEST SWAP2 POP POP SWAP3 SWAP6 SWAP9 SWAP12 SWAP2 SWAP5 SWAP8 SWAP11 POP SWAP3 SWAP6 SWAP9 POP JUMP JUMPDEST PUSH0 PUSH0 REVERT JUMPDEST PUSH0 PUSH0 REVERT JUMPDEST PUSH0 PUSH0 REVERT JUMPDEST PUSH0 PUSH0 DUP4 CALLDATALOAD PUSH1 0x1 PUSH1 0x20 SUB DUP5 CALLDATASIZE SUB SUB DUP2 SLT PUSH2 0x1DBF JUMPI PUSH2 0x1DBE PUSH2 0x1D97 JUMP JUMPDEST JUMPDEST DUP1 DUP5 ADD SWAP3 POP DUP3 CALLDATALOAD SWAP2 POP PUSH8 0xFFFFFFFFFFFFFFFF DUP3 GT ISZERO PUSH2 0x1DE1 JUMPI PUSH2 0x1DE0 PUSH2 0x1D9B JUMP JUMPDEST JUMPDEST PUSH1 0x20 DUP4 ADD SWAP3 POP PUSH1 0x1 DUP3 MUL CALLDATASIZE SUB DUP4 SGT ISZERO PUSH2 0x1DFD JUMPI PUSH2 0x1DFC PUSH2 0x1D9F JUMP JUMPDEST JUMPDEST POP SWAP3 POP SWAP3 SWAP1 POP JUMP JUMPDEST PUSH0 PUSH0 REVERT JUMPDEST PUSH0 PUSH0 REVERT JUMPDEST PUSH0 PUSH0 DUP6 DUP6 GT ISZERO PUSH2 0x1E20 JUMPI PUSH2 0x1E1F PUSH2 0x1E05 JUMP JUMPDEST JUMPDEST DUP4 DUP7 GT ISZERO PUSH2 0x1E31 JUMPI PUSH2 0x1E30 PUSH2 0x1E09 JUMP JUMPDEST JUMPDEST PUSH1 0x1 DUP6 MUL DUP4 ADD SWAP2 POP DUP5 DUP7 SUB SWAP1 POP SWAP5 POP SWAP5 SWAP3 POP POP POP JUMP JUMPDEST PUSH0 DUP3 SWAP1 POP SWAP3 SWAP2 POP POP JUMP JUMPDEST PUSH0 DUP3 DUP3 SHL SWAP1 POP SWAP3 SWAP2 POP POP JUMP JUMPDEST PUSH0 PUSH2 0x1E68 DUP4 DUP4 PUSH2 0x1E47 JUMP JUMPDEST DUP3 PUSH2 0x1E73 DUP2 CALLDATALOAD PUSH2 0x15F6 JUMP JUMPDEST SWAP3 POP PUSH1 0x4 DUP3 LT ISZERO PUSH2 0x1EB3 JUMPI PUSH2 0x1EAE PUSH32 0xFFFFFFFF00000000000000000000000000000000000000000000000000000000 DUP4 PUSH1 0x4 SUB PUSH1 0x8 MUL PUSH2 0x1E51 JUMP JUMPDEST DUP4 AND SWAP3 POP JUMPDEST POP POP SWAP3 SWAP2 POP POP JUMP JUMPDEST PUSH0 PUSH0 REVERT JUMPDEST PUSH32 0x4E487B7100000000000000000000000000000000000000000000000000000000 PUSH0 MSTORE PUSH1 0x41 PUSH1 0x4 MSTORE PUSH1 0x24 PUSH0 REVERT JUMPDEST PUSH2 0x1EF5 DUP3 PUSH2 0x1B45 JUMP JUMPDEST DUP2 ADD DUP2 DUP2 LT PUSH8 0xFFFFFFFFFFFFFFFF DUP3 GT OR ISZERO PUSH2 0x1F14 JUMPI PUSH2 0x1F13 PUSH2 0x1EBF JUMP JUMPDEST JUMPDEST DUP1 PUSH1 0x40 MSTORE POP POP POP JUMP JUMPDEST PUSH0 PUSH2 0x1F26 PUSH2 0x1521 JUMP JUMPDEST SWAP1 POP PUSH2 0x1F32 DUP3 DUP3 PUSH2 0x1EEC JUMP JUMPDEST SWAP2 SWAP1 POP JUMP JUMPDEST PUSH0 PUSH8 0xFFFFFFFFFFFFFFFF DUP3 GT ISZERO PUSH2 0x1F51 JUMPI PUSH2 0x1F50 PUSH2 0x1EBF JUMP JUMPDEST JUMPDEST PUSH2 0x1F5A DUP3 PUSH2 0x1B45 JUMP JUMPDEST SWAP1 POP PUSH1 0x20 DUP2 ADD SWAP1 POP SWAP2 SWAP1 POP JUMP JUMPDEST PUSH0 PUSH2 0x1F79 PUSH2 0x1F74 DUP5 PUSH2 0x1F37 JUMP JUMPDEST PUSH2 0x1F1D JUMP JUMPDEST SWAP1 POP DUP3 DUP2 MSTORE PUSH1 0x20 DUP2 ADD DUP5 DUP5 DUP5 ADD GT ISZERO PUSH2 0x1F95 JUMPI PUSH2 0x1F94 PUSH2 0x1EBB JUMP JUMPDEST JUMPDEST PUSH2 0x1FA0 DUP5 DUP3 DUP6 PUSH2 0x1B37 JUMP JUMPDEST POP SWAP4 SWAP3 POP POP POP JUMP JUMPDEST PUSH0 DUP3 PUSH1 0x1F DUP4 ADD SLT PUSH2 0x1FBC JUMPI PUSH2 0x1FBB PUSH2 0x17A0 JUMP JUMPDEST JUMPDEST DUP2 CALLDATALOAD PUSH2 0x1FCC DUP5 DUP3 PUSH1 0x20 DUP7 ADD PUSH2 0x1F67 JUMP JUMPDEST SWAP2 POP POP SWAP3 SWAP2 POP POP JUMP JUMPDEST PUSH0 PUSH0 PUSH1 0x40 DUP4 DUP6 SUB SLT ISZERO PUSH2 0x1FEB JUMPI PUSH2 0x1FEA PUSH2 0x152A JUMP JUMPDEST JUMPDEST PUSH0 PUSH2 0x1FF8 DUP6 DUP3 DUP7 ADD PUSH2 0x178C JUMP JUMPDEST SWAP3 POP POP PUSH1 0x20 DUP4 ADD CALLDATALOAD PUSH8 0xFFFFFFFFFFFFFFFF DUP2 GT ISZERO PUSH2 0x2019 JUMPI PUSH2 0x2018 PUSH2 0x152E JUMP JUMPDEST JUMPDEST PUSH2 0x2025 DUP6 DUP3 DUP7 ADD PUSH2 0x1FA8 JUMP JUMPDEST SWAP2 POP POP SWAP3 POP SWAP3 SWAP1 POP JUMP JUMPDEST PUSH0 PUSH0 PUSH1 0x40 DUP4 DUP6 SUB SLT ISZERO PUSH2 0x2045 JUMPI PUSH2 0x2044 PUSH2 0x152A JUMP JUMPDEST JUMPDEST PUSH0 PUSH2 0x2052 DUP6 DUP3 DUP7 ADD PUSH2 0x1BD8 JUMP JUMPDEST SWAP3 POP POP PUSH1 0x20 DUP4 ADD CALLDATALOAD PUSH8 0xFFFFFFFFFFFFFFFF DUP2 GT ISZERO PUSH2 0x2073 JUMPI PUSH2 0x2072 PUSH2 0x152E JUMP JUMPDEST JUMPDEST PUSH2 0x207F DUP6 DUP3 DUP7 ADD PUSH2 0x1FA8 JUMP JUMPDEST SWAP2 POP POP SWAP3 POP SWAP3 SWAP1 POP JUMP JUMPDEST PUSH0 PUSH32 0xFFFFFFFFFFFFFFFFFFFFFFFFFFFFFFFFFFFFFFFF000000000000000000000000 DUP3 AND SWAP1 POP SWAP2 SWAP1 POP JUMP JUMPDEST PUSH0 PUSH2 0x20BF DUP4 DUP4 PUSH2 0x1E47 JUMP JUMPDEST DUP3 PUSH2 0x20CA DUP2 CALLDATALOAD PUSH2 0x2089 JUMP JUMPDEST SWAP3 POP PUSH1 0x14 DUP3 LT ISZERO PUSH2 0x210A JUMPI PUSH2 0x2105 PUSH32 0xFFFFFFFFFFFFFFFFFFFFFFFFFFFFFFFFFFFFFFFF000000000000000000000000 DUP4 PUSH1 0x14 SUB PUSH1 0x8 MUL PUSH2 0x1E51 JUMP JUMPDEST DUP4 AND SWAP3 POP JUMPDEST POP POP SWAP3 SWAP2 POP POP JUMP JUMPDEST PUSH0 PUSH2 0x211D DUP4 DUP4 PUSH2 0x1E47 JUMP JUMPDEST DUP3 PUSH2 0x2128 DUP2 CALLDATALOAD PUSH2 0x15C6 JUMP JUMPDEST SWAP3 POP PUSH1 0x20 DUP3 LT ISZERO PUSH2 0x2168 JUMPI PUSH2 0x2163 PUSH32 0xFFFFFFFFFFFFFFFFFFFFFFFFFFFFFFFFFFFFFFFFFFFFFFFFFFFFFFFFFFFFFFFF DUP4 PUSH1 0x20 SUB PUSH1 0x8 MUL PUSH2 0x1E51 JUMP JUMPDEST DUP4 AND SWAP3 POP JUMPDEST POP POP SWAP3 SWAP2 POP POP JUMP JUMPDEST PUSH0 DUP2 MLOAD SWAP1 POP PUSH2 0x217E DUP2 PUSH2 0x1BC2 JUMP JUMPDEST SWAP3 SWAP2 POP POP JUMP JUMPDEST DUP3 DUP2 DUP4 MCOPY PUSH0 DUP4 DUP4 ADD MSTORE POP POP POP JUMP JUMPDEST PUSH0 PUSH2 0x21A4 PUSH2 0x219F DUP5 PUSH2 0x1F37 JUMP JUMPDEST PUSH2 0x1F1D JUMP JUMPDEST SWAP1 POP DUP3 DUP2 MSTORE PUSH1 0x20 DUP2 ADD DUP5 DUP5 DUP5 ADD GT ISZERO PUSH2 0x21C0 JUMPI PUSH2 0x21BF PUSH2 0x1EBB JUMP JUMPDEST JUMPDEST PUSH2 0x21CB DUP5 DUP3 DUP6 PUSH2 0x2184 JUMP JUMPDEST POP SWAP4 SWAP3 POP POP POP JUMP JUMPDEST PUSH0 DUP3 PUSH1 0x1F DUP4 ADD SLT PUSH2 0x21E7 JUMPI PUSH2 0x21E6 PUSH2 0x17A0 JUMP JUMPDEST JUMPDEST DUP2 MLOAD PUSH2 0x21F7 DUP5 DUP3 PUSH1 0x20 DUP7 ADD PUSH2 0x2192 JUMP JUMPDEST SWAP2 POP POP SWAP3 SWAP2 POP POP JUMP JUMPDEST PUSH0 PUSH0 PUSH1 0x40 DUP4 DUP6 SUB SLT ISZERO PUSH2 0x2216 JUMPI PUSH2 0x2215 PUSH2 0x152A JUMP JUMPDEST JUMPDEST PUSH0 PUSH2 0x2223 DUP6 DUP3 DUP7 ADD PUSH2 0x2170 JUMP JUMPDEST SWAP3 POP POP PUSH1 0x20 DUP4 ADD MLOAD PUSH8 0xFFFFFFFFFFFFFFFF DUP2 GT ISZERO PUSH2 0x2244 JUMPI PUSH2 0x2243 PUSH2 0x152E JUMP JUMPDEST JUMPDEST PUSH2 0x2250 DUP6 DUP3 DUP7 ADD PUSH2 0x21D3 JUMP JUMPDEST SWAP2 POP POP SWAP3 POP SWAP3 SWAP1 POP JUMP JUMPDEST PUSH0 PUSH1 0x80 DUP3 ADD SWAP1 POP PUSH2 0x226D PUSH0 DUP4 ADD DUP8 PUSH2 0x15CF JUMP JUMPDEST PUSH2 0x227A PUSH1 0x20 DUP4 ADD DUP7 PUSH2 0x15CF JUMP JUMPDEST PUSH2 0x2287 PUSH1 0x40 DUP4 ADD DUP6 PUSH2 0x15E7 JUMP JUMPDEST PUSH2 0x2294 PUSH1 0x60 DUP4 ADD DUP5 PUSH2 0x1643 JUMP JUMPDEST SWAP6 SWAP5 POP POP POP POP POP JUMP JUMPDEST PUSH0 DUP2 SWAP1 POP SWAP3 SWAP2 POP POP JUMP JUMPDEST PUSH32 0x19457468657265756D205369676E6564204D6573736167653A0A333200000000 PUSH0 DUP3 ADD MSTORE POP JUMP JUMPDEST PUSH0 PUSH2 0x22DB PUSH1 0x1C DUP4 PUSH2 0x229D JUMP JUMPDEST SWAP2 POP PUSH2 0x22E6 DUP3 PUSH2 0x22A7 JUMP JUMPDEST PUSH1 0x1C DUP3 ADD SWAP1 POP SWAP2 SWAP1 POP JUMP JUMPDEST PUSH0 DUP2 SWAP1 POP SWAP2 SWAP1 POP JUMP JUMPDEST PUSH2 0x230B PUSH2 0x2306 DUP3 PUSH2 0x15C6 JUMP JUMPDEST PUSH2 0x22F1 JUMP JUMPDEST DUP3 MSTORE POP POP JUMP JUMPDEST PUSH0 PUSH2 0x231B DUP3 PUSH2 0x22CF JUMP JUMPDEST SWAP2 POP PUSH2 0x2327 DUP3 DUP5 PUSH2 0x22FA JUMP JUMPDEST PUSH1 0x20 DUP3 ADD SWAP2 POP DUP2 SWAP1 POP SWAP3 SWAP2 POP POP JUMP JUMPDEST PUSH0 PUSH1 0xFF DUP3 AND SWAP1 POP SWAP2 SWAP1 POP JUMP JUMPDEST PUSH0 PUSH2 0x234C DUP3 PUSH2 0x2336 JUMP JUMPDEST SWAP2 POP PUSH2 0x2357 DUP4 PUSH2 0x2336 JUMP JUMPDEST SWAP3 POP DUP3 DUP3 ADD SWAP1 POP PUSH1 0xFF DUP2 GT ISZERO PUSH2 0x2370 JUMPI PUSH2 0x236F PUSH2 0x1A45 JUMP JUMPDEST JUMPDEST SWAP3 SWAP2 POP POP JUMP JUMPDEST PUSH2 0x237F DUP2 PUSH2 0x2336 JUMP JUMPDEST DUP3 MSTORE POP POP JUMP JUMPDEST PUSH0 PUSH1 0x80 DUP3 ADD SWAP1 POP PUSH2 0x2398 PUSH0 DUP4 ADD DUP8 PUSH2 0x15CF JUMP JUMPDEST PUSH2 0x23A5 PUSH1 0x20 DUP4 ADD DUP7 PUSH2 0x2376 JUMP JUMPDEST PUSH2 0x23B2 PUSH1 0x40 DUP4 ADD DUP6 PUSH2 0x15CF JUMP JUMPDEST PUSH2 0x23BF PUSH1 0x60 DUP4 ADD DUP5 PUSH2 0x15CF JUMP JUMPDEST SWAP6 SWAP5 POP POP POP POP POP JUMP INVALID LOG2 PUSH5 0x6970667358 0x22 SLT KECCAK256 0xB6 0xBD SLT 0xB1 CHAINID DUPN 0x2B DUP6 STATICCALL 0xE2 SWAP3 SDIV EXTCODEHASH GT CALLER SELFBALANCE 0xD7 0xDC CODESIZE 0xC6 0x2F CODECOPY 0xD4 SIGNEXTEND 0xAF 0xCC 0xE8 0xAE SWAP4 PC SWAP10 SWAP14 PUSH5 0x736F6C6343 STOP ADDMOD 0x22 STOP CALLER "},"methodIdentifiers":{"ERC1271_INVALID_VALUE()":"dd337349","ERC1271_MAGIC_VALUE()":"51e80a4c","executeSession(address,bytes32,bytes,uint256)":"53b9e1fc","isModuleType(uint256)":"ecd05961","isValidSignatureWithSender(address,bytes32,bytes)":"f551e2ee","onInstall(bytes)":"6d61fe70","onUninstall(bytes)":"8a91b0e3","sessions(address)":"431a1b97","validateUserOp((address,uint256,bytes,bytes,bytes32,uint256,bytes32,bytes,bytes),bytes32)":"97003203"}}}}}