{"project/contracts/WalletFactory.sol":{"WalletFactory":{"abi":[{"inputs":[{"internalType":"address","name":"entryPoint_","type":"address"}],"stateMutability":"nonpayable","type":"constructor"},{"inputs":[],"name":"WalletAlreadyExists","type":"error"},{"anonymous":false,"inputs":[{"indexed":true,"internalType":"address","name":"owner","type":"address"},{"indexed":true,"internalType":"address","name":"wallet","type":"address"}],"name":"WalletCreated","type":"event"},{"inputs":[{"internalType":"address","name":"owner","type":"address"}],"name":"createWallet","outputs":[{"internalType":"address","name":"wallet","type":"address"}],"stateMutability":"nonpayable","type":"function"},{"inputs":[],"name":"entryPoint","outputs":[{"internalType":"address","name":"","type":"address"}],"stateMutability":"view","type":"function"},{"inputs":[{"internalType":"address","name":"owner","type":"address"}],"name":"wallets","outputs":[{"internalType":"address","name":"wallet","type":"address"}],"stateMutability":"view","type":"function"}],"evm":{"bytecode":{"linkReferences":{},"object":"60a060405234801561000f575f5ffd5b50604051612bc4380380612bc4833981810160405281019061003191906100c9565b8073ffffffffffffffffffffffffffffffffffffffff1660808173ffffffffffffffffffffffffffffffffffffffff1681525050506100f4565b5f5ffd5b5f73ffffffffffffffffffffffffffffffffffffffff82169050919050565b5f6100988261006f565b9050919050565b6100a88161008e565b81146100b2575f5ffd5b50565b5f815190506100c38161009f565b92915050565b5f602082840312156100de576100dd61006b565b5b5f6100eb848285016100b5565b91505092915050565b608051612ab16101135f395f81816101b401526102e10152612ab15ff3fe608060405234801561000f575f5ffd5b506004361061003f575f3560e01c806389b08f1114610043578063b054a9e814610073578063b0d691fe146100a3575b5f5ffd5b61005d6004803603810190610058919061036e565b6100c1565b60405161006a91906103a8565b60405180910390f35b61008d6004803603810190610088919061036e565b6100f0565b60405161009a91906103a8565b60405180910390f35b6100ab6102df565b6040516100b891906103a8565b60405180910390f35b5f602052805f5260405f205f915054906101000a900473ffffffffffffffffffffffffffffffffffffffff1681565b5f5f73ffffffffffffffffffffffffffffffffffffffff165f5f8473ffffffffffffffffffffffffffffffffffffffff1673ffffffffffffffffffffffffffffffffffffffff1681526020019081526020015f205f9054906101000a900473ffffffffffffffffffffffffffffffffffffffff1673ffffffffffffffffffffffffffffffffffffffff16146101b1576040517f7b90ef8800000000000000000000000000000000000000000000000000000000815260040160405180910390fd5b817f00000000000000000000000000000000000000000000000000000000000000006040516101df90610303565b6101ea9291906103c1565b604051809103905ff080158015610203573d5f5f3e3d5ffd5b509050805f5f8473ffffffffffffffffffffffffffffffffffffffff1673ffffffffffffffffffffffffffffffffffffffff1681526020019081526020015f205f6101000a81548173ffffffffffffffffffffffffffffffffffffffff021916908373ffffffffffffffffffffffffffffffffffffffff1602179055508073ffffffffffffffffffffffffffffffffffffffff168273ffffffffffffffffffffffffffffffffffffffff167f5b03bfed1c14a02bdeceb5fa582eb1a5765fc0bc64ca0e6af4c20afc9487f08160405160405180910390a3919050565b7f000000000000000000000000000000000000000000000000000000000000000081565b612693806103e983390190565b5f5ffd5b5f73ffffffffffffffffffffffffffffffffffffffff82169050919050565b5f61033d82610314565b9050919050565b61034d81610333565b8114610357575f5ffd5b50565b5f8135905061036881610344565b92915050565b5f6020828403121561038357610382610310565b5b5f6103908482850161035a565b91505092915050565b6103a281610333565b82525050565b5f6020820190506103bb5f830184610399565b92915050565b5f6040820190506103d45f830185610399565b6103e16020830184610399565b939250505056fe60c0604052604051612693380380612693833981810160405281019061002591906100f2565b8173ffffffffffffffffffffffffffffffffffffffff1660808173ffffffffffffffffffffffffffffffffffffffff16815250508073ffffffffffffffffffffffffffffffffffffffff1660a08173ffffffffffffffffffffffffffffffffffffffff16815250505050610130565b5f5ffd5b5f73ffffffffffffffffffffffffffffffffffffffff82169050919050565b5f6100c182610098565b9050919050565b6100d1816100b7565b81146100db575f5ffd5b50565b5f815190506100ec816100c8565b92915050565b5f5f6040838503121561010857610107610094565b5b5f610115858286016100de565b9250506020610126858286016100de565b9150509250929050565b60805160a05161251861017b5f395f818161058d015281816108ca01528181610fc7015261122001525f81816108a601528181610a7801528181610da401526111c901526125185ff3fe6080604052600436106100f6575f3560e01c8063a71763a811610089578063d691c96411610058578063d691c9641461033b578063dff658be14610377578063e9ae5c53146103a1578063f2dc691d146103bd576100fd565b8063a71763a814610283578063affed0e0146102ab578063b0d691fe146102d5578063d03c7914146102ff576100fd565b80638da5cb5b116100c55780638da5cb5b146101df5780638dd7712f146102095780639517e29f146102315780639cfd7cff14610259576100fd565b8063112d3a7d146101015780631626ba7e1461013d57806319822f7c146101795780632f6c8ea9146101b5576100fd565b366100fd57005b5f5ffd5b34801561010c575f5ffd5b5061012760048036038101906101229190611716565b6103f9565b60405161013491906117a1565b60405180910390f35b348015610148575f5ffd5b50610163600480360381019061015e91906117ed565b61045d565b6040516101709190611884565b60405180910390f35b348015610184575f5ffd5b5061019f600480360381019061019a91906118c0565b61058a565b6040516101ac919061193b565b60405180910390f35b3480156101c0575f5ffd5b506101c961089f565b6040516101d6919061193b565b60405180910390f35b3480156101ea575f5ffd5b506101f36108a4565b6040516102009190611963565b60405180910390f35b348015610214575f5ffd5b5061022f600480360381019061022a919061197c565b6108c8565b005b34801561023c575f5ffd5b5061025760048036038101906102529190611716565b610a76565b005b348015610264575f5ffd5b5061026d610d82565b60405161027a9190611a46565b60405180910390f35b34801561028e575f5ffd5b506102a960048036038101906102a49190611716565b610da2565b005b3480156102b6575f5ffd5b506102bf610fc0565b6040516102cc919061193b565b60405180910390f35b3480156102e0575f5ffd5b506102e9610fc5565b6040516102f69190611963565b60405180910390f35b34801561030a575f5ffd5b5061032560048036038101906103209190611a66565b610fe9565b60405161033291906117a1565b60405180910390f35b348015610346575f5ffd5b50610361600480360381019061035c91906117ed565b611071565b60405161036e9190611b9e565b60405180910390f35b348015610382575f5ffd5b5061038b6111c2565b604051610398919061193b565b60405180910390f35b6103bb60048036038101906103b691906117ed565b6111c7565b005b3480156103c8575f5ffd5b506103e360048036038101906103de9190611bbe565b611390565b6040516103f091906117a1565b60405180910390f35b5f60015f8681526020019081526020015f205f8573ffffffffffffffffffffffffffffffffffffffff1673ffffffffffffffffffffffffffffffffffffffff1681526020019081526020015f205f9054906101000a900460ff169050949350505050565b5f5f5f848481019061046f9190611d4c565b9150915060015f600181526020019081526020015f205f8373ffffffffffffffffffffffffffffffffffffffff1673ffffffffffffffffffffffffffffffffffffffff1681526020019081526020015f205f9054906101000a900460ff16610503576040517f96ab18e500000000000000000000000000000000000000000000000000000000815260040160405180910390fd5b8173ffffffffffffffffffffffffffffffffffffffff1663f551e2ee3388846040518463ffffffff1660e01b815260040161054093929190611dfd565b602060405180830381865afa15801561055b573d5f5f3e3d5ffd5b505050506040513d601f19601f8201168201806040525081019061057f9190611e63565b925050509392505050565b5f7f000000000000000000000000000000000000000000000000000000000000000073ffffffffffffffffffffffffffffffffffffffff163373ffffffffffffffffffffffffffffffffffffffff1614610610576040517fd663742a00000000000000000000000000000000000000000000000000000000815260040160405180910390fd5b3073ffffffffffffffffffffffffffffffffffffffff16845f0160208101906106399190611e8e565b73ffffffffffffffffffffffffffffffffffffffff1614610686576040517fb36c08d800000000000000000000000000000000000000000000000000000000815260040160405180910390fd5b5f548460200135146106c4576040517ffc96e6f500000000000000000000000000000000000000000000000000000000815260040160405180910390fd5b5f848061010001906106d69190611ec5565b8101906106e39190611d4c565b50905060015f600181526020019081526020015f205f8273ffffffffffffffffffffffffffffffffffffffff1673ffffffffffffffffffffffffffffffffffffffff1681526020019081526020015f205f9054906101000a900460ff16610776576040517f96ab18e500000000000000000000000000000000000000000000000000000000815260040160405180910390fd5b8073ffffffffffffffffffffffffffffffffffffffff16639700320386866040518363ffffffff1660e01b81526004016107b1929190612157565b6020604051808303815f875af11580156107cd573d5f5f3e3d5ffd5b505050506040513d601f19601f820116820180604052508101906107f19190612199565b91505f821461082c576040517f1837168c00000000000000000000000000000000000000000000000000000000815260040160405180910390fd5b60015f5f82825461083d91906121f1565b925050819055508073ffffffffffffffffffffffffffffffffffffffff16847ff3158fecdd8a7da6289e7cb7ed339e4d7701220bdb04d4b85feceeaefcae41c3876020013560405161088f919061193b565b60405180910390a3509392505050565b600281565b7f000000000000000000000000000000000000000000000000000000000000000081565b7f000000000000000000000000000000000000000000000000000000000000000073ffffffffffffffffffffffffffffffffffffffff163373ffffffffffffffffffffffffffffffffffffffff161461094d576040517fd663742a00000000000000000000000000000000000000000000000000000000815260040160405180910390fd5b5f8280610100019061095f9190611ec5565b81019061096c9190611d4c565b5090505f5f3073ffffffffffffffffffffffffffffffffffffffff168580606001906109989190611ec5565b6040516109a6929190612252565b5f604051808303815f865af19150503d805f81146109df576040519150601f19603f3d011682016040523d82523d5f602084013e6109e4565b606091505b509150915081610a2b57806040517f15fcd675000000000000000000000000000000000000000000000000000000008152600401610a22919061226a565b60405180910390fd5b8273ffffffffffffffffffffffffffffffffffffffff16847fd1b25dc6bdaa1fe7a54d72d0f2d13e7a27c21e402381c8af617144cfca30b69860405160405180910390a35050505050565b7f000000000000000000000000000000000000000000000000000000000000000073ffffffffffffffffffffffffffffffffffffffff163373ffffffffffffffffffffffffffffffffffffffff1614610afb576040517f30cd747100000000000000000000000000000000000000000000000000000000815260040160405180910390fd5b610b0484611390565b610b3a576040517fcf747b8700000000000000000000000000000000000000000000000000000000815260040160405180910390fd5b60015f8581526020019081526020015f205f8473ffffffffffffffffffffffffffffffffffffffff1673ffffffffffffffffffffffffffffffffffffffff1681526020019081526020015f205f9054906101000a900460ff1615610bca576040517f24c377e200000000000000000000000000000000000000000000000000000000815260040160405180910390fd5b8273ffffffffffffffffffffffffffffffffffffffff1663ecd05961856040518263ffffffff1660e01b8152600401610c03919061193b565b602060405180830381865afa158015610c1e573d5f5f3e3d5ffd5b505050506040513d601f19601f82011682018060405250810190610c4291906122b4565b610c78576040517f248f860800000000000000000000000000000000000000000000000000000000815260040160405180910390fd5b6001805f8681526020019081526020015f205f8573ffffffffffffffffffffffffffffffffffffffff1673ffffffffffffffffffffffffffffffffffffffff1681526020019081526020015f205f6101000a81548160ff0219169083151502179055508273ffffffffffffffffffffffffffffffffffffffff16636d61fe7083836040518363ffffffff1660e01b8152600401610d1692919061230b565b5f604051808303815f87803b158015610d2d575f5ffd5b505af1158015610d3f573d5f5f3e3d5ffd5b505050507fd21d0b289f126c4b473ea641963e766833c2f13866e4ff480abd787c100ef1238484604051610d7492919061232d565b60405180910390a150505050565b60606040518060600160405280602281526020016124c160229139905090565b7f000000000000000000000000000000000000000000000000000000000000000073ffffffffffffffffffffffffffffffffffffffff163373ffffffffffffffffffffffffffffffffffffffff1614610e27576040517f30cd747100000000000000000000000000000000000000000000000000000000815260040160405180910390fd5b60015f8581526020019081526020015f205f8473ffffffffffffffffffffffffffffffffffffffff1673ffffffffffffffffffffffffffffffffffffffff1681526020019081526020015f205f9054906101000a900460ff16610eb6576040517f2a6f792900000000000000000000000000000000000000000000000000000000815260040160405180910390fd5b8273ffffffffffffffffffffffffffffffffffffffff16638a91b0e383836040518363ffffffff1660e01b8152600401610ef192919061230b565b5f604051808303815f87803b158015610f08575f5ffd5b505af1158015610f1a573d5f5f3e3d5ffd5b505050505f60015f8681526020019081526020015f205f8573ffffffffffffffffffffffffffffffffffffffff1673ffffffffffffffffffffffffffffffffffffffff1681526020019081526020015f205f6101000a81548160ff0219169083151502179055507f341347516a9de374859dfda710fa4828b2d48cb57d4fbe4c1149612b8e02276e8484604051610fb292919061232d565b60405180910390a150505050565b5f5481565b7f000000000000000000000000000000000000000000000000000000000000000081565b5f5f5f5f610ff6856113a7565b50509250925092505f60f81b837effffffffffffffffffffffffffffffffffffffffffffffffffffffffffffff191614801561105657505f60f81b827effffffffffffffffffffffffffffffffffffffffffffffffffffffffffffff1916145b801561106757505f8163ffffffff16145b9350505050919050565b606060015f600281526020019081526020015f205f3373ffffffffffffffffffffffffffffffffffffffff1673ffffffffffffffffffffffffffffffffffffffff1681526020019081526020015f205f9054906101000a900460ff16611103576040517f5c427cd900000000000000000000000000000000000000000000000000000000815260040160405180910390fd5b61110c84610fe9565b611142576040517f7f18127500000000000000000000000000000000000000000000000000000000815260040160405180910390fd5b600167ffffffffffffffff81111561115d5761115c611c28565b5b60405190808252806020026020018201604052801561119057816020015b606081526020019060019003908161117b5790505b50905061119d83836113e7565b815f815181106111b0576111af612354565b5b60200260200101819052509392505050565b600181565b7f000000000000000000000000000000000000000000000000000000000000000073ffffffffffffffffffffffffffffffffffffffff163373ffffffffffffffffffffffffffffffffffffffff161415801561126f57507f000000000000000000000000000000000000000000000000000000000000000073ffffffffffffffffffffffffffffffffffffffff163373ffffffffffffffffffffffffffffffffffffffff1614155b80156112a757503073ffffffffffffffffffffffffffffffffffffffff163373ffffffffffffffffffffffffffffffffffffffff1614155b801561130a575060015f600181526020019081526020015f205f3373ffffffffffffffffffffffffffffffffffffffff1673ffffffffffffffffffffffffffffffffffffffff1681526020019081526020015f205f9054906101000a900460ff16155b15611341576040517f5c427cd900000000000000000000000000000000000000000000000000000000815260040160405180910390fd5b61134a83610fe9565b611380576040517f7f18127500000000000000000000000000000000000000000000000000000000815260040160405180910390fd5b61138a82826113e7565b50505050565b5f60018214806113a05750600282145b9050919050565b5f5f5f5f5f5f865f1c905060f881901c60f81b955060f081901c60f81b945060d081901c935060b081901c60e01b92508060501b91505091939590929450565b60605f5f365f6113f7878761154c565b93509350935093505f5f8573ffffffffffffffffffffffffffffffffffffffff16858585604051611429929190612252565b5f6040518083038185875af1925050503d805f8114611463576040519150601f19603f3d011682016040523d82523d5f602084013e611468565b606091505b5091509150816114af57806040517f15fcd6750000000000000000000000000000000000000000000000000000000081526004016114a6919061226a565b60405180910390fd5b6114b984846115f4565b7bffffffffffffffffffffffffffffffffffffffffffffffffffffffff19168673ffffffffffffffffffffffffffffffffffffffff163373ffffffffffffffffffffffffffffffffffffffff167f13590feed0e1c4fd208b94d255ece0dc8e7992c57b3aeb0d79d12c839cec5a5188604051611535919061193b565b60405180910390a480965050505050505092915050565b5f5f365f603486869050101561158e576040517f12f251b400000000000000000000000000000000000000000000000000000000815260040160405180910390fd5b85855f906014926115a193929190612389565b906115ac9190612404565b60601c935085856014906034926115c593929190612389565b906115d09190612462565b5f1c9250858560349080926115e793929190612389565b9150915092959194509250565b5f600483839050101561160c575f60e01b9050611611565b823590505b92915050565b5f604051905090565b5f5ffd5b5f5ffd5b5f819050919050565b61163a81611628565b8114611644575f5ffd5b50565b5f8135905061165581611631565b92915050565b5f73ffffffffffffffffffffffffffffffffffffffff82169050919050565b5f6116848261165b565b9050919050565b6116948161167a565b811461169e575f5ffd5b50565b5f813590506116af8161168b565b92915050565b5f5ffd5b5f5ffd5b5f5ffd5b5f5f83601f8401126116d6576116d56116b5565b5b8235905067ffffffffffffffff8111156116f3576116f26116b9565b5b60208301915083600182028301111561170f5761170e6116bd565b5b9250929050565b5f5f5f5f6060858703121561172e5761172d611620565b5b5f61173b87828801611647565b945050602061174c878288016116a1565b935050604085013567ffffffffffffffff81111561176d5761176c611624565b5b611779878288016116c1565b925092505092959194509250565b5f8115159050919050565b61179b81611787565b82525050565b5f6020820190506117b45f830184611792565b92915050565b5f819050919050565b6117cc816117ba565b81146117d6575f5ffd5b50565b5f813590506117e7816117c3565b92915050565b5f5f5f6040848603121561180457611803611620565b5b5f611811868287016117d9565b935050602084013567ffffffffffffffff81111561183257611831611624565b5b61183e868287016116c1565b92509250509250925092565b5f7fffffffff0000000000000000000000000000000000000000000000000000000082169050919050565b61187e8161184a565b82525050565b5f6020820190506118975f830184611875565b92915050565b5f5ffd5b5f61012082840312156118b7576118b661189d565b5b81905092915050565b5f5f5f606084860312156118d7576118d6611620565b5b5f84013567ffffffffffffffff8111156118f4576118f3611624565b5b611900868287016118a1565b9350506020611911868287016117d9565b925050604061192286828701611647565b9150509250925092565b61193581611628565b82525050565b5f60208201905061194e5f83018461192c565b92915050565b61195d8161167a565b82525050565b5f6020820190506119765f830184611954565b92915050565b5f5f6040838503121561199257611991611620565b5b5f83013567ffffffffffffffff8111156119af576119ae611624565b5b6119bb858286016118a1565b92505060206119cc858286016117d9565b9150509250929050565b5f81519050919050565b5f82825260208201905092915050565b8281835e5f83830152505050565b5f601f19601f8301169050919050565b5f611a18826119d6565b611a2281856119e0565b9350611a328185602086016119f0565b611a3b816119fe565b840191505092915050565b5f6020820190508181035f830152611a5e8184611a0e565b905092915050565b5f60208284031215611a7b57611a7a611620565b5b5f611a88848285016117d9565b91505092915050565b5f81519050919050565b5f82825260208201905092915050565b5f819050602082019050919050565b5f81519050919050565b5f82825260208201905092915050565b5f611ade82611aba565b611ae88185611ac4565b9350611af88185602086016119f0565b611b01816119fe565b840191505092915050565b5f611b178383611ad4565b905092915050565b5f602082019050919050565b5f611b3582611a91565b611b3f8185611a9b565b935083602082028501611b5185611aab565b805f5b85811015611b8c5784840389528151611b6d8582611b0c565b9450611b7883611b1f565b925060208a01995050600181019050611b54565b50829750879550505050505092915050565b5f6020820190508181035f830152611bb68184611b2b565b905092915050565b5f60208284031215611bd357611bd2611620565b5b5f611be084828501611647565b91505092915050565b5f611bf38261165b565b9050919050565b611c0381611be9565b8114611c0d575f5ffd5b50565b5f81359050611c1e81611bfa565b92915050565b5f5ffd5b7f4e487b71000000000000000000000000000000000000000000000000000000005f52604160045260245ffd5b611c5e826119fe565b810181811067ffffffffffffffff82111715611c7d57611c7c611c28565b5b80604052505050565b5f611c8f611617565b9050611c9b8282611c55565b919050565b5f67ffffffffffffffff821115611cba57611cb9611c28565b5b611cc3826119fe565b9050602081019050919050565b828183375f83830152505050565b5f611cf0611ceb84611ca0565b611c86565b905082815260208101848484011115611d0c57611d0b611c24565b5b611d17848285611cd0565b509392505050565b5f82601f830112611d3357611d326116b5565b5b8135611d43848260208601611cde565b91505092915050565b5f5f60408385031215611d6257611d61611620565b5b5f611d6f85828601611c10565b925050602083013567ffffffffffffffff811115611d9057611d8f611624565b5b611d9c85828601611d1f565b9150509250929050565b611daf816117ba565b82525050565b5f82825260208201905092915050565b5f611dcf82611aba565b611dd98185611db5565b9350611de98185602086016119f0565b611df2816119fe565b840191505092915050565b5f606082019050611e105f830186611954565b611e1d6020830185611da6565b8181036040830152611e2f8184611dc5565b9050949350505050565b611e428161184a565b8114611e4c575f5ffd5b50565b5f81519050611e5d81611e39565b92915050565b5f60208284031215611e7857611e77611620565b5b5f611e8584828501611e4f565b91505092915050565b5f60208284031215611ea357611ea2611620565b5b5f611eb0848285016116a1565b91505092915050565b5f5ffd5b5f5ffd5b5f5ffd5b5f5f83356001602003843603038112611ee157611ee0611eb9565b5b80840192508235915067ffffffffffffffff821115611f0357611f02611ebd565b5b602083019250600182023603831315611f1f57611f1e611ec1565b5b509250929050565b5f611f3560208401846116a1565b905092915050565b611f468161167a565b82525050565b5f611f5a6020840184611647565b905092915050565b611f6b81611628565b82525050565b5f5ffd5b5f5ffd5b5f5ffd5b5f5f83356001602003843603038112611f9957611f98611f79565b5b83810192508235915060208301925067ffffffffffffffff821115611fc157611fc0611f71565b5b600182023603831315611fd757611fd6611f75565b5b509250929050565b5f611fea8385611ac4565b9350611ff7838584611cd0565b612000836119fe565b840190509392505050565b5f61201960208401846117d9565b905092915050565b61202a816117ba565b82525050565b5f61012083016120425f840184611f27565b61204e5f860182611f3d565b5061205c6020840184611f4c565b6120696020860182611f62565b506120776040840184611f7d565b858303604087015261208a838284611fdf565b9250505061209b6060840184611f7d565b85830360608701526120ae838284611fdf565b925050506120bf608084018461200b565b6120cc6080860182612021565b506120da60a0840184611f4c565b6120e760a0860182611f62565b506120f560c084018461200b565b61210260c0860182612021565b5061211060e0840184611f7d565b85830360e0870152612123838284611fdf565b92505050612135610100840184611f7d565b858303610100870152612149838284611fdf565b925050508091505092915050565b5f6040820190508181035f83015261216f8185612030565b905061217e6020830184611da6565b9392505050565b5f8151905061219381611631565b92915050565b5f602082840312156121ae576121ad611620565b5b5f6121bb84828501612185565b91505092915050565b7f4e487b71000000000000000000000000000000000000000000000000000000005f52601160045260245ffd5b5f6121fb82611628565b915061220683611628565b925082820190508082111561221e5761221d6121c4565b5b92915050565b5f81905092915050565b5f6122398385612224565b9350612246838584611cd0565b82840190509392505050565b5f61225e82848661222e565b91508190509392505050565b5f6020820190508181035f8301526122828184611dc5565b905092915050565b61229381611787565b811461229d575f5ffd5b50565b5f815190506122ae8161228a565b92915050565b5f602082840312156122c9576122c8611620565b5b5f6122d6848285016122a0565b91505092915050565b5f6122ea8385611db5565b93506122f7838584611cd0565b612300836119fe565b840190509392505050565b5f6020820190508181035f8301526123248184866122df565b90509392505050565b5f6040820190506123405f83018561192c565b61234d6020830184611954565b9392505050565b7f4e487b71000000000000000000000000000000000000000000000000000000005f52603260045260245ffd5b5f5ffd5b5f5ffd5b5f5f8585111561239c5761239b612381565b5b838611156123ad576123ac612385565b5b6001850283019150848603905094509492505050565b5f82905092915050565b5f7fffffffffffffffffffffffffffffffffffffffff00000000000000000000000082169050919050565b5f82821b905092915050565b5f61240f83836123c3565b8261241a81356123cd565b9250601482101561245a576124557fffffffffffffffffffffffffffffffffffffffff000000000000000000000000836014036008026123f8565b831692505b505092915050565b5f61246d83836123c3565b8261247881356117ba565b925060208210156124b8576124b37fffffffffffffffffffffffffffffffffffffffffffffffffffffffffffffffff836020036008026123f8565b831692505b50509291505056fe746f66752e6167656e742d736d6172742d77616c6c65742e657263373537392e7631a2646970667358221220caa6f18205d251bb01018296e6c7ed53f2e4258b4eff1879686d789e56ccd50564736f6c63430008220033a264697066735822122043754b3bdeb04d3d07111bf6fa8f12bc25c184b21d93a64bb6a0a84b1f6b45e964736f6c63430008220033","opcodes":"PUSH1 0xA0 PUSH1 0x40 MSTORE CALLVALUE DUP1 ISZERO PUSH2 0xF JUMPI PUSH0 PUSH0 REVERT JUMPDEST POP PUSH1 0x40 MLOAD PUSH2 0x2BC4 CODESIZE SUB DUP1 PUSH2 0x2BC4 DUP4 CODECOPY DUP2 DUP2 ADD PUSH1 0x40 MSTORE DUP2 ADD SWAP1 PUSH2 0x31 SWAP2 SWAP1 PUSH2 0xC9 JUMP JUMPDEST DUP1 PUSH20 0xFFFFFFFFFFFFFFFFFFFFFFFFFFFFFFFFFFFFFFFF AND PUSH1 0x80 DUP2 PUSH20 0xFFFFFFFFFFFFFFFFFFFFFFFFFFFFFFFFFFFFFFFF AND DUP2 MSTORE POP POP POP PUSH2 0xF4 JUMP JUMPDEST PUSH0 PUSH0 REVERT JUMPDEST PUSH0 PUSH20 0xFFFFFFFFFFFFFFFFFFFFFFFFFFFFFFFFFFFFFFFF DUP3 AND SWAP1 POP SWAP2 SWAP1 POP JUMP JUMPDEST PUSH0 PUSH2 0x98 DUP3 PUSH2 0x6F JUMP JUMPDEST SWAP1 POP SWAP2 SWAP1 POP JUMP JUMPDEST PUSH2 0xA8 DUP2 PUSH2 0x8E JUMP JUMPDEST DUP2 EQ PUSH2 0xB2 JUMPI PUSH0 PUSH0 REVERT JUMPDEST POP JUMP JUMPDEST PUSH0 DUP2 MLOAD SWAP1 POP PUSH2 0xC3 DUP2 PUSH2 0x9F JUMP JUMPDEST SWAP3 SWAP2 POP POP JUMP JUMPDEST PUSH0 PUSH1 0x20 DUP3 DUP5 SUB SLT ISZERO PUSH2 0xDE JUMPI PUSH2 0xDD PUSH2 0x6B JUMP JUMPDEST JUMPDEST PUSH0 PUSH2 0xEB DUP5 DUP3 DUP6 ADD PUSH2 0xB5 JUMP JUMPDEST SWAP2 POP POP SWAP3 SWAP2 POP POP JUMP JUMPDEST PUSH1 0x80 MLOAD PUSH2 0x2AB1 PUSH2 0x113 PUSH0 CODECOPY PUSH0 DUP2 DUP2 PUSH2 0x1B4 ADD MSTORE PUSH2 0x2E1 ADD MSTORE PUSH2 0x2AB1 PUSH0 RETURN INVALID PUSH1 0x80 PUSH1 0x40 MSTORE CALLVALUE DUP1 ISZERO PUSH2 0xF JUMPI PUSH0 PUSH0 REVERT JUMPDEST POP PUSH1 0x4 CALLDATASIZE LT PUSH2 0x3F JUMPI PUSH0 CALLDATALOAD PUSH1 0xE0 SHR DUP1 PUSH4 0x89B08F11 EQ PUSH2 0x43 JUMPI DUP1 PUSH4 0xB054A9E8 EQ PUSH2 0x73 JUMPI DUP1 PUSH4 0xB0D691FE EQ PUSH2 0xA3 JUMPI JUMPDEST PUSH0 PUSH0 REVERT JUMPDEST PUSH2 0x5D PUSH1 0x4 DUP1 CALLDATASIZE SUB DUP2 ADD SWAP1 PUSH2 0x58 SWAP2 SWAP1 PUSH2 0x36E JUMP JUMPDEST PUSH2 0xC1 JUMP JUMPDEST PUSH1 0x40 MLOAD PUSH2 0x6A SWAP2 SWAP1 PUSH2 0x3A8 JUMP JUMPDEST PUSH1 0x40 MLOAD DUP1 SWAP2 SUB SWAP1 RETURN JUMPDEST PUSH2 0x8D PUSH1 0x4 DUP1 CALLDATASIZE SUB DUP2 ADD SWAP1 PUSH2 0x88 SWAP2 SWAP1 PUSH2 0x36E JUMP JUMPDEST PUSH2 0xF0 JUMP JUMPDEST PUSH1 0x40 MLOAD PUSH2 0x9A SWAP2 SWAP1 PUSH2 0x3A8 JUMP JUMPDEST PUSH1 0x40 MLOAD DUP1 SWAP2 SUB SWAP1 RETURN JUMPDEST PUSH2 0xAB PUSH2 0x2DF JUMP JUMPDEST PUSH1 0x40 MLOAD PUSH2 0xB8 SWAP2 SWAP1 PUSH2 0x3A8 JUMP JUMPDEST PUSH1 0x40 MLOAD DUP1 SWAP2 SUB SWAP1 RETURN JUMPDEST PUSH0 PUSH1 0x20 MSTORE DUP1 PUSH0 MSTORE PUSH1 0x40 PUSH0 KECCAK256 PUSH0 SWAP2 POP SLOAD SWAP1 PUSH2 0x100 EXP SWAP1 DIV PUSH20 0xFFFFFFFFFFFFFFFFFFFFFFFFFFFFFFFFFFFFFFFF AND DUP2 JUMP JUMPDEST PUSH0 PUSH0 PUSH20 0xFFFFFFFFFFFFFFFFFFFFFFFFFFFFFFFFFFFFFFFF AND PUSH0 PUSH0 DUP5 PUSH20 0xFFFFFFFFFFFFFFFFFFFFFFFFFFFFFFFFFFFFFFFF AND PUSH20 0xFFFFFFFFFFFFFFFFFFFFFFFFFFFFFFFFFFFFFFFF AND DUP2 MSTORE PUSH1 0x20 ADD SWAP1 DUP2 MSTORE PUSH1 0x20 ADD PUSH0 KECCAK256 PUSH0 SWAP1 SLOAD SWAP1 PUSH2 0x100 EXP SWAP1 DIV PUSH20 0xFFFFFFFFFFFFFFFFFFFFFFFFFFFFFFFFFFFFFFFF AND PUSH20 0xFFFFFFFFFFFFFFFFFFFFFFFFFFFFFFFFFFFFFFFF AND EQ PUSH2 0x1B1 JUMPI PUSH1 0x40 MLOAD PUSH32 0x7B90EF8800000000000000000000000000000000000000000000000000000000 DUP2 MSTORE PUSH1 0x4 ADD PUSH1 0x40 MLOAD DUP1 SWAP2 SUB SWAP1 REVERT JUMPDEST DUP2 PUSH32 0x0 PUSH1 0x40 MLOAD PUSH2 0x1DF SWAP1 PUSH2 0x303 JUMP JUMPDEST PUSH2 0x1EA SWAP3 SWAP2 SWAP1 PUSH2 0x3C1 JUMP JUMPDEST PUSH1 0x40 MLOAD DUP1 SWAP2 SUB SWAP1 PUSH0 CREATE DUP1 ISZERO DUP1 ISZERO PUSH2 0x203 JUMPI RETURNDATASIZE PUSH0 PUSH0 RETURNDATACOPY RETURNDATASIZE PUSH0 REVERT JUMPDEST POP SWAP1 POP DUP1 PUSH0 PUSH0 DUP5 PUSH20 0xFFFFFFFFFFFFFFFFFFFFFFFFFFFFFFFFFFFFFFFF AND PUSH20 0xFFFFFFFFFFFFFFFFFFFFFFFFFFFFFFFFFFFFFFFF AND DUP2 MSTORE PUSH1 0x20 ADD SWAP1 DUP2 MSTORE PUSH1 0x20 ADD PUSH0 KECCAK256 PUSH0 PUSH2 0x100 EXP DUP2 SLOAD DUP2 PUSH20 0xFFFFFFFFFFFFFFFFFFFFFFFFFFFFFFFFFFFFFFFF MUL NOT AND SWAP1 DUP4 PUSH20 0xFFFFFFFFFFFFFFFFFFFFFFFFFFFFFFFFFFFFFFFF AND MUL OR SWAP1 SSTORE POP DUP1 PUSH20 0xFFFFFFFFFFFFFFFFFFFFFFFFFFFFFFFFFFFFFFFF AND DUP3 PUSH20 0xFFFFFFFFFFFFFFFFFFFFFFFFFFFFFFFFFFFFFFFF AND PUSH32 0x5B03BFED1C14A02BDECEB5FA582EB1A5765FC0BC64CA0E6AF4C20AFC9487F081 PUSH1 0x40 MLOAD PUSH1 0x40 MLOAD DUP1 SWAP2 SUB SWAP1 LOG3 SWAP2 SWAP1 POP JUMP JUMPDEST PUSH32 0x0 DUP2 JUMP JUMPDEST PUSH2 0x2693 DUP1 PUSH2 0x3E9 DUP4 CODECOPY ADD SWAP1 JUMP JUMPDEST PUSH0 PUSH0 REVERT JUMPDEST PUSH0 PUSH20 0xFFFFFFFFFFFFFFFFFFFFFFFFFFFFFFFFFFFFFFFF DUP3 AND SWAP1 POP SWAP2 SWAP1 POP JUMP JUMPDEST PUSH0 PUSH2 0x33D DUP3 PUSH2 0x314 JUMP JUMPDEST SWAP1 POP SWAP2 SWAP1 POP JUMP JUMPDEST PUSH2 0x34D DUP2 PUSH2 0x333 JUMP JUMPDEST DUP2 EQ PUSH2 0x357 JUMPI PUSH0 PUSH0 REVERT JUMPDEST POP JUMP JUMPDEST PUSH0 DUP2 CALLDATALOAD SWAP1 POP PUSH2 0x368 DUP2 PUSH2 0x344 JUMP JUMPDEST SWAP3 SWAP2 POP POP JUMP JUMPDEST PUSH0 PUSH1 0x20 DUP3 DUP5 SUB SLT ISZERO PUSH2 0x383 JUMPI PUSH2 0x382 PUSH2 0x310 JUMP JUMPDEST JUMPDEST PUSH0 PUSH2 0x390 DUP5 DUP3 DUP6 ADD PUSH2 0x35A JUMP JUMPDEST SWAP2 POP POP SWAP3 SWAP2 POP POP JUMP JUMPDEST PUSH2 0x3A2 DUP2 PUSH2 0x333 JUMP JUMPDEST DUP3 MSTORE POP POP JUMP JUMPDEST PUSH0 PUSH1 0x20 DUP3 ADD SWAP1 POP PUSH2 0x3BB PUSH0 DUP4 ADD DUP5 PUSH2 0x399 JUMP JUMPDEST SWAP3 SWAP2 POP POP JUMP JUMPDEST PUSH0 PUSH1 0x40 DUP3 ADD SWAP1 POP PUSH2 0x3D4 PUSH0 DUP4 ADD DUP6 PUSH2 0x399 JUMP JUMPDEST PUSH2 0x3E1 PUSH1 0x20 DUP4 ADD DUP5 PUSH2 0x399 JUMP JUMPDEST SWAP4 SWAP3 POP POP POP JUMP INVALID PUSH1 0xC0 PUSH1 0x40 MSTORE PUSH1 0x40 MLOAD PUSH2 0x2693 CODESIZE SUB DUP1 PUSH2 0x2693 DUP4 CODECOPY DUP2 DUP2 ADD PUSH1 0x40 MSTORE DUP2 ADD SWAP1 PUSH2 0x25 SWAP2 SWAP1 PUSH2 0xF2 JUMP JUMPDEST DUP2 PUSH20 0xFFFFFFFFFFFFFFFFFFFFFFFFFFFFFFFFFFFFFFFF AND PUSH1 0x80 DUP2 PUSH20 0xFFFFFFFFFFFFFFFFFFFFFFFFFFFFFFFFFFFFFFFF AND DUP2 MSTORE POP POP DUP1 PUSH20 0xFFFFFFFFFFFFFFFFFFFFFFFFFFFFFFFFFFFFFFFF AND PUSH1 0xA0 DUP2 PUSH20 0xFFFFFFFFFFFFFFFFFFFFFFFFFFFFFFFFFFFFFFFF AND DUP2 MSTORE POP POP POP POP PUSH2 0x130 JUMP JUMPDEST PUSH0 PUSH0 REVERT JUMPDEST PUSH0 PUSH20 0xFFFFFFFFFFFFFFFFFFFFFFFFFFFFFFFFFFFFFFFF DUP3 AND SWAP1 POP SWAP2 SWAP1 POP JUMP JUMPDEST PUSH0 PUSH2 0xC1 DUP3 PUSH2 0x98 JUMP JUMPDEST SWAP1 POP SWAP2 SWAP1 POP JUMP JUMPDEST PUSH2 0xD1 DUP2 PUSH2 0xB7 JUMP JUMPDEST DUP2 EQ PUSH2 0xDB JUMPI PUSH0 PUSH0 REVERT JUMPDEST POP JUMP JUMPDEST PUSH0 DUP2 MLOAD SWAP1 POP PUSH2 0xEC DUP2 PUSH2 0xC8 JUMP JUMPDEST SWAP3 SWAP2 POP POP JUMP JUMPDEST PUSH0 PUSH0 PUSH1 0x40 DUP4 DUP6 SUB SLT ISZERO PUSH2 0x108 JUMPI PUSH2 0x107 PUSH2 0x94 JUMP JUMPDEST JUMPDEST PUSH0 PUSH2 0x115 DUP6 DUP3 DUP7 ADD PUSH2 0xDE JUMP JUMPDEST SWAP3 POP POP PUSH1 0x20 PUSH2 0x126 DUP6 DUP3 DUP7 ADD PUSH2 0xDE JUMP JUMPDEST SWAP2 POP POP SWAP3 POP SWAP3 SWAP1 POP JUMP JUMPDEST PUSH1 0x80 MLOAD PUSH1 0xA0 MLOAD PUSH2 0x2518 PUSH2 0x17B PUSH0 CODECOPY PUSH0 DUP2 DUP2 PUSH2 0x58D ADD MSTORE DUP2 DUP2 PUSH2 0x8CA ADD MSTORE DUP2 DUP2 PUSH2 0xFC7 ADD MSTORE PUSH2 0x1220 ADD MSTORE PUSH0 DUP2 DUP2 PUSH2 0x8A6 ADD MSTORE DUP2 DUP2 PUSH2 0xA78 ADD MSTORE DUP2 DUP2 PUSH2 0xDA4 ADD MSTORE PUSH2 0x11C9 ADD MSTORE PUSH2 0x2518 PUSH0 RETURN INVALID PUSH1 0x80 PUSH1 0x40 MSTORE PUSH1 0x4 CALLDATASIZE LT PUSH2 0xF6 JUMPI PUSH0 CALLDATALOAD PUSH1 0xE0 SHR DUP1 PUSH4 0xA71763A8 GT PUSH2 0x89 JUMPI DUP1 PUSH4 0xD691C964 GT PUSH2 0x58 JUMPI DUP1 PUSH4 0xD691C964 EQ PUSH2 0x33B JUMPI DUP1 PUSH4 0xDFF658BE EQ PUSH2 0x377 JUMPI DUP1 PUSH4 0xE9AE5C53 EQ PUSH2 0x3A1 JUMPI DUP1 PUSH4 0xF2DC691D EQ PUSH2 0x3BD JUMPI PUSH2 0xFD JUMP JUMPDEST DUP1 PUSH4 0xA71763A8 EQ PUSH2 0x283 JUMPI DUP1 PUSH4 0xAFFED0E0 EQ PUSH2 0x2AB JUMPI DUP1 PUSH4 0xB0D691FE EQ PUSH2 0x2D5 JUMPI DUP1 PUSH4 0xD03C7914 EQ PUSH2 0x2FF JUMPI PUSH2 0xFD JUMP JUMPDEST DUP1 PUSH4 0x8DA5CB5B GT PUSH2 0xC5 JUMPI DUP1 PUSH4 0x8DA5CB5B EQ PUSH2 0x1DF JUMPI DUP1 PUSH4 0x8DD7712F EQ PUSH2 0x209 JUMPI DUP1 PUSH4 0x9517E29F EQ PUSH2 0x231 JUMPI DUP1 PUSH4 0x9CFD7CFF EQ PUSH2 0x259 JUMPI PUSH2 0xFD JUMP JUMPDEST DUP1 PUSH4 0x112D3A7D EQ PUSH2 0x101 JUMPI DUP1 PUSH4 0x1626BA7E EQ PUSH2 0x13D JUMPI DUP1 PUSH4 0x19822F7C EQ PUSH2 0x179 JUMPI DUP1 PUSH4 0x2F6C8EA9 EQ PUSH2 0x1B5 JUMPI PUSH2 0xFD JUMP JUMPDEST CALLDATASIZE PUSH2 0xFD JUMPI STOP JUMPDEST PUSH0 PUSH0 REVERT JUMPDEST CALLVALUE DUP1 ISZERO PUSH2 0x10C JUMPI PUSH0 PUSH0 REVERT JUMPDEST POP PUSH2 0x127 PUSH1 0x4 DUP1 CALLDATASIZE SUB DUP2 ADD SWAP1 PUSH2 0x122 SWAP2 SWAP1 PUSH2 0x1716 JUMP JUMPDEST PUSH2 0x3F9 JUMP JUMPDEST PUSH1 0x40 MLOAD PUSH2 0x134 SWAP2 SWAP1 PUSH2 0x17A1 JUMP JUMPDEST PUSH1 0x40 MLOAD DUP1 SWAP2 SUB SWAP1 RETURN JUMPDEST CALLVALUE DUP1 ISZERO PUSH2 0x148 JUMPI PUSH0 PUSH0 REVERT JUMPDEST POP PUSH2 0x163 PUSH1 0x4 DUP1 CALLDATASIZE SUB DUP2 ADD SWAP1 PUSH2 0x15E SWAP2 SWAP1 PUSH2 0x17ED JUMP JUMPDEST PUSH2 0x45D JUMP JUMPDEST PUSH1 0x40 MLOAD PUSH2 0x170 SWAP2 SWAP1 PUSH2 0x1884 JUMP JUMPDEST PUSH1 0x40 MLOAD DUP1 SWAP2 SUB SWAP1 RETURN JUMPDEST CALLVALUE DUP1 ISZERO PUSH2 0x184 JUMPI PUSH0 PUSH0 REVERT JUMPDEST POP PUSH2 0x19F PUSH1 0x4 DUP1 CALLDATASIZE SUB DUP2 ADD SWAP1 PUSH2 0x19A SWAP2 SWAP1 PUSH2 0x18C0 JUMP JUMPDEST PUSH2 0x58A JUMP JUMPDEST PUSH1 0x40 MLOAD PUSH2 0x1AC SWAP2 SWAP1 PUSH2 0x193B JUMP JUMPDEST PUSH1 0x40 MLOAD DUP1 SWAP2 SUB SWAP1 RETURN JUMPDEST CALLVALUE DUP1 ISZERO PUSH2 0x1C0 JUMPI PUSH0 PUSH0 REVERT JUMPDEST POP PUSH2 0x1C9 PUSH2 0x89F JUMP JUMPDEST PUSH1 0x40 MLOAD PUSH2 0x1D6 SWAP2 SWAP1 PUSH2 0x193B JUMP JUMPDEST PUSH1 0x40 MLOAD DUP1 SWAP2 SUB SWAP1 RETURN JUMPDEST CALLVALUE DUP1 ISZERO PUSH2 0x1EA JUMPI PUSH0 PUSH0 REVERT JUMPDEST POP PUSH2 0x1F3 PUSH2 0x8A4 JUMP JUMPDEST PUSH1 0x40 MLOAD PUSH2 0x200 SWAP2 SWAP1 PUSH2 0x1963 JUMP JUMPDEST PUSH1 0x40 MLOAD DUP1 SWAP2 SUB SWAP1 RETURN JUMPDEST CALLVALUE DUP1 ISZERO PUSH2 0x214 JUMPI PUSH0 PUSH0 REVERT JUMPDEST POP PUSH2 0x22F PUSH1 0x4 DUP1 CALLDATASIZE SUB DUP2 ADD SWAP1 PUSH2 0x22A SWAP2 SWAP1 PUSH2 0x197C JUMP JUMPDEST PUSH2 0x8C8 JUMP JUMPDEST STOP JUMPDEST CALLVALUE DUP1 ISZERO PUSH2 0x23C JUMPI PUSH0 PUSH0 REVERT JUMPDEST POP PUSH2 0x257 PUSH1 0x4 DUP1 CALLDATASIZE SUB DUP2 ADD SWAP1 PUSH2 0x252 SWAP2 SWAP1 PUSH2 0x1716 JUMP JUMPDEST PUSH2 0xA76 JUMP JUMPDEST STOP JUMPDEST CALLVALUE DUP1 ISZERO PUSH2 0x264 JUMPI PUSH0 PUSH0 REVERT JUMPDEST POP PUSH2 0x26D PUSH2 0xD82 JUMP JUMPDEST PUSH1 0x40 MLOAD PUSH2 0x27A SWAP2 SWAP1 PUSH2 0x1A46 JUMP JUMPDEST PUSH1 0x40 MLOAD DUP1 SWAP2 SUB SWAP1 RETURN JUMPDEST CALLVALUE DUP1 ISZERO PUSH2 0x28E JUMPI PUSH0 PUSH0 REVERT JUMPDEST POP PUSH2 0x2A9 PUSH1 0x4 DUP1 CALLDATASIZE SUB DUP2 ADD SWAP1 PUSH2 0x2A4 SWAP2 SWAP1 PUSH2 0x1716 JUMP JUMPDEST PUSH2 0xDA2 JUMP JUMPDEST STOP JUMPDEST CALLVALUE DUP1 ISZERO PUSH2 0x2B6 JUMPI PUSH0 PUSH0 REVERT JUMPDEST POP PUSH2 0x2BF PUSH2 0xFC0 JUMP JUMPDEST PUSH1 0x40 MLOAD PUSH2 0x2CC SWAP2 SWAP1 PUSH2 0x193B JUMP JUMPDEST PUSH1 0x40 MLOAD DUP1 SWAP2 SUB SWAP1 RETURN JUMPDEST CALLVALUE DUP1 ISZERO PUSH2 0x2E0 JUMPI PUSH0 PUSH0 REVERT JUMPDEST POP PUSH2 0x2E9 PUSH2 0xFC5 JUMP JUMPDEST PUSH1 0x40 MLOAD PUSH2 0x2F6 SWAP2 SWAP1 PUSH2 0x1963 JUMP JUMPDEST PUSH1 0x40 MLOAD DUP1 SWAP2 SUB SWAP1 RETURN JUMPDEST CALLVALUE DUP1 ISZERO PUSH2 0x30A JUMPI PUSH0 PUSH0 REVERT JUMPDEST POP PUSH2 0x325 PUSH1 0x4 DUP1 CALLDATASIZE SUB DUP2 ADD SWAP1 PUSH2 0x320 SWAP2 SWAP1 PUSH2 0x1A66 JUMP JUMPDEST PUSH2 0xFE9 JUMP JUMPDEST PUSH1 0x40 MLOAD PUSH2 0x332 SWAP2 SWAP1 PUSH2 0x17A1 JUMP JUMPDEST PUSH1 0x40 MLOAD DUP1 SWAP2 SUB SWAP1 RETURN JUMPDEST CALLVALUE DUP1 ISZERO PUSH2 0x346 JUMPI PUSH0 PUSH0 REVERT JUMPDEST POP PUSH2 0x361 PUSH1 0x4 DUP1 CALLDATASIZE SUB DUP2 ADD SWAP1 PUSH2 0x35C SWAP2 SWAP1 PUSH2 0x17ED JUMP JUMPDEST PUSH2 0x1071 JUMP JUMPDEST PUSH1 0x40 MLOAD PUSH2 0x36E SWAP2 SWAP1 PUSH2 0x1B9E JUMP JUMPDEST PUSH1 0x40 MLOAD DUP1 SWAP2 SUB SWAP1 RETURN JUMPDEST CALLVALUE DUP1 ISZERO PUSH2 0x382 JUMPI PUSH0 PUSH0 REVERT JUMPDEST POP PUSH2 0x38B PUSH2 0x11C2 JUMP JUMPDEST PUSH1 0x40 MLOAD PUSH2 0x398 SWAP2 SWAP1 PUSH2 0x193B JUMP JUMPDEST PUSH1 0x40 MLOAD DUP1 SWAP2 SUB SWAP1 RETURN JUMPDEST PUSH2 0x3BB PUSH1 0x4 DUP1 CALLDATASIZE SUB DUP2 ADD SWAP1 PUSH2 0x3B6 SWAP2 SWAP1 PUSH2 0x17ED JUMP JUMPDEST PUSH2 0x11C7 JUMP JUMPDEST STOP JUMPDEST CALLVALUE DUP1 ISZERO PUSH2 0x3C8 JUMPI PUSH0 PUSH0 REVERT JUMPDEST POP PUSH2 0x3E3 PUSH1 0x4 DUP1 CALLDATASIZE SUB DUP2 ADD SWAP1 PUSH2 0x3DE SWAP2 SWAP1 PUSH2 0x1BBE JUMP JUMPDEST PUSH2 0x1390 JUMP JUMPDEST PUSH1 0x40 MLOAD PUSH2 0x3F0 SWAP2 SWAP1 PUSH2 0x17A1 JUMP JUMPDEST PUSH1 0x40 MLOAD DUP1 SWAP2 SUB SWAP1 RETURN JUMPDEST PUSH0 PUSH1 0x1 PUSH0 DUP7 DUP2 MSTORE PUSH1 0x20 ADD SWAP1 DUP2 MSTORE PUSH1 0x20 ADD PUSH0 KECCAK256 PUSH0 DUP6 PUSH20 0xFFFFFFFFFFFFFFFFFFFFFFFFFFFFFFFFFFFFFFFF AND PUSH20 0xFFFFFFFFFFFFFFFFFFFFFFFFFFFFFFFFFFFFFFFF AND DUP2 MSTORE PUSH1 0x20 ADD SWAP1 DUP2 MSTORE PUSH1 0x20 ADD PUSH0 KECCAK256 PUSH0 SWAP1 SLOAD SWAP1 PUSH2 0x100 EXP SWAP1 DIV PUSH1 0xFF AND SWAP1 POP SWAP5 SWAP4 POP POP POP POP JUMP JUMPDEST PUSH0 PUSH0 PUSH0 DUP5 DUP5 DUP2 ADD SWAP1 PUSH2 0x46F SWAP2 SWAP1 PUSH2 0x1D4C JUMP JUMPDEST SWAP2 POP SWAP2 POP PUSH1 0x1 PUSH0 PUSH1 0x1 DUP2 MSTORE PUSH1 0x20 ADD SWAP1 DUP2 MSTORE PUSH1 0x20 ADD PUSH0 KECCAK256 PUSH0 DUP4 PUSH20 0xFFFFFFFFFFFFFFFFFFFFFFFFFFFFFFFFFFFFFFFF AND PUSH20 0xFFFFFFFFFFFFFFFFFFFFFFFFFFFFFFFFFFFFFFFF AND DUP2 MSTORE PUSH1 0x20 ADD SWAP1 DUP2 MSTORE PUSH1 0x20 ADD PUSH0 KECCAK256 PUSH0 SWAP1 SLOAD SWAP1 PUSH2 0x100 EXP SWAP1 DIV PUSH1 0xFF AND PUSH2 0x503 JUMPI PUSH1 0x40 MLOAD PUSH32 0x96AB18E500000000000000000000000000000000000000000000000000000000 DUP2 MSTORE PUSH1 0x4 ADD PUSH1 0x40 MLOAD DUP1 SWAP2 SUB SWAP1 REVERT JUMPDEST DUP2 PUSH20 0xFFFFFFFFFFFFFFFFFFFFFFFFFFFFFFFFFFFFFFFF AND PUSH4 0xF551E2EE CALLER DUP9 DUP5 PUSH1 0x40 MLOAD DUP5 PUSH4 0xFFFFFFFF AND PUSH1 0xE0 SHL DUP2 MSTORE PUSH1 0x4 ADD PUSH2 0x540 SWAP4 SWAP3 SWAP2 SWAP1 PUSH2 0x1DFD JUMP JUMPDEST PUSH1 0x20 PUSH1 0x40 MLOAD DUP1 DUP4 SUB DUP2 DUP7 GAS STATICCALL ISZERO DUP1 ISZERO PUSH2 0x55B JUMPI RETURNDATASIZE PUSH0 PUSH0 RETURNDATACOPY RETURNDATASIZE PUSH0 REVERT JUMPDEST POP POP POP POP PUSH1 0x40 MLOAD RETURNDATASIZE PUSH1 0x1F NOT PUSH1 0x1F DUP3 ADD AND DUP3 ADD DUP1 PUSH1 0x40 MSTORE POP DUP2 ADD SWAP1 PUSH2 0x57F SWAP2 SWAP1 PUSH2 0x1E63 JUMP JUMPDEST SWAP3 POP POP POP SWAP4 SWAP3 POP POP POP JUMP JUMPDEST PUSH0 PUSH32 0x0 PUSH20 0xFFFFFFFFFFFFFFFFFFFFFFFFFFFFFFFFFFFFFFFF AND CALLER PUSH20 0xFFFFFFFFFFFFFFFFFFFFFFFFFFFFFFFFFFFFFFFF AND EQ PUSH2 0x610 JUMPI PUSH1 0x40 MLOAD PUSH32 0xD663742A00000000000000000000000000000000000000000000000000000000 DUP2 MSTORE PUSH1 0x4 ADD PUSH1 0x40 MLOAD DUP1 SWAP2 SUB SWAP1 REVERT JUMPDEST ADDRESS PUSH20 0xFFFFFFFFFFFFFFFFFFFFFFFFFFFFFFFFFFFFFFFF AND DUP5 PUSH0 ADD PUSH1 0x20 DUP2 ADD SWAP1 PUSH2 0x639 SWAP2 SWAP1 PUSH2 0x1E8E JUMP JUMPDEST PUSH20 0xFFFFFFFFFFFFFFFFFFFFFFFFFFFFFFFFFFFFFFFF AND EQ PUSH2 0x686 JUMPI PUSH1 0x40 MLOAD PUSH32 0xB36C08D800000000000000000000000000000000000000000000000000000000 DUP2 MSTORE PUSH1 0x4 ADD PUSH1 0x40 MLOAD DUP1 SWAP2 SUB SWAP1 REVERT JUMPDEST PUSH0 SLOAD DUP5 PUSH1 0x20 ADD CALLDATALOAD EQ PUSH2 0x6C4 JUMPI PUSH1 0x40 MLOAD PUSH32 0xFC96E6F500000000000000000000000000000000000000000000000000000000 DUP2 MSTORE PUSH1 0x4 ADD PUSH1 0x40 MLOAD DUP1 SWAP2 SUB SWAP1 REVERT JUMPDEST PUSH0 DUP5 DUP1 PUSH2 0x100 ADD SWAP1 PUSH2 0x6D6 SWAP2 SWAP1 PUSH2 0x1EC5 JUMP JUMPDEST DUP2 ADD SWAP1 PUSH2 0x6E3 SWAP2 SWAP1 PUSH2 0x1D4C JUMP JUMPDEST POP SWAP1 POP PUSH1 0x1 PUSH0 PUSH1 0x1 DUP2 MSTORE PUSH1 0x20 ADD SWAP1 DUP2 MSTORE PUSH1 0x20 ADD PUSH0 KECCAK256 PUSH0 DUP3 PUSH20 0xFFFFFFFFFFFFFFFFFFFFFFFFFFFFFFFFFFFFFFFF AND PUSH20 0xFFFFFFFFFFFFFFFFFFFFFFFFFFFFFFFFFFFFFFFF AND DUP2 MSTORE PUSH1 0x20 ADD SWAP1 DUP2 MSTORE PUSH1 0x20 ADD PUSH0 KECCAK256 PUSH0 SWAP1 SLOAD SWAP1 PUSH2 0x100 EXP SWAP1 DIV PUSH1 0xFF AND PUSH2 0x776 JUMPI PUSH1 0x40 MLOAD PUSH32 0x96AB18E500000000000000000000000000000000000000000000000000000000 DUP2 MSTORE PUSH1 0x4 ADD PUSH1 0x40 MLOAD DUP1 SWAP2 SUB SWAP1 REVERT JUMPDEST DUP1 PUSH20 0xFFFFFFFFFFFFFFFFFFFFFFFFFFFFFFFFFFFFFFFF AND PUSH4 0x97003203 DUP7 DUP7 PUSH1 0x40 MLOAD DUP4 PUSH4 0xFFFFFFFF AND PUSH1 0xE0 SHL DUP2 MSTORE PUSH1 0x4 ADD PUSH2 0x7B1 SWAP3 SWAP2 SWAP1 PUSH2 0x2157 JUMP JUMPDEST PUSH1 0x20 PUSH1 0x40 MLOAD DUP1 DUP4 SUB DUP2 PUSH0 DUP8 GAS CALL ISZERO DUP1 ISZERO PUSH2 0x7CD JUMPI RETURNDATASIZE PUSH0 PUSH0 RETURNDATACOPY RETURNDATASIZE PUSH0 REVERT JUMPDEST POP POP POP POP PUSH1 0x40 MLOAD RETURNDATASIZE PUSH1 0x1F NOT PUSH1 0x1F DUP3 ADD AND DUP3 ADD DUP1 PUSH1 0x40 MSTORE POP DUP2 ADD SWAP1 PUSH2 0x7F1 SWAP2 SWAP1 PUSH2 0x2199 JUMP JUMPDEST SWAP2 POP PUSH0 DUP3 EQ PUSH2 0x82C JUMPI PUSH1 0x40 MLOAD PUSH32 0x1837168C00000000000000000000000000000000000000000000000000000000 DUP2 MSTORE PUSH1 0x4 ADD PUSH1 0x40 MLOAD DUP1 SWAP2 SUB SWAP1 REVERT JUMPDEST PUSH1 0x1 PUSH0 PUSH0 DUP3 DUP3 SLOAD PUSH2 0x83D SWAP2 SWAP1 PUSH2 0x21F1 JUMP JUMPDEST SWAP3 POP POP DUP2 SWAP1 SSTORE POP DUP1 PUSH20 0xFFFFFFFFFFFFFFFFFFFFFFFFFFFFFFFFFFFFFFFF AND DUP5 PUSH32 0xF3158FECDD8A7DA6289E7CB7ED339E4D7701220BDB04D4B85FECEEAEFCAE41C3 DUP8 PUSH1 0x20 ADD CALLDATALOAD PUSH1 0x40 MLOAD PUSH2 0x88F SWAP2 SWAP1 PUSH2 0x193B JUMP JUMPDEST PUSH1 0x40 MLOAD DUP1 SWAP2 SUB SWAP1 LOG3 POP SWAP4 SWAP3 POP POP POP JUMP JUMPDEST PUSH1 0x2 DUP2 JUMP JUMPDEST PUSH32 0x0 DUP2 JUMP JUMPDEST PUSH32 0x0 PUSH20 0xFFFFFFFFFFFFFFFFFFFFFFFFFFFFFFFFFFFFFFFF AND CALLER PUSH20 0xFFFFFFFFFFFFFFFFFFFFFFFFFFFFFFFFFFFFFFFF AND EQ PUSH2 0x94D JUMPI PUSH1 0x40 MLOAD PUSH32 0xD663742A00000000000000000000000000000000000000000000000000000000 DUP2 MSTORE PUSH1 0x4 ADD PUSH1 0x40 MLOAD DUP1 SWAP2 SUB SWAP1 REVERT JUMPDEST PUSH0 DUP3 DUP1 PUSH2 0x100 ADD SWAP1 PUSH2 0x95F SWAP2 SWAP1 PUSH2 0x1EC5 JUMP JUMPDEST DUP2 ADD SWAP1 PUSH2 0x96C SWAP2 SWAP1 PUSH2 0x1D4C JUMP JUMPDEST POP SWAP1 POP PUSH0 PUSH0 ADDRESS PUSH20 0xFFFFFFFFFFFFFFFFFFFFFFFFFFFFFFFFFFFFFFFF AND DUP6 DUP1 PUSH1 0x60 ADD SWAP1 PUSH2 0x998 SWAP2 SWAP1 PUSH2 0x1EC5 JUMP JUMPDEST PUSH1 0x40 MLOAD PUSH2 0x9A6 SWAP3 SWAP2 SWAP1 PUSH2 0x2252 JUMP JUMPDEST PUSH0 PUSH1 0x40 MLOAD DUP1 DUP4 SUB DUP2 PUSH0 DUP7 GAS CALL SWAP2 POP POP RETURNDATASIZE DUP1 PUSH0 DUP2 EQ PUSH2 0x9DF JUMPI PUSH1 0x40 MLOAD SWAP2 POP PUSH1 0x1F NOT PUSH1 0x3F RETURNDATASIZE ADD AND DUP3 ADD PUSH1 0x40 MSTORE RETURNDATASIZE DUP3 MSTORE RETURNDATASIZE PUSH0 PUSH1 0x20 DUP5 ADD RETURNDATACOPY PUSH2 0x9E4 JUMP JUMPDEST PUSH1 0x60 SWAP2 POP JUMPDEST POP SWAP2 POP SWAP2 POP DUP2 PUSH2 0xA2B JUMPI DUP1 PUSH1 0x40 MLOAD PUSH32 0x15FCD67500000000000000000000000000000000000000000000000000000000 DUP2 MSTORE PUSH1 0x4 ADD PUSH2 0xA22 SWAP2 SWAP1 PUSH2 0x226A JUMP JUMPDEST PUSH1 0x40 MLOAD DUP1 SWAP2 SUB SWAP1 REVERT JUMPDEST DUP3 PUSH20 0xFFFFFFFFFFFFFFFFFFFFFFFFFFFFFFFFFFFFFFFF AND DUP5 PUSH32 0xD1B25DC6BDAA1FE7A54D72D0F2D13E7A27C21E402381C8AF617144CFCA30B698 PUSH1 0x40 MLOAD PUSH1 0x40 MLOAD DUP1 SWAP2 SUB SWAP1 LOG3 POP POP POP POP POP JUMP JUMPDEST PUSH32 0x0 PUSH20 0xFFFFFFFFFFFFFFFFFFFFFFFFFFFFFFFFFFFFFFFF AND CALLER PUSH20 0xFFFFFFFFFFFFFFFFFFFFFFFFFFFFFFFFFFFFFFFF AND EQ PUSH2 0xAFB JUMPI PUSH1 0x40 MLOAD PUSH32 0x30CD747100000000000000000000000000000000000000000000000000000000 DUP2 MSTORE PUSH1 0x4 ADD PUSH1 0x40 MLOAD DUP1 SWAP2 SUB SWAP1 REVERT JUMPDEST PUSH2 0xB04 DUP5 PUSH2 0x1390 JUMP JUMPDEST PUSH2 0xB3A JUMPI PUSH1 0x40 MLOAD PUSH32 0xCF747B8700000000000000000000000000000000000000000000000000000000 DUP2 MSTORE PUSH1 0x4 ADD PUSH1 0x40 MLOAD DUP1 SWAP2 SUB SWAP1 REVERT JUMPDEST PUSH1 0x1 PUSH0 DUP6 DUP2 MSTORE PUSH1 0x20 ADD SWAP1 DUP2 MSTORE PUSH1 0x20 ADD PUSH0 KECCAK256 PUSH0 DUP5 PUSH20 0xFFFFFFFFFFFFFFFFFFFFFFFFFFFFFFFFFFFFFFFF AND PUSH20 0xFFFFFFFFFFFFFFFFFFFFFFFFFFFFFFFFFFFFFFFF AND DUP2 MSTORE PUSH1 0x20 ADD SWAP1 DUP2 MSTORE PUSH1 0x20 ADD PUSH0 KECCAK256 PUSH0 SWAP1 SLOAD SWAP1 PUSH2 0x100 EXP SWAP1 DIV PUSH1 0xFF AND ISZERO PUSH2 0xBCA JUMPI PUSH1 0x40 MLOAD PUSH32 0x24C377E200000000000000000000000000000000000000000000000000000000 DUP2 MSTORE PUSH1 0x4 ADD PUSH1 0x40 MLOAD DUP1 SWAP2 SUB SWAP1 REVERT JUMPDEST DUP3 PUSH20 0xFFFFFFFFFFFFFFFFFFFFFFFFFFFFFFFFFFFFFFFF AND PUSH4 0xECD05961 DUP6 PUSH1 0x40 MLOAD DUP3 PUSH4 0xFFFFFFFF AND PUSH1 0xE0 SHL DUP2 MSTORE PUSH1 0x4 ADD PUSH2 0xC03 SWAP2 SWAP1 PUSH2 0x193B JUMP JUMPDEST PUSH1 0x20 PUSH1 0x40 MLOAD DUP1 DUP4 SUB DUP2 DUP7 GAS STATICCALL ISZERO DUP1 ISZERO PUSH2 0xC1E JUMPI RETURNDATASIZE PUSH0 PUSH0 RETURNDATACOPY RETURNDATASIZE PUSH0 REVERT JUMPDEST POP POP POP POP PUSH1 0x40 MLOAD RETURNDATASIZE PUSH1 0x1F NOT PUSH1 0x1F DUP3 ADD AND DUP3 ADD DUP1 PUSH1 0x40 MSTORE POP DUP2 ADD SWAP1 PUSH2 0xC42 SWAP2 SWAP1 PUSH2 0x22B4 JUMP JUMPDEST PUSH2 0xC78 JUMPI PUSH1 0x40 MLOAD PUSH32 0x248F860800000000000000000000000000000000000000000000000000000000 DUP2 MSTORE PUSH1 0x4 ADD PUSH1 0x40 MLOAD DUP1 SWAP2 SUB SWAP1 REVERT JUMPDEST PUSH1 0x1 DUP1 PUSH0 DUP7 DUP2 MSTORE PUSH1 0x20 ADD SWAP1 DUP2 MSTORE PUSH1 0x20 ADD PUSH0 KECCAK256 PUSH0 DUP6 PUSH20 0xFFFFFFFFFFFFFFFFFFFFFFFFFFFFFFFFFFFFFFFF AND PUSH20 0xFFFFFFFFFFFFFFFFFFFFFFFFFFFFFFFFFFFFFFFF AND DUP2 MSTORE PUSH1 0x20 ADD SWAP1 DUP2 MSTORE PUSH1 0x20 ADD PUSH0 KECCAK256 PUSH0 PUSH2 0x100 EXP DUP2 SLOAD DUP2 PUSH1 0xFF MUL NOT AND SWAP1 DUP4 ISZERO ISZERO MUL OR SWAP1 SSTORE POP DUP3 PUSH20 0xFFFFFFFFFFFFFFFFFFFFFFFFFFFFFFFFFFFFFFFF AND PUSH4 0x6D61FE70 DUP4 DUP4 PUSH1 0x40 MLOAD DUP4 PUSH4 0xFFFFFFFF AND PUSH1 0xE0 SHL DUP2 MSTORE PUSH1 0x4 ADD PUSH2 0xD16 SWAP3 SWAP2 SWAP1 PUSH2 0x230B JUMP JUMPDEST PUSH0 PUSH1 0x40 MLOAD DUP1 DUP4 SUB DUP2 PUSH0 DUP8 DUP1 EXTCODESIZE ISZERO DUP1 ISZERO PUSH2 0xD2D JUMPI PUSH0 PUSH0 REVERT JUMPDEST POP GAS CALL ISZERO DUP1 ISZERO PUSH2 0xD3F JUMPI RETURNDATASIZE PUSH0 PUSH0 RETURNDATACOPY RETURNDATASIZE PUSH0 REVERT JUMPDEST POP POP POP POP PUSH32 0xD21D0B289F126C4B473EA641963E766833C2F13866E4FF480ABD787C100EF123 DUP5 DUP5 PUSH1 0x40 MLOAD PUSH2 0xD74 SWAP3 SWAP2 SWAP1 PUSH2 0x232D JUMP JUMPDEST PUSH1 0x40 MLOAD DUP1 SWAP2 SUB SWAP1 LOG1 POP POP POP POP JUMP JUMPDEST PUSH1 0x60 PUSH1 0x40 MLOAD DUP1 PUSH1 0x60 ADD PUSH1 0x40 MSTORE DUP1 PUSH1 0x22 DUP2 MSTORE PUSH1 0x20 ADD PUSH2 0x24C1 PUSH1 0x22 SWAP2 CODECOPY SWAP1 POP SWAP1 JUMP JUMPDEST PUSH32 0x0 PUSH20 0xFFFFFFFFFFFFFFFFFFFFFFFFFFFFFFFFFFFFFFFF AND CALLER PUSH20 0xFFFFFFFFFFFFFFFFFFFFFFFFFFFFFFFFFFFFFFFF AND EQ PUSH2 0xE27 JUMPI PUSH1 0x40 MLOAD PUSH32 0x30CD747100000000000000000000000000000000000000000000000000000000 DUP2 MSTORE PUSH1 0x4 ADD PUSH1 0x40 MLOAD DUP1 SWAP2 SUB SWAP1 REVERT JUMPDEST PUSH1 0x1 PUSH0 DUP6 DUP2 MSTORE PUSH1 0x20 ADD SWAP1 DUP2 MSTORE PUSH1 0x20 ADD PUSH0 KECCAK256 PUSH0 DUP5 PUSH20 0xFFFFFFFFFFFFFFFFFFFFFFFFFFFFFFFFFFFFFFFF AND PUSH20 0xFFFFFFFFFFFFFFFFFFFFFFFFFFFFFFFFFFFFFFFF AND DUP2 MSTORE PUSH1 0x20 ADD SWAP1 DUP2 MSTORE PUSH1 0x20 ADD PUSH0 KECCAK256 PUSH0 SWAP1 SLOAD SWAP1 PUSH2 0x100 EXP SWAP1 DIV PUSH1 0xFF AND PUSH2 0xEB6 JUMPI PUSH1 0x40 MLOAD PUSH32 0x2A6F792900000000000000000000000000000000000000000000000000000000 DUP2 MSTORE PUSH1 0x4 ADD PUSH1 0x40 MLOAD DUP1 SWAP2 SUB SWAP1 REVERT JUMPDEST DUP3 PUSH20 0xFFFFFFFFFFFFFFFFFFFFFFFFFFFFFFFFFFFFFFFF AND PUSH4 0x8A91B0E3 DUP4 DUP4 PUSH1 0x40 MLOAD DUP4 PUSH4 0xFFFFFFFF AND PUSH1 0xE0 SHL DUP2 MSTORE PUSH1 0x4 ADD PUSH2 0xEF1 SWAP3 SWAP2 SWAP1 PUSH2 0x230B JUMP JUMPDEST PUSH0 PUSH1 0x40 MLOAD DUP1 DUP4 SUB DUP2 PUSH0 DUP8 DUP1 EXTCODESIZE ISZERO DUP1 ISZERO PUSH2 0xF08 JUMPI PUSH0 PUSH0 REVERT JUMPDEST POP GAS CALL ISZERO DUP1 ISZERO PUSH2 0xF1A JUMPI RETURNDATASIZE PUSH0 PUSH0 RETURNDATACOPY RETURNDATASIZE PUSH0 REVERT JUMPDEST POP POP POP POP PUSH0 PUSH1 0x1 PUSH0 DUP7 DUP2 MSTORE PUSH1 0x20 ADD SWAP1 DUP2 MSTORE PUSH1 0x20 ADD PUSH0 KECCAK256 PUSH0 DUP6 PUSH20 0xFFFFFFFFFFFFFFFFFFFFFFFFFFFFFFFFFFFFFFFF AND PUSH20 0xFFFFFFFFFFFFFFFFFFFFFFFFFFFFFFFFFFFFFFFF AND DUP2 MSTORE PUSH1 0x20 ADD SWAP1 DUP2 MSTORE PUSH1 0x20 ADD PUSH0 KECCAK256 PUSH0 PUSH2 0x100 EXP DUP2 SLOAD DUP2 PUSH1 0xFF MUL NOT AND SWAP1 DUP4 ISZERO ISZERO MUL OR SWAP1 SSTORE POP PUSH32 0x341347516A9DE374859DFDA710FA4828B2D48CB57D4FBE4C1149612B8E02276E DUP5 DUP5 PUSH1 0x40 MLOAD PUSH2 0xFB2 SWAP3 SWAP2 SWAP1 PUSH2 0x232D JUMP JUMPDEST PUSH1 0x40 MLOAD DUP1 SWAP2 SUB SWAP1 LOG1 POP POP POP POP JUMP JUMPDEST PUSH0 SLOAD DUP2 JUMP JUMPDEST PUSH32 0x0 DUP2 JUMP JUMPDEST PUSH0 PUSH0 PUSH0 PUSH0 PUSH2 0xFF6 DUP6 PUSH2 0x13A7 JUMP JUMPDEST POP POP SWAP3 POP SWAP3 POP SWAP3 POP PUSH0 PUSH1 0xF8 SHL DUP4 PUSH31 0xFFFFFFFFFFFFFFFFFFFFFFFFFFFFFFFFFFFFFFFFFFFFFFFFFFFFFFFFFFFFFF NOT AND EQ DUP1 ISZERO PUSH2 0x1056 JUMPI POP PUSH0 PUSH1 0xF8 SHL DUP3 PUSH31 0xFFFFFFFFFFFFFFFFFFFFFFFFFFFFFFFFFFFFFFFFFFFFFFFFFFFFFFFFFFFFFF NOT AND EQ JUMPDEST DUP1 ISZERO PUSH2 0x1067 JUMPI POP PUSH0 DUP2 PUSH4 0xFFFFFFFF AND EQ JUMPDEST SWAP4 POP POP POP POP SWAP2 SWAP1 POP JUMP JUMPDEST PUSH1 0x60 PUSH1 0x1 PUSH0 PUSH1 0x2 DUP2 MSTORE PUSH1 0x20 ADD SWAP1 DUP2 MSTORE PUSH1 0x20 ADD PUSH0 KECCAK256 PUSH0 CALLER PUSH20 0xFFFFFFFFFFFFFFFFFFFFFFFFFFFFFFFFFFFFFFFF AND PUSH20 0xFFFFFFFFFFFFFFFFFFFFFFFFFFFFFFFFFFFFFFFF AND DUP2 MSTORE PUSH1 0x20 ADD SWAP1 DUP2 MSTORE PUSH1 0x20 ADD PUSH0 KECCAK256 PUSH0 SWAP1 SLOAD SWAP1 PUSH2 0x100 EXP SWAP1 DIV PUSH1 0xFF AND PUSH2 0x1103 JUMPI PUSH1 0x40 MLOAD PUSH32 0x5C427CD900000000000000000000000000000000000000000000000000000000 DUP2 MSTORE PUSH1 0x4 ADD PUSH1 0x40 MLOAD DUP1 SWAP2 SUB SWAP1 REVERT JUMPDEST PUSH2 0x110C DUP5 PUSH2 0xFE9 JUMP JUMPDEST PUSH2 0x1142 JUMPI PUSH1 0x40 MLOAD PUSH32 0x7F18127500000000000000000000000000000000000000000000000000000000 DUP2 MSTORE PUSH1 0x4 ADD PUSH1 0x40 MLOAD DUP1 SWAP2 SUB SWAP1 REVERT JUMPDEST PUSH1 0x1 PUSH8 0xFFFFFFFFFFFFFFFF DUP2 GT ISZERO PUSH2 0x115D JUMPI PUSH2 0x115C PUSH2 0x1C28 JUMP JUMPDEST JUMPDEST PUSH1 0x40 MLOAD SWAP1 DUP1 DUP3 MSTORE DUP1 PUSH1 0x20 MUL PUSH1 0x20 ADD DUP3 ADD PUSH1 0x40 MSTORE DUP1 ISZERO PUSH2 0x1190 JUMPI DUP2 PUSH1 0x20 ADD JUMPDEST PUSH1 0x60 DUP2 MSTORE PUSH1 0x20 ADD SWAP1 PUSH1 0x1 SWAP1 SUB SWAP1 DUP2 PUSH2 0x117B JUMPI SWAP1 POP JUMPDEST POP SWAP1 POP PUSH2 0x119D DUP4 DUP4 PUSH2 0x13E7 JUMP JUMPDEST DUP2 PUSH0 DUP2 MLOAD DUP2 LT PUSH2 0x11B0 JUMPI PUSH2 0x11AF PUSH2 0x2354 JUMP JUMPDEST JUMPDEST PUSH1 0x20 MUL PUSH1 0x20 ADD ADD DUP2 SWAP1 MSTORE POP SWAP4 SWAP3 POP POP POP JUMP JUMPDEST PUSH1 0x1 DUP2 JUMP JUMPDEST PUSH32 0x0 PUSH20 0xFFFFFFFFFFFFFFFFFFFFFFFFFFFFFFFFFFFFFFFF AND CALLER PUSH20 0xFFFFFFFFFFFFFFFFFFFFFFFFFFFFFFFFFFFFFFFF AND EQ ISZERO DUP1 ISZERO PUSH2 0x126F JUMPI POP PUSH32 0x0 PUSH20 0xFFFFFFFFFFFFFFFFFFFFFFFFFFFFFFFFFFFFFFFF AND CALLER PUSH20 0xFFFFFFFFFFFFFFFFFFFFFFFFFFFFFFFFFFFFFFFF AND EQ ISZERO JUMPDEST DUP1 ISZERO PUSH2 0x12A7 JUMPI POP ADDRESS PUSH20 0xFFFFFFFFFFFFFFFFFFFFFFFFFFFFFFFFFFFFFFFF AND CALLER PUSH20 0xFFFFFFFFFFFFFFFFFFFFFFFFFFFFFFFFFFFFFFFF AND EQ ISZERO JUMPDEST DUP1 ISZERO PUSH2 0x130A JUMPI POP PUSH1 0x1 PUSH0 PUSH1 0x1 DUP2 MSTORE PUSH1 0x20 ADD SWAP1 DUP2 MSTORE PUSH1 0x20 ADD PUSH0 KECCAK256 PUSH0 CALLER PUSH20 0xFFFFFFFFFFFFFFFFFFFFFFFFFFFFFFFFFFFFFFFF AND PUSH20 0xFFFFFFFFFFFFFFFFFFFFFFFFFFFFFFFFFFFFFFFF AND DUP2 MSTORE PUSH1 0x20 ADD SWAP1 DUP2 MSTORE PUSH1 0x20 ADD PUSH0 KECCAK256 PUSH0 SWAP1 SLOAD SWAP1 PUSH2 0x100 EXP SWAP1 DIV PUSH1 0xFF AND ISZERO JUMPDEST ISZERO PUSH2 0x1341 JUMPI PUSH1 0x40 MLOAD PUSH32 0x5C427CD900000000000000000000000000000000000000000000000000000000 DUP2 MSTORE PUSH1 0x4 ADD PUSH1 0x40 MLOAD DUP1 SWAP2 SUB SWAP1 REVERT JUMPDEST PUSH2 0x134A DUP4 PUSH2 0xFE9 JUMP JUMPDEST PUSH2 0x1380 JUMPI PUSH1 0x40 MLOAD PUSH32 0x7F18127500000000000000000000000000000000000000000000000000000000 DUP2 MSTORE PUSH1 0x4 ADD PUSH1 0x40 MLOAD DUP1 SWAP2 SUB SWAP1 REVERT JUMPDEST PUSH2 0x138A DUP3 DUP3 PUSH2 0x13E7 JUMP JUMPDEST POP POP POP POP JUMP JUMPDEST PUSH0 PUSH1 0x1 DUP3 EQ DUP1 PUSH2 0x13A0 JUMPI POP PUSH1 0x2 DUP3 EQ JUMPDEST SWAP1 POP SWAP2 SWAP1 POP JUMP JUMPDEST PUSH0 PUSH0 PUSH0 PUSH0 PUSH0 PUSH0 DUP7 PUSH0 SHR SWAP1 POP PUSH1 0xF8 DUP2 SWAP1 SHR PUSH1 0xF8 SHL SWAP6 POP PUSH1 0xF0 DUP2 SWAP1 SHR PUSH1 0xF8 SHL SWAP5 POP PUSH1 0xD0 DUP2 SWAP1 SHR SWAP4 POP PUSH1 0xB0 DUP2 SWAP1 SHR PUSH1 0xE0 SHL SWAP3 POP DUP1 PUSH1 0x50 SHL SWAP2 POP POP SWAP2 SWAP4 SWAP6 SWAP1 SWAP3 SWAP5 POP JUMP JUMPDEST PUSH1 0x60 PUSH0 PUSH0 CALLDATASIZE PUSH0 PUSH2 0x13F7 DUP8 DUP8 PUSH2 0x154C JUMP JUMPDEST SWAP4 POP SWAP4 POP SWAP4 POP SWAP4 POP PUSH0 PUSH0 DUP6 PUSH20 0xFFFFFFFFFFFFFFFFFFFFFFFFFFFFFFFFFFFFFFFF AND DUP6 DUP6 DUP6 PUSH1 0x40 MLOAD PUSH2 0x1429 SWAP3 SWAP2 SWAP1 PUSH2 0x2252 JUMP JUMPDEST PUSH0 PUSH1 0x40 MLOAD DUP1 DUP4 SUB DUP2 DUP6 DUP8 GAS CALL SWAP3 POP POP POP RETURNDATASIZE DUP1 PUSH0 DUP2 EQ PUSH2 0x1463 JUMPI PUSH1 0x40 MLOAD SWAP2 POP PUSH1 0x1F NOT PUSH1 0x3F RETURNDATASIZE ADD AND DUP3 ADD PUSH1 0x40 MSTORE RETURNDATASIZE DUP3 MSTORE RETURNDATASIZE PUSH0 PUSH1 0x20 DUP5 ADD RETURNDATACOPY PUSH2 0x1468 JUMP JUMPDEST PUSH1 0x60 SWAP2 POP JUMPDEST POP SWAP2 POP SWAP2 POP DUP2 PUSH2 0x14AF JUMPI DUP1 PUSH1 0x40 MLOAD PUSH32 0x15FCD67500000000000000000000000000000000000000000000000000000000 DUP2 MSTORE PUSH1 0x4 ADD PUSH2 0x14A6 SWAP2 SWAP1 PUSH2 0x226A JUMP JUMPDEST PUSH1 0x40 MLOAD DUP1 SWAP2 SUB SWAP1 REVERT JUMPDEST PUSH2 0x14B9 DUP5 DUP5 PUSH2 0x15F4 JUMP JUMPDEST PUSH28 0xFFFFFFFFFFFFFFFFFFFFFFFFFFFFFFFFFFFFFFFFFFFFFFFFFFFFFFFF NOT AND DUP7 PUSH20 0xFFFFFFFFFFFFFFFFFFFFFFFFFFFFFFFFFFFFFFFF AND CALLER PUSH20 0xFFFFFFFFFFFFFFFFFFFFFFFFFFFFFFFFFFFFFFFF AND PUSH32 0x13590FEED0E1C4FD208B94D255ECE0DC8E7992C57B3AEB0D79D12C839CEC5A51 DUP9 PUSH1 0x40 MLOAD PUSH2 0x1535 SWAP2 SWAP1 PUSH2 0x193B JUMP JUMPDEST PUSH1 0x40 MLOAD DUP1 SWAP2 SUB SWAP1 LOG4 DUP1 SWAP7 POP POP POP POP POP POP POP SWAP3 SWAP2 POP POP JUMP JUMPDEST PUSH0 PUSH0 CALLDATASIZE PUSH0 PUSH1 0x34 DUP7 DUP7 SWAP1 POP LT ISZERO PUSH2 0x158E JUMPI PUSH1 0x40 MLOAD PUSH32 0x12F251B400000000000000000000000000000000000000000000000000000000 DUP2 MSTORE PUSH1 0x4 ADD PUSH1 0x40 MLOAD DUP1 SWAP2 SUB SWAP1 REVERT JUMPDEST DUP6 DUP6 PUSH0 SWAP1 PUSH1 0x14 SWAP3 PUSH2 0x15A1 SWAP4 SWAP3 SWAP2 SWAP1 PUSH2 0x2389 JUMP JUMPDEST SWAP1 PUSH2 0x15AC SWAP2 SWAP1 PUSH2 0x2404 JUMP JUMPDEST PUSH1 0x60 SHR SWAP4 POP DUP6 DUP6 PUSH1 0x14 SWAP1 PUSH1 0x34 SWAP3 PUSH2 0x15C5 SWAP4 SWAP3 SWAP2 SWAP1 PUSH2 0x2389 JUMP JUMPDEST SWAP1 PUSH2 0x15D0 SWAP2 SWAP1 PUSH2 0x2462 JUMP JUMPDEST PUSH0 SHR SWAP3 POP DUP6 DUP6 PUSH1 0x34 SWAP1 DUP1 SWAP3 PUSH2 0x15E7 SWAP4 SWAP3 SWAP2 SWAP1 PUSH2 0x2389 JUMP JUMPDEST SWAP2 POP SWAP2 POP SWAP3 SWAP6 SWAP2 SWAP5 POP SWAP3 POP JUMP JUMPDEST PUSH0 PUSH1 0x4 DUP4 DUP4 SWAP1 POP LT ISZERO PUSH2 0x160C JUMPI PUSH0 PUSH1 0xE0 SHL SWAP1 POP PUSH2 0x1611 JUMP JUMPDEST DUP3 CALLDATALOAD SWAP1 POP JUMPDEST SWAP3 SWAP2 POP POP JUMP JUMPDEST PUSH0 PUSH1 0x40 MLOAD SWAP1 POP SWAP1 JUMP JUMPDEST PUSH0 PUSH0 REVERT JUMPDEST PUSH0 PUSH0 REVERT JUMPDEST PUSH0 DUP2 SWAP1 POP SWAP2 SWAP1 POP JUMP JUMPDEST PUSH2 0x163A DUP2 PUSH2 0x1628 JUMP JUMPDEST DUP2 EQ PUSH2 0x1644 JUMPI PUSH0 PUSH0 REVERT JUMPDEST POP JUMP JUMPDEST PUSH0 DUP2 CALLDATALOAD SWAP1 POP PUSH2 0x1655 DUP2 PUSH2 0x1631 JUMP JUMPDEST SWAP3 SWAP2 POP POP JUMP JUMPDEST PUSH0 PUSH20 0xFFFFFFFFFFFFFFFFFFFFFFFFFFFFFFFFFFFFFFFF DUP3 AND SWAP1 POP SWAP2 SWAP1 POP JUMP JUMPDEST PUSH0 PUSH2 0x1684 DUP3 PUSH2 0x165B JUMP JUMPDEST SWAP1 POP SWAP2 SWAP1 POP JUMP JUMPDEST PUSH2 0x1694 DUP2 PUSH2 0x167A JUMP JUMPDEST DUP2 EQ PUSH2 0x169E JUMPI PUSH0 PUSH0 REVERT JUMPDEST POP JUMP JUMPDEST PUSH0 DUP2 CALLDATALOAD SWAP1 POP PUSH2 0x16AF DUP2 PUSH2 0x168B JUMP JUMPDEST SWAP3 SWAP2 POP POP JUMP JUMPDEST PUSH0 PUSH0 REVERT JUMPDEST PUSH0 PUSH0 REVERT JUMPDEST PUSH0 PUSH0 REVERT JUMPDEST PUSH0 PUSH0 DUP4 PUSH1 0x1F DUP5 ADD SLT PUSH2 0x16D6 JUMPI PUSH2 0x16D5 PUSH2 0x16B5 JUMP JUMPDEST JUMPDEST DUP3 CALLDATALOAD SWAP1 POP PUSH8 0xFFFFFFFFFFFFFFFF DUP2 GT ISZERO PUSH2 0x16F3 JUMPI PUSH2 0x16F2 PUSH2 0x16B9 JUMP JUMPDEST JUMPDEST PUSH1 0x20 DUP4 ADD SWAP2 POP DUP4 PUSH1 0x1 DUP3 MUL DUP4 ADD GT ISZERO PUSH2 0x170F JUMPI PUSH2 0x170E PUSH2 0x16BD JUMP JUMPDEST JUMPDEST SWAP3 POP SWAP3 SWAP1 POP JUMP JUMPDEST PUSH0 PUSH0 PUSH0 PUSH0 PUSH1 0x60 DUP6 DUP8 SUB SLT ISZERO PUSH2 0x172E JUMPI PUSH2 0x172D PUSH2 0x1620 JUMP JUMPDEST JUMPDEST PUSH0 PUSH2 0x173B DUP8 DUP3 DUP9 ADD PUSH2 0x1647 JUMP JUMPDEST SWAP5 POP POP PUSH1 0x20 PUSH2 0x174C DUP8 DUP3 DUP9 ADD PUSH2 0x16A1 JUMP JUMPDEST SWAP4 POP POP PUSH1 0x40 DUP6 ADD CALLDATALOAD PUSH8 0xFFFFFFFFFFFFFFFF DUP2 GT ISZERO PUSH2 0x176D JUMPI PUSH2 0x176C PUSH2 0x1624 JUMP JUMPDEST JUMPDEST PUSH2 0x1779 DUP8 DUP3 DUP9 ADD PUSH2 0x16C1 JUMP JUMPDEST SWAP3 POP SWAP3 POP POP SWAP3 SWAP6 SWAP2 SWAP5 POP SWAP3 POP JUMP JUMPDEST PUSH0 DUP2 ISZERO ISZERO SWAP1 POP SWAP2 SWAP1 POP JUMP JUMPDEST PUSH2 0x179B DUP2 PUSH2 0x1787 JUMP JUMPDEST DUP3 MSTORE POP POP JUMP JUMPDEST PUSH0 PUSH1 0x20 DUP3 ADD SWAP1 POP PUSH2 0x17B4 PUSH0 DUP4 ADD DUP5 PUSH2 0x1792 JUMP JUMPDEST SWAP3 SWAP2 POP POP JUMP JUMPDEST PUSH0 DUP2 SWAP1 POP SWAP2 SWAP1 POP JUMP JUMPDEST PUSH2 0x17CC DUP2 PUSH2 0x17BA JUMP JUMPDEST DUP2 EQ PUSH2 0x17D6 JUMPI PUSH0 PUSH0 REVERT JUMPDEST POP JUMP JUMPDEST PUSH0 DUP2 CALLDATALOAD SWAP1 POP PUSH2 0x17E7 DUP2 PUSH2 0x17C3 JUMP JUMPDEST SWAP3 SWAP2 POP POP JUMP JUMPDEST PUSH0 PUSH0 PUSH0 PUSH1 0x40 DUP5 DUP7 SUB SLT ISZERO PUSH2 0x1804 JUMPI PUSH2 0x1803 PUSH2 0x1620 JUMP JUMPDEST JUMPDEST PUSH0 PUSH2 0x1811 DUP7 DUP3 DUP8 ADD PUSH2 0x17D9 JUMP JUMPDEST SWAP4 POP POP PUSH1 0x20 DUP5 ADD CALLDATALOAD PUSH8 0xFFFFFFFFFFFFFFFF DUP2 GT ISZERO PUSH2 0x1832 JUMPI PUSH2 0x1831 PUSH2 0x1624 JUMP JUMPDEST JUMPDEST PUSH2 0x183E DUP7 DUP3 DUP8 ADD PUSH2 0x16C1 JUMP JUMPDEST SWAP3 POP SWAP3 POP POP SWAP3 POP SWAP3 POP SWAP3 JUMP JUMPDEST PUSH0 PUSH32 0xFFFFFFFF00000000000000000000000000000000000000000000000000000000 DUP3 AND SWAP1 POP SWAP2 SWAP1 POP JUMP JUMPDEST PUSH2 0x187E DUP2 PUSH2 0x184A JUMP JUMPDEST DUP3 MSTORE POP POP JUMP JUMPDEST PUSH0 PUSH1 0x20 DUP3 ADD SWAP1 POP PUSH2 0x1897 PUSH0 DUP4 ADD DUP5 PUSH2 0x1875 JUMP JUMPDEST SWAP3 SWAP2 POP POP JUMP JUMPDEST PUSH0 PUSH0 REVERT JUMPDEST PUSH0 PUSH2 0x120 DUP3 DUP5 SUB SLT ISZERO PUSH2 0x18B7 JUMPI PUSH2 0x18B6 PUSH2 0x189D JUMP JUMPDEST JUMPDEST DUP2 SWAP1 POP SWAP3 SWAP2 POP POP JUMP JUMPDEST PUSH0 PUSH0 PUSH0 PUSH1 0x60 DUP5 DUP7 SUB SLT ISZERO PUSH2 0x18D7 JUMPI PUSH2 0x18D6 PUSH2 0x1620 JUMP JUMPDEST JUMPDEST PUSH0 DUP5 ADD CALLDATALOAD PUSH8 0xFFFFFFFFFFFFFFFF DUP2 GT ISZERO PUSH2 0x18F4 JUMPI PUSH2 0x18F3 PUSH2 0x1624 JUMP JUMPDEST JUMPDEST PUSH2 0x1900 DUP7 DUP3 DUP8 ADD PUSH2 0x18A1 JUMP JUMPDEST SWAP4 POP POP PUSH1 0x20 PUSH2 0x1911 DUP7 DUP3 DUP8 ADD PUSH2 0x17D9 JUMP JUMPDEST SWAP3 POP POP PUSH1 0x40 PUSH2 0x1922 DUP7 DUP3 DUP8 ADD PUSH2 0x1647 JUMP JUMPDEST SWAP2 POP POP SWAP3 POP SWAP3 POP SWAP3 JUMP JUMPDEST PUSH2 0x1935 DUP2 PUSH2 0x1628 JUMP JUMPDEST DUP3 MSTORE POP POP JUMP JUMPDEST PUSH0 PUSH1 0x20 DUP3 ADD SWAP1 POP PUSH2 0x194E PUSH0 DUP4 ADD DUP5 PUSH2 0x192C JUMP JUMPDEST SWAP3 SWAP2 POP POP JUMP JUMPDEST PUSH2 0x195D DUP2 PUSH2 0x167A JUMP JUMPDEST DUP3 MSTORE POP POP JUMP JUMPDEST PUSH0 PUSH1 0x20 DUP3 ADD SWAP1 POP PUSH2 0x1976 PUSH0 DUP4 ADD DUP5 PUSH2 0x1954 JUMP JUMPDEST SWAP3 SWAP2 POP POP JUMP JUMPDEST PUSH0 PUSH0 PUSH1 0x40 DUP4 DUP6 SUB SLT ISZERO PUSH2 0x1992 JUMPI PUSH2 0x1991 PUSH2 0x1620 JUMP JUMPDEST JUMPDEST PUSH0 DUP4 ADD CALLDATALOAD PUSH8 0xFFFFFFFFFFFFFFFF DUP2 GT ISZERO PUSH2 0x19AF JUMPI PUSH2 0x19AE PUSH2 0x1624 JUMP JUMPDEST JUMPDEST PUSH2 0x19BB DUP6 DUP3 DUP7 ADD PUSH2 0x18A1 JUMP JUMPDEST SWAP3 POP POP PUSH1 0x20 PUSH2 0x19CC DUP6 DUP3 DUP7 ADD PUSH2 0x17D9 JUMP JUMPDEST SWAP2 POP POP SWAP3 POP SWAP3 SWAP1 POP JUMP JUMPDEST PUSH0 DUP2 MLOAD SWAP1 POP SWAP2 SWAP1 POP JUMP JUMPDEST PUSH0 DUP3 DUP3 MSTORE PUSH1 0x20 DUP3 ADD SWAP1 POP SWAP3 SWAP2 POP POP JUMP JUMPDEST DUP3 DUP2 DUP4 MCOPY PUSH0 DUP4 DUP4 ADD MSTORE POP POP POP JUMP JUMPDEST PUSH0 PUSH1 0x1F NOT PUSH1 0x1F DUP4 ADD AND SWAP1 POP SWAP2 SWAP1 POP JUMP JUMPDEST PUSH0 PUSH2 0x1A18 DUP3 PUSH2 0x19D6 JUMP JUMPDEST PUSH2 0x1A22 DUP2 DUP6 PUSH2 0x19E0 JUMP JUMPDEST SWAP4 POP PUSH2 0x1A32 DUP2 DUP6 PUSH1 0x20 DUP7 ADD PUSH2 0x19F0 JUMP JUMPDEST PUSH2 0x1A3B DUP2 PUSH2 0x19FE JUMP JUMPDEST DUP5 ADD SWAP2 POP POP SWAP3 SWAP2 POP POP JUMP JUMPDEST PUSH0 PUSH1 0x20 DUP3 ADD SWAP1 POP DUP2 DUP2 SUB PUSH0 DUP4 ADD MSTORE PUSH2 0x1A5E DUP2 DUP5 PUSH2 0x1A0E JUMP JUMPDEST SWAP1 POP SWAP3 SWAP2 POP POP JUMP JUMPDEST PUSH0 PUSH1 0x20 DUP3 DUP5 SUB SLT ISZERO PUSH2 0x1A7B JUMPI PUSH2 0x1A7A PUSH2 0x1620 JUMP JUMPDEST JUMPDEST PUSH0 PUSH2 0x1A88 DUP5 DUP3 DUP6 ADD PUSH2 0x17D9 JUMP JUMPDEST SWAP2 POP POP SWAP3 SWAP2 POP POP JUMP JUMPDEST PUSH0 DUP2 MLOAD SWAP1 POP SWAP2 SWAP1 POP JUMP JUMPDEST PUSH0 DUP3 DUP3 MSTORE PUSH1 0x20 DUP3 ADD SWAP1 POP SWAP3 SWAP2 POP POP JUMP JUMPDEST PUSH0 DUP2 SWAP1 POP PUSH1 0x20 DUP3 ADD SWAP1 POP SWAP2 SWAP1 POP JUMP JUMPDEST PUSH0 DUP2 MLOAD SWAP1 POP SWAP2 SWAP1 POP JUMP JUMPDEST PUSH0 DUP3 DUP3 MSTORE PUSH1 0x20 DUP3 ADD SWAP1 POP SWAP3 SWAP2 POP POP JUMP JUMPDEST PUSH0 PUSH2 0x1ADE DUP3 PUSH2 0x1ABA JUMP JUMPDEST PUSH2 0x1AE8 DUP2 DUP6 PUSH2 0x1AC4 JUMP JUMPDEST SWAP4 POP PUSH2 0x1AF8 DUP2 DUP6 PUSH1 0x20 DUP7 ADD PUSH2 0x19F0 JUMP JUMPDEST PUSH2 0x1B01 DUP2 PUSH2 0x19FE JUMP JUMPDEST DUP5 ADD SWAP2 POP POP SWAP3 SWAP2 POP POP JUMP JUMPDEST PUSH0 PUSH2 0x1B17 DUP4 DUP4 PUSH2 0x1AD4 JUMP JUMPDEST SWAP1 POP SWAP3 SWAP2 POP POP JUMP JUMPDEST PUSH0 PUSH1 0x20 DUP3 ADD SWAP1 POP SWAP2 SWAP1 POP JUMP JUMPDEST PUSH0 PUSH2 0x1B35 DUP3 PUSH2 0x1A91 JUMP JUMPDEST PUSH2 0x1B3F DUP2 DUP6 PUSH2 0x1A9B JUMP JUMPDEST SWAP4 POP DUP4 PUSH1 0x20 DUP3 MUL DUP6 ADD PUSH2 0x1B51 DUP6 PUSH2 0x1AAB JUMP JUMPDEST DUP1 PUSH0 JUMPDEST DUP6 DUP2 LT ISZERO PUSH2 0x1B8C JUMPI DUP5 DUP5 SUB DUP10 MSTORE DUP2 MLOAD PUSH2 0x1B6D DUP6 DUP3 PUSH2 0x1B0C JUMP JUMPDEST SWAP5 POP PUSH2 0x1B78 DUP4 PUSH2 0x1B1F JUMP JUMPDEST SWAP3 POP PUSH1 0x20 DUP11 ADD SWAP10 POP POP PUSH1 0x1 DUP2 ADD SWAP1 POP PUSH2 0x1B54 JUMP JUMPDEST POP DUP3 SWAP8 POP DUP8 SWAP6 POP POP POP POP POP POP SWAP3 SWAP2 POP POP JUMP JUMPDEST PUSH0 PUSH1 0x20 DUP3 ADD SWAP1 POP DUP2 DUP2 SUB PUSH0 DUP4 ADD MSTORE PUSH2 0x1BB6 DUP2 DUP5 PUSH2 0x1B2B JUMP JUMPDEST SWAP1 POP SWAP3 SWAP2 POP POP JUMP JUMPDEST PUSH0 PUSH1 0x20 DUP3 DUP5 SUB SLT ISZERO PUSH2 0x1BD3 JUMPI PUSH2 0x1BD2 PUSH2 0x1620 JUMP JUMPDEST JUMPDEST PUSH0 PUSH2 0x1BE0 DUP5 DUP3 DUP6 ADD PUSH2 0x1647 JUMP JUMPDEST SWAP2 POP POP SWAP3 SWAP2 POP POP JUMP JUMPDEST PUSH0 PUSH2 0x1BF3 DUP3 PUSH2 0x165B JUMP JUMPDEST SWAP1 POP SWAP2 SWAP1 POP JUMP JUMPDEST PUSH2 0x1C03 DUP2 PUSH2 0x1BE9 JUMP JUMPDEST DUP2 EQ PUSH2 0x1C0D JUMPI PUSH0 PUSH0 REVERT JUMPDEST POP JUMP JUMPDEST PUSH0 DUP2 CALLDATALOAD SWAP1 POP PUSH2 0x1C1E DUP2 PUSH2 0x1BFA JUMP JUMPDEST SWAP3 SWAP2 POP POP JUMP JUMPDEST PUSH0 PUSH0 REVERT JUMPDEST PUSH32 0x4E487B7100000000000000000000000000000000000000000000000000000000 PUSH0 MSTORE PUSH1 0x41 PUSH1 0x4 MSTORE PUSH1 0x24 PUSH0 REVERT JUMPDEST PUSH2 0x1C5E DUP3 PUSH2 0x19FE JUMP JUMPDEST DUP2 ADD DUP2 DUP2 LT PUSH8 0xFFFFFFFFFFFFFFFF DUP3 GT OR ISZERO PUSH2 0x1C7D JUMPI PUSH2 0x1C7C PUSH2 0x1C28 JUMP JUMPDEST JUMPDEST DUP1 PUSH1 0x40 MSTORE POP POP POP JUMP JUMPDEST PUSH0 PUSH2 0x1C8F PUSH2 0x1617 JUMP JUMPDEST SWAP1 POP PUSH2 0x1C9B DUP3 DUP3 PUSH2 0x1C55 JUMP JUMPDEST SWAP2 SWAP1 POP JUMP JUMPDEST PUSH0 PUSH8 0xFFFFFFFFFFFFFFFF DUP3 GT ISZERO PUSH2 0x1CBA JUMPI PUSH2 0x1CB9 PUSH2 0x1C28 JUMP JUMPDEST JUMPDEST PUSH2 0x1CC3 DUP3 PUSH2 0x19FE JUMP JUMPDEST SWAP1 POP PUSH1 0x20 DUP2 ADD SWAP1 POP SWAP2 SWAP1 POP JUMP JUMPDEST DUP3 DUP2 DUP4 CALLDATACOPY PUSH0 DUP4 DUP4 ADD MSTORE POP POP POP JUMP JUMPDEST PUSH0 PUSH2 0x1CF0 PUSH2 0x1CEB DUP5 PUSH2 0x1CA0 JUMP JUMPDEST PUSH2 0x1C86 JUMP JUMPDEST SWAP1 POP DUP3 DUP2 MSTORE PUSH1 0x20 DUP2 ADD DUP5 DUP5 DUP5 ADD GT ISZERO PUSH2 0x1D0C JUMPI PUSH2 0x1D0B PUSH2 0x1C24 JUMP JUMPDEST JUMPDEST PUSH2 0x1D17 DUP5 DUP3 DUP6 PUSH2 0x1CD0 JUMP JUMPDEST POP SWAP4 SWAP3 POP POP POP JUMP JUMPDEST PUSH0 DUP3 PUSH1 0x1F DUP4 ADD SLT PUSH2 0x1D33 JUMPI PUSH2 0x1D32 PUSH2 0x16B5 JUMP JUMPDEST JUMPDEST DUP2 CALLDATALOAD PUSH2 0x1D43 DUP5 DUP3 PUSH1 0x20 DUP7 ADD PUSH2 0x1CDE JUMP JUMPDEST SWAP2 POP POP SWAP3 SWAP2 POP POP JUMP JUMPDEST PUSH0 PUSH0 PUSH1 0x40 DUP4 DUP6 SUB SLT ISZERO PUSH2 0x1D62 JUMPI PUSH2 0x1D61 PUSH2 0x1620 JUMP JUMPDEST JUMPDEST PUSH0 PUSH2 0x1D6F DUP6 DUP3 DUP7 ADD PUSH2 0x1C10 JUMP JUMPDEST SWAP3 POP POP PUSH1 0x20 DUP4 ADD CALLDATALOAD PUSH8 0xFFFFFFFFFFFFFFFF DUP2 GT ISZERO PUSH2 0x1D90 JUMPI PUSH2 0x1D8F PUSH2 0x1624 JUMP JUMPDEST JUMPDEST PUSH2 0x1D9C DUP6 DUP3 DUP7 ADD PUSH2 0x1D1F JUMP JUMPDEST SWAP2 POP POP SWAP3 POP SWAP3 SWAP1 POP JUMP JUMPDEST PUSH2 0x1DAF DUP2 PUSH2 0x17BA JUMP JUMPDEST DUP3 MSTORE POP POP JUMP JUMPDEST PUSH0 DUP3 DUP3 MSTORE PUSH1 0x20 DUP3 ADD SWAP1 POP SWAP3 SWAP2 POP POP JUMP JUMPDEST PUSH0 PUSH2 0x1DCF DUP3 PUSH2 0x1ABA JUMP JUMPDEST PUSH2 0x1DD9 DUP2 DUP6 PUSH2 0x1DB5 JUMP JUMPDEST SWAP4 POP PUSH2 0x1DE9 DUP2 DUP6 PUSH1 0x20 DUP7 ADD PUSH2 0x19F0 JUMP JUMPDEST PUSH2 0x1DF2 DUP2 PUSH2 0x19FE JUMP JUMPDEST DUP5 ADD SWAP2 POP POP SWAP3 SWAP2 POP POP JUMP JUMPDEST PUSH0 PUSH1 0x60 DUP3 ADD SWAP1 POP PUSH2 0x1E10 PUSH0 DUP4 ADD DUP7 PUSH2 0x1954 JUMP JUMPDEST PUSH2 0x1E1D PUSH1 0x20 DUP4 ADD DUP6 PUSH2 0x1DA6 JUMP JUMPDEST DUP2 DUP2 SUB PUSH1 0x40 DUP4 ADD MSTORE PUSH2 0x1E2F DUP2 DUP5 PUSH2 0x1DC5 JUMP JUMPDEST SWAP1 POP SWAP5 SWAP4 POP POP POP POP JUMP JUMPDEST PUSH2 0x1E42 DUP2 PUSH2 0x184A JUMP JUMPDEST DUP2 EQ PUSH2 0x1E4C JUMPI PUSH0 PUSH0 REVERT JUMPDEST POP JUMP JUMPDEST PUSH0 DUP2 MLOAD SWAP1 POP PUSH2 0x1E5D DUP2 PUSH2 0x1E39 JUMP JUMPDEST SWAP3 SWAP2 POP POP JUMP JUMPDEST PUSH0 PUSH1 0x20 DUP3 DUP5 SUB SLT ISZERO PUSH2 0x1E78 JUMPI PUSH2 0x1E77 PUSH2 0x1620 JUMP JUMPDEST JUMPDEST PUSH0 PUSH2 0x1E85 DUP5 DUP3 DUP6 ADD PUSH2 0x1E4F JUMP JUMPDEST SWAP2 POP POP SWAP3 SWAP2 POP POP JUMP JUMPDEST PUSH0 PUSH1 0x20 DUP3 DUP5 SUB SLT ISZERO PUSH2 0x1EA3 JUMPI PUSH2 0x1EA2 PUSH2 0x1620 JUMP JUMPDEST JUMPDEST PUSH0 PUSH2 0x1EB0 DUP5 DUP3 DUP6 ADD PUSH2 0x16A1 JUMP JUMPDEST SWAP2 POP POP SWAP3 SWAP2 POP POP JUMP JUMPDEST PUSH0 PUSH0 REVERT JUMPDEST PUSH0 PUSH0 REVERT JUMPDEST PUSH0 PUSH0 REVERT JUMPDEST PUSH0 PUSH0 DUP4 CALLDATALOAD PUSH1 0x1 PUSH1 0x20 SUB DUP5 CALLDATASIZE SUB SUB DUP2 SLT PUSH2 0x1EE1 JUMPI PUSH2 0x1EE0 PUSH2 0x1EB9 JUMP JUMPDEST JUMPDEST DUP1 DUP5 ADD SWAP3 POP DUP3 CALLDATALOAD SWAP2 POP PUSH8 0xFFFFFFFFFFFFFFFF DUP3 GT ISZERO PUSH2 0x1F03 JUMPI PUSH2 0x1F02 PUSH2 0x1EBD JUMP JUMPDEST JUMPDEST PUSH1 0x20 DUP4 ADD SWAP3 POP PUSH1 0x1 DUP3 MUL CALLDATASIZE SUB DUP4 SGT ISZERO PUSH2 0x1F1F JUMPI PUSH2 0x1F1E PUSH2 0x1EC1 JUMP JUMPDEST JUMPDEST POP SWAP3 POP SWAP3 SWAP1 POP JUMP JUMPDEST PUSH0 PUSH2 0x1F35 PUSH1 0x20 DUP5 ADD DUP5 PUSH2 0x16A1 JUMP JUMPDEST SWAP1 POP SWAP3 SWAP2 POP POP JUMP JUMPDEST PUSH2 0x1F46 DUP2 PUSH2 0x167A JUMP JUMPDEST DUP3 MSTORE POP POP JUMP JUMPDEST PUSH0 PUSH2 0x1F5A PUSH1 0x20 DUP5 ADD DUP5 PUSH2 0x1647 JUMP JUMPDEST SWAP1 POP SWAP3 SWAP2 POP POP JUMP JUMPDEST PUSH2 0x1F6B DUP2 PUSH2 0x1628 JUMP JUMPDEST DUP3 MSTORE POP POP JUMP JUMPDEST PUSH0 PUSH0 REVERT JUMPDEST PUSH0 PUSH0 REVERT JUMPDEST PUSH0 PUSH0 REVERT JUMPDEST PUSH0 PUSH0 DUP4 CALLDATALOAD PUSH1 0x1 PUSH1 0x20 SUB DUP5 CALLDATASIZE SUB SUB DUP2 SLT PUSH2 0x1F99 JUMPI PUSH2 0x1F98 PUSH2 0x1F79 JUMP JUMPDEST JUMPDEST DUP4 DUP2 ADD SWAP3 POP DUP3 CALLDATALOAD SWAP2 POP PUSH1 0x20 DUP4 ADD SWAP3 POP PUSH8 0xFFFFFFFFFFFFFFFF DUP3 GT ISZERO PUSH2 0x1FC1 JUMPI PUSH2 0x1FC0 PUSH2 0x1F71 JUMP JUMPDEST JUMPDEST PUSH1 0x1 DUP3 MUL CALLDATASIZE SUB DUP4 SGT ISZERO PUSH2 0x1FD7 JUMPI PUSH2 0x1FD6 PUSH2 0x1F75 JUMP JUMPDEST JUMPDEST POP SWAP3 POP SWAP3 SWAP1 POP JUMP JUMPDEST PUSH0 PUSH2 0x1FEA DUP4 DUP6 PUSH2 0x1AC4 JUMP JUMPDEST SWAP4 POP PUSH2 0x1FF7 DUP4 DUP6 DUP5 PUSH2 0x1CD0 JUMP JUMPDEST PUSH2 0x2000 DUP4 PUSH2 0x19FE JUMP JUMPDEST DUP5 ADD SWAP1 POP SWAP4 SWAP3 POP POP POP JUMP JUMPDEST PUSH0 PUSH2 0x2019 PUSH1 0x20 DUP5 ADD DUP5 PUSH2 0x17D9 JUMP JUMPDEST SWAP1 POP SWAP3 SWAP2 POP POP JUMP JUMPDEST PUSH2 0x202A DUP2 PUSH2 0x17BA JUMP JUMPDEST DUP3 MSTORE POP POP JUMP JUMPDEST PUSH0 PUSH2 0x120 DUP4 ADD PUSH2 0x2042 PUSH0 DUP5 ADD DUP5 PUSH2 0x1F27 JUMP JUMPDEST PUSH2 0x204E PUSH0 DUP7 ADD DUP3 PUSH2 0x1F3D JUMP JUMPDEST POP PUSH2 0x205C PUSH1 0x20 DUP5 ADD DUP5 PUSH2 0x1F4C JUMP JUMPDEST PUSH2 0x2069 PUSH1 0x20 DUP7 ADD DUP3 PUSH2 0x1F62 JUMP JUMPDEST POP PUSH2 0x2077 PUSH1 0x40 DUP5 ADD DUP5 PUSH2 0x1F7D JUMP JUMPDEST DUP6 DUP4 SUB PUSH1 0x40 DUP8 ADD MSTORE PUSH2 0x208A DUP4 DUP3 DUP5 PUSH2 0x1FDF JUMP JUMPDEST SWAP3 POP POP POP PUSH2 0x209B PUSH1 0x60 DUP5 ADD DUP5 PUSH2 0x1F7D JUMP JUMPDEST DUP6 DUP4 SUB PUSH1 0x60 DUP8 ADD MSTORE PUSH2 0x20AE DUP4 DUP3 DUP5 PUSH2 0x1FDF JUMP JUMPDEST SWAP3 POP POP POP PUSH2 0x20BF PUSH1 0x80 DUP5 ADD DUP5 PUSH2 0x200B JUMP JUMPDEST PUSH2 0x20CC PUSH1 0x80 DUP7 ADD DUP3 PUSH2 0x2021 JUMP JUMPDEST POP PUSH2 0x20DA PUSH1 0xA0 DUP5 ADD DUP5 PUSH2 0x1F4C JUMP JUMPDEST PUSH2 0x20E7 PUSH1 0xA0 DUP7 ADD DUP3 PUSH2 0x1F62 JUMP JUMPDEST POP PUSH2 0x20F5 PUSH1 0xC0 DUP5 ADD DUP5 PUSH2 0x200B JUMP JUMPDEST PUSH2 0x2102 PUSH1 0xC0 DUP7 ADD DUP3 PUSH2 0x2021 JUMP JUMPDEST POP PUSH2 0x2110 PUSH1 0xE0 DUP5 ADD DUP5 PUSH2 0x1F7D JUMP JUMPDEST DUP6 DUP4 SUB PUSH1 0xE0 DUP8 ADD MSTORE PUSH2 0x2123 DUP4 DUP3 DUP5 PUSH2 0x1FDF JUMP JUMPDEST SWAP3 POP POP POP PUSH2 0x2135 PUSH2 0x100 DUP5 ADD DUP5 PUSH2 0x1F7D JUMP JUMPDEST DUP6 DUP4 SUB PUSH2 0x100 DUP8 ADD MSTORE PUSH2 0x2149 DUP4 DUP3 DUP5 PUSH2 0x1FDF JUMP JUMPDEST SWAP3 POP POP POP DUP1 SWAP2 POP POP SWAP3 SWAP2 POP POP JUMP JUMPDEST PUSH0 PUSH1 0x40 DUP3 ADD SWAP1 POP DUP2 DUP2 SUB PUSH0 DUP4 ADD MSTORE PUSH2 0x216F DUP2 DUP6 PUSH2 0x2030 JUMP JUMPDEST SWAP1 POP PUSH2 0x217E PUSH1 0x20 DUP4 ADD DUP5 PUSH2 0x1DA6 JUMP JUMPDEST SWAP4 SWAP3 POP POP POP JUMP JUMPDEST PUSH0 DUP2 MLOAD SWAP1 POP PUSH2 0x2193 DUP2 PUSH2 0x1631 JUMP JUMPDEST SWAP3 SWAP2 POP POP JUMP JUMPDEST PUSH0 PUSH1 0x20 DUP3 DUP5 SUB SLT ISZERO PUSH2 0x21AE JUMPI PUSH2 0x21AD PUSH2 0x1620 JUMP JUMPDEST JUMPDEST PUSH0 PUSH2 0x21BB DUP5 DUP3 DUP6 ADD PUSH2 0x2185 JUMP JUMPDEST SWAP2 POP POP SWAP3 SWAP2 POP POP JUMP JUMPDEST PUSH32 0x4E487B7100000000000000000000000000000000000000000000000000000000 PUSH0 MSTORE PUSH1 0x11 PUSH1 0x4 MSTORE PUSH1 0x24 PUSH0 REVERT JUMPDEST PUSH0 PUSH2 0x21FB DUP3 PUSH2 0x1628 JUMP JUMPDEST SWAP2 POP PUSH2 0x2206 DUP4 PUSH2 0x1628 JUMP JUMPDEST SWAP3 POP DUP3 DUP3 ADD SWAP1 POP DUP1 DUP3 GT ISZERO PUSH2 0x221E JUMPI PUSH2 0x221D PUSH2 0x21C4 JUMP JUMPDEST JUMPDEST SWAP3 SWAP2 POP POP JUMP JUMPDEST PUSH0 DUP2 SWAP1 POP SWAP3 SWAP2 POP POP JUMP JUMPDEST PUSH0 PUSH2 0x2239 DUP4 DUP6 PUSH2 0x2224 JUMP JUMPDEST SWAP4 POP PUSH2 0x2246 DUP4 DUP6 DUP5 PUSH2 0x1CD0 JUMP JUMPDEST DUP3 DUP5 ADD SWAP1 POP SWAP4 SWAP3 POP POP POP JUMP JUMPDEST PUSH0 PUSH2 0x225E DUP3 DUP5 DUP7 PUSH2 0x222E JUMP JUMPDEST SWAP2 POP DUP2 SWAP1 POP SWAP4 SWAP3 POP POP POP JUMP JUMPDEST PUSH0 PUSH1 0x20 DUP3 ADD SWAP1 POP DUP2 DUP2 SUB PUSH0 DUP4 ADD MSTORE PUSH2 0x2282 DUP2 DUP5 PUSH2 0x1DC5 JUMP JUMPDEST SWAP1 POP SWAP3 SWAP2 POP POP JUMP JUMPDEST PUSH2 0x2293 DUP2 PUSH2 0x1787 JUMP JUMPDEST DUP2 EQ PUSH2 0x229D JUMPI PUSH0 PUSH0 REVERT JUMPDEST POP JUMP JUMPDEST PUSH0 DUP2 MLOAD SWAP1 POP PUSH2 0x22AE DUP2 PUSH2 0x228A JUMP JUMPDEST SWAP3 SWAP2 POP POP JUMP JUMPDEST PUSH0 PUSH1 0x20 DUP3 DUP5 SUB SLT ISZERO PUSH2 0x22C9 JUMPI PUSH2 0x22C8 PUSH2 0x1620 JUMP JUMPDEST JUMPDEST PUSH0 PUSH2 0x22D6 DUP5 DUP3 DUP6 ADD PUSH2 0x22A0 JUMP JUMPDEST SWAP2 POP POP SWAP3 SWAP2 POP POP JUMP JUMPDEST PUSH0 PUSH2 0x22EA DUP4 DUP6 PUSH2 0x1DB5 JUMP JUMPDEST SWAP4 POP PUSH2 0x22F7 DUP4 DUP6 DUP5 PUSH2 0x1CD0 JUMP JUMPDEST PUSH2 0x2300 DUP4 PUSH2 0x19FE JUMP JUMPDEST DUP5 ADD SWAP1 POP SWAP4 SWAP3 POP POP POP JUMP JUMPDEST PUSH0 PUSH1 0x20 DUP3 ADD SWAP1 POP DUP2 DUP2 SUB PUSH0 DUP4 ADD MSTORE PUSH2 0x2324 DUP2 DUP5 DUP7 PUSH2 0x22DF JUMP JUMPDEST SWAP1 POP SWAP4 SWAP3 POP POP POP JUMP JUMPDEST PUSH0 PUSH1 0x40 DUP3 ADD SWAP1 POP PUSH2 0x2340 PUSH0 DUP4 ADD DUP6 PUSH2 0x192C JUMP JUMPDEST PUSH2 0x234D PUSH1 0x20 DUP4 ADD DUP5 PUSH2 0x1954 JUMP JUMPDEST SWAP4 SWAP3 POP POP POP JUMP JUMPDEST PUSH32 0x4E487B7100000000000000000000000000000000000000000000000000000000 PUSH0 MSTORE PUSH1 0x32 PUSH1 0x4 MSTORE PUSH1 0x24 PUSH0 REVERT JUMPDEST PUSH0 PUSH0 REVERT JUMPDEST PUSH0 PUSH0 REVERT JUMPDEST PUSH0 PUSH0 DUP6 DUP6 GT ISZERO PUSH2 0x239C JUMPI PUSH2 0x239B PUSH2 0x2381 JUMP JUMPDEST JUMPDEST DUP4 DUP7 GT ISZERO PUSH2 0x23AD JUMPI PUSH2 0x23AC PUSH2 0x2385 JUMP JUMPDEST JUMPDEST PUSH1 0x1 DUP6 MUL DUP4 ADD SWAP2 POP DUP5 DUP7 SUB SWAP1 POP SWAP5 POP SWAP5 SWAP3 POP POP POP JUMP JUMPDEST PUSH0 DUP3 SWAP1 POP SWAP3 SWAP2 POP POP JUMP JUMPDEST PUSH0 PUSH32 0xFFFFFFFFFFFFFFFFFFFFFFFFFFFFFFFFFFFFFFFF000000000000000000000000 DUP3 AND SWAP1 POP SWAP2 SWAP1 POP JUMP JUMPDEST PUSH0 DUP3 DUP3 SHL SWAP1 POP SWAP3 SWAP2 POP POP JUMP JUMPDEST PUSH0 PUSH2 0x240F DUP4 DUP4 PUSH2 0x23C3 JUMP JUMPDEST DUP3 PUSH2 0x241A DUP2 CALLDATALOAD PUSH2 0x23CD JUMP JUMPDEST SWAP3 POP PUSH1 0x14 DUP3 LT ISZERO PUSH2 0x245A JUMPI PUSH2 0x2455 PUSH32 0xFFFFFFFFFFFFFFFFFFFFFFFFFFFFFFFFFFFFFFFF000000000000000000000000 DUP4 PUSH1 0x14 SUB PUSH1 0x8 MUL PUSH2 0x23F8 JUMP JUMPDEST DUP4 AND SWAP3 POP JUMPDEST POP POP SWAP3 SWAP2 POP POP JUMP JUMPDEST PUSH0 PUSH2 0x246D DUP4 DUP4 PUSH2 0x23C3 JUMP JUMPDEST DUP3 PUSH2 0x2478 DUP2 CALLDATALOAD PUSH2 0x17BA JUMP JUMPDEST SWAP3 POP PUSH1 0x20 DUP3 LT ISZERO PUSH2 0x24B8 JUMPI PUSH2 0x24B3 PUSH32 0xFFFFFFFFFFFFFFFFFFFFFFFFFFFFFFFFFFFFFFFFFFFFFFFFFFFFFFFFFFFFFFFF DUP4 PUSH1 0x20 SUB PUSH1 0x8 MUL PUSH2 0x23F8 JUMP JUMPDEST DUP4 AND SWAP3 POP JUMPDEST POP POP SWAP3 SWAP2 POP POP JUMP INVALID PUSH21 0x6F66752E6167656E742D736D6172742D77616C6C65 PUSH21 0x2E657263373537392E7631A2646970667358221220 0xCA 0xA6 CALL DUP3 SDIV 0xD2 MLOAD 0xBB ADD ADD DUP3 SWAP7 DUPN 0xC7 0xED MSTORE8 CALLCODE RETF 0x25 DUP12 0x4E SELFDESTRUCT XOR PUSH26 0x686D789E56CCD50564736F6C63430008220033A2646970667358 0x22 SLT KECCAK256 NUMBER PUSH22 0x4B3BDEB04D3D07111BF6FA8F12BC25C184B21D93A64B 0xB6 LOG0 0xA8 0x4B 0x1F PUSH12 0x45E964736F6C634300082200 CALLER "},"methodIdentifiers":{"createWallet(address)":"b054a9e8","entryPoint()":"b0d691fe","wallets(address)":"89b08f11"}}}}}