{"project/contracts/CrossChainDispatcher.sol":{"CrossChainDispatcher":{"abi":[{"inputs":[{"internalType":"address","name":"owner_","type":"address"},{"internalType":"address","name":"xcmPrecompileAddress","type":"address"},{"internalType":"uint256","name":"destinationChainId_","type":"uint256"},{"internalType":"bytes","name":"destination_","type":"bytes"}],"stateMutability":"nonpayable","type":"constructor"},{"inputs":[],"name":"EmptyEncodedMessage","type":"error"},{"inputs":[],"name":"MessageVersionUnset","type":"error"},{"inputs":[],"name":"NotOwner","type":"error"},{"inputs":[],"name":"UnsupportedDestination","type":"error"},{"inputs":[],"name":"UnsupportedReceiver","type":"error"},{"anonymous":false,"inputs":[{"indexed":true,"internalType":"uint256","name":"destinationChainId","type":"uint256"},{"indexed":true,"internalType":"address","name":"receiver","type":"address"},{"indexed":true,"internalType":"address","name":"target","type":"address"},{"indexed":false,"internalType":"bytes32","name":"requestId","type":"bytes32"},{"indexed":false,"internalType":"bytes","name":"message","type":"bytes"}],"name":"CrossChainDispatchQueued","type":"event"},{"anonymous":false,"inputs":[{"indexed":false,"internalType":"bytes","name":"destination","type":"bytes"}],"name":"DestinationUpdated","type":"event"},{"anonymous":false,"inputs":[{"indexed":false,"internalType":"bytes","name":"messagePrefix","type":"bytes"}],"name":"MessagePrefixUpdated","type":"event"},{"anonymous":false,"inputs":[{"indexed":true,"internalType":"address","name":"target","type":"address"},{"indexed":true,"internalType":"bytes32","name":"requestId","type":"bytes32"},{"indexed":false,"internalType":"bytes","name":"destination","type":"bytes"},{"indexed":false,"internalType":"bytes","name":"message","type":"bytes"}],"name":"RawXcmDispatched","type":"event"},{"anonymous":false,"inputs":[{"indexed":true,"internalType":"bytes32","name":"requestId","type":"bytes32"},{"indexed":false,"internalType":"bytes","name":"message","type":"bytes"},{"indexed":false,"internalType":"uint64","name":"refTime","type":"uint64"},{"indexed":false,"internalType":"uint64","name":"proofSize","type":"uint64"}],"name":"RawXcmExecuted","type":"event"},{"anonymous":false,"inputs":[{"indexed":true,"internalType":"address","name":"receiver","type":"address"},{"indexed":false,"internalType":"bool","name":"allowed","type":"bool"}],"name":"ReceiverAllowed","type":"event"},{"inputs":[{"internalType":"address","name":"receiver","type":"address"}],"name":"allowedReceivers","outputs":[{"internalType":"bool","name":"allowed","type":"bool"}],"stateMutability":"view","type":"function"},{"inputs":[],"name":"destination","outputs":[{"internalType":"bytes","name":"","type":"bytes"}],"stateMutability":"view","type":"function"},{"inputs":[{"internalType":"address","name":"target","type":"address"},{"internalType":"bytes32","name":"requestId","type":"bytes32"},{"internalType":"bytes","name":"encodedMessage","type":"bytes"}],"name":"dispatchEncodedMessage","outputs":[],"stateMutability":"nonpayable","type":"function"},{"inputs":[{"components":[{"internalType":"uint256","name":"destinationChainId","type":"uint256"},{"internalType":"address","name":"receiver","type":"address"},{"internalType":"address","name":"target","type":"address"},{"internalType":"uint256","name":"value","type":"uint256"},{"internalType":"bytes","name":"callData","type":"bytes"},{"internalType":"bytes32","name":"requestId","type":"bytes32"}],"internalType":"struct CrossChainDispatcher.RemoteCall","name":"remoteCall","type":"tuple"}],"name":"dispatchRemoteCall","outputs":[],"stateMutability":"nonpayable","type":"function"},{"inputs":[{"components":[{"internalType":"uint256","name":"destinationChainId","type":"uint256"},{"internalType":"address","name":"receiver","type":"address"},{"internalType":"address","name":"target","type":"address"},{"internalType":"uint256","name":"value","type":"uint256"},{"internalType":"bytes","name":"callData","type":"bytes"},{"internalType":"bytes32","name":"requestId","type":"bytes32"}],"internalType":"struct CrossChainDispatcher.RemoteCall","name":"remoteCall","type":"tuple"}],"name":"estimateDispatchWeight","outputs":[{"components":[{"internalType":"uint64","name":"refTime","type":"uint64"},{"internalType":"uint64","name":"proofSize","type":"uint64"}],"internalType":"struct IXcm.Weight","name":"","type":"tuple"}],"stateMutability":"view","type":"function"},{"inputs":[{"internalType":"bytes","name":"message","type":"bytes"}],"name":"estimateEncodedMessageWeight","outputs":[{"components":[{"internalType":"uint64","name":"refTime","type":"uint64"},{"internalType":"uint64","name":"proofSize","type":"uint64"}],"internalType":"struct IXcm.Weight","name":"","type":"tuple"}],"stateMutability":"view","type":"function"},{"inputs":[{"internalType":"bytes32","name":"requestId","type":"bytes32"},{"internalType":"bytes","name":"encodedMessage","type":"bytes"},{"components":[{"internalType":"uint64","name":"refTime","type":"uint64"},{"internalType":"uint64","name":"proofSize","type":"uint64"}],"internalType":"struct IXcm.Weight","name":"weight","type":"tuple"}],"name":"executeEncodedMessage","outputs":[],"stateMutability":"nonpayable","type":"function"},{"inputs":[],"name":"messagePrefix","outputs":[{"internalType":"bytes","name":"","type":"bytes"}],"stateMutability":"view","type":"function"},{"inputs":[],"name":"owner","outputs":[{"internalType":"address","name":"","type":"address"}],"stateMutability":"view","type":"function"},{"inputs":[{"internalType":"address","name":"receiver","type":"address"},{"internalType":"bool","name":"allowed","type":"bool"}],"name":"setAllowedReceiver","outputs":[],"stateMutability":"nonpayable","type":"function"},{"inputs":[{"internalType":"bytes","name":"destination_","type":"bytes"}],"name":"setDestination","outputs":[],"stateMutability":"nonpayable","type":"function"},{"inputs":[{"internalType":"bytes","name":"messagePrefix_","type":"bytes"}],"name":"setMessagePrefix","outputs":[],"stateMutability":"nonpayable","type":"function"},{"inputs":[],"name":"supportedDestinationChainId","outputs":[{"internalType":"uint256","name":"","type":"uint256"}],"stateMutability":"view","type":"function"},{"inputs":[],"name":"xcm","outputs":[{"internalType":"contract IXcm","name":"","type":"address"}],"stateMutability":"view","type":"function"},{"stateMutability":"payable","type":"receive"}],"evm":{"bytecode":{"linkReferences":{},"object":"60e060405234801561000f575f5ffd5b506040516124d23803806124d283398181016040528101906100319190610293565b8373ffffffffffffffffffffffffffffffffffffffff1660808173ffffffffffffffffffffffffffffffffffffffff16815250508273ffffffffffffffffffffffffffffffffffffffff1660a08173ffffffffffffffffffffffffffffffffffffffff16815250508160c08181525050805f90816100af919061052b565b50505050506105fa565b5f604051905090565b5f5ffd5b5f5ffd5b5f73ffffffffffffffffffffffffffffffffffffffff82169050919050565b5f6100f3826100ca565b9050919050565b610103816100e9565b811461010d575f5ffd5b50565b5f8151905061011e816100fa565b92915050565b5f819050919050565b61013681610124565b8114610140575f5ffd5b50565b5f815190506101518161012d565b92915050565b5f5ffd5b5f5ffd5b5f601f19601f8301169050919050565b7f4e487b71000000000000000000000000000000000000000000000000000000005f52604160045260245ffd5b6101a58261015f565b810181811067ffffffffffffffff821117156101c4576101c361016f565b5b80604052505050565b5f6101d66100b9565b90506101e2828261019c565b919050565b5f67ffffffffffffffff8211156102015761020061016f565b5b61020a8261015f565b9050602081019050919050565b8281835e5f83830152505050565b5f610237610232846101e7565b6101cd565b9050828152602081018484840111156102535761025261015b565b5b61025e848285610217565b509392505050565b5f82601f83011261027a57610279610157565b5b815161028a848260208601610225565b91505092915050565b5f5f5f5f608085870312156102ab576102aa6100c2565b5b5f6102b887828801610110565b94505060206102c987828801610110565b93505060406102da87828801610143565b925050606085015167ffffffffffffffff8111156102fb576102fa6100c6565b5b61030787828801610266565b91505092959194509250565b5f81519050919050565b7f4e487b71000000000000000000000000000000000000000000000000000000005f52602260045260245ffd5b5f600282049050600182168061036157607f821691505b6020821081036103745761037361031d565b5b50919050565b5f819050815f5260205f209050919050565b5f6020601f8301049050919050565b5f82821b905092915050565b5f600883026103d67fffffffffffffffffffffffffffffffffffffffffffffffffffffffffffffffff8261039b565b6103e0868361039b565b95508019841693508086168417925050509392505050565b5f819050919050565b5f61041b61041661041184610124565b6103f8565b610124565b9050919050565b5f819050919050565b61043483610401565b61044861044082610422565b8484546103a7565b825550505050565b5f5f905090565b61045f610450565b61046a81848461042b565b505050565b5f5b82811015610490576104855f828401610457565b600181019050610471565b505050565b601f8211156104e357828211156104e2576104af8161037a565b6104b88361038c565b6104c18561038c565b60208610156104ce575f90505b8083016104dd8284038261046f565b505050505b5b505050565b5f82821c905092915050565b5f6105035f19846008026104e8565b1980831691505092915050565b5f61051b83836104f4565b9150826002028217905092915050565b61053482610313565b67ffffffffffffffff81111561054d5761054c61016f565b5b610557825461034a565b610562828285610495565b5f60209050601f831160018114610593575f8415610581578287015190505b61058b8582610510565b8655506105f2565b601f1984166105a18661037a565b5f5b828110156105c8578489015182556001820191506020850194506020810190506105a3565b868310156105e557848901516105e1601f8916826104f4565b8355505b6001600288020188555050505b505050505050565b60805160a05160c051611e5a6106785f395f8181610363015261040c01525f81816105060152818161071d015281816108070152818161097c01528181610b9c0152610ef901525f818161038701528181610625015281816108a8015281816109a001528181610adb01528181610c8d0152610db80152611e5a5ff3fe6080604052600436106100e0575f3560e01c806384f24c4b1161007e578063b269681d11610058578063b269681d146102bf578063b35381d5146102e9578063edb88ae914610311578063f9bf25cb14610339576100e7565b806384f24c4b146102415780638da5cb5b1461026b57806391da2b3d14610295576100e7565b80633cf20025116100ba5780633cf20025146101655780633ea9c157146101a15780634179f977146101dd5780637069b3f014610219576100e7565b806314ecec76146100eb578063227f3dbf146101155780632961ac401461013d576100e7565b366100e757005b5f5ffd5b3480156100f6575f5ffd5b506100ff610361565b60405161010c9190611164565b60405180910390f35b348015610120575f5ffd5b5061013b600480360381019061013691906111b0565b610385565b005b348015610148575f5ffd5b50610163600480360381019061015e9190611258565b610623565b005b348015610170575f5ffd5b5061018b600480360381019061018691906112fd565b6106f6565b6040516101989190611342565b60405180910390f35b3480156101ac575f5ffd5b506101c760048036038101906101c291906111b0565b610713565b6040516101d491906113aa565b60405180910390f35b3480156101e8575f5ffd5b5061020360048036038101906101fe9190611258565b6107c1565b60405161021091906113aa565b60405180910390f35b348015610224575f5ffd5b5061023f600480360381019061023a9190611258565b6108a6565b005b34801561024c575f5ffd5b5061025561097a565b604051610262919061141e565b60405180910390f35b348015610276575f5ffd5b5061027f61099e565b60405161028c9190611446565b60405180910390f35b3480156102a0575f5ffd5b506102a96109c2565b6040516102b691906114cf565b60405180910390f35b3480156102ca575f5ffd5b506102d3610a4e565b6040516102e091906114cf565b60405180910390f35b3480156102f4575f5ffd5b5061030f600480360381019061030a9190611540565b610ad9565b005b34801561031c575f5ffd5b50610337600480360381019061033291906115db565b610c8b565b005b348015610344575f5ffd5b5061035f600480360381019061035a9190611619565b610db6565b005b7f000000000000000000000000000000000000000000000000000000000000000081565b7f000000000000000000000000000000000000000000000000000000000000000073ffffffffffffffffffffffffffffffffffffffff163373ffffffffffffffffffffffffffffffffffffffff161461040a576040517f30cd747100000000000000000000000000000000000000000000000000000000815260040160405180910390fd5b7f0000000000000000000000000000000000000000000000000000000000000000815f013514610466576040517f17ae070d00000000000000000000000000000000000000000000000000000000815260040160405180910390fd5b60025f82602001602081019061047c91906112fd565b73ffffffffffffffffffffffffffffffffffffffff1673ffffffffffffffffffffffffffffffffffffffff1681526020019081526020015f205f9054906101000a900460ff166104f8576040517f75b24d4000000000000000000000000000000000000000000000000000000000815260040160405180910390fd5b5f61050282610fda565b90507f000000000000000000000000000000000000000000000000000000000000000073ffffffffffffffffffffffffffffffffffffffff16637f0a3bf95f836040518363ffffffff1660e01b815260040161055f92919061177a565b5f604051808303815f87803b158015610576575f5ffd5b505af1158015610588573d5f5f3e3d5ffd5b5050505081604001602081019061059f91906112fd565b73ffffffffffffffffffffffffffffffffffffffff168260200160208101906105c891906112fd565b73ffffffffffffffffffffffffffffffffffffffff16835f01357f4682719d4b819c8c93522a2e9d723fd732be1b4a8a9241b29ce8a05d471220c38560a00135856040516106179291906117be565b60405180910390a45050565b7f000000000000000000000000000000000000000000000000000000000000000073ffffffffffffffffffffffffffffffffffffffff163373ffffffffffffffffffffffffffffffffffffffff16146106a8576040517f30cd747100000000000000000000000000000000000000000000000000000000815260040160405180910390fd5b81815f91826106b89291906119b9565b507f2eef771d6450acfb697f090cda89bae92577d0abb72a367c2cc0bb16a87b0af782826040516106ea929190611ac0565b60405180910390a15050565b6002602052805f5260405f205f915054906101000a900460ff1681565b61071b611120565b7f000000000000000000000000000000000000000000000000000000000000000073ffffffffffffffffffffffffffffffffffffffff166347400c2361076084610fda565b6040518263ffffffff1660e01b815260040161077c91906114cf565b6040805180830381865afa158015610796573d5f5f3e3d5ffd5b505050506040513d601f19601f820116820180604052508101906107ba9190611ba8565b9050919050565b6107c9611120565b5f8383905003610805576040517f3ac3605e00000000000000000000000000000000000000000000000000000000815260040160405180910390fd5b7f000000000000000000000000000000000000000000000000000000000000000073ffffffffffffffffffffffffffffffffffffffff166347400c2384846040518363ffffffff1660e01b8152600401610860929190611ac0565b6040805180830381865afa15801561087a573d5f5f3e3d5ffd5b505050506040513d601f19601f8201168201806040525081019061089e9190611ba8565b905092915050565b7f000000000000000000000000000000000000000000000000000000000000000073ffffffffffffffffffffffffffffffffffffffff163373ffffffffffffffffffffffffffffffffffffffff161461092b576040517f30cd747100000000000000000000000000000000000000000000000000000000815260040160405180910390fd5b81816001918261093c9291906119b9565b507fe0a85ced86c6479c5b212cc6129bc8f573c2a391e84df013c161b0b228e44b11828260405161096e929190611ac0565b60405180910390a15050565b7f000000000000000000000000000000000000000000000000000000000000000081565b7f000000000000000000000000000000000000000000000000000000000000000081565b600180546109cf906116b7565b80601f01602080910402602001604051908101604052809291908181526020018280546109fb906116b7565b8015610a465780601f10610a1d57610100808354040283529160200191610a46565b820191905f5260205f20905b815481529060010190602001808311610a2957829003601f168201915b505050505081565b5f8054610a5a906116b7565b80601f0160208091040260200160405190810160405280929190818152602001828054610a86906116b7565b8015610ad15780601f10610aa857610100808354040283529160200191610ad1565b820191905f5260205f20905b815481529060010190602001808311610ab457829003601f168201915b505050505081565b7f000000000000000000000000000000000000000000000000000000000000000073ffffffffffffffffffffffffffffffffffffffff163373ffffffffffffffffffffffffffffffffffffffff1614610b5e576040517f30cd747100000000000000000000000000000000000000000000000000000000815260040160405180910390fd5b5f8383905003610b9a576040517f3ac3605e00000000000000000000000000000000000000000000000000000000815260040160405180910390fd5b7f000000000000000000000000000000000000000000000000000000000000000073ffffffffffffffffffffffffffffffffffffffff1663d3b7e04d8484846040518463ffffffff1660e01b8152600401610bf793929190611c3a565b5f604051808303815f87803b158015610c0e575f5ffd5b505af1158015610c20573d5f5f3e3d5ffd5b50505050837fd97249a22320e6b7b136797455b1f7b70c622ba805092c112a12995f8e5b827c8484845f016020810190610c5a9190611c6a565b856020016020810190610c6d9190611c6a565b604051610c7d9493929190611ca4565b60405180910390a250505050565b7f000000000000000000000000000000000000000000000000000000000000000073ffffffffffffffffffffffffffffffffffffffff163373ffffffffffffffffffffffffffffffffffffffff1614610d10576040517f30cd747100000000000000000000000000000000000000000000000000000000815260040160405180910390fd5b8060025f8473ffffffffffffffffffffffffffffffffffffffff1673ffffffffffffffffffffffffffffffffffffffff1681526020019081526020015f205f6101000a81548160ff0219169083151502179055508173ffffffffffffffffffffffffffffffffffffffff167f17e84c0e5b25523e0a7ec98f79c222755e02808eb019e4973f861c947775d50982604051610daa9190611342565b60405180910390a25050565b7f000000000000000000000000000000000000000000000000000000000000000073ffffffffffffffffffffffffffffffffffffffff163373ffffffffffffffffffffffffffffffffffffffff1614610e3b576040517f30cd747100000000000000000000000000000000000000000000000000000000815260040160405180910390fd5b60025f8573ffffffffffffffffffffffffffffffffffffffff1673ffffffffffffffffffffffffffffffffffffffff1681526020019081526020015f205f9054906101000a900460ff16610ebb576040517f75b24d4000000000000000000000000000000000000000000000000000000000815260040160405180910390fd5b5f8282905003610ef7576040517f3ac3605e00000000000000000000000000000000000000000000000000000000815260040160405180910390fd5b7f000000000000000000000000000000000000000000000000000000000000000073ffffffffffffffffffffffffffffffffffffffff16637f0a3bf95f84846040518463ffffffff1660e01b8152600401610f5493929190611ce2565b5f604051808303815f87803b158015610f6b575f5ffd5b505af1158015610f7d573d5f5f3e3d5ffd5b50505050828473ffffffffffffffffffffffffffffffffffffffff167f8e56c7ef220b0b56ca71b24d43706b91366675f89072a0d646b149e9e20bff6b5f8585604051610fcc93929190611ce2565b60405180910390a350505050565b60605f60018054610fea906116b7565b905003611023576040517f6c44024200000000000000000000000000000000000000000000000000000000815260040160405180910390fd5b600182602001602081019061103891906112fd565b3084604001602081019061104c91906112fd565b85606001358680608001906110619190611d25565b8860a0013560405160240161107b96959493929190611d87565b6040516020818303038152906040527f86249f12000000000000000000000000000000000000000000000000000000007bffffffffffffffffffffffffffffffffffffffffffffffffffffffff19166020820180517bffffffffffffffffffffffffffffffffffffffffffffffffffffffff838183161783525050505060405160200161110a93929190611de1565b6040516020818303038152906040529050919050565b60405180604001604052805f67ffffffffffffffff1681526020015f67ffffffffffffffff1681525090565b5f819050919050565b61115e8161114c565b82525050565b5f6020820190506111775f830184611155565b92915050565b5f604051905090565b5f5ffd5b5f5ffd5b5f5ffd5b5f60c082840312156111a7576111a661118e565b5b81905092915050565b5f602082840312156111c5576111c4611186565b5b5f82013567ffffffffffffffff8111156111e2576111e161118a565b5b6111ee84828501611192565b91505092915050565b5f5ffd5b5f5ffd5b5f5ffd5b5f5f83601f840112611218576112176111f7565b5b8235905067ffffffffffffffff811115611235576112346111fb565b5b602083019150836001820283011115611251576112506111ff565b5b9250929050565b5f5f6020838503121561126e5761126d611186565b5b5f83013567ffffffffffffffff81111561128b5761128a61118a565b5b61129785828601611203565b92509250509250929050565b5f73ffffffffffffffffffffffffffffffffffffffff82169050919050565b5f6112cc826112a3565b9050919050565b6112dc816112c2565b81146112e6575f5ffd5b50565b5f813590506112f7816112d3565b92915050565b5f6020828403121561131257611311611186565b5b5f61131f848285016112e9565b91505092915050565b5f8115159050919050565b61133c81611328565b82525050565b5f6020820190506113555f830184611333565b92915050565b5f67ffffffffffffffff82169050919050565b6113778161135b565b82525050565b604082015f8201516113915f85018261136e565b5060208201516113a4602085018261136e565b50505050565b5f6040820190506113bd5f83018461137d565b92915050565b5f819050919050565b5f6113e66113e16113dc846112a3565b6113c3565b6112a3565b9050919050565b5f6113f7826113cc565b9050919050565b5f611408826113ed565b9050919050565b611418816113fe565b82525050565b5f6020820190506114315f83018461140f565b92915050565b611440816112c2565b82525050565b5f6020820190506114595f830184611437565b92915050565b5f81519050919050565b5f82825260208201905092915050565b8281835e5f83830152505050565b5f601f19601f8301169050919050565b5f6114a18261145f565b6114ab8185611469565b93506114bb818560208601611479565b6114c481611487565b840191505092915050565b5f6020820190508181035f8301526114e78184611497565b905092915050565b5f819050919050565b611501816114ef565b811461150b575f5ffd5b50565b5f8135905061151c816114f8565b92915050565b5f604082840312156115375761153661118e565b5b81905092915050565b5f5f5f5f6080858703121561155857611557611186565b5b5f6115658782880161150e565b945050602085013567ffffffffffffffff8111156115865761158561118a565b5b61159287828801611203565b935093505060406115a587828801611522565b91505092959194509250565b6115ba81611328565b81146115c4575f5ffd5b50565b5f813590506115d5816115b1565b92915050565b5f5f604083850312156115f1576115f0611186565b5b5f6115fe858286016112e9565b925050602061160f858286016115c7565b9150509250929050565b5f5f5f5f6060858703121561163157611630611186565b5b5f61163e878288016112e9565b945050602061164f8782880161150e565b935050604085013567ffffffffffffffff8111156116705761166f61118a565b5b61167c87828801611203565b925092505092959194509250565b7f4e487b71000000000000000000000000000000000000000000000000000000005f52602260045260245ffd5b5f60028204905060018216806116ce57607f821691505b6020821081036116e1576116e061168a565b5b50919050565b5f819050815f5260205f209050919050565b5f8154611705816116b7565b61170f8186611469565b9450600182165f8114611729576001811461173f57611771565b60ff198316865281151560200286019350611771565b611748856116e7565b5f5b838110156117695781548189015260018201915060208101905061174a565b808801955050505b50505092915050565b5f6040820190508181035f83015261179281856116f9565b905081810360208301526117a68184611497565b90509392505050565b6117b8816114ef565b82525050565b5f6040820190506117d15f8301856117af565b81810360208301526117e38184611497565b90509392505050565b5f82905092915050565b7f4e487b71000000000000000000000000000000000000000000000000000000005f52604160045260245ffd5b5f6020601f8301049050919050565b5f82821b905092915050565b5f6008830261186d7fffffffffffffffffffffffffffffffffffffffffffffffffffffffffffffffff82611832565b6118778683611832565b95508019841693508086168417925050509392505050565b5f6118a96118a461189f8461114c565b6113c3565b61114c565b9050919050565b5f819050919050565b6118c28361188f565b6118d66118ce826118b0565b84845461183e565b825550505050565b5f5f905090565b6118ed6118de565b6118f88184846118b9565b505050565b5f5b8281101561191e576119135f8284016118e5565b6001810190506118ff565b505050565b601f82111561197157828211156119705761193d816116e7565b61194683611823565b61194f85611823565b602086101561195c575f90505b80830161196b828403826118fd565b505050505b5b505050565b5f82821c905092915050565b5f6119915f1984600802611976565b1980831691505092915050565b5f6119a98383611982565b9150826002028217905092915050565b6119c383836117ec565b67ffffffffffffffff8111156119dc576119db6117f6565b5b6119e682546116b7565b6119f1828285611923565b5f601f831160018114611a1e575f8415611a0c578287013590505b611a16858261199e565b865550611a7d565b601f198416611a2c866116e7565b5f5b82811015611a5357848901358255600182019150602085019450602081019050611a2e565b86831015611a705784890135611a6c601f891682611982565b8355505b6001600288020188555050505b50505050505050565b828183375f83830152505050565b5f611a9f8385611469565b9350611aac838584611a86565b611ab583611487565b840190509392505050565b5f6020820190508181035f830152611ad9818486611a94565b90509392505050565b5f5ffd5b611aef82611487565b810181811067ffffffffffffffff82111715611b0e57611b0d6117f6565b5b80604052505050565b5f611b2061117d565b9050611b2c8282611ae6565b919050565b611b3a8161135b565b8114611b44575f5ffd5b50565b5f81519050611b5581611b31565b92915050565b5f60408284031215611b7057611b6f611ae2565b5b611b7a6040611b17565b90505f611b8984828501611b47565b5f830152506020611b9c84828501611b47565b60208301525092915050565b5f60408284031215611bbd57611bbc611186565b5b5f611bca84828501611b5b565b91505092915050565b5f81359050611be181611b31565b92915050565b5f611bf56020840184611bd3565b905092915050565b60408201611c0d5f830183611be7565b611c195f85018261136e565b50611c276020830183611be7565b611c34602085018261136e565b50505050565b5f6060820190508181035f830152611c53818587611a94565b9050611c626020830184611bfd565b949350505050565b5f60208284031215611c7f57611c7e611186565b5b5f611c8c84828501611bd3565b91505092915050565b611c9e8161135b565b82525050565b5f6060820190508181035f830152611cbd818688611a94565b9050611ccc6020830185611c95565b611cd96040830184611c95565b95945050505050565b5f6040820190508181035f830152611cfa81866116f9565b90508181036020830152611d0f818486611a94565b9050949350505050565b5f5ffd5b5f5ffd5b5f5ffd5b5f5f83356001602003843603038112611d4157611d40611d19565b5b80840192508235915067ffffffffffffffff821115611d6357611d62611d1d565b5b602083019250600182023603831315611d7f57611d7e611d21565b5b509250929050565b5f60a082019050611d9a5f830189611437565b611da76020830188611437565b611db46040830187611155565b8181036060830152611dc7818587611a94565b9050611dd660808301846117af565b979650505050505050565b5f6060820190508181035f830152611df981866116f9565b9050611e086020830185611437565b8181036040830152611e1a8184611497565b905094935050505056fea26469706673582212209c58c85eae11c62e7368f53989748b2db2d21567fe7adefaf74b62e2c395dcbd64736f6c63430008220033","opcodes":"PUSH1 0xE0 PUSH1 0x40 MSTORE CALLVALUE DUP1 ISZERO PUSH2 0xF JUMPI PUSH0 PUSH0 REVERT JUMPDEST POP PUSH1 0x40 MLOAD PUSH2 0x24D2 CODESIZE SUB DUP1 PUSH2 0x24D2 DUP4 CODECOPY DUP2 DUP2 ADD PUSH1 0x40 MSTORE DUP2 ADD SWAP1 PUSH2 0x31 SWAP2 SWAP1 PUSH2 0x293 JUMP JUMPDEST DUP4 PUSH20 0xFFFFFFFFFFFFFFFFFFFFFFFFFFFFFFFFFFFFFFFF AND PUSH1 0x80 DUP2 PUSH20 0xFFFFFFFFFFFFFFFFFFFFFFFFFFFFFFFFFFFFFFFF AND DUP2 MSTORE POP POP DUP3 PUSH20 0xFFFFFFFFFFFFFFFFFFFFFFFFFFFFFFFFFFFFFFFF AND PUSH1 0xA0 DUP2 PUSH20 0xFFFFFFFFFFFFFFFFFFFFFFFFFFFFFFFFFFFFFFFF AND DUP2 MSTORE POP POP DUP2 PUSH1 0xC0 DUP2 DUP2 MSTORE POP POP DUP1 PUSH0 SWAP1 DUP2 PUSH2 0xAF SWAP2 SWAP1 PUSH2 0x52B JUMP JUMPDEST POP POP POP POP POP PUSH2 0x5FA JUMP JUMPDEST PUSH0 PUSH1 0x40 MLOAD SWAP1 POP SWAP1 JUMP JUMPDEST PUSH0 PUSH0 REVERT JUMPDEST PUSH0 PUSH0 REVERT JUMPDEST PUSH0 PUSH20 0xFFFFFFFFFFFFFFFFFFFFFFFFFFFFFFFFFFFFFFFF DUP3 AND SWAP1 POP SWAP2 SWAP1 POP JUMP JUMPDEST PUSH0 PUSH2 0xF3 DUP3 PUSH2 0xCA JUMP JUMPDEST SWAP1 POP SWAP2 SWAP1 POP JUMP JUMPDEST PUSH2 0x103 DUP2 PUSH2 0xE9 JUMP JUMPDEST DUP2 EQ PUSH2 0x10D JUMPI PUSH0 PUSH0 REVERT JUMPDEST POP JUMP JUMPDEST PUSH0 DUP2 MLOAD SWAP1 POP PUSH2 0x11E DUP2 PUSH2 0xFA JUMP JUMPDEST SWAP3 SWAP2 POP POP JUMP JUMPDEST PUSH0 DUP2 SWAP1 POP SWAP2 SWAP1 POP JUMP JUMPDEST PUSH2 0x136 DUP2 PUSH2 0x124 JUMP JUMPDEST DUP2 EQ PUSH2 0x140 JUMPI PUSH0 PUSH0 REVERT JUMPDEST POP JUMP JUMPDEST PUSH0 DUP2 MLOAD SWAP1 POP PUSH2 0x151 DUP2 PUSH2 0x12D JUMP JUMPDEST SWAP3 SWAP2 POP POP JUMP JUMPDEST PUSH0 PUSH0 REVERT JUMPDEST PUSH0 PUSH0 REVERT JUMPDEST PUSH0 PUSH1 0x1F NOT PUSH1 0x1F DUP4 ADD AND SWAP1 POP SWAP2 SWAP1 POP JUMP JUMPDEST PUSH32 0x4E487B7100000000000000000000000000000000000000000000000000000000 PUSH0 MSTORE PUSH1 0x41 PUSH1 0x4 MSTORE PUSH1 0x24 PUSH0 REVERT JUMPDEST PUSH2 0x1A5 DUP3 PUSH2 0x15F JUMP JUMPDEST DUP2 ADD DUP2 DUP2 LT PUSH8 0xFFFFFFFFFFFFFFFF DUP3 GT OR ISZERO PUSH2 0x1C4 JUMPI PUSH2 0x1C3 PUSH2 0x16F JUMP JUMPDEST JUMPDEST DUP1 PUSH1 0x40 MSTORE POP POP POP JUMP JUMPDEST PUSH0 PUSH2 0x1D6 PUSH2 0xB9 JUMP JUMPDEST SWAP1 POP PUSH2 0x1E2 DUP3 DUP3 PUSH2 0x19C JUMP JUMPDEST SWAP2 SWAP1 POP JUMP JUMPDEST PUSH0 PUSH8 0xFFFFFFFFFFFFFFFF DUP3 GT ISZERO PUSH2 0x201 JUMPI PUSH2 0x200 PUSH2 0x16F JUMP JUMPDEST JUMPDEST PUSH2 0x20A DUP3 PUSH2 0x15F JUMP JUMPDEST SWAP1 POP PUSH1 0x20 DUP2 ADD SWAP1 POP SWAP2 SWAP1 POP JUMP JUMPDEST DUP3 DUP2 DUP4 MCOPY PUSH0 DUP4 DUP4 ADD MSTORE POP POP POP JUMP JUMPDEST PUSH0 PUSH2 0x237 PUSH2 0x232 DUP5 PUSH2 0x1E7 JUMP JUMPDEST PUSH2 0x1CD JUMP JUMPDEST SWAP1 POP DUP3 DUP2 MSTORE PUSH1 0x20 DUP2 ADD DUP5 DUP5 DUP5 ADD GT ISZERO PUSH2 0x253 JUMPI PUSH2 0x252 PUSH2 0x15B JUMP JUMPDEST JUMPDEST PUSH2 0x25E DUP5 DUP3 DUP6 PUSH2 0x217 JUMP JUMPDEST POP SWAP4 SWAP3 POP POP POP JUMP JUMPDEST PUSH0 DUP3 PUSH1 0x1F DUP4 ADD SLT PUSH2 0x27A JUMPI PUSH2 0x279 PUSH2 0x157 JUMP JUMPDEST JUMPDEST DUP2 MLOAD PUSH2 0x28A DUP5 DUP3 PUSH1 0x20 DUP7 ADD PUSH2 0x225 JUMP JUMPDEST SWAP2 POP POP SWAP3 SWAP2 POP POP JUMP JUMPDEST PUSH0 PUSH0 PUSH0 PUSH0 PUSH1 0x80 DUP6 DUP8 SUB SLT ISZERO PUSH2 0x2AB JUMPI PUSH2 0x2AA PUSH2 0xC2 JUMP JUMPDEST JUMPDEST PUSH0 PUSH2 0x2B8 DUP8 DUP3 DUP9 ADD PUSH2 0x110 JUMP JUMPDEST SWAP5 POP POP PUSH1 0x20 PUSH2 0x2C9 DUP8 DUP3 DUP9 ADD PUSH2 0x110 JUMP JUMPDEST SWAP4 POP POP PUSH1 0x40 PUSH2 0x2DA DUP8 DUP3 DUP9 ADD PUSH2 0x143 JUMP JUMPDEST SWAP3 POP POP PUSH1 0x60 DUP6 ADD MLOAD PUSH8 0xFFFFFFFFFFFFFFFF DUP2 GT ISZERO PUSH2 0x2FB JUMPI PUSH2 0x2FA PUSH2 0xC6 JUMP JUMPDEST JUMPDEST PUSH2 0x307 DUP8 DUP3 DUP9 ADD PUSH2 0x266 JUMP JUMPDEST SWAP2 POP POP SWAP3 SWAP6 SWAP2 SWAP5 POP SWAP3 POP JUMP JUMPDEST PUSH0 DUP2 MLOAD SWAP1 POP SWAP2 SWAP1 POP JUMP JUMPDEST PUSH32 0x4E487B7100000000000000000000000000000000000000000000000000000000 PUSH0 MSTORE PUSH1 0x22 PUSH1 0x4 MSTORE PUSH1 0x24 PUSH0 REVERT JUMPDEST PUSH0 PUSH1 0x2 DUP3 DIV SWAP1 POP PUSH1 0x1 DUP3 AND DUP1 PUSH2 0x361 JUMPI PUSH1 0x7F DUP3 AND SWAP2 POP JUMPDEST PUSH1 0x20 DUP3 LT DUP2 SUB PUSH2 0x374 JUMPI PUSH2 0x373 PUSH2 0x31D JUMP JUMPDEST JUMPDEST POP SWAP2 SWAP1 POP JUMP JUMPDEST PUSH0 DUP2 SWAP1 POP DUP2 PUSH0 MSTORE PUSH1 0x20 PUSH0 KECCAK256 SWAP1 POP SWAP2 SWAP1 POP JUMP JUMPDEST PUSH0 PUSH1 0x20 PUSH1 0x1F DUP4 ADD DIV SWAP1 POP SWAP2 SWAP1 POP JUMP JUMPDEST PUSH0 DUP3 DUP3 SHL SWAP1 POP SWAP3 SWAP2 POP POP JUMP JUMPDEST PUSH0 PUSH1 0x8 DUP4 MUL PUSH2 0x3D6 PUSH32 0xFFFFFFFFFFFFFFFFFFFFFFFFFFFFFFFFFFFFFFFFFFFFFFFFFFFFFFFFFFFFFFFF DUP3 PUSH2 0x39B JUMP JUMPDEST PUSH2 0x3E0 DUP7 DUP4 PUSH2 0x39B JUMP JUMPDEST SWAP6 POP DUP1 NOT DUP5 AND SWAP4 POP DUP1 DUP7 AND DUP5 OR SWAP3 POP POP POP SWAP4 SWAP3 POP POP POP JUMP JUMPDEST PUSH0 DUP2 SWAP1 POP SWAP2 SWAP1 POP JUMP JUMPDEST PUSH0 PUSH2 0x41B PUSH2 0x416 PUSH2 0x411 DUP5 PUSH2 0x124 JUMP JUMPDEST PUSH2 0x3F8 JUMP JUMPDEST PUSH2 0x124 JUMP JUMPDEST SWAP1 POP SWAP2 SWAP1 POP JUMP JUMPDEST PUSH0 DUP2 SWAP1 POP SWAP2 SWAP1 POP JUMP JUMPDEST PUSH2 0x434 DUP4 PUSH2 0x401 JUMP JUMPDEST PUSH2 0x448 PUSH2 0x440 DUP3 PUSH2 0x422 JUMP JUMPDEST DUP5 DUP5 SLOAD PUSH2 0x3A7 JUMP JUMPDEST DUP3 SSTORE POP POP POP POP JUMP JUMPDEST PUSH0 PUSH0 SWAP1 POP SWAP1 JUMP JUMPDEST PUSH2 0x45F PUSH2 0x450 JUMP JUMPDEST PUSH2 0x46A DUP2 DUP5 DUP5 PUSH2 0x42B JUMP JUMPDEST POP POP POP JUMP JUMPDEST PUSH0 JUMPDEST DUP3 DUP2 LT ISZERO PUSH2 0x490 JUMPI PUSH2 0x485 PUSH0 DUP3 DUP5 ADD PUSH2 0x457 JUMP JUMPDEST PUSH1 0x1 DUP2 ADD SWAP1 POP PUSH2 0x471 JUMP JUMPDEST POP POP POP JUMP JUMPDEST PUSH1 0x1F DUP3 GT ISZERO PUSH2 0x4E3 JUMPI DUP3 DUP3 GT ISZERO PUSH2 0x4E2 JUMPI PUSH2 0x4AF DUP2 PUSH2 0x37A JUMP JUMPDEST PUSH2 0x4B8 DUP4 PUSH2 0x38C JUMP JUMPDEST PUSH2 0x4C1 DUP6 PUSH2 0x38C JUMP JUMPDEST PUSH1 0x20 DUP7 LT ISZERO PUSH2 0x4CE JUMPI PUSH0 SWAP1 POP JUMPDEST DUP1 DUP4 ADD PUSH2 0x4DD DUP3 DUP5 SUB DUP3 PUSH2 0x46F JUMP JUMPDEST POP POP POP POP JUMPDEST JUMPDEST POP POP POP JUMP JUMPDEST PUSH0 DUP3 DUP3 SHR SWAP1 POP SWAP3 SWAP2 POP POP JUMP JUMPDEST PUSH0 PUSH2 0x503 PUSH0 NOT DUP5 PUSH1 0x8 MUL PUSH2 0x4E8 JUMP JUMPDEST NOT DUP1 DUP4 AND SWAP2 POP POP SWAP3 SWAP2 POP POP JUMP JUMPDEST PUSH0 PUSH2 0x51B DUP4 DUP4 PUSH2 0x4F4 JUMP JUMPDEST SWAP2 POP DUP3 PUSH1 0x2 MUL DUP3 OR SWAP1 POP SWAP3 SWAP2 POP POP JUMP JUMPDEST PUSH2 0x534 DUP3 PUSH2 0x313 JUMP JUMPDEST PUSH8 0xFFFFFFFFFFFFFFFF DUP2 GT ISZERO PUSH2 0x54D JUMPI PUSH2 0x54C PUSH2 0x16F JUMP JUMPDEST JUMPDEST PUSH2 0x557 DUP3 SLOAD PUSH2 0x34A JUMP JUMPDEST PUSH2 0x562 DUP3 DUP3 DUP6 PUSH2 0x495 JUMP JUMPDEST PUSH0 PUSH1 0x20 SWAP1 POP PUSH1 0x1F DUP4 GT PUSH1 0x1 DUP2 EQ PUSH2 0x593 JUMPI PUSH0 DUP5 ISZERO PUSH2 0x581 JUMPI DUP3 DUP8 ADD MLOAD SWAP1 POP JUMPDEST PUSH2 0x58B DUP6 DUP3 PUSH2 0x510 JUMP JUMPDEST DUP7 SSTORE POP PUSH2 0x5F2 JUMP JUMPDEST PUSH1 0x1F NOT DUP5 AND PUSH2 0x5A1 DUP7 PUSH2 0x37A JUMP JUMPDEST PUSH0 JUMPDEST DUP3 DUP2 LT ISZERO PUSH2 0x5C8 JUMPI DUP5 DUP10 ADD MLOAD DUP3 SSTORE PUSH1 0x1 DUP3 ADD SWAP2 POP PUSH1 0x20 DUP6 ADD SWAP5 POP PUSH1 0x20 DUP2 ADD SWAP1 POP PUSH2 0x5A3 JUMP JUMPDEST DUP7 DUP4 LT ISZERO PUSH2 0x5E5 JUMPI DUP5 DUP10 ADD MLOAD PUSH2 0x5E1 PUSH1 0x1F DUP10 AND DUP3 PUSH2 0x4F4 JUMP JUMPDEST DUP4 SSTORE POP JUMPDEST PUSH1 0x1 PUSH1 0x2 DUP9 MUL ADD DUP9 SSTORE POP POP POP JUMPDEST POP POP POP POP POP POP JUMP JUMPDEST PUSH1 0x80 MLOAD PUSH1 0xA0 MLOAD PUSH1 0xC0 MLOAD PUSH2 0x1E5A PUSH2 0x678 PUSH0 CODECOPY PUSH0 DUP2 DUP2 PUSH2 0x363 ADD MSTORE PUSH2 0x40C ADD MSTORE PUSH0 DUP2 DUP2 PUSH2 0x506 ADD MSTORE DUP2 DUP2 PUSH2 0x71D ADD MSTORE DUP2 DUP2 PUSH2 0x807 ADD MSTORE DUP2 DUP2 PUSH2 0x97C ADD MSTORE DUP2 DUP2 PUSH2 0xB9C ADD MSTORE PUSH2 0xEF9 ADD MSTORE PUSH0 DUP2 DUP2 PUSH2 0x387 ADD MSTORE DUP2 DUP2 PUSH2 0x625 ADD MSTORE DUP2 DUP2 PUSH2 0x8A8 ADD MSTORE DUP2 DUP2 PUSH2 0x9A0 ADD MSTORE DUP2 DUP2 PUSH2 0xADB ADD MSTORE DUP2 DUP2 PUSH2 0xC8D ADD MSTORE PUSH2 0xDB8 ADD MSTORE PUSH2 0x1E5A PUSH0 RETURN INVALID PUSH1 0x80 PUSH1 0x40 MSTORE PUSH1 0x4 CALLDATASIZE LT PUSH2 0xE0 JUMPI PUSH0 CALLDATALOAD PUSH1 0xE0 SHR DUP1 PUSH4 0x84F24C4B GT PUSH2 0x7E JUMPI DUP1 PUSH4 0xB269681D GT PUSH2 0x58 JUMPI DUP1 PUSH4 0xB269681D EQ PUSH2 0x2BF JUMPI DUP1 PUSH4 0xB35381D5 EQ PUSH2 0x2E9 JUMPI DUP1 PUSH4 0xEDB88AE9 EQ PUSH2 0x311 JUMPI DUP1 PUSH4 0xF9BF25CB EQ PUSH2 0x339 JUMPI PUSH2 0xE7 JUMP JUMPDEST DUP1 PUSH4 0x84F24C4B EQ PUSH2 0x241 JUMPI DUP1 PUSH4 0x8DA5CB5B EQ PUSH2 0x26B JUMPI DUP1 PUSH4 0x91DA2B3D EQ PUSH2 0x295 JUMPI PUSH2 0xE7 JUMP JUMPDEST DUP1 PUSH4 0x3CF20025 GT PUSH2 0xBA JUMPI DUP1 PUSH4 0x3CF20025 EQ PUSH2 0x165 JUMPI DUP1 PUSH4 0x3EA9C157 EQ PUSH2 0x1A1 JUMPI DUP1 PUSH4 0x4179F977 EQ PUSH2 0x1DD JUMPI DUP1 PUSH4 0x7069B3F0 EQ PUSH2 0x219 JUMPI PUSH2 0xE7 JUMP JUMPDEST DUP1 PUSH4 0x14ECEC76 EQ PUSH2 0xEB JUMPI DUP1 PUSH4 0x227F3DBF EQ PUSH2 0x115 JUMPI DUP1 PUSH4 0x2961AC40 EQ PUSH2 0x13D JUMPI PUSH2 0xE7 JUMP JUMPDEST CALLDATASIZE PUSH2 0xE7 JUMPI STOP JUMPDEST PUSH0 PUSH0 REVERT JUMPDEST CALLVALUE DUP1 ISZERO PUSH2 0xF6 JUMPI PUSH0 PUSH0 REVERT JUMPDEST POP PUSH2 0xFF PUSH2 0x361 JUMP JUMPDEST PUSH1 0x40 MLOAD PUSH2 0x10C SWAP2 SWAP1 PUSH2 0x1164 JUMP JUMPDEST PUSH1 0x40 MLOAD DUP1 SWAP2 SUB SWAP1 RETURN JUMPDEST CALLVALUE DUP1 ISZERO PUSH2 0x120 JUMPI PUSH0 PUSH0 REVERT JUMPDEST POP PUSH2 0x13B PUSH1 0x4 DUP1 CALLDATASIZE SUB DUP2 ADD SWAP1 PUSH2 0x136 SWAP2 SWAP1 PUSH2 0x11B0 JUMP JUMPDEST PUSH2 0x385 JUMP JUMPDEST STOP JUMPDEST CALLVALUE DUP1 ISZERO PUSH2 0x148 JUMPI PUSH0 PUSH0 REVERT JUMPDEST POP PUSH2 0x163 PUSH1 0x4 DUP1 CALLDATASIZE SUB DUP2 ADD SWAP1 PUSH2 0x15E SWAP2 SWAP1 PUSH2 0x1258 JUMP JUMPDEST PUSH2 0x623 JUMP JUMPDEST STOP JUMPDEST CALLVALUE DUP1 ISZERO PUSH2 0x170 JUMPI PUSH0 PUSH0 REVERT JUMPDEST POP PUSH2 0x18B PUSH1 0x4 DUP1 CALLDATASIZE SUB DUP2 ADD SWAP1 PUSH2 0x186 SWAP2 SWAP1 PUSH2 0x12FD JUMP JUMPDEST PUSH2 0x6F6 JUMP JUMPDEST PUSH1 0x40 MLOAD PUSH2 0x198 SWAP2 SWAP1 PUSH2 0x1342 JUMP JUMPDEST PUSH1 0x40 MLOAD DUP1 SWAP2 SUB SWAP1 RETURN JUMPDEST CALLVALUE DUP1 ISZERO PUSH2 0x1AC JUMPI PUSH0 PUSH0 REVERT JUMPDEST POP PUSH2 0x1C7 PUSH1 0x4 DUP1 CALLDATASIZE SUB DUP2 ADD SWAP1 PUSH2 0x1C2 SWAP2 SWAP1 PUSH2 0x11B0 JUMP JUMPDEST PUSH2 0x713 JUMP JUMPDEST PUSH1 0x40 MLOAD PUSH2 0x1D4 SWAP2 SWAP1 PUSH2 0x13AA JUMP JUMPDEST PUSH1 0x40 MLOAD DUP1 SWAP2 SUB SWAP1 RETURN JUMPDEST CALLVALUE DUP1 ISZERO PUSH2 0x1E8 JUMPI PUSH0 PUSH0 REVERT JUMPDEST POP PUSH2 0x203 PUSH1 0x4 DUP1 CALLDATASIZE SUB DUP2 ADD SWAP1 PUSH2 0x1FE SWAP2 SWAP1 PUSH2 0x1258 JUMP JUMPDEST PUSH2 0x7C1 JUMP JUMPDEST PUSH1 0x40 MLOAD PUSH2 0x210 SWAP2 SWAP1 PUSH2 0x13AA JUMP JUMPDEST PUSH1 0x40 MLOAD DUP1 SWAP2 SUB SWAP1 RETURN JUMPDEST CALLVALUE DUP1 ISZERO PUSH2 0x224 JUMPI PUSH0 PUSH0 REVERT JUMPDEST POP PUSH2 0x23F PUSH1 0x4 DUP1 CALLDATASIZE SUB DUP2 ADD SWAP1 PUSH2 0x23A SWAP2 SWAP1 PUSH2 0x1258 JUMP JUMPDEST PUSH2 0x8A6 JUMP JUMPDEST STOP JUMPDEST CALLVALUE DUP1 ISZERO PUSH2 0x24C JUMPI PUSH0 PUSH0 REVERT JUMPDEST POP PUSH2 0x255 PUSH2 0x97A JUMP JUMPDEST PUSH1 0x40 MLOAD PUSH2 0x262 SWAP2 SWAP1 PUSH2 0x141E JUMP JUMPDEST PUSH1 0x40 MLOAD DUP1 SWAP2 SUB SWAP1 RETURN JUMPDEST CALLVALUE DUP1 ISZERO PUSH2 0x276 JUMPI PUSH0 PUSH0 REVERT JUMPDEST POP PUSH2 0x27F PUSH2 0x99E JUMP JUMPDEST PUSH1 0x40 MLOAD PUSH2 0x28C SWAP2 SWAP1 PUSH2 0x1446 JUMP JUMPDEST PUSH1 0x40 MLOAD DUP1 SWAP2 SUB SWAP1 RETURN JUMPDEST CALLVALUE DUP1 ISZERO PUSH2 0x2A0 JUMPI PUSH0 PUSH0 REVERT JUMPDEST POP PUSH2 0x2A9 PUSH2 0x9C2 JUMP JUMPDEST PUSH1 0x40 MLOAD PUSH2 0x2B6 SWAP2 SWAP1 PUSH2 0x14CF JUMP JUMPDEST PUSH1 0x40 MLOAD DUP1 SWAP2 SUB SWAP1 RETURN JUMPDEST CALLVALUE DUP1 ISZERO PUSH2 0x2CA JUMPI PUSH0 PUSH0 REVERT JUMPDEST POP PUSH2 0x2D3 PUSH2 0xA4E JUMP JUMPDEST PUSH1 0x40 MLOAD PUSH2 0x2E0 SWAP2 SWAP1 PUSH2 0x14CF JUMP JUMPDEST PUSH1 0x40 MLOAD DUP1 SWAP2 SUB SWAP1 RETURN JUMPDEST CALLVALUE DUP1 ISZERO PUSH2 0x2F4 JUMPI PUSH0 PUSH0 REVERT JUMPDEST POP PUSH2 0x30F PUSH1 0x4 DUP1 CALLDATASIZE SUB DUP2 ADD SWAP1 PUSH2 0x30A SWAP2 SWAP1 PUSH2 0x1540 JUMP JUMPDEST PUSH2 0xAD9 JUMP JUMPDEST STOP JUMPDEST CALLVALUE DUP1 ISZERO PUSH2 0x31C JUMPI PUSH0 PUSH0 REVERT JUMPDEST POP PUSH2 0x337 PUSH1 0x4 DUP1 CALLDATASIZE SUB DUP2 ADD SWAP1 PUSH2 0x332 SWAP2 SWAP1 PUSH2 0x15DB JUMP JUMPDEST PUSH2 0xC8B JUMP JUMPDEST STOP JUMPDEST CALLVALUE DUP1 ISZERO PUSH2 0x344 JUMPI PUSH0 PUSH0 REVERT JUMPDEST POP PUSH2 0x35F PUSH1 0x4 DUP1 CALLDATASIZE SUB DUP2 ADD SWAP1 PUSH2 0x35A SWAP2 SWAP1 PUSH2 0x1619 JUMP JUMPDEST PUSH2 0xDB6 JUMP JUMPDEST STOP JUMPDEST PUSH32 0x0 DUP2 JUMP JUMPDEST PUSH32 0x0 PUSH20 0xFFFFFFFFFFFFFFFFFFFFFFFFFFFFFFFFFFFFFFFF AND CALLER PUSH20 0xFFFFFFFFFFFFFFFFFFFFFFFFFFFFFFFFFFFFFFFF AND EQ PUSH2 0x40A JUMPI PUSH1 0x40 MLOAD PUSH32 0x30CD747100000000000000000000000000000000000000000000000000000000 DUP2 MSTORE PUSH1 0x4 ADD PUSH1 0x40 MLOAD DUP1 SWAP2 SUB SWAP1 REVERT JUMPDEST PUSH32 0x0 DUP2 PUSH0 ADD CALLDATALOAD EQ PUSH2 0x466 JUMPI PUSH1 0x40 MLOAD PUSH32 0x17AE070D00000000000000000000000000000000000000000000000000000000 DUP2 MSTORE PUSH1 0x4 ADD PUSH1 0x40 MLOAD DUP1 SWAP2 SUB SWAP1 REVERT JUMPDEST PUSH1 0x2 PUSH0 DUP3 PUSH1 0x20 ADD PUSH1 0x20 DUP2 ADD SWAP1 PUSH2 0x47C SWAP2 SWAP1 PUSH2 0x12FD JUMP JUMPDEST PUSH20 0xFFFFFFFFFFFFFFFFFFFFFFFFFFFFFFFFFFFFFFFF AND PUSH20 0xFFFFFFFFFFFFFFFFFFFFFFFFFFFFFFFFFFFFFFFF AND DUP2 MSTORE PUSH1 0x20 ADD SWAP1 DUP2 MSTORE PUSH1 0x20 ADD PUSH0 KECCAK256 PUSH0 SWAP1 SLOAD SWAP1 PUSH2 0x100 EXP SWAP1 DIV PUSH1 0xFF AND PUSH2 0x4F8 JUMPI PUSH1 0x40 MLOAD PUSH32 0x75B24D4000000000000000000000000000000000000000000000000000000000 DUP2 MSTORE PUSH1 0x4 ADD PUSH1 0x40 MLOAD DUP1 SWAP2 SUB SWAP1 REVERT JUMPDEST PUSH0 PUSH2 0x502 DUP3 PUSH2 0xFDA JUMP JUMPDEST SWAP1 POP PUSH32 0x0 PUSH20 0xFFFFFFFFFFFFFFFFFFFFFFFFFFFFFFFFFFFFFFFF AND PUSH4 0x7F0A3BF9 PUSH0 DUP4 PUSH1 0x40 MLOAD DUP4 PUSH4 0xFFFFFFFF AND PUSH1 0xE0 SHL DUP2 MSTORE PUSH1 0x4 ADD PUSH2 0x55F SWAP3 SWAP2 SWAP1 PUSH2 0x177A JUMP JUMPDEST PUSH0 PUSH1 0x40 MLOAD DUP1 DUP4 SUB DUP2 PUSH0 DUP8 DUP1 EXTCODESIZE ISZERO DUP1 ISZERO PUSH2 0x576 JUMPI PUSH0 PUSH0 REVERT JUMPDEST POP GAS CALL ISZERO DUP1 ISZERO PUSH2 0x588 JUMPI RETURNDATASIZE PUSH0 PUSH0 RETURNDATACOPY RETURNDATASIZE PUSH0 REVERT JUMPDEST POP POP POP POP DUP2 PUSH1 0x40 ADD PUSH1 0x20 DUP2 ADD SWAP1 PUSH2 0x59F SWAP2 SWAP1 PUSH2 0x12FD JUMP JUMPDEST PUSH20 0xFFFFFFFFFFFFFFFFFFFFFFFFFFFFFFFFFFFFFFFF AND DUP3 PUSH1 0x20 ADD PUSH1 0x20 DUP2 ADD SWAP1 PUSH2 0x5C8 SWAP2 SWAP1 PUSH2 0x12FD JUMP JUMPDEST PUSH20 0xFFFFFFFFFFFFFFFFFFFFFFFFFFFFFFFFFFFFFFFF AND DUP4 PUSH0 ADD CALLDATALOAD PUSH32 0x4682719D4B819C8C93522A2E9D723FD732BE1B4A8A9241B29CE8A05D471220C3 DUP6 PUSH1 0xA0 ADD CALLDATALOAD DUP6 PUSH1 0x40 MLOAD PUSH2 0x617 SWAP3 SWAP2 SWAP1 PUSH2 0x17BE JUMP JUMPDEST PUSH1 0x40 MLOAD DUP1 SWAP2 SUB SWAP1 LOG4 POP POP JUMP JUMPDEST PUSH32 0x0 PUSH20 0xFFFFFFFFFFFFFFFFFFFFFFFFFFFFFFFFFFFFFFFF AND CALLER PUSH20 0xFFFFFFFFFFFFFFFFFFFFFFFFFFFFFFFFFFFFFFFF AND EQ PUSH2 0x6A8 JUMPI PUSH1 0x40 MLOAD PUSH32 0x30CD747100000000000000000000000000000000000000000000000000000000 DUP2 MSTORE PUSH1 0x4 ADD PUSH1 0x40 MLOAD DUP1 SWAP2 SUB SWAP1 REVERT JUMPDEST DUP2 DUP2 PUSH0 SWAP2 DUP3 PUSH2 0x6B8 SWAP3 SWAP2 SWAP1 PUSH2 0x19B9 JUMP JUMPDEST POP PUSH32 0x2EEF771D6450ACFB697F090CDA89BAE92577D0ABB72A367C2CC0BB16A87B0AF7 DUP3 DUP3 PUSH1 0x40 MLOAD PUSH2 0x6EA SWAP3 SWAP2 SWAP1 PUSH2 0x1AC0 JUMP JUMPDEST PUSH1 0x40 MLOAD DUP1 SWAP2 SUB SWAP1 LOG1 POP POP JUMP JUMPDEST PUSH1 0x2 PUSH1 0x20 MSTORE DUP1 PUSH0 MSTORE PUSH1 0x40 PUSH0 KECCAK256 PUSH0 SWAP2 POP SLOAD SWAP1 PUSH2 0x100 EXP SWAP1 DIV PUSH1 0xFF AND DUP2 JUMP JUMPDEST PUSH2 0x71B PUSH2 0x1120 JUMP JUMPDEST PUSH32 0x0 PUSH20 0xFFFFFFFFFFFFFFFFFFFFFFFFFFFFFFFFFFFFFFFF AND PUSH4 0x47400C23 PUSH2 0x760 DUP5 PUSH2 0xFDA JUMP JUMPDEST PUSH1 0x40 MLOAD DUP3 PUSH4 0xFFFFFFFF AND PUSH1 0xE0 SHL DUP2 MSTORE PUSH1 0x4 ADD PUSH2 0x77C SWAP2 SWAP1 PUSH2 0x14CF JUMP JUMPDEST PUSH1 0x40 DUP1 MLOAD DUP1 DUP4 SUB DUP2 DUP7 GAS STATICCALL ISZERO DUP1 ISZERO PUSH2 0x796 JUMPI RETURNDATASIZE PUSH0 PUSH0 RETURNDATACOPY RETURNDATASIZE PUSH0 REVERT JUMPDEST POP POP POP POP PUSH1 0x40 MLOAD RETURNDATASIZE PUSH1 0x1F NOT PUSH1 0x1F DUP3 ADD AND DUP3 ADD DUP1 PUSH1 0x40 MSTORE POP DUP2 ADD SWAP1 PUSH2 0x7BA SWAP2 SWAP1 PUSH2 0x1BA8 JUMP JUMPDEST SWAP1 POP SWAP2 SWAP1 POP JUMP JUMPDEST PUSH2 0x7C9 PUSH2 0x1120 JUMP JUMPDEST PUSH0 DUP4 DUP4 SWAP1 POP SUB PUSH2 0x805 JUMPI PUSH1 0x40 MLOAD PUSH32 0x3AC3605E00000000000000000000000000000000000000000000000000000000 DUP2 MSTORE PUSH1 0x4 ADD PUSH1 0x40 MLOAD DUP1 SWAP2 SUB SWAP1 REVERT JUMPDEST PUSH32 0x0 PUSH20 0xFFFFFFFFFFFFFFFFFFFFFFFFFFFFFFFFFFFFFFFF AND PUSH4 0x47400C23 DUP5 DUP5 PUSH1 0x40 MLOAD DUP4 PUSH4 0xFFFFFFFF AND PUSH1 0xE0 SHL DUP2 MSTORE PUSH1 0x4 ADD PUSH2 0x860 SWAP3 SWAP2 SWAP1 PUSH2 0x1AC0 JUMP JUMPDEST PUSH1 0x40 DUP1 MLOAD DUP1 DUP4 SUB DUP2 DUP7 GAS STATICCALL ISZERO DUP1 ISZERO PUSH2 0x87A JUMPI RETURNDATASIZE PUSH0 PUSH0 RETURNDATACOPY RETURNDATASIZE PUSH0 REVERT JUMPDEST POP POP POP POP PUSH1 0x40 MLOAD RETURNDATASIZE PUSH1 0x1F NOT PUSH1 0x1F DUP3 ADD AND DUP3 ADD DUP1 PUSH1 0x40 MSTORE POP DUP2 ADD SWAP1 PUSH2 0x89E SWAP2 SWAP1 PUSH2 0x1BA8 JUMP JUMPDEST SWAP1 POP SWAP3 SWAP2 POP POP JUMP JUMPDEST PUSH32 0x0 PUSH20 0xFFFFFFFFFFFFFFFFFFFFFFFFFFFFFFFFFFFFFFFF AND CALLER PUSH20 0xFFFFFFFFFFFFFFFFFFFFFFFFFFFFFFFFFFFFFFFF AND EQ PUSH2 0x92B JUMPI PUSH1 0x40 MLOAD PUSH32 0x30CD747100000000000000000000000000000000000000000000000000000000 DUP2 MSTORE PUSH1 0x4 ADD PUSH1 0x40 MLOAD DUP1 SWAP2 SUB SWAP1 REVERT JUMPDEST DUP2 DUP2 PUSH1 0x1 SWAP2 DUP3 PUSH2 0x93C SWAP3 SWAP2 SWAP1 PUSH2 0x19B9 JUMP JUMPDEST POP PUSH32 0xE0A85CED86C6479C5B212CC6129BC8F573C2A391E84DF013C161B0B228E44B11 DUP3 DUP3 PUSH1 0x40 MLOAD PUSH2 0x96E SWAP3 SWAP2 SWAP1 PUSH2 0x1AC0 JUMP JUMPDEST PUSH1 0x40 MLOAD DUP1 SWAP2 SUB SWAP1 LOG1 POP POP JUMP JUMPDEST PUSH32 0x0 DUP2 JUMP JUMPDEST PUSH32 0x0 DUP2 JUMP JUMPDEST PUSH1 0x1 DUP1 SLOAD PUSH2 0x9CF SWAP1 PUSH2 0x16B7 JUMP JUMPDEST DUP1 PUSH1 0x1F ADD PUSH1 0x20 DUP1 SWAP2 DIV MUL PUSH1 0x20 ADD PUSH1 0x40 MLOAD SWAP1 DUP2 ADD PUSH1 0x40 MSTORE DUP1 SWAP3 SWAP2 SWAP1 DUP2 DUP2 MSTORE PUSH1 0x20 ADD DUP3 DUP1 SLOAD PUSH2 0x9FB SWAP1 PUSH2 0x16B7 JUMP JUMPDEST DUP1 ISZERO PUSH2 0xA46 JUMPI DUP1 PUSH1 0x1F LT PUSH2 0xA1D JUMPI PUSH2 0x100 DUP1 DUP4 SLOAD DIV MUL DUP4 MSTORE SWAP2 PUSH1 0x20 ADD SWAP2 PUSH2 0xA46 JUMP JUMPDEST DUP3 ADD SWAP2 SWAP1 PUSH0 MSTORE PUSH1 0x20 PUSH0 KECCAK256 SWAP1 JUMPDEST DUP2 SLOAD DUP2 MSTORE SWAP1 PUSH1 0x1 ADD SWAP1 PUSH1 0x20 ADD DUP1 DUP4 GT PUSH2 0xA29 JUMPI DUP3 SWAP1 SUB PUSH1 0x1F AND DUP3 ADD SWAP2 JUMPDEST POP POP POP POP POP DUP2 JUMP JUMPDEST PUSH0 DUP1 SLOAD PUSH2 0xA5A SWAP1 PUSH2 0x16B7 JUMP JUMPDEST DUP1 PUSH1 0x1F ADD PUSH1 0x20 DUP1 SWAP2 DIV MUL PUSH1 0x20 ADD PUSH1 0x40 MLOAD SWAP1 DUP2 ADD PUSH1 0x40 MSTORE DUP1 SWAP3 SWAP2 SWAP1 DUP2 DUP2 MSTORE PUSH1 0x20 ADD DUP3 DUP1 SLOAD PUSH2 0xA86 SWAP1 PUSH2 0x16B7 JUMP JUMPDEST DUP1 ISZERO PUSH2 0xAD1 JUMPI DUP1 PUSH1 0x1F LT PUSH2 0xAA8 JUMPI PUSH2 0x100 DUP1 DUP4 SLOAD DIV MUL DUP4 MSTORE SWAP2 PUSH1 0x20 ADD SWAP2 PUSH2 0xAD1 JUMP JUMPDEST DUP3 ADD SWAP2 SWAP1 PUSH0 MSTORE PUSH1 0x20 PUSH0 KECCAK256 SWAP1 JUMPDEST DUP2 SLOAD DUP2 MSTORE SWAP1 PUSH1 0x1 ADD SWAP1 PUSH1 0x20 ADD DUP1 DUP4 GT PUSH2 0xAB4 JUMPI DUP3 SWAP1 SUB PUSH1 0x1F AND DUP3 ADD SWAP2 JUMPDEST POP POP POP POP POP DUP2 JUMP JUMPDEST PUSH32 0x0 PUSH20 0xFFFFFFFFFFFFFFFFFFFFFFFFFFFFFFFFFFFFFFFF AND CALLER PUSH20 0xFFFFFFFFFFFFFFFFFFFFFFFFFFFFFFFFFFFFFFFF AND EQ PUSH2 0xB5E JUMPI PUSH1 0x40 MLOAD PUSH32 0x30CD747100000000000000000000000000000000000000000000000000000000 DUP2 MSTORE PUSH1 0x4 ADD PUSH1 0x40 MLOAD DUP1 SWAP2 SUB SWAP1 REVERT JUMPDEST PUSH0 DUP4 DUP4 SWAP1 POP SUB PUSH2 0xB9A JUMPI PUSH1 0x40 MLOAD PUSH32 0x3AC3605E00000000000000000000000000000000000000000000000000000000 DUP2 MSTORE PUSH1 0x4 ADD PUSH1 0x40 MLOAD DUP1 SWAP2 SUB SWAP1 REVERT JUMPDEST PUSH32 0x0 PUSH20 0xFFFFFFFFFFFFFFFFFFFFFFFFFFFFFFFFFFFFFFFF AND PUSH4 0xD3B7E04D DUP5 DUP5 DUP5 PUSH1 0x40 MLOAD DUP5 PUSH4 0xFFFFFFFF AND PUSH1 0xE0 SHL DUP2 MSTORE PUSH1 0x4 ADD PUSH2 0xBF7 SWAP4 SWAP3 SWAP2 SWAP1 PUSH2 0x1C3A JUMP JUMPDEST PUSH0 PUSH1 0x40 MLOAD DUP1 DUP4 SUB DUP2 PUSH0 DUP8 DUP1 EXTCODESIZE ISZERO DUP1 ISZERO PUSH2 0xC0E JUMPI PUSH0 PUSH0 REVERT JUMPDEST POP GAS CALL ISZERO DUP1 ISZERO PUSH2 0xC20 JUMPI RETURNDATASIZE PUSH0 PUSH0 RETURNDATACOPY RETURNDATASIZE PUSH0 REVERT JUMPDEST POP POP POP POP DUP4 PUSH32 0xD97249A22320E6B7B136797455B1F7B70C622BA805092C112A12995F8E5B827C DUP5 DUP5 DUP5 PUSH0 ADD PUSH1 0x20 DUP2 ADD SWAP1 PUSH2 0xC5A SWAP2 SWAP1 PUSH2 0x1C6A JUMP JUMPDEST DUP6 PUSH1 0x20 ADD PUSH1 0x20 DUP2 ADD SWAP1 PUSH2 0xC6D SWAP2 SWAP1 PUSH2 0x1C6A JUMP JUMPDEST PUSH1 0x40 MLOAD PUSH2 0xC7D SWAP5 SWAP4 SWAP3 SWAP2 SWAP1 PUSH2 0x1CA4 JUMP JUMPDEST PUSH1 0x40 MLOAD DUP1 SWAP2 SUB SWAP1 LOG2 POP POP POP POP JUMP JUMPDEST PUSH32 0x0 PUSH20 0xFFFFFFFFFFFFFFFFFFFFFFFFFFFFFFFFFFFFFFFF AND CALLER PUSH20 0xFFFFFFFFFFFFFFFFFFFFFFFFFFFFFFFFFFFFFFFF AND EQ PUSH2 0xD10 JUMPI PUSH1 0x40 MLOAD PUSH32 0x30CD747100000000000000000000000000000000000000000000000000000000 DUP2 MSTORE PUSH1 0x4 ADD PUSH1 0x40 MLOAD DUP1 SWAP2 SUB SWAP1 REVERT JUMPDEST DUP1 PUSH1 0x2 PUSH0 DUP5 PUSH20 0xFFFFFFFFFFFFFFFFFFFFFFFFFFFFFFFFFFFFFFFF AND PUSH20 0xFFFFFFFFFFFFFFFFFFFFFFFFFFFFFFFFFFFFFFFF AND DUP2 MSTORE PUSH1 0x20 ADD SWAP1 DUP2 MSTORE PUSH1 0x20 ADD PUSH0 KECCAK256 PUSH0 PUSH2 0x100 EXP DUP2 SLOAD DUP2 PUSH1 0xFF MUL NOT AND SWAP1 DUP4 ISZERO ISZERO MUL OR SWAP1 SSTORE POP DUP2 PUSH20 0xFFFFFFFFFFFFFFFFFFFFFFFFFFFFFFFFFFFFFFFF AND PUSH32 0x17E84C0E5B25523E0A7EC98F79C222755E02808EB019E4973F861C947775D509 DUP3 PUSH1 0x40 MLOAD PUSH2 0xDAA SWAP2 SWAP1 PUSH2 0x1342 JUMP JUMPDEST PUSH1 0x40 MLOAD DUP1 SWAP2 SUB SWAP1 LOG2 POP POP JUMP JUMPDEST PUSH32 0x0 PUSH20 0xFFFFFFFFFFFFFFFFFFFFFFFFFFFFFFFFFFFFFFFF AND CALLER PUSH20 0xFFFFFFFFFFFFFFFFFFFFFFFFFFFFFFFFFFFFFFFF AND EQ PUSH2 0xE3B JUMPI PUSH1 0x40 MLOAD PUSH32 0x30CD747100000000000000000000000000000000000000000000000000000000 DUP2 MSTORE PUSH1 0x4 ADD PUSH1 0x40 MLOAD DUP1 SWAP2 SUB SWAP1 REVERT JUMPDEST PUSH1 0x2 PUSH0 DUP6 PUSH20 0xFFFFFFFFFFFFFFFFFFFFFFFFFFFFFFFFFFFFFFFF AND PUSH20 0xFFFFFFFFFFFFFFFFFFFFFFFFFFFFFFFFFFFFFFFF AND DUP2 MSTORE PUSH1 0x20 ADD SWAP1 DUP2 MSTORE PUSH1 0x20 ADD PUSH0 KECCAK256 PUSH0 SWAP1 SLOAD SWAP1 PUSH2 0x100 EXP SWAP1 DIV PUSH1 0xFF AND PUSH2 0xEBB JUMPI PUSH1 0x40 MLOAD PUSH32 0x75B24D4000000000000000000000000000000000000000000000000000000000 DUP2 MSTORE PUSH1 0x4 ADD PUSH1 0x40 MLOAD DUP1 SWAP2 SUB SWAP1 REVERT JUMPDEST PUSH0 DUP3 DUP3 SWAP1 POP SUB PUSH2 0xEF7 JUMPI PUSH1 0x40 MLOAD PUSH32 0x3AC3605E00000000000000000000000000000000000000000000000000000000 DUP2 MSTORE PUSH1 0x4 ADD PUSH1 0x40 MLOAD DUP1 SWAP2 SUB SWAP1 REVERT JUMPDEST PUSH32 0x0 PUSH20 0xFFFFFFFFFFFFFFFFFFFFFFFFFFFFFFFFFFFFFFFF AND PUSH4 0x7F0A3BF9 PUSH0 DUP5 DUP5 PUSH1 0x40 MLOAD DUP5 PUSH4 0xFFFFFFFF AND PUSH1 0xE0 SHL DUP2 MSTORE PUSH1 0x4 ADD PUSH2 0xF54 SWAP4 SWAP3 SWAP2 SWAP1 PUSH2 0x1CE2 JUMP JUMPDEST PUSH0 PUSH1 0x40 MLOAD DUP1 DUP4 SUB DUP2 PUSH0 DUP8 DUP1 EXTCODESIZE ISZERO DUP1 ISZERO PUSH2 0xF6B JUMPI PUSH0 PUSH0 REVERT JUMPDEST POP GAS CALL ISZERO DUP1 ISZERO PUSH2 0xF7D JUMPI RETURNDATASIZE PUSH0 PUSH0 RETURNDATACOPY RETURNDATASIZE PUSH0 REVERT JUMPDEST POP POP POP POP DUP3 DUP5 PUSH20 0xFFFFFFFFFFFFFFFFFFFFFFFFFFFFFFFFFFFFFFFF AND PUSH32 0x8E56C7EF220B0B56CA71B24D43706B91366675F89072A0D646B149E9E20BFF6B PUSH0 DUP6 DUP6 PUSH1 0x40 MLOAD PUSH2 0xFCC SWAP4 SWAP3 SWAP2 SWAP1 PUSH2 0x1CE2 JUMP JUMPDEST PUSH1 0x40 MLOAD DUP1 SWAP2 SUB SWAP1 LOG3 POP POP POP POP JUMP JUMPDEST PUSH1 0x60 PUSH0 PUSH1 0x1 DUP1 SLOAD PUSH2 0xFEA SWAP1 PUSH2 0x16B7 JUMP JUMPDEST SWAP1 POP SUB PUSH2 0x1023 JUMPI PUSH1 0x40 MLOAD PUSH32 0x6C44024200000000000000000000000000000000000000000000000000000000 DUP2 MSTORE PUSH1 0x4 ADD PUSH1 0x40 MLOAD DUP1 SWAP2 SUB SWAP1 REVERT JUMPDEST PUSH1 0x1 DUP3 PUSH1 0x20 ADD PUSH1 0x20 DUP2 ADD SWAP1 PUSH2 0x1038 SWAP2 SWAP1 PUSH2 0x12FD JUMP JUMPDEST ADDRESS DUP5 PUSH1 0x40 ADD PUSH1 0x20 DUP2 ADD SWAP1 PUSH2 0x104C SWAP2 SWAP1 PUSH2 0x12FD JUMP JUMPDEST DUP6 PUSH1 0x60 ADD CALLDATALOAD DUP7 DUP1 PUSH1 0x80 ADD SWAP1 PUSH2 0x1061 SWAP2 SWAP1 PUSH2 0x1D25 JUMP JUMPDEST DUP9 PUSH1 0xA0 ADD CALLDATALOAD PUSH1 0x40 MLOAD PUSH1 0x24 ADD PUSH2 0x107B SWAP7 SWAP6 SWAP5 SWAP4 SWAP3 SWAP2 SWAP1 PUSH2 0x1D87 JUMP JUMPDEST PUSH1 0x40 MLOAD PUSH1 0x20 DUP2 DUP4 SUB SUB DUP2 MSTORE SWAP1 PUSH1 0x40 MSTORE PUSH32 0x86249F1200000000000000000000000000000000000000000000000000000000 PUSH28 0xFFFFFFFFFFFFFFFFFFFFFFFFFFFFFFFFFFFFFFFFFFFFFFFFFFFFFFFF NOT AND PUSH1 0x20 DUP3 ADD DUP1 MLOAD PUSH28 0xFFFFFFFFFFFFFFFFFFFFFFFFFFFFFFFFFFFFFFFFFFFFFFFFFFFFFFFF DUP4 DUP2 DUP4 AND OR DUP4 MSTORE POP POP POP POP PUSH1 0x40 MLOAD PUSH1 0x20 ADD PUSH2 0x110A SWAP4 SWAP3 SWAP2 SWAP1 PUSH2 0x1DE1 JUMP JUMPDEST PUSH1 0x40 MLOAD PUSH1 0x20 DUP2 DUP4 SUB SUB DUP2 MSTORE SWAP1 PUSH1 0x40 MSTORE SWAP1 POP SWAP2 SWAP1 POP JUMP JUMPDEST PUSH1 0x40 MLOAD DUP1 PUSH1 0x40 ADD PUSH1 0x40 MSTORE DUP1 PUSH0 PUSH8 0xFFFFFFFFFFFFFFFF AND DUP2 MSTORE PUSH1 0x20 ADD PUSH0 PUSH8 0xFFFFFFFFFFFFFFFF AND DUP2 MSTORE POP SWAP1 JUMP JUMPDEST PUSH0 DUP2 SWAP1 POP SWAP2 SWAP1 POP JUMP JUMPDEST PUSH2 0x115E DUP2 PUSH2 0x114C JUMP JUMPDEST DUP3 MSTORE POP POP JUMP JUMPDEST PUSH0 PUSH1 0x20 DUP3 ADD SWAP1 POP PUSH2 0x1177 PUSH0 DUP4 ADD DUP5 PUSH2 0x1155 JUMP JUMPDEST SWAP3 SWAP2 POP POP JUMP JUMPDEST PUSH0 PUSH1 0x40 MLOAD SWAP1 POP SWAP1 JUMP JUMPDEST PUSH0 PUSH0 REVERT JUMPDEST PUSH0 PUSH0 REVERT JUMPDEST PUSH0 PUSH0 REVERT JUMPDEST PUSH0 PUSH1 0xC0 DUP3 DUP5 SUB SLT ISZERO PUSH2 0x11A7 JUMPI PUSH2 0x11A6 PUSH2 0x118E JUMP JUMPDEST JUMPDEST DUP2 SWAP1 POP SWAP3 SWAP2 POP POP JUMP JUMPDEST PUSH0 PUSH1 0x20 DUP3 DUP5 SUB SLT ISZERO PUSH2 0x11C5 JUMPI PUSH2 0x11C4 PUSH2 0x1186 JUMP JUMPDEST JUMPDEST PUSH0 DUP3 ADD CALLDATALOAD PUSH8 0xFFFFFFFFFFFFFFFF DUP2 GT ISZERO PUSH2 0x11E2 JUMPI PUSH2 0x11E1 PUSH2 0x118A JUMP JUMPDEST JUMPDEST PUSH2 0x11EE DUP5 DUP3 DUP6 ADD PUSH2 0x1192 JUMP JUMPDEST SWAP2 POP POP SWAP3 SWAP2 POP POP JUMP JUMPDEST PUSH0 PUSH0 REVERT JUMPDEST PUSH0 PUSH0 REVERT JUMPDEST PUSH0 PUSH0 REVERT JUMPDEST PUSH0 PUSH0 DUP4 PUSH1 0x1F DUP5 ADD SLT PUSH2 0x1218 JUMPI PUSH2 0x1217 PUSH2 0x11F7 JUMP JUMPDEST JUMPDEST DUP3 CALLDATALOAD SWAP1 POP PUSH8 0xFFFFFFFFFFFFFFFF DUP2 GT ISZERO PUSH2 0x1235 JUMPI PUSH2 0x1234 PUSH2 0x11FB JUMP JUMPDEST JUMPDEST PUSH1 0x20 DUP4 ADD SWAP2 POP DUP4 PUSH1 0x1 DUP3 MUL DUP4 ADD GT ISZERO PUSH2 0x1251 JUMPI PUSH2 0x1250 PUSH2 0x11FF JUMP JUMPDEST JUMPDEST SWAP3 POP SWAP3 SWAP1 POP JUMP JUMPDEST PUSH0 PUSH0 PUSH1 0x20 DUP4 DUP6 SUB SLT ISZERO PUSH2 0x126E JUMPI PUSH2 0x126D PUSH2 0x1186 JUMP JUMPDEST JUMPDEST PUSH0 DUP4 ADD CALLDATALOAD PUSH8 0xFFFFFFFFFFFFFFFF DUP2 GT ISZERO PUSH2 0x128B JUMPI PUSH2 0x128A PUSH2 0x118A JUMP JUMPDEST JUMPDEST PUSH2 0x1297 DUP6 DUP3 DUP7 ADD PUSH2 0x1203 JUMP JUMPDEST SWAP3 POP SWAP3 POP POP SWAP3 POP SWAP3 SWAP1 POP JUMP JUMPDEST PUSH0 PUSH20 0xFFFFFFFFFFFFFFFFFFFFFFFFFFFFFFFFFFFFFFFF DUP3 AND SWAP1 POP SWAP2 SWAP1 POP JUMP JUMPDEST PUSH0 PUSH2 0x12CC DUP3 PUSH2 0x12A3 JUMP JUMPDEST SWAP1 POP SWAP2 SWAP1 POP JUMP JUMPDEST PUSH2 0x12DC DUP2 PUSH2 0x12C2 JUMP JUMPDEST DUP2 EQ PUSH2 0x12E6 JUMPI PUSH0 PUSH0 REVERT JUMPDEST POP JUMP JUMPDEST PUSH0 DUP2 CALLDATALOAD SWAP1 POP PUSH2 0x12F7 DUP2 PUSH2 0x12D3 JUMP JUMPDEST SWAP3 SWAP2 POP POP JUMP JUMPDEST PUSH0 PUSH1 0x20 DUP3 DUP5 SUB SLT ISZERO PUSH2 0x1312 JUMPI PUSH2 0x1311 PUSH2 0x1186 JUMP JUMPDEST JUMPDEST PUSH0 PUSH2 0x131F DUP5 DUP3 DUP6 ADD PUSH2 0x12E9 JUMP JUMPDEST SWAP2 POP POP SWAP3 SWAP2 POP POP JUMP JUMPDEST PUSH0 DUP2 ISZERO ISZERO SWAP1 POP SWAP2 SWAP1 POP JUMP JUMPDEST PUSH2 0x133C DUP2 PUSH2 0x1328 JUMP JUMPDEST DUP3 MSTORE POP POP JUMP JUMPDEST PUSH0 PUSH1 0x20 DUP3 ADD SWAP1 POP PUSH2 0x1355 PUSH0 DUP4 ADD DUP5 PUSH2 0x1333 JUMP JUMPDEST SWAP3 SWAP2 POP POP JUMP JUMPDEST PUSH0 PUSH8 0xFFFFFFFFFFFFFFFF DUP3 AND SWAP1 POP SWAP2 SWAP1 POP JUMP JUMPDEST PUSH2 0x1377 DUP2 PUSH2 0x135B JUMP JUMPDEST DUP3 MSTORE POP POP JUMP JUMPDEST PUSH1 0x40 DUP3 ADD PUSH0 DUP3 ADD MLOAD PUSH2 0x1391 PUSH0 DUP6 ADD DUP3 PUSH2 0x136E JUMP JUMPDEST POP PUSH1 0x20 DUP3 ADD MLOAD PUSH2 0x13A4 PUSH1 0x20 DUP6 ADD DUP3 PUSH2 0x136E JUMP JUMPDEST POP POP POP POP JUMP JUMPDEST PUSH0 PUSH1 0x40 DUP3 ADD SWAP1 POP PUSH2 0x13BD PUSH0 DUP4 ADD DUP5 PUSH2 0x137D JUMP JUMPDEST SWAP3 SWAP2 POP POP JUMP JUMPDEST PUSH0 DUP2 SWAP1 POP SWAP2 SWAP1 POP JUMP JUMPDEST PUSH0 PUSH2 0x13E6 PUSH2 0x13E1 PUSH2 0x13DC DUP5 PUSH2 0x12A3 JUMP JUMPDEST PUSH2 0x13C3 JUMP JUMPDEST PUSH2 0x12A3 JUMP JUMPDEST SWAP1 POP SWAP2 SWAP1 POP JUMP JUMPDEST PUSH0 PUSH2 0x13F7 DUP3 PUSH2 0x13CC JUMP JUMPDEST SWAP1 POP SWAP2 SWAP1 POP JUMP JUMPDEST PUSH0 PUSH2 0x1408 DUP3 PUSH2 0x13ED JUMP JUMPDEST SWAP1 POP SWAP2 SWAP1 POP JUMP JUMPDEST PUSH2 0x1418 DUP2 PUSH2 0x13FE JUMP JUMPDEST DUP3 MSTORE POP POP JUMP JUMPDEST PUSH0 PUSH1 0x20 DUP3 ADD SWAP1 POP PUSH2 0x1431 PUSH0 DUP4 ADD DUP5 PUSH2 0x140F JUMP JUMPDEST SWAP3 SWAP2 POP POP JUMP JUMPDEST PUSH2 0x1440 DUP2 PUSH2 0x12C2 JUMP JUMPDEST DUP3 MSTORE POP POP JUMP JUMPDEST PUSH0 PUSH1 0x20 DUP3 ADD SWAP1 POP PUSH2 0x1459 PUSH0 DUP4 ADD DUP5 PUSH2 0x1437 JUMP JUMPDEST SWAP3 SWAP2 POP POP JUMP JUMPDEST PUSH0 DUP2 MLOAD SWAP1 POP SWAP2 SWAP1 POP JUMP JUMPDEST PUSH0 DUP3 DUP3 MSTORE PUSH1 0x20 DUP3 ADD SWAP1 POP SWAP3 SWAP2 POP POP JUMP JUMPDEST DUP3 DUP2 DUP4 MCOPY PUSH0 DUP4 DUP4 ADD MSTORE POP POP POP JUMP JUMPDEST PUSH0 PUSH1 0x1F NOT PUSH1 0x1F DUP4 ADD AND SWAP1 POP SWAP2 SWAP1 POP JUMP JUMPDEST PUSH0 PUSH2 0x14A1 DUP3 PUSH2 0x145F JUMP JUMPDEST PUSH2 0x14AB DUP2 DUP6 PUSH2 0x1469 JUMP JUMPDEST SWAP4 POP PUSH2 0x14BB DUP2 DUP6 PUSH1 0x20 DUP7 ADD PUSH2 0x1479 JUMP JUMPDEST PUSH2 0x14C4 DUP2 PUSH2 0x1487 JUMP JUMPDEST DUP5 ADD SWAP2 POP POP SWAP3 SWAP2 POP POP JUMP JUMPDEST PUSH0 PUSH1 0x20 DUP3 ADD SWAP1 POP DUP2 DUP2 SUB PUSH0 DUP4 ADD MSTORE PUSH2 0x14E7 DUP2 DUP5 PUSH2 0x1497 JUMP JUMPDEST SWAP1 POP SWAP3 SWAP2 POP POP JUMP JUMPDEST PUSH0 DUP2 SWAP1 POP SWAP2 SWAP1 POP JUMP JUMPDEST PUSH2 0x1501 DUP2 PUSH2 0x14EF JUMP JUMPDEST DUP2 EQ PUSH2 0x150B JUMPI PUSH0 PUSH0 REVERT JUMPDEST POP JUMP JUMPDEST PUSH0 DUP2 CALLDATALOAD SWAP1 POP PUSH2 0x151C DUP2 PUSH2 0x14F8 JUMP JUMPDEST SWAP3 SWAP2 POP POP JUMP JUMPDEST PUSH0 PUSH1 0x40 DUP3 DUP5 SUB SLT ISZERO PUSH2 0x1537 JUMPI PUSH2 0x1536 PUSH2 0x118E JUMP JUMPDEST JUMPDEST DUP2 SWAP1 POP SWAP3 SWAP2 POP POP JUMP JUMPDEST PUSH0 PUSH0 PUSH0 PUSH0 PUSH1 0x80 DUP6 DUP8 SUB SLT ISZERO PUSH2 0x1558 JUMPI PUSH2 0x1557 PUSH2 0x1186 JUMP JUMPDEST JUMPDEST PUSH0 PUSH2 0x1565 DUP8 DUP3 DUP9 ADD PUSH2 0x150E JUMP JUMPDEST SWAP5 POP POP PUSH1 0x20 DUP6 ADD CALLDATALOAD PUSH8 0xFFFFFFFFFFFFFFFF DUP2 GT ISZERO PUSH2 0x1586 JUMPI PUSH2 0x1585 PUSH2 0x118A JUMP JUMPDEST JUMPDEST PUSH2 0x1592 DUP8 DUP3 DUP9 ADD PUSH2 0x1203 JUMP JUMPDEST SWAP4 POP SWAP4 POP POP PUSH1 0x40 PUSH2 0x15A5 DUP8 DUP3 DUP9 ADD PUSH2 0x1522 JUMP JUMPDEST SWAP2 POP POP SWAP3 SWAP6 SWAP2 SWAP5 POP SWAP3 POP JUMP JUMPDEST PUSH2 0x15BA DUP2 PUSH2 0x1328 JUMP JUMPDEST DUP2 EQ PUSH2 0x15C4 JUMPI PUSH0 PUSH0 REVERT JUMPDEST POP JUMP JUMPDEST PUSH0 DUP2 CALLDATALOAD SWAP1 POP PUSH2 0x15D5 DUP2 PUSH2 0x15B1 JUMP JUMPDEST SWAP3 SWAP2 POP POP JUMP JUMPDEST PUSH0 PUSH0 PUSH1 0x40 DUP4 DUP6 SUB SLT ISZERO PUSH2 0x15F1 JUMPI PUSH2 0x15F0 PUSH2 0x1186 JUMP JUMPDEST JUMPDEST PUSH0 PUSH2 0x15FE DUP6 DUP3 DUP7 ADD PUSH2 0x12E9 JUMP JUMPDEST SWAP3 POP POP PUSH1 0x20 PUSH2 0x160F DUP6 DUP3 DUP7 ADD PUSH2 0x15C7 JUMP JUMPDEST SWAP2 POP POP SWAP3 POP SWAP3 SWAP1 POP JUMP JUMPDEST PUSH0 PUSH0 PUSH0 PUSH0 PUSH1 0x60 DUP6 DUP8 SUB SLT ISZERO PUSH2 0x1631 JUMPI PUSH2 0x1630 PUSH2 0x1186 JUMP JUMPDEST JUMPDEST PUSH0 PUSH2 0x163E DUP8 DUP3 DUP9 ADD PUSH2 0x12E9 JUMP JUMPDEST SWAP5 POP POP PUSH1 0x20 PUSH2 0x164F DUP8 DUP3 DUP9 ADD PUSH2 0x150E JUMP JUMPDEST SWAP4 POP POP PUSH1 0x40 DUP6 ADD CALLDATALOAD PUSH8 0xFFFFFFFFFFFFFFFF DUP2 GT ISZERO PUSH2 0x1670 JUMPI PUSH2 0x166F PUSH2 0x118A JUMP JUMPDEST JUMPDEST PUSH2 0x167C DUP8 DUP3 DUP9 ADD PUSH2 0x1203 JUMP JUMPDEST SWAP3 POP SWAP3 POP POP SWAP3 SWAP6 SWAP2 SWAP5 POP SWAP3 POP JUMP JUMPDEST PUSH32 0x4E487B7100000000000000000000000000000000000000000000000000000000 PUSH0 MSTORE PUSH1 0x22 PUSH1 0x4 MSTORE PUSH1 0x24 PUSH0 REVERT JUMPDEST PUSH0 PUSH1 0x2 DUP3 DIV SWAP1 POP PUSH1 0x1 DUP3 AND DUP1 PUSH2 0x16CE JUMPI PUSH1 0x7F DUP3 AND SWAP2 POP JUMPDEST PUSH1 0x20 DUP3 LT DUP2 SUB PUSH2 0x16E1 JUMPI PUSH2 0x16E0 PUSH2 0x168A JUMP JUMPDEST JUMPDEST POP SWAP2 SWAP1 POP JUMP JUMPDEST PUSH0 DUP2 SWAP1 POP DUP2 PUSH0 MSTORE PUSH1 0x20 PUSH0 KECCAK256 SWAP1 POP SWAP2 SWAP1 POP JUMP JUMPDEST PUSH0 DUP2 SLOAD PUSH2 0x1705 DUP2 PUSH2 0x16B7 JUMP JUMPDEST PUSH2 0x170F DUP2 DUP7 PUSH2 0x1469 JUMP JUMPDEST SWAP5 POP PUSH1 0x1 DUP3 AND PUSH0 DUP2 EQ PUSH2 0x1729 JUMPI PUSH1 0x1 DUP2 EQ PUSH2 0x173F JUMPI PUSH2 0x1771 JUMP JUMPDEST PUSH1 0xFF NOT DUP4 AND DUP7 MSTORE DUP2 ISZERO ISZERO PUSH1 0x20 MUL DUP7 ADD SWAP4 POP PUSH2 0x1771 JUMP JUMPDEST PUSH2 0x1748 DUP6 PUSH2 0x16E7 JUMP JUMPDEST PUSH0 JUMPDEST DUP4 DUP2 LT ISZERO PUSH2 0x1769 JUMPI DUP2 SLOAD DUP2 DUP10 ADD MSTORE PUSH1 0x1 DUP3 ADD SWAP2 POP PUSH1 0x20 DUP2 ADD SWAP1 POP PUSH2 0x174A JUMP JUMPDEST DUP1 DUP9 ADD SWAP6 POP POP POP JUMPDEST POP POP POP SWAP3 SWAP2 POP POP JUMP JUMPDEST PUSH0 PUSH1 0x40 DUP3 ADD SWAP1 POP DUP2 DUP2 SUB PUSH0 DUP4 ADD MSTORE PUSH2 0x1792 DUP2 DUP6 PUSH2 0x16F9 JUMP JUMPDEST SWAP1 POP DUP2 DUP2 SUB PUSH1 0x20 DUP4 ADD MSTORE PUSH2 0x17A6 DUP2 DUP5 PUSH2 0x1497 JUMP JUMPDEST SWAP1 POP SWAP4 SWAP3 POP POP POP JUMP JUMPDEST PUSH2 0x17B8 DUP2 PUSH2 0x14EF JUMP JUMPDEST DUP3 MSTORE POP POP JUMP JUMPDEST PUSH0 PUSH1 0x40 DUP3 ADD SWAP1 POP PUSH2 0x17D1 PUSH0 DUP4 ADD DUP6 PUSH2 0x17AF JUMP JUMPDEST DUP2 DUP2 SUB PUSH1 0x20 DUP4 ADD MSTORE PUSH2 0x17E3 DUP2 DUP5 PUSH2 0x1497 JUMP JUMPDEST SWAP1 POP SWAP4 SWAP3 POP POP POP JUMP JUMPDEST PUSH0 DUP3 SWAP1 POP SWAP3 SWAP2 POP POP JUMP JUMPDEST PUSH32 0x4E487B7100000000000000000000000000000000000000000000000000000000 PUSH0 MSTORE PUSH1 0x41 PUSH1 0x4 MSTORE PUSH1 0x24 PUSH0 REVERT JUMPDEST PUSH0 PUSH1 0x20 PUSH1 0x1F DUP4 ADD DIV SWAP1 POP SWAP2 SWAP1 POP JUMP JUMPDEST PUSH0 DUP3 DUP3 SHL SWAP1 POP SWAP3 SWAP2 POP POP JUMP JUMPDEST PUSH0 PUSH1 0x8 DUP4 MUL PUSH2 0x186D PUSH32 0xFFFFFFFFFFFFFFFFFFFFFFFFFFFFFFFFFFFFFFFFFFFFFFFFFFFFFFFFFFFFFFFF DUP3 PUSH2 0x1832 JUMP JUMPDEST PUSH2 0x1877 DUP7 DUP4 PUSH2 0x1832 JUMP JUMPDEST SWAP6 POP DUP1 NOT DUP5 AND SWAP4 POP DUP1 DUP7 AND DUP5 OR SWAP3 POP POP POP SWAP4 SWAP3 POP POP POP JUMP JUMPDEST PUSH0 PUSH2 0x18A9 PUSH2 0x18A4 PUSH2 0x189F DUP5 PUSH2 0x114C JUMP JUMPDEST PUSH2 0x13C3 JUMP JUMPDEST PUSH2 0x114C JUMP JUMPDEST SWAP1 POP SWAP2 SWAP1 POP JUMP JUMPDEST PUSH0 DUP2 SWAP1 POP SWAP2 SWAP1 POP JUMP JUMPDEST PUSH2 0x18C2 DUP4 PUSH2 0x188F JUMP JUMPDEST PUSH2 0x18D6 PUSH2 0x18CE DUP3 PUSH2 0x18B0 JUMP JUMPDEST DUP5 DUP5 SLOAD PUSH2 0x183E JUMP JUMPDEST DUP3 SSTORE POP POP POP POP JUMP JUMPDEST PUSH0 PUSH0 SWAP1 POP SWAP1 JUMP JUMPDEST PUSH2 0x18ED PUSH2 0x18DE JUMP JUMPDEST PUSH2 0x18F8 DUP2 DUP5 DUP5 PUSH2 0x18B9 JUMP JUMPDEST POP POP POP JUMP JUMPDEST PUSH0 JUMPDEST DUP3 DUP2 LT ISZERO PUSH2 0x191E JUMPI PUSH2 0x1913 PUSH0 DUP3 DUP5 ADD PUSH2 0x18E5 JUMP JUMPDEST PUSH1 0x1 DUP2 ADD SWAP1 POP PUSH2 0x18FF JUMP JUMPDEST POP POP POP JUMP JUMPDEST PUSH1 0x1F DUP3 GT ISZERO PUSH2 0x1971 JUMPI DUP3 DUP3 GT ISZERO PUSH2 0x1970 JUMPI PUSH2 0x193D DUP2 PUSH2 0x16E7 JUMP JUMPDEST PUSH2 0x1946 DUP4 PUSH2 0x1823 JUMP JUMPDEST PUSH2 0x194F DUP6 PUSH2 0x1823 JUMP JUMPDEST PUSH1 0x20 DUP7 LT ISZERO PUSH2 0x195C JUMPI PUSH0 SWAP1 POP JUMPDEST DUP1 DUP4 ADD PUSH2 0x196B DUP3 DUP5 SUB DUP3 PUSH2 0x18FD JUMP JUMPDEST POP POP POP POP JUMPDEST JUMPDEST POP POP POP JUMP JUMPDEST PUSH0 DUP3 DUP3 SHR SWAP1 POP SWAP3 SWAP2 POP POP JUMP JUMPDEST PUSH0 PUSH2 0x1991 PUSH0 NOT DUP5 PUSH1 0x8 MUL PUSH2 0x1976 JUMP JUMPDEST NOT DUP1 DUP4 AND SWAP2 POP POP SWAP3 SWAP2 POP POP JUMP JUMPDEST PUSH0 PUSH2 0x19A9 DUP4 DUP4 PUSH2 0x1982 JUMP JUMPDEST SWAP2 POP DUP3 PUSH1 0x2 MUL DUP3 OR SWAP1 POP SWAP3 SWAP2 POP POP JUMP JUMPDEST PUSH2 0x19C3 DUP4 DUP4 PUSH2 0x17EC JUMP JUMPDEST PUSH8 0xFFFFFFFFFFFFFFFF DUP2 GT ISZERO PUSH2 0x19DC JUMPI PUSH2 0x19DB PUSH2 0x17F6 JUMP JUMPDEST JUMPDEST PUSH2 0x19E6 DUP3 SLOAD PUSH2 0x16B7 JUMP JUMPDEST PUSH2 0x19F1 DUP3 DUP3 DUP6 PUSH2 0x1923 JUMP JUMPDEST PUSH0 PUSH1 0x1F DUP4 GT PUSH1 0x1 DUP2 EQ PUSH2 0x1A1E JUMPI PUSH0 DUP5 ISZERO PUSH2 0x1A0C JUMPI DUP3 DUP8 ADD CALLDATALOAD SWAP1 POP JUMPDEST PUSH2 0x1A16 DUP6 DUP3 PUSH2 0x199E JUMP JUMPDEST DUP7 SSTORE POP PUSH2 0x1A7D JUMP JUMPDEST PUSH1 0x1F NOT DUP5 AND PUSH2 0x1A2C DUP7 PUSH2 0x16E7 JUMP JUMPDEST PUSH0 JUMPDEST DUP3 DUP2 LT ISZERO PUSH2 0x1A53 JUMPI DUP5 DUP10 ADD CALLDATALOAD DUP3 SSTORE PUSH1 0x1 DUP3 ADD SWAP2 POP PUSH1 0x20 DUP6 ADD SWAP5 POP PUSH1 0x20 DUP2 ADD SWAP1 POP PUSH2 0x1A2E JUMP JUMPDEST DUP7 DUP4 LT ISZERO PUSH2 0x1A70 JUMPI DUP5 DUP10 ADD CALLDATALOAD PUSH2 0x1A6C PUSH1 0x1F DUP10 AND DUP3 PUSH2 0x1982 JUMP JUMPDEST DUP4 SSTORE POP JUMPDEST PUSH1 0x1 PUSH1 0x2 DUP9 MUL ADD DUP9 SSTORE POP POP POP JUMPDEST POP POP POP POP POP POP POP JUMP JUMPDEST DUP3 DUP2 DUP4 CALLDATACOPY PUSH0 DUP4 DUP4 ADD MSTORE POP POP POP JUMP JUMPDEST PUSH0 PUSH2 0x1A9F DUP4 DUP6 PUSH2 0x1469 JUMP JUMPDEST SWAP4 POP PUSH2 0x1AAC DUP4 DUP6 DUP5 PUSH2 0x1A86 JUMP JUMPDEST PUSH2 0x1AB5 DUP4 PUSH2 0x1487 JUMP JUMPDEST DUP5 ADD SWAP1 POP SWAP4 SWAP3 POP POP POP JUMP JUMPDEST PUSH0 PUSH1 0x20 DUP3 ADD SWAP1 POP DUP2 DUP2 SUB PUSH0 DUP4 ADD MSTORE PUSH2 0x1AD9 DUP2 DUP5 DUP7 PUSH2 0x1A94 JUMP JUMPDEST SWAP1 POP SWAP4 SWAP3 POP POP POP JUMP JUMPDEST PUSH0 PUSH0 REVERT JUMPDEST PUSH2 0x1AEF DUP3 PUSH2 0x1487 JUMP JUMPDEST DUP2 ADD DUP2 DUP2 LT PUSH8 0xFFFFFFFFFFFFFFFF DUP3 GT OR ISZERO PUSH2 0x1B0E JUMPI PUSH2 0x1B0D PUSH2 0x17F6 JUMP JUMPDEST JUMPDEST DUP1 PUSH1 0x40 MSTORE POP POP POP JUMP JUMPDEST PUSH0 PUSH2 0x1B20 PUSH2 0x117D JUMP JUMPDEST SWAP1 POP PUSH2 0x1B2C DUP3 DUP3 PUSH2 0x1AE6 JUMP JUMPDEST SWAP2 SWAP1 POP JUMP JUMPDEST PUSH2 0x1B3A DUP2 PUSH2 0x135B JUMP JUMPDEST DUP2 EQ PUSH2 0x1B44 JUMPI PUSH0 PUSH0 REVERT JUMPDEST POP JUMP JUMPDEST PUSH0 DUP2 MLOAD SWAP1 POP PUSH2 0x1B55 DUP2 PUSH2 0x1B31 JUMP JUMPDEST SWAP3 SWAP2 POP POP JUMP JUMPDEST PUSH0 PUSH1 0x40 DUP3 DUP5 SUB SLT ISZERO PUSH2 0x1B70 JUMPI PUSH2 0x1B6F PUSH2 0x1AE2 JUMP JUMPDEST JUMPDEST PUSH2 0x1B7A PUSH1 0x40 PUSH2 0x1B17 JUMP JUMPDEST SWAP1 POP PUSH0 PUSH2 0x1B89 DUP5 DUP3 DUP6 ADD PUSH2 0x1B47 JUMP JUMPDEST PUSH0 DUP4 ADD MSTORE POP PUSH1 0x20 PUSH2 0x1B9C DUP5 DUP3 DUP6 ADD PUSH2 0x1B47 JUMP JUMPDEST PUSH1 0x20 DUP4 ADD MSTORE POP SWAP3 SWAP2 POP POP JUMP JUMPDEST PUSH0 PUSH1 0x40 DUP3 DUP5 SUB SLT ISZERO PUSH2 0x1BBD JUMPI PUSH2 0x1BBC PUSH2 0x1186 JUMP JUMPDEST JUMPDEST PUSH0 PUSH2 0x1BCA DUP5 DUP3 DUP6 ADD PUSH2 0x1B5B JUMP JUMPDEST SWAP2 POP POP SWAP3 SWAP2 POP POP JUMP JUMPDEST PUSH0 DUP2 CALLDATALOAD SWAP1 POP PUSH2 0x1BE1 DUP2 PUSH2 0x1B31 JUMP JUMPDEST SWAP3 SWAP2 POP POP JUMP JUMPDEST PUSH0 PUSH2 0x1BF5 PUSH1 0x20 DUP5 ADD DUP5 PUSH2 0x1BD3 JUMP JUMPDEST SWAP1 POP SWAP3 SWAP2 POP POP JUMP JUMPDEST PUSH1 0x40 DUP3 ADD PUSH2 0x1C0D PUSH0 DUP4 ADD DUP4 PUSH2 0x1BE7 JUMP JUMPDEST PUSH2 0x1C19 PUSH0 DUP6 ADD DUP3 PUSH2 0x136E JUMP JUMPDEST POP PUSH2 0x1C27 PUSH1 0x20 DUP4 ADD DUP4 PUSH2 0x1BE7 JUMP JUMPDEST PUSH2 0x1C34 PUSH1 0x20 DUP6 ADD DUP3 PUSH2 0x136E JUMP JUMPDEST POP POP POP POP JUMP JUMPDEST PUSH0 PUSH1 0x60 DUP3 ADD SWAP1 POP DUP2 DUP2 SUB PUSH0 DUP4 ADD MSTORE PUSH2 0x1C53 DUP2 DUP6 DUP8 PUSH2 0x1A94 JUMP JUMPDEST SWAP1 POP PUSH2 0x1C62 PUSH1 0x20 DUP4 ADD DUP5 PUSH2 0x1BFD JUMP JUMPDEST SWAP5 SWAP4 POP POP POP POP JUMP JUMPDEST PUSH0 PUSH1 0x20 DUP3 DUP5 SUB SLT ISZERO PUSH2 0x1C7F JUMPI PUSH2 0x1C7E PUSH2 0x1186 JUMP JUMPDEST JUMPDEST PUSH0 PUSH2 0x1C8C DUP5 DUP3 DUP6 ADD PUSH2 0x1BD3 JUMP JUMPDEST SWAP2 POP POP SWAP3 SWAP2 POP POP JUMP JUMPDEST PUSH2 0x1C9E DUP2 PUSH2 0x135B JUMP JUMPDEST DUP3 MSTORE POP POP JUMP JUMPDEST PUSH0 PUSH1 0x60 DUP3 ADD SWAP1 POP DUP2 DUP2 SUB PUSH0 DUP4 ADD MSTORE PUSH2 0x1CBD DUP2 DUP7 DUP9 PUSH2 0x1A94 JUMP JUMPDEST SWAP1 POP PUSH2 0x1CCC PUSH1 0x20 DUP4 ADD DUP6 PUSH2 0x1C95 JUMP JUMPDEST PUSH2 0x1CD9 PUSH1 0x40 DUP4 ADD DUP5 PUSH2 0x1C95 JUMP JUMPDEST SWAP6 SWAP5 POP POP POP POP POP JUMP JUMPDEST PUSH0 PUSH1 0x40 DUP3 ADD SWAP1 POP DUP2 DUP2 SUB PUSH0 DUP4 ADD MSTORE PUSH2 0x1CFA DUP2 DUP7 PUSH2 0x16F9 JUMP JUMPDEST SWAP1 POP DUP2 DUP2 SUB PUSH1 0x20 DUP4 ADD MSTORE PUSH2 0x1D0F DUP2 DUP5 DUP7 PUSH2 0x1A94 JUMP JUMPDEST SWAP1 POP SWAP5 SWAP4 POP POP POP POP JUMP JUMPDEST PUSH0 PUSH0 REVERT JUMPDEST PUSH0 PUSH0 REVERT JUMPDEST PUSH0 PUSH0 REVERT JUMPDEST PUSH0 PUSH0 DUP4 CALLDATALOAD PUSH1 0x1 PUSH1 0x20 SUB DUP5 CALLDATASIZE SUB SUB DUP2 SLT PUSH2 0x1D41 JUMPI PUSH2 0x1D40 PUSH2 0x1D19 JUMP JUMPDEST JUMPDEST DUP1 DUP5 ADD SWAP3 POP DUP3 CALLDATALOAD SWAP2 POP PUSH8 0xFFFFFFFFFFFFFFFF DUP3 GT ISZERO PUSH2 0x1D63 JUMPI PUSH2 0x1D62 PUSH2 0x1D1D JUMP JUMPDEST JUMPDEST PUSH1 0x20 DUP4 ADD SWAP3 POP PUSH1 0x1 DUP3 MUL CALLDATASIZE SUB DUP4 SGT ISZERO PUSH2 0x1D7F JUMPI PUSH2 0x1D7E PUSH2 0x1D21 JUMP JUMPDEST JUMPDEST POP SWAP3 POP SWAP3 SWAP1 POP JUMP JUMPDEST PUSH0 PUSH1 0xA0 DUP3 ADD SWAP1 POP PUSH2 0x1D9A PUSH0 DUP4 ADD DUP10 PUSH2 0x1437 JUMP JUMPDEST PUSH2 0x1DA7 PUSH1 0x20 DUP4 ADD DUP9 PUSH2 0x1437 JUMP JUMPDEST PUSH2 0x1DB4 PUSH1 0x40 DUP4 ADD DUP8 PUSH2 0x1155 JUMP JUMPDEST DUP2 DUP2 SUB PUSH1 0x60 DUP4 ADD MSTORE PUSH2 0x1DC7 DUP2 DUP6 DUP8 PUSH2 0x1A94 JUMP JUMPDEST SWAP1 POP PUSH2 0x1DD6 PUSH1 0x80 DUP4 ADD DUP5 PUSH2 0x17AF JUMP JUMPDEST SWAP8 SWAP7 POP POP POP POP POP POP POP JUMP JUMPDEST PUSH0 PUSH1 0x60 DUP3 ADD SWAP1 POP DUP2 DUP2 SUB PUSH0 DUP4 ADD MSTORE PUSH2 0x1DF9 DUP2 DUP7 PUSH2 0x16F9 JUMP JUMPDEST SWAP1 POP PUSH2 0x1E08 PUSH1 0x20 DUP4 ADD DUP6 PUSH2 0x1437 JUMP JUMPDEST DUP2 DUP2 SUB PUSH1 0x40 DUP4 ADD MSTORE PUSH2 0x1E1A DUP2 DUP5 PUSH2 0x1497 JUMP JUMPDEST SWAP1 POP SWAP5 SWAP4 POP POP POP POP JUMP INVALID LOG2 PUSH5 0x6970667358 0x22 SLT KECCAK256 SWAP13 PC 0xC8 MCOPY 0xAE GT 0xC6 0x2E PUSH20 0x68F53989748B2DB2D21567FE7ADEFAF74B62E2C3 SWAP6 0xDC 0xBD PUSH5 0x736F6C6343 STOP ADDMOD 0x22 STOP CALLER "},"methodIdentifiers":{"allowedReceivers(address)":"3cf20025","destination()":"b269681d","dispatchEncodedMessage(address,bytes32,bytes)":"f9bf25cb","dispatchRemoteCall((uint256,address,address,uint256,bytes,bytes32))":"227f3dbf","estimateDispatchWeight((uint256,address,address,uint256,bytes,bytes32))":"3ea9c157","estimateEncodedMessageWeight(bytes)":"4179f977","executeEncodedMessage(bytes32,bytes,(uint64,uint64))":"b35381d5","messagePrefix()":"91da2b3d","owner()":"8da5cb5b","setAllowedReceiver(address,bool)":"edb88ae9","setDestination(bytes)":"2961ac40","setMessagePrefix(bytes)":"7069b3f0","supportedDestinationChainId()":"14ecec76","xcm()":"84f24c4b"}}}}}