{"project/contracts/mocks/MockEntryPoint.sol":{"MockEntryPoint":{"abi":[{"inputs":[],"name":"PaymasterValidationFailed","type":"error"},{"anonymous":false,"inputs":[{"indexed":true,"internalType":"address","name":"sender","type":"address"},{"indexed":true,"internalType":"bytes32","name":"userOpHash","type":"bytes32"},{"indexed":true,"internalType":"address","name":"paymaster","type":"address"}],"name":"UserOperationHandled","type":"event"},{"inputs":[{"components":[{"internalType":"address","name":"sender","type":"address"},{"internalType":"uint256","name":"nonce","type":"uint256"},{"internalType":"bytes","name":"initCode","type":"bytes"},{"internalType":"bytes","name":"callData","type":"bytes"},{"internalType":"bytes32","name":"accountGasLimits","type":"bytes32"},{"internalType":"uint256","name":"preVerificationGas","type":"uint256"},{"internalType":"bytes32","name":"gasFees","type":"bytes32"},{"internalType":"bytes","name":"paymasterAndData","type":"bytes"},{"internalType":"bytes","name":"signature","type":"bytes"}],"internalType":"struct PackedUserOperation","name":"userOp","type":"tuple"}],"name":"getUserOpHash","outputs":[{"internalType":"bytes32","name":"","type":"bytes32"}],"stateMutability":"view","type":"function"},{"inputs":[{"components":[{"internalType":"address","name":"sender","type":"address"},{"internalType":"uint256","name":"nonce","type":"uint256"},{"internalType":"bytes","name":"initCode","type":"bytes"},{"internalType":"bytes","name":"callData","type":"bytes"},{"internalType":"bytes32","name":"accountGasLimits","type":"bytes32"},{"internalType":"uint256","name":"preVerificationGas","type":"uint256"},{"internalType":"bytes32","name":"gasFees","type":"bytes32"},{"internalType":"bytes","name":"paymasterAndData","type":"bytes"},{"internalType":"bytes","name":"signature","type":"bytes"}],"internalType":"struct PackedUserOperation[]","name":"ops","type":"tuple[]"}],"name":"handleOps","outputs":[],"stateMutability":"nonpayable","type":"function"}],"evm":{"bytecode":{"linkReferences":{},"object":"6080604052348015600e575f5ffd5b50610edf8061001c5f395ff3fe608060405234801561000f575f5ffd5b5060043610610034575f3560e01c806322cdde4c1461003857806357956b5814610068575b5f5ffd5b610052600480360381019061004d9190610504565b610084565b60405161005f9190610563565b60405180910390f35b610082600480360381019061007d91906105dd565b610155565b005b5f4630835f0160208101906100999190610682565b84602001358580604001906100ae91906106b9565b6040516100bc929190610757565b60405180910390208680606001906100d491906106b9565b6040516100e2929190610757565b604051809103902087608001358860a001358960c001358a8060e0019061010991906106b9565b604051610117929190610757565b60405180910390206040516020016101389a99989796959493929190610796565b604051602081830303815290604052805190602001209050919050565b5f5f90505b828290508110156104cb573683838381811061017957610178610830565b5b905060200281019061018b919061085d565b90505f61019782610084565b9050815f0160208101906101ab9190610682565b73ffffffffffffffffffffffffffffffffffffffff166319822f7c83835f6040518463ffffffff1660e01b81526004016101e793929190610b6b565b6020604051808303815f875af1158015610203573d5f5f3e3d5ffd5b505050506040513d601f19601f820116820180604052508101906102279190610bbb565b505f5f905060605f848060e0019061023f91906106b9565b9050111561032b575f848060e0019061025891906106b9565b8101906102659190610c21565b50809350508273ffffffffffffffffffffffffffffffffffffffff1663faebc97786866040518363ffffffff1660e01b81526004016102a5929190610c5f565b5f604051808303815f875af11580156102c0573d5f5f3e3d5ffd5b505050506040513d5f823e3d601f19601f820116820180604052508101906102e89190610db5565b80925081935050505f8114610329576040517f37f52c1200000000000000000000000000000000000000000000000000000000815260040160405180910390fd5b505b5f60019050845f0160208101906103429190610682565b73ffffffffffffffffffffffffffffffffffffffff16638dd7712f86866040518363ffffffff1660e01b815260040161037c929190610c5f565b5f604051808303815f87803b158015610393575f5ffd5b505af19250505080156103a4575060015b6103b0575f90506103b1565b5b5f73ffffffffffffffffffffffffffffffffffffffff168373ffffffffffffffffffffffffffffffffffffffff161461044d578273ffffffffffffffffffffffffffffffffffffffff1663e3f66f1d83836040518363ffffffff1660e01b815260040161041f929190610e7b565b5f604051808303815f87803b158015610436575f5ffd5b505af1158015610448573d5f5f3e3d5ffd5b505050505b8273ffffffffffffffffffffffffffffffffffffffff1684865f0160208101906104779190610682565b73ffffffffffffffffffffffffffffffffffffffff167f6924fdd1b02e87cdd40c477785cac51668348bdff42df1b759f37b81baa4c86160405160405180910390a45050505050808060010191505061015a565b505050565b5f604051905090565b5f5ffd5b5f5ffd5b5f5ffd5b5f61012082840312156104fb576104fa6104e1565b5b81905092915050565b5f60208284031215610519576105186104d9565b5b5f82013567ffffffffffffffff811115610536576105356104dd565b5b610542848285016104e5565b91505092915050565b5f819050919050565b61055d8161054b565b82525050565b5f6020820190506105765f830184610554565b92915050565b5f5ffd5b5f5ffd5b5f5ffd5b5f5f83601f84011261059d5761059c61057c565b5b8235905067ffffffffffffffff8111156105ba576105b9610580565b5b6020830191508360208202830111156105d6576105d5610584565b5b9250929050565b5f5f602083850312156105f3576105f26104d9565b5b5f83013567ffffffffffffffff8111156106105761060f6104dd565b5b61061c85828601610588565b92509250509250929050565b5f73ffffffffffffffffffffffffffffffffffffffff82169050919050565b5f61065182610628565b9050919050565b61066181610647565b811461066b575f5ffd5b50565b5f8135905061067c81610658565b92915050565b5f60208284031215610697576106966104d9565b5b5f6106a48482850161066e565b91505092915050565b5f5ffd5b5f5ffd5b5f5ffd5b5f5f833560016020038436030381126106d5576106d46106ad565b5b80840192508235915067ffffffffffffffff8211156106f7576106f66106b1565b5b602083019250600182023603831315610713576107126106b5565b5b509250929050565b5f81905092915050565b828183375f83830152505050565b5f61073e838561071b565b935061074b838584610725565b82840190509392505050565b5f610763828486610733565b91508190509392505050565b5f819050919050565b6107818161076f565b82525050565b61079081610647565b82525050565b5f610140820190506107aa5f83018d610778565b6107b7602083018c610787565b6107c4604083018b610787565b6107d1606083018a610778565b6107de6080830189610554565b6107eb60a0830188610554565b6107f860c0830187610554565b61080560e0830186610778565b610813610100830185610554565b610821610120830184610554565b9b9a5050505050505050505050565b7f4e487b71000000000000000000000000000000000000000000000000000000005f52603260045260245ffd5b5f8235600161012003833603038112610879576108786106ad565b5b80830191505092915050565b5f610893602084018461066e565b905092915050565b6108a481610647565b82525050565b6108b38161076f565b81146108bd575f5ffd5b50565b5f813590506108ce816108aa565b92915050565b5f6108e260208401846108c0565b905092915050565b6108f38161076f565b82525050565b5f5ffd5b5f5ffd5b5f5ffd5b5f5f8335600160200384360303811261092157610920610901565b5b83810192508235915060208301925067ffffffffffffffff821115610949576109486108f9565b5b60018202360383131561095f5761095e6108fd565b5b509250929050565b5f82825260208201905092915050565b5f601f19601f8301169050919050565b5f6109928385610967565b935061099f838584610725565b6109a883610977565b840190509392505050565b6109bc8161054b565b81146109c6575f5ffd5b50565b5f813590506109d7816109b3565b92915050565b5f6109eb60208401846109c9565b905092915050565b6109fc8161054b565b82525050565b5f6101208301610a145f840184610885565b610a205f86018261089b565b50610a2e60208401846108d4565b610a3b60208601826108ea565b50610a496040840184610905565b8583036040870152610a5c838284610987565b92505050610a6d6060840184610905565b8583036060870152610a80838284610987565b92505050610a9160808401846109dd565b610a9e60808601826109f3565b50610aac60a08401846108d4565b610ab960a08601826108ea565b50610ac760c08401846109dd565b610ad460c08601826109f3565b50610ae260e0840184610905565b85830360e0870152610af5838284610987565b92505050610b07610100840184610905565b858303610100870152610b1b838284610987565b925050508091505092915050565b5f819050919050565b5f819050919050565b5f610b55610b50610b4b84610b29565b610b32565b61076f565b9050919050565b610b6581610b3b565b82525050565b5f6060820190508181035f830152610b838186610a02565b9050610b926020830185610554565b610b9f6040830184610b5c565b949350505050565b5f81519050610bb5816108aa565b92915050565b5f60208284031215610bd057610bcf6104d9565b5b5f610bdd84828501610ba7565b91505092915050565b5f610bf082610628565b9050919050565b610c0081610be6565b8114610c0a575f5ffd5b50565b5f81359050610c1b81610bf7565b92915050565b5f5f60408385031215610c3757610c366104d9565b5b5f610c4485828601610c0d565b9250506020610c55858286016108c0565b9150509250929050565b5f6040820190508181035f830152610c778185610a02565b9050610c866020830184610554565b9392505050565b5f5ffd5b7f4e487b71000000000000000000000000000000000000000000000000000000005f52604160045260245ffd5b610cc782610977565b810181811067ffffffffffffffff82111715610ce657610ce5610c91565b5b80604052505050565b5f610cf86104d0565b9050610d048282610cbe565b919050565b5f67ffffffffffffffff821115610d2357610d22610c91565b5b610d2c82610977565b9050602081019050919050565b8281835e5f83830152505050565b5f610d59610d5484610d09565b610cef565b905082815260208101848484011115610d7557610d74610c8d565b5b610d80848285610d39565b509392505050565b5f82601f830112610d9c57610d9b61057c565b5b8151610dac848260208601610d47565b91505092915050565b5f5f60408385031215610dcb57610dca6104d9565b5b5f83015167ffffffffffffffff811115610de857610de76104dd565b5b610df485828601610d88565b9250506020610e0585828601610ba7565b9150509250929050565b5f81519050919050565b5f82825260208201905092915050565b5f610e3382610e0f565b610e3d8185610e19565b9350610e4d818560208601610d39565b610e5681610977565b840191505092915050565b5f8115159050919050565b610e7581610e61565b82525050565b5f6040820190508181035f830152610e938185610e29565b9050610ea26020830184610e6c565b939250505056fea26469706673582212206998d7c3c05273cd6d93c0a51bbc38aa2d12e14c7626b0ab8487ca7632ce1a3564736f6c63430008220033","opcodes":"PUSH1 0x80 PUSH1 0x40 MSTORE CALLVALUE DUP1 ISZERO PUSH1 0xE JUMPI PUSH0 PUSH0 REVERT JUMPDEST POP PUSH2 0xEDF DUP1 PUSH2 0x1C PUSH0 CODECOPY PUSH0 RETURN INVALID PUSH1 0x80 PUSH1 0x40 MSTORE CALLVALUE DUP1 ISZERO PUSH2 0xF JUMPI PUSH0 PUSH0 REVERT JUMPDEST POP PUSH1 0x4 CALLDATASIZE LT PUSH2 0x34 JUMPI PUSH0 CALLDATALOAD PUSH1 0xE0 SHR DUP1 PUSH4 0x22CDDE4C EQ PUSH2 0x38 JUMPI DUP1 PUSH4 0x57956B58 EQ PUSH2 0x68 JUMPI JUMPDEST PUSH0 PUSH0 REVERT JUMPDEST PUSH2 0x52 PUSH1 0x4 DUP1 CALLDATASIZE SUB DUP2 ADD SWAP1 PUSH2 0x4D SWAP2 SWAP1 PUSH2 0x504 JUMP JUMPDEST PUSH2 0x84 JUMP JUMPDEST PUSH1 0x40 MLOAD PUSH2 0x5F SWAP2 SWAP1 PUSH2 0x563 JUMP JUMPDEST PUSH1 0x40 MLOAD DUP1 SWAP2 SUB SWAP1 RETURN JUMPDEST PUSH2 0x82 PUSH1 0x4 DUP1 CALLDATASIZE SUB DUP2 ADD SWAP1 PUSH2 0x7D SWAP2 SWAP1 PUSH2 0x5DD JUMP JUMPDEST PUSH2 0x155 JUMP JUMPDEST STOP JUMPDEST PUSH0 CHAINID ADDRESS DUP4 PUSH0 ADD PUSH1 0x20 DUP2 ADD SWAP1 PUSH2 0x99 SWAP2 SWAP1 PUSH2 0x682 JUMP JUMPDEST DUP5 PUSH1 0x20 ADD CALLDATALOAD DUP6 DUP1 PUSH1 0x40 ADD SWAP1 PUSH2 0xAE SWAP2 SWAP1 PUSH2 0x6B9 JUMP JUMPDEST PUSH1 0x40 MLOAD PUSH2 0xBC SWAP3 SWAP2 SWAP1 PUSH2 0x757 JUMP JUMPDEST PUSH1 0x40 MLOAD DUP1 SWAP2 SUB SWAP1 KECCAK256 DUP7 DUP1 PUSH1 0x60 ADD SWAP1 PUSH2 0xD4 SWAP2 SWAP1 PUSH2 0x6B9 JUMP JUMPDEST PUSH1 0x40 MLOAD PUSH2 0xE2 SWAP3 SWAP2 SWAP1 PUSH2 0x757 JUMP JUMPDEST PUSH1 0x40 MLOAD DUP1 SWAP2 SUB SWAP1 KECCAK256 DUP8 PUSH1 0x80 ADD CALLDATALOAD DUP9 PUSH1 0xA0 ADD CALLDATALOAD DUP10 PUSH1 0xC0 ADD CALLDATALOAD DUP11 DUP1 PUSH1 0xE0 ADD SWAP1 PUSH2 0x109 SWAP2 SWAP1 PUSH2 0x6B9 JUMP JUMPDEST PUSH1 0x40 MLOAD PUSH2 0x117 SWAP3 SWAP2 SWAP1 PUSH2 0x757 JUMP JUMPDEST PUSH1 0x40 MLOAD DUP1 SWAP2 SUB SWAP1 KECCAK256 PUSH1 0x40 MLOAD PUSH1 0x20 ADD PUSH2 0x138 SWAP11 SWAP10 SWAP9 SWAP8 SWAP7 SWAP6 SWAP5 SWAP4 SWAP3 SWAP2 SWAP1 PUSH2 0x796 JUMP JUMPDEST PUSH1 0x40 MLOAD PUSH1 0x20 DUP2 DUP4 SUB SUB DUP2 MSTORE SWAP1 PUSH1 0x40 MSTORE DUP1 MLOAD SWAP1 PUSH1 0x20 ADD KECCAK256 SWAP1 POP SWAP2 SWAP1 POP JUMP JUMPDEST PUSH0 PUSH0 SWAP1 POP JUMPDEST DUP3 DUP3 SWAP1 POP DUP2 LT ISZERO PUSH2 0x4CB JUMPI CALLDATASIZE DUP4 DUP4 DUP4 DUP2 DUP2 LT PUSH2 0x179 JUMPI PUSH2 0x178 PUSH2 0x830 JUMP JUMPDEST JUMPDEST SWAP1 POP PUSH1 0x20 MUL DUP2 ADD SWAP1 PUSH2 0x18B SWAP2 SWAP1 PUSH2 0x85D JUMP JUMPDEST SWAP1 POP PUSH0 PUSH2 0x197 DUP3 PUSH2 0x84 JUMP JUMPDEST SWAP1 POP DUP2 PUSH0 ADD PUSH1 0x20 DUP2 ADD SWAP1 PUSH2 0x1AB SWAP2 SWAP1 PUSH2 0x682 JUMP JUMPDEST PUSH20 0xFFFFFFFFFFFFFFFFFFFFFFFFFFFFFFFFFFFFFFFF AND PUSH4 0x19822F7C DUP4 DUP4 PUSH0 PUSH1 0x40 MLOAD DUP5 PUSH4 0xFFFFFFFF AND PUSH1 0xE0 SHL DUP2 MSTORE PUSH1 0x4 ADD PUSH2 0x1E7 SWAP4 SWAP3 SWAP2 SWAP1 PUSH2 0xB6B JUMP JUMPDEST PUSH1 0x20 PUSH1 0x40 MLOAD DUP1 DUP4 SUB DUP2 PUSH0 DUP8 GAS CALL ISZERO DUP1 ISZERO PUSH2 0x203 JUMPI RETURNDATASIZE PUSH0 PUSH0 RETURNDATACOPY RETURNDATASIZE PUSH0 REVERT JUMPDEST POP POP POP POP PUSH1 0x40 MLOAD RETURNDATASIZE PUSH1 0x1F NOT PUSH1 0x1F DUP3 ADD AND DUP3 ADD DUP1 PUSH1 0x40 MSTORE POP DUP2 ADD SWAP1 PUSH2 0x227 SWAP2 SWAP1 PUSH2 0xBBB JUMP JUMPDEST POP PUSH0 PUSH0 SWAP1 POP PUSH1 0x60 PUSH0 DUP5 DUP1 PUSH1 0xE0 ADD SWAP1 PUSH2 0x23F SWAP2 SWAP1 PUSH2 0x6B9 JUMP JUMPDEST SWAP1 POP GT ISZERO PUSH2 0x32B JUMPI PUSH0 DUP5 DUP1 PUSH1 0xE0 ADD SWAP1 PUSH2 0x258 SWAP2 SWAP1 PUSH2 0x6B9 JUMP JUMPDEST DUP2 ADD SWAP1 PUSH2 0x265 SWAP2 SWAP1 PUSH2 0xC21 JUMP JUMPDEST POP DUP1 SWAP4 POP POP DUP3 PUSH20 0xFFFFFFFFFFFFFFFFFFFFFFFFFFFFFFFFFFFFFFFF AND PUSH4 0xFAEBC977 DUP7 DUP7 PUSH1 0x40 MLOAD DUP4 PUSH4 0xFFFFFFFF AND PUSH1 0xE0 SHL DUP2 MSTORE PUSH1 0x4 ADD PUSH2 0x2A5 SWAP3 SWAP2 SWAP1 PUSH2 0xC5F JUMP JUMPDEST PUSH0 PUSH1 0x40 MLOAD DUP1 DUP4 SUB DUP2 PUSH0 DUP8 GAS CALL ISZERO DUP1 ISZERO PUSH2 0x2C0 JUMPI RETURNDATASIZE PUSH0 PUSH0 RETURNDATACOPY RETURNDATASIZE PUSH0 REVERT JUMPDEST POP POP POP POP PUSH1 0x40 MLOAD RETURNDATASIZE PUSH0 DUP3 RETURNDATACOPY RETURNDATASIZE PUSH1 0x1F NOT PUSH1 0x1F DUP3 ADD AND DUP3 ADD DUP1 PUSH1 0x40 MSTORE POP DUP2 ADD SWAP1 PUSH2 0x2E8 SWAP2 SWAP1 PUSH2 0xDB5 JUMP JUMPDEST DUP1 SWAP3 POP DUP2 SWAP4 POP POP POP PUSH0 DUP2 EQ PUSH2 0x329 JUMPI PUSH1 0x40 MLOAD PUSH32 0x37F52C1200000000000000000000000000000000000000000000000000000000 DUP2 MSTORE PUSH1 0x4 ADD PUSH1 0x40 MLOAD DUP1 SWAP2 SUB SWAP1 REVERT JUMPDEST POP JUMPDEST PUSH0 PUSH1 0x1 SWAP1 POP DUP5 PUSH0 ADD PUSH1 0x20 DUP2 ADD SWAP1 PUSH2 0x342 SWAP2 SWAP1 PUSH2 0x682 JUMP JUMPDEST PUSH20 0xFFFFFFFFFFFFFFFFFFFFFFFFFFFFFFFFFFFFFFFF AND PUSH4 0x8DD7712F DUP7 DUP7 PUSH1 0x40 MLOAD DUP4 PUSH4 0xFFFFFFFF AND PUSH1 0xE0 SHL DUP2 MSTORE PUSH1 0x4 ADD PUSH2 0x37C SWAP3 SWAP2 SWAP1 PUSH2 0xC5F JUMP JUMPDEST PUSH0 PUSH1 0x40 MLOAD DUP1 DUP4 SUB DUP2 PUSH0 DUP8 DUP1 EXTCODESIZE ISZERO DUP1 ISZERO PUSH2 0x393 JUMPI PUSH0 PUSH0 REVERT JUMPDEST POP GAS CALL SWAP3 POP POP POP DUP1 ISZERO PUSH2 0x3A4 JUMPI POP PUSH1 0x1 JUMPDEST PUSH2 0x3B0 JUMPI PUSH0 SWAP1 POP PUSH2 0x3B1 JUMP JUMPDEST JUMPDEST PUSH0 PUSH20 0xFFFFFFFFFFFFFFFFFFFFFFFFFFFFFFFFFFFFFFFF AND DUP4 PUSH20 0xFFFFFFFFFFFFFFFFFFFFFFFFFFFFFFFFFFFFFFFF AND EQ PUSH2 0x44D JUMPI DUP3 PUSH20 0xFFFFFFFFFFFFFFFFFFFFFFFFFFFFFFFFFFFFFFFF AND PUSH4 0xE3F66F1D DUP4 DUP4 PUSH1 0x40 MLOAD DUP4 PUSH4 0xFFFFFFFF AND PUSH1 0xE0 SHL DUP2 MSTORE PUSH1 0x4 ADD PUSH2 0x41F SWAP3 SWAP2 SWAP1 PUSH2 0xE7B JUMP JUMPDEST PUSH0 PUSH1 0x40 MLOAD DUP1 DUP4 SUB DUP2 PUSH0 DUP8 DUP1 EXTCODESIZE ISZERO DUP1 ISZERO PUSH2 0x436 JUMPI PUSH0 PUSH0 REVERT JUMPDEST POP GAS CALL ISZERO DUP1 ISZERO PUSH2 0x448 JUMPI RETURNDATASIZE PUSH0 PUSH0 RETURNDATACOPY RETURNDATASIZE PUSH0 REVERT JUMPDEST POP POP POP POP JUMPDEST DUP3 PUSH20 0xFFFFFFFFFFFFFFFFFFFFFFFFFFFFFFFFFFFFFFFF AND DUP5 DUP7 PUSH0 ADD PUSH1 0x20 DUP2 ADD SWAP1 PUSH2 0x477 SWAP2 SWAP1 PUSH2 0x682 JUMP JUMPDEST PUSH20 0xFFFFFFFFFFFFFFFFFFFFFFFFFFFFFFFFFFFFFFFF AND PUSH32 0x6924FDD1B02E87CDD40C477785CAC51668348BDFF42DF1B759F37B81BAA4C861 PUSH1 0x40 MLOAD PUSH1 0x40 MLOAD DUP1 SWAP2 SUB SWAP1 LOG4 POP POP POP POP POP DUP1 DUP1 PUSH1 0x1 ADD SWAP2 POP POP PUSH2 0x15A JUMP JUMPDEST POP POP POP JUMP JUMPDEST PUSH0 PUSH1 0x40 MLOAD SWAP1 POP SWAP1 JUMP JUMPDEST PUSH0 PUSH0 REVERT JUMPDEST PUSH0 PUSH0 REVERT JUMPDEST PUSH0 PUSH0 REVERT JUMPDEST PUSH0 PUSH2 0x120 DUP3 DUP5 SUB SLT ISZERO PUSH2 0x4FB JUMPI PUSH2 0x4FA PUSH2 0x4E1 JUMP JUMPDEST JUMPDEST DUP2 SWAP1 POP SWAP3 SWAP2 POP POP JUMP JUMPDEST PUSH0 PUSH1 0x20 DUP3 DUP5 SUB SLT ISZERO PUSH2 0x519 JUMPI PUSH2 0x518 PUSH2 0x4D9 JUMP JUMPDEST JUMPDEST PUSH0 DUP3 ADD CALLDATALOAD PUSH8 0xFFFFFFFFFFFFFFFF DUP2 GT ISZERO PUSH2 0x536 JUMPI PUSH2 0x535 PUSH2 0x4DD JUMP JUMPDEST JUMPDEST PUSH2 0x542 DUP5 DUP3 DUP6 ADD PUSH2 0x4E5 JUMP JUMPDEST SWAP2 POP POP SWAP3 SWAP2 POP POP JUMP JUMPDEST PUSH0 DUP2 SWAP1 POP SWAP2 SWAP1 POP JUMP JUMPDEST PUSH2 0x55D DUP2 PUSH2 0x54B JUMP JUMPDEST DUP3 MSTORE POP POP JUMP JUMPDEST PUSH0 PUSH1 0x20 DUP3 ADD SWAP1 POP PUSH2 0x576 PUSH0 DUP4 ADD DUP5 PUSH2 0x554 JUMP JUMPDEST SWAP3 SWAP2 POP POP JUMP JUMPDEST PUSH0 PUSH0 REVERT JUMPDEST PUSH0 PUSH0 REVERT JUMPDEST PUSH0 PUSH0 REVERT JUMPDEST PUSH0 PUSH0 DUP4 PUSH1 0x1F DUP5 ADD SLT PUSH2 0x59D JUMPI PUSH2 0x59C PUSH2 0x57C JUMP JUMPDEST JUMPDEST DUP3 CALLDATALOAD SWAP1 POP PUSH8 0xFFFFFFFFFFFFFFFF DUP2 GT ISZERO PUSH2 0x5BA JUMPI PUSH2 0x5B9 PUSH2 0x580 JUMP JUMPDEST JUMPDEST PUSH1 0x20 DUP4 ADD SWAP2 POP DUP4 PUSH1 0x20 DUP3 MUL DUP4 ADD GT ISZERO PUSH2 0x5D6 JUMPI PUSH2 0x5D5 PUSH2 0x584 JUMP JUMPDEST JUMPDEST SWAP3 POP SWAP3 SWAP1 POP JUMP JUMPDEST PUSH0 PUSH0 PUSH1 0x20 DUP4 DUP6 SUB SLT ISZERO PUSH2 0x5F3 JUMPI PUSH2 0x5F2 PUSH2 0x4D9 JUMP JUMPDEST JUMPDEST PUSH0 DUP4 ADD CALLDATALOAD PUSH8 0xFFFFFFFFFFFFFFFF DUP2 GT ISZERO PUSH2 0x610 JUMPI PUSH2 0x60F PUSH2 0x4DD JUMP JUMPDEST JUMPDEST PUSH2 0x61C DUP6 DUP3 DUP7 ADD PUSH2 0x588 JUMP JUMPDEST SWAP3 POP SWAP3 POP POP SWAP3 POP SWAP3 SWAP1 POP JUMP JUMPDEST PUSH0 PUSH20 0xFFFFFFFFFFFFFFFFFFFFFFFFFFFFFFFFFFFFFFFF DUP3 AND SWAP1 POP SWAP2 SWAP1 POP JUMP JUMPDEST PUSH0 PUSH2 0x651 DUP3 PUSH2 0x628 JUMP JUMPDEST SWAP1 POP SWAP2 SWAP1 POP JUMP JUMPDEST PUSH2 0x661 DUP2 PUSH2 0x647 JUMP JUMPDEST DUP2 EQ PUSH2 0x66B JUMPI PUSH0 PUSH0 REVERT JUMPDEST POP JUMP JUMPDEST PUSH0 DUP2 CALLDATALOAD SWAP1 POP PUSH2 0x67C DUP2 PUSH2 0x658 JUMP JUMPDEST SWAP3 SWAP2 POP POP JUMP JUMPDEST PUSH0 PUSH1 0x20 DUP3 DUP5 SUB SLT ISZERO PUSH2 0x697 JUMPI PUSH2 0x696 PUSH2 0x4D9 JUMP JUMPDEST JUMPDEST PUSH0 PUSH2 0x6A4 DUP5 DUP3 DUP6 ADD PUSH2 0x66E JUMP JUMPDEST SWAP2 POP POP SWAP3 SWAP2 POP POP JUMP JUMPDEST PUSH0 PUSH0 REVERT JUMPDEST PUSH0 PUSH0 REVERT JUMPDEST PUSH0 PUSH0 REVERT JUMPDEST PUSH0 PUSH0 DUP4 CALLDATALOAD PUSH1 0x1 PUSH1 0x20 SUB DUP5 CALLDATASIZE SUB SUB DUP2 SLT PUSH2 0x6D5 JUMPI PUSH2 0x6D4 PUSH2 0x6AD JUMP JUMPDEST JUMPDEST DUP1 DUP5 ADD SWAP3 POP DUP3 CALLDATALOAD SWAP2 POP PUSH8 0xFFFFFFFFFFFFFFFF DUP3 GT ISZERO PUSH2 0x6F7 JUMPI PUSH2 0x6F6 PUSH2 0x6B1 JUMP JUMPDEST JUMPDEST PUSH1 0x20 DUP4 ADD SWAP3 POP PUSH1 0x1 DUP3 MUL CALLDATASIZE SUB DUP4 SGT ISZERO PUSH2 0x713 JUMPI PUSH2 0x712 PUSH2 0x6B5 JUMP JUMPDEST JUMPDEST POP SWAP3 POP SWAP3 SWAP1 POP JUMP JUMPDEST PUSH0 DUP2 SWAP1 POP SWAP3 SWAP2 POP POP JUMP JUMPDEST DUP3 DUP2 DUP4 CALLDATACOPY PUSH0 DUP4 DUP4 ADD MSTORE POP POP POP JUMP JUMPDEST PUSH0 PUSH2 0x73E DUP4 DUP6 PUSH2 0x71B JUMP JUMPDEST SWAP4 POP PUSH2 0x74B DUP4 DUP6 DUP5 PUSH2 0x725 JUMP JUMPDEST DUP3 DUP5 ADD SWAP1 POP SWAP4 SWAP3 POP POP POP JUMP JUMPDEST PUSH0 PUSH2 0x763 DUP3 DUP5 DUP7 PUSH2 0x733 JUMP JUMPDEST SWAP2 POP DUP2 SWAP1 POP SWAP4 SWAP3 POP POP POP JUMP JUMPDEST PUSH0 DUP2 SWAP1 POP SWAP2 SWAP1 POP JUMP JUMPDEST PUSH2 0x781 DUP2 PUSH2 0x76F JUMP JUMPDEST DUP3 MSTORE POP POP JUMP JUMPDEST PUSH2 0x790 DUP2 PUSH2 0x647 JUMP JUMPDEST DUP3 MSTORE POP POP JUMP JUMPDEST PUSH0 PUSH2 0x140 DUP3 ADD SWAP1 POP PUSH2 0x7AA PUSH0 DUP4 ADD DUP14 PUSH2 0x778 JUMP JUMPDEST PUSH2 0x7B7 PUSH1 0x20 DUP4 ADD DUP13 PUSH2 0x787 JUMP JUMPDEST PUSH2 0x7C4 PUSH1 0x40 DUP4 ADD DUP12 PUSH2 0x787 JUMP JUMPDEST PUSH2 0x7D1 PUSH1 0x60 DUP4 ADD DUP11 PUSH2 0x778 JUMP JUMPDEST PUSH2 0x7DE PUSH1 0x80 DUP4 ADD DUP10 PUSH2 0x554 JUMP JUMPDEST PUSH2 0x7EB PUSH1 0xA0 DUP4 ADD DUP9 PUSH2 0x554 JUMP JUMPDEST PUSH2 0x7F8 PUSH1 0xC0 DUP4 ADD DUP8 PUSH2 0x554 JUMP JUMPDEST PUSH2 0x805 PUSH1 0xE0 DUP4 ADD DUP7 PUSH2 0x778 JUMP JUMPDEST PUSH2 0x813 PUSH2 0x100 DUP4 ADD DUP6 PUSH2 0x554 JUMP JUMPDEST PUSH2 0x821 PUSH2 0x120 DUP4 ADD DUP5 PUSH2 0x554 JUMP JUMPDEST SWAP12 SWAP11 POP POP POP POP POP POP POP POP POP POP POP JUMP JUMPDEST PUSH32 0x4E487B7100000000000000000000000000000000000000000000000000000000 PUSH0 MSTORE PUSH1 0x32 PUSH1 0x4 MSTORE PUSH1 0x24 PUSH0 REVERT JUMPDEST PUSH0 DUP3 CALLDATALOAD PUSH1 0x1 PUSH2 0x120 SUB DUP4 CALLDATASIZE SUB SUB DUP2 SLT PUSH2 0x879 JUMPI PUSH2 0x878 PUSH2 0x6AD JUMP JUMPDEST JUMPDEST DUP1 DUP4 ADD SWAP2 POP POP SWAP3 SWAP2 POP POP JUMP JUMPDEST PUSH0 PUSH2 0x893 PUSH1 0x20 DUP5 ADD DUP5 PUSH2 0x66E JUMP JUMPDEST SWAP1 POP SWAP3 SWAP2 POP POP JUMP JUMPDEST PUSH2 0x8A4 DUP2 PUSH2 0x647 JUMP JUMPDEST DUP3 MSTORE POP POP JUMP JUMPDEST PUSH2 0x8B3 DUP2 PUSH2 0x76F JUMP JUMPDEST DUP2 EQ PUSH2 0x8BD JUMPI PUSH0 PUSH0 REVERT JUMPDEST POP JUMP JUMPDEST PUSH0 DUP2 CALLDATALOAD SWAP1 POP PUSH2 0x8CE DUP2 PUSH2 0x8AA JUMP JUMPDEST SWAP3 SWAP2 POP POP JUMP JUMPDEST PUSH0 PUSH2 0x8E2 PUSH1 0x20 DUP5 ADD DUP5 PUSH2 0x8C0 JUMP JUMPDEST SWAP1 POP SWAP3 SWAP2 POP POP JUMP JUMPDEST PUSH2 0x8F3 DUP2 PUSH2 0x76F JUMP JUMPDEST DUP3 MSTORE POP POP JUMP JUMPDEST PUSH0 PUSH0 REVERT JUMPDEST PUSH0 PUSH0 REVERT JUMPDEST PUSH0 PUSH0 REVERT JUMPDEST PUSH0 PUSH0 DUP4 CALLDATALOAD PUSH1 0x1 PUSH1 0x20 SUB DUP5 CALLDATASIZE SUB SUB DUP2 SLT PUSH2 0x921 JUMPI PUSH2 0x920 PUSH2 0x901 JUMP JUMPDEST JUMPDEST DUP4 DUP2 ADD SWAP3 POP DUP3 CALLDATALOAD SWAP2 POP PUSH1 0x20 DUP4 ADD SWAP3 POP PUSH8 0xFFFFFFFFFFFFFFFF DUP3 GT ISZERO PUSH2 0x949 JUMPI PUSH2 0x948 PUSH2 0x8F9 JUMP JUMPDEST JUMPDEST PUSH1 0x1 DUP3 MUL CALLDATASIZE SUB DUP4 SGT ISZERO PUSH2 0x95F JUMPI PUSH2 0x95E PUSH2 0x8FD JUMP JUMPDEST JUMPDEST POP SWAP3 POP SWAP3 SWAP1 POP JUMP JUMPDEST PUSH0 DUP3 DUP3 MSTORE PUSH1 0x20 DUP3 ADD SWAP1 POP SWAP3 SWAP2 POP POP JUMP JUMPDEST PUSH0 PUSH1 0x1F NOT PUSH1 0x1F DUP4 ADD AND SWAP1 POP SWAP2 SWAP1 POP JUMP JUMPDEST PUSH0 PUSH2 0x992 DUP4 DUP6 PUSH2 0x967 JUMP JUMPDEST SWAP4 POP PUSH2 0x99F DUP4 DUP6 DUP5 PUSH2 0x725 JUMP JUMPDEST PUSH2 0x9A8 DUP4 PUSH2 0x977 JUMP JUMPDEST DUP5 ADD SWAP1 POP SWAP4 SWAP3 POP POP POP JUMP JUMPDEST PUSH2 0x9BC DUP2 PUSH2 0x54B JUMP JUMPDEST DUP2 EQ PUSH2 0x9C6 JUMPI PUSH0 PUSH0 REVERT JUMPDEST POP JUMP JUMPDEST PUSH0 DUP2 CALLDATALOAD SWAP1 POP PUSH2 0x9D7 DUP2 PUSH2 0x9B3 JUMP JUMPDEST SWAP3 SWAP2 POP POP JUMP JUMPDEST PUSH0 PUSH2 0x9EB PUSH1 0x20 DUP5 ADD DUP5 PUSH2 0x9C9 JUMP JUMPDEST SWAP1 POP SWAP3 SWAP2 POP POP JUMP JUMPDEST PUSH2 0x9FC DUP2 PUSH2 0x54B JUMP JUMPDEST DUP3 MSTORE POP POP JUMP JUMPDEST PUSH0 PUSH2 0x120 DUP4 ADD PUSH2 0xA14 PUSH0 DUP5 ADD DUP5 PUSH2 0x885 JUMP JUMPDEST PUSH2 0xA20 PUSH0 DUP7 ADD DUP3 PUSH2 0x89B JUMP JUMPDEST POP PUSH2 0xA2E PUSH1 0x20 DUP5 ADD DUP5 PUSH2 0x8D4 JUMP JUMPDEST PUSH2 0xA3B PUSH1 0x20 DUP7 ADD DUP3 PUSH2 0x8EA JUMP JUMPDEST POP PUSH2 0xA49 PUSH1 0x40 DUP5 ADD DUP5 PUSH2 0x905 JUMP JUMPDEST DUP6 DUP4 SUB PUSH1 0x40 DUP8 ADD MSTORE PUSH2 0xA5C DUP4 DUP3 DUP5 PUSH2 0x987 JUMP JUMPDEST SWAP3 POP POP POP PUSH2 0xA6D PUSH1 0x60 DUP5 ADD DUP5 PUSH2 0x905 JUMP JUMPDEST DUP6 DUP4 SUB PUSH1 0x60 DUP8 ADD MSTORE PUSH2 0xA80 DUP4 DUP3 DUP5 PUSH2 0x987 JUMP JUMPDEST SWAP3 POP POP POP PUSH2 0xA91 PUSH1 0x80 DUP5 ADD DUP5 PUSH2 0x9DD JUMP JUMPDEST PUSH2 0xA9E PUSH1 0x80 DUP7 ADD DUP3 PUSH2 0x9F3 JUMP JUMPDEST POP PUSH2 0xAAC PUSH1 0xA0 DUP5 ADD DUP5 PUSH2 0x8D4 JUMP JUMPDEST PUSH2 0xAB9 PUSH1 0xA0 DUP7 ADD DUP3 PUSH2 0x8EA JUMP JUMPDEST POP PUSH2 0xAC7 PUSH1 0xC0 DUP5 ADD DUP5 PUSH2 0x9DD JUMP JUMPDEST PUSH2 0xAD4 PUSH1 0xC0 DUP7 ADD DUP3 PUSH2 0x9F3 JUMP JUMPDEST POP PUSH2 0xAE2 PUSH1 0xE0 DUP5 ADD DUP5 PUSH2 0x905 JUMP JUMPDEST DUP6 DUP4 SUB PUSH1 0xE0 DUP8 ADD MSTORE PUSH2 0xAF5 DUP4 DUP3 DUP5 PUSH2 0x987 JUMP JUMPDEST SWAP3 POP POP POP PUSH2 0xB07 PUSH2 0x100 DUP5 ADD DUP5 PUSH2 0x905 JUMP JUMPDEST DUP6 DUP4 SUB PUSH2 0x100 DUP8 ADD MSTORE PUSH2 0xB1B DUP4 DUP3 DUP5 PUSH2 0x987 JUMP JUMPDEST SWAP3 POP POP POP DUP1 SWAP2 POP POP SWAP3 SWAP2 POP POP JUMP JUMPDEST PUSH0 DUP2 SWAP1 POP SWAP2 SWAP1 POP JUMP JUMPDEST PUSH0 DUP2 SWAP1 POP SWAP2 SWAP1 POP JUMP JUMPDEST PUSH0 PUSH2 0xB55 PUSH2 0xB50 PUSH2 0xB4B DUP5 PUSH2 0xB29 JUMP JUMPDEST PUSH2 0xB32 JUMP JUMPDEST PUSH2 0x76F JUMP JUMPDEST SWAP1 POP SWAP2 SWAP1 POP JUMP JUMPDEST PUSH2 0xB65 DUP2 PUSH2 0xB3B JUMP JUMPDEST DUP3 MSTORE POP POP JUMP JUMPDEST PUSH0 PUSH1 0x60 DUP3 ADD SWAP1 POP DUP2 DUP2 SUB PUSH0 DUP4 ADD MSTORE PUSH2 0xB83 DUP2 DUP7 PUSH2 0xA02 JUMP JUMPDEST SWAP1 POP PUSH2 0xB92 PUSH1 0x20 DUP4 ADD DUP6 PUSH2 0x554 JUMP JUMPDEST PUSH2 0xB9F PUSH1 0x40 DUP4 ADD DUP5 PUSH2 0xB5C JUMP JUMPDEST SWAP5 SWAP4 POP POP POP POP JUMP JUMPDEST PUSH0 DUP2 MLOAD SWAP1 POP PUSH2 0xBB5 DUP2 PUSH2 0x8AA JUMP JUMPDEST SWAP3 SWAP2 POP POP JUMP JUMPDEST PUSH0 PUSH1 0x20 DUP3 DUP5 SUB SLT ISZERO PUSH2 0xBD0 JUMPI PUSH2 0xBCF PUSH2 0x4D9 JUMP JUMPDEST JUMPDEST PUSH0 PUSH2 0xBDD DUP5 DUP3 DUP6 ADD PUSH2 0xBA7 JUMP JUMPDEST SWAP2 POP POP SWAP3 SWAP2 POP POP JUMP JUMPDEST PUSH0 PUSH2 0xBF0 DUP3 PUSH2 0x628 JUMP JUMPDEST SWAP1 POP SWAP2 SWAP1 POP JUMP JUMPDEST PUSH2 0xC00 DUP2 PUSH2 0xBE6 JUMP JUMPDEST DUP2 EQ PUSH2 0xC0A JUMPI PUSH0 PUSH0 REVERT JUMPDEST POP JUMP JUMPDEST PUSH0 DUP2 CALLDATALOAD SWAP1 POP PUSH2 0xC1B DUP2 PUSH2 0xBF7 JUMP JUMPDEST SWAP3 SWAP2 POP POP JUMP JUMPDEST PUSH0 PUSH0 PUSH1 0x40 DUP4 DUP6 SUB SLT ISZERO PUSH2 0xC37 JUMPI PUSH2 0xC36 PUSH2 0x4D9 JUMP JUMPDEST JUMPDEST PUSH0 PUSH2 0xC44 DUP6 DUP3 DUP7 ADD PUSH2 0xC0D JUMP JUMPDEST SWAP3 POP POP PUSH1 0x20 PUSH2 0xC55 DUP6 DUP3 DUP7 ADD PUSH2 0x8C0 JUMP JUMPDEST SWAP2 POP POP SWAP3 POP SWAP3 SWAP1 POP JUMP JUMPDEST PUSH0 PUSH1 0x40 DUP3 ADD SWAP1 POP DUP2 DUP2 SUB PUSH0 DUP4 ADD MSTORE PUSH2 0xC77 DUP2 DUP6 PUSH2 0xA02 JUMP JUMPDEST SWAP1 POP PUSH2 0xC86 PUSH1 0x20 DUP4 ADD DUP5 PUSH2 0x554 JUMP JUMPDEST SWAP4 SWAP3 POP POP POP JUMP JUMPDEST PUSH0 PUSH0 REVERT JUMPDEST PUSH32 0x4E487B7100000000000000000000000000000000000000000000000000000000 PUSH0 MSTORE PUSH1 0x41 PUSH1 0x4 MSTORE PUSH1 0x24 PUSH0 REVERT JUMPDEST PUSH2 0xCC7 DUP3 PUSH2 0x977 JUMP JUMPDEST DUP2 ADD DUP2 DUP2 LT PUSH8 0xFFFFFFFFFFFFFFFF DUP3 GT OR ISZERO PUSH2 0xCE6 JUMPI PUSH2 0xCE5 PUSH2 0xC91 JUMP JUMPDEST JUMPDEST DUP1 PUSH1 0x40 MSTORE POP POP POP JUMP JUMPDEST PUSH0 PUSH2 0xCF8 PUSH2 0x4D0 JUMP JUMPDEST SWAP1 POP PUSH2 0xD04 DUP3 DUP3 PUSH2 0xCBE JUMP JUMPDEST SWAP2 SWAP1 POP JUMP JUMPDEST PUSH0 PUSH8 0xFFFFFFFFFFFFFFFF DUP3 GT ISZERO PUSH2 0xD23 JUMPI PUSH2 0xD22 PUSH2 0xC91 JUMP JUMPDEST JUMPDEST PUSH2 0xD2C DUP3 PUSH2 0x977 JUMP JUMPDEST SWAP1 POP PUSH1 0x20 DUP2 ADD SWAP1 POP SWAP2 SWAP1 POP JUMP JUMPDEST DUP3 DUP2 DUP4 MCOPY PUSH0 DUP4 DUP4 ADD MSTORE POP POP POP JUMP JUMPDEST PUSH0 PUSH2 0xD59 PUSH2 0xD54 DUP5 PUSH2 0xD09 JUMP JUMPDEST PUSH2 0xCEF JUMP JUMPDEST SWAP1 POP DUP3 DUP2 MSTORE PUSH1 0x20 DUP2 ADD DUP5 DUP5 DUP5 ADD GT ISZERO PUSH2 0xD75 JUMPI PUSH2 0xD74 PUSH2 0xC8D JUMP JUMPDEST JUMPDEST PUSH2 0xD80 DUP5 DUP3 DUP6 PUSH2 0xD39 JUMP JUMPDEST POP SWAP4 SWAP3 POP POP POP JUMP JUMPDEST PUSH0 DUP3 PUSH1 0x1F DUP4 ADD SLT PUSH2 0xD9C JUMPI PUSH2 0xD9B PUSH2 0x57C JUMP JUMPDEST JUMPDEST DUP2 MLOAD PUSH2 0xDAC DUP5 DUP3 PUSH1 0x20 DUP7 ADD PUSH2 0xD47 JUMP JUMPDEST SWAP2 POP POP SWAP3 SWAP2 POP POP JUMP JUMPDEST PUSH0 PUSH0 PUSH1 0x40 DUP4 DUP6 SUB SLT ISZERO PUSH2 0xDCB JUMPI PUSH2 0xDCA PUSH2 0x4D9 JUMP JUMPDEST JUMPDEST PUSH0 DUP4 ADD MLOAD PUSH8 0xFFFFFFFFFFFFFFFF DUP2 GT ISZERO PUSH2 0xDE8 JUMPI PUSH2 0xDE7 PUSH2 0x4DD JUMP JUMPDEST JUMPDEST PUSH2 0xDF4 DUP6 DUP3 DUP7 ADD PUSH2 0xD88 JUMP JUMPDEST SWAP3 POP POP PUSH1 0x20 PUSH2 0xE05 DUP6 DUP3 DUP7 ADD PUSH2 0xBA7 JUMP JUMPDEST SWAP2 POP POP SWAP3 POP SWAP3 SWAP1 POP JUMP JUMPDEST PUSH0 DUP2 MLOAD SWAP1 POP SWAP2 SWAP1 POP JUMP JUMPDEST PUSH0 DUP3 DUP3 MSTORE PUSH1 0x20 DUP3 ADD SWAP1 POP SWAP3 SWAP2 POP POP JUMP JUMPDEST PUSH0 PUSH2 0xE33 DUP3 PUSH2 0xE0F JUMP JUMPDEST PUSH2 0xE3D DUP2 DUP6 PUSH2 0xE19 JUMP JUMPDEST SWAP4 POP PUSH2 0xE4D DUP2 DUP6 PUSH1 0x20 DUP7 ADD PUSH2 0xD39 JUMP JUMPDEST PUSH2 0xE56 DUP2 PUSH2 0x977 JUMP JUMPDEST DUP5 ADD SWAP2 POP POP SWAP3 SWAP2 POP POP JUMP JUMPDEST PUSH0 DUP2 ISZERO ISZERO SWAP1 POP SWAP2 SWAP1 POP JUMP JUMPDEST PUSH2 0xE75 DUP2 PUSH2 0xE61 JUMP JUMPDEST DUP3 MSTORE POP POP JUMP JUMPDEST PUSH0 PUSH1 0x40 DUP3 ADD SWAP1 POP DUP2 DUP2 SUB PUSH0 DUP4 ADD MSTORE PUSH2 0xE93 DUP2 DUP6 PUSH2 0xE29 JUMP JUMPDEST SWAP1 POP PUSH2 0xEA2 PUSH1 0x20 DUP4 ADD DUP5 PUSH2 0xE6C JUMP JUMPDEST SWAP4 SWAP3 POP POP POP JUMP INVALID LOG2 PUSH5 0x6970667358 0x22 SLT KECCAK256 PUSH10 0x98D7C3C05273CD6D93C0 0xA5 SHL 0xBC CODESIZE 0xAA 0x2D SLT RJUMPI 0x4C76 0x26 0xB0 0xAB DUP5 DUP8 0xCA PUSH23 0x32CE1A3564736F6C634300082200330000000000000000 "},"methodIdentifiers":{"getUserOpHash((address,uint256,bytes,bytes,bytes32,uint256,bytes32,bytes,bytes))":"22cdde4c","handleOps((address,uint256,bytes,bytes,bytes32,uint256,bytes32,bytes,bytes)[])":"57956b58"}}}}}